S01400004672656552544F53323536302E7372656379
S1130000DCC100000BC2000009C2000007C20000EE
S113001005C2000003C2000001C20000FFC10000CD
S1130020FDC10000FBC10000F9C10000F7C10000E0
S1130030F5C100000C943911F1C10000EFC10000BA
S1130040EDC10000EBC10000E9C10000E7C1000000
S11300500C94D812E3C10000E1C100000C946B259C
S1130060DDC100000C948E200C948E21D7C10000B9
S1130070D5C10000D3C10000D1C10000CFC1000030
S1130080CDC10000CBC10000C9C10000C7C1000040
S11300900C94CE200C94CD21C1C100000C94581AAC
S11300A0BDC10000BBC10000B9C10000B7C1000060
S11300B0B5C10000B3C10000B1C10000AFC1000070
S11300C0ADC10000ABC10000A9C100000C940E2119
S11300D00C940C22A3C100000C944E210C944B22CE
S11300E09DC10000084AD73B3BCE016E84BCBFFDD6
S11300F0C12F3D6C74319ABD56833DDA3D00C77FF4
S113010011BED9E4BB4C3E916BAAAABE000000808C
S11301103F05A84CCDB2D44EB93836A9020C50B91B
S1130120918688083CA6AAAA2ABE000000803F0047
S11301309226962686268C26DB269A26A026A62696
S1130140AC26B226B826BE26C426DB26CA26D0266E
S1130150D6264572726F722072656164696E67207B
S113016073656E736F7200693263526561642074E3
S1130170696D656F757400693263526561642066E8
S113018061696C65643A2000693263577269746509
S1130190206661696C65643A20000000090A02085F
S11301A00B0C0D0706030401000000000000000012
S11301B0000000000000000000000000000000003B
S11301C000000000000011100F00000000000000FB
S11301D0000000000000000000000000000000001B
S11301E00102102020080810204010204080020145
S11301F0020108040201010204081020408080402A
S11302002010080402018004020180402010080428
S113021002010804020101020408102040800102C6
S1130220040810204080050505050705080808088E
S1130230020202020A0A080804040404010101017A
S11302400101010103030303030303030407070775
S11302500C0C0C0C0C0C0C0C02020202060606061A
S1130260060606060B0B0B0B0B0B0B0B00002000FA
S11302702300260029002C002F003200000100007A
S113028003010601090100002200250028002B00BB
S11302902E003100340002010000050108010B01A9
S11302A000002100240027002A002D003000330024
S11302B001010000040107010A0100407A10F35A09
S11302C000A0724E18090010A5D4E80000E8764892
S11302D0170000E40B54020000CA9A3B000000E13E
S11302E0F505000080969800000040420F000000D1
S11302F0A08601000000102700000000E8030000B1
S113030000006400000000000A000000000001007A
S1130310000000002C76D888DC674F0823DFC1DF9B
S1130320AE59E1B1B796E5E3E453C63AE65199769E
S113033096E8E6C28426EB898C9B62ED407C6FFCD8
S1130340EFBC9C9F40F2BAA56FA5F490055A2AF71A
S11303505C936B6CF9676DC11BFCE0E40D47FEF523
S113036020E6B500D0ED902E03009435770500808B
S1130370841E080000204E0A000000C80C333333EA
S1130380330F986E12831141EF8D2114893BE6558A
S113039016CFFEE6DB18D1844B381BF77C1D901D6D
S11303A0A4BBE424203284725E228100C9F124ECCF
S11303B0A1E53D2775064C1C512311241FBECFEF28
S11303C0D1E2DEBFCDBF00E00CBF12E0A0E0B2E09E
S11303D0E6EBF4E500E00BBF02C007900D92AC3FE2
S11303E0B107D9F72CE1ACEFB2E001C01D92A33400
S11303F0B207E1F713E0CAEBD3E000E006C02297AE
S11304000109FE010BBF0E948627C43BD10780E08F
S11304100807A9F70E94370F0C94592AF1CD2F929F
S11304203F924F925F926F927F928F929F92AF9280
S1130430BF92CF92DF92EF92FF920F931F93CF93CD
S1130440DF93CDB7DEB76C970FB6F894DEBF0FBE5F
S1130450CDBF1C014D8B5E8B6F8B788FC901B801AA
S1130460D10150962D913D914D915C915397298BDB
S11304703A8B4B8B5C8B0E944F1C9B01AC01F101AE
S1130480648B758B868B978BC701B6010E942D1FD9
S1130490D1011C962D913D914D915C911F970E9425
S11304A0501C6D877E878F87988BD10194962D91F0
S11304B03D914D915C91979729833A834B835C835B
S11304C0C701B6010E942D1F4B015C01D1015C964E
S11304D02D913D914D915C915F972D833E834F8388
S11304E0588790962D913D914D915C9193972987D2
S11304F03A874B875C872D813E814F8158850E94C6
S11305004F1C29853A854B855C850E944F1CF1015F
S113051020813181428153810E94501C9B01AC0196
S1130520C701B6010E942D1FD10158962D913D910E
S11305304D915C915B970E94501C2B013C01A501DD
S113054094016D817E818F8198850E944F1C6D83FB
S11305507E838F839887A501940169857A858B852D
S11305609C850E944F1C69877A878B879C87F10141
S11305702481358146815781C701B6010E942D1F10
S11305809B01AC0169817A818B819C810E94501C02
S1130590698F7A8F8B8F9C8FD10118962D913D9105
S11305A04D915C911B97C301B2010E94501C6B01D9
S11305B07C01F10164AB75AB86AB97AB9B01AC01DD
S11305C0C301B2010E941D1D4B015C01D10198962B
S11305D06D937D938D939C939B97A7019601698559
S11305E07A858B859C850E941D1D6B017C01F10120
S11305F064A775A786A797A72D853E854F8558893B
S11306006D897E898F89988D0E944F1C69837A83B6
S11306108B839C83D101D0966D937D938D939C9312
S1130620D3979B01AC01C501B4010E942D1F9B010E
S1130630AC016D857E858F8598890E94501C6D87DD
S11306407E878F87988BF101648775878687978764
S113065029813A814B815C81C701B6010E942D1F1B
S11306609B01AC0169897A898B899C890E94501C01
S1130670D10150966D937D938D939C935397A301D1
S11306809201C501B4010E942D1F9B01AC01C3015D
S1130690B2010E944F1C2B013C01F101608F718F4C
S11306A0828F938F2D813E814F815885C501B4017E
S11306B00E942D1F9B01AC016D817E818F819885E5
S11306C00E944F1C4B015C01D1015C966D937D939C
S11306D08D939C935F97A3019201C701B6010E9479
S11306E02D1F9B01AC0169857A858B859C850E94B1
S11306F04F1CF10160A371A382A393A3A5019401EC
S1130700C701B6010E942D1F9B01AC01698D7A8D32
S11307108B8D9C8D0E944F1CD10194966D937D937B
S11307208D939C9397976D857E858F8598896C961C
S11307300FB6F894DEBF0FBECDBFDF91CF911F91EE
S11307400F91FF90EF90DF90CF90BF90AF909F906C
S11307508F907F906F905F904F903F902F9008956F
S11307608F929F92AF92BF92CF92DF92EF92FF92BD
S1130770C0906403D0906503E0906603F090670333
S11307808090680390906903A0906A03B0906B0313
S1130790A7019601C501B4010E94C31C21EE3EE2EB
S11307A045E652E40E942D1F60934603709347036D
S11307B08093480390934903A5019401C501B401B2
S11307C00E942D1F4B015C01A7019601C701B601D0
S11307D00E942D1F9B01AC01C501B4010E94501C55
S11307E00E949A1F9B01AC0180916C0390916D0350
S11307F0A0916E03B0916F03BC01CD0190580E948B
S11308001D1D0E94EE1C21EE3EE245E652E40E94CC
S11308102D1F60934203709343038093440390938A
S11308204503FF90EF90DF90CF90BF90AF909F90E3
S11308308F9008954F925F926F927F928F929F92C2
S1130840AF92BF92CF92DF92EF92FF92CF93DF935A
S1130850CDB7DEB764970FB6F894DEBF0FBECDBF39
S1130860209100033091010340910203509103034E
S113087060915003709151038091520390915303FE
S11308800E942D1F2B013C0180914C0390914D033C
S1130890A0914E03B0914F03BC01CD01905820911B
S11308A004033091050340910603509107030E940D
S11308B02D1F6B017C018091540390915503A091ED
S11308C05603B0915703BC01CD0190582091FC020E
S11308D03091FD024091FE025091FF020E942D1FB3
S11308E020910602309107024091080250910902BA
S11308F00E944F1C4B015C01609354037093550399
S1130900809356039093570320910A0230910B026F
S113091040910C0250910D02C301B2010E944F1C80
S113092069837A838B839C83609350037093510310
S1130930809352039093530320910E0230910F023F
S11309404091100250911102C701B6010E944F1C40
S11309506B017C0160934C0370934D0380934E03B1
S113096090934F0325E33AEF4EE85CE36091220352
S11309707091230380912403909125030E942D1FDD
S11309802B013C0125E33AEF4EE85CE360911E0342
S113099070911F0380912003909121030E942D1FC9
S11309A06D877E878F87988BC301B2010E94901F49
S11309B06D837E838F839887C301B2010E941A1DC1
S11309C069877A878B879C876D857E858F859889D3
S11309D00E941A1D9B01AC016D857E858F859889C7
S11309E0298B3A8B4B8B5C8B0E94901F2B013C0113
S11309F029893A894B895C89C501B4010E942D1F5C
S1130A004B015C01A301920169817A818B819C81F4
S1130A100E942D1F2D813E814F8158850E942D1FDC
S1130A209B01AC01C501B4010E94501C4B015C0147
S1130A30A3019201C701B6010E942D1F29853A85A1
S1130A404B855C850E942D1F9B01AC01C501B4013F
S1130A500E94501C4B015C012D813E814F815885C1
S1130A60C701B6010E942D1F6B017C0129853A85BF
S1130A704B855C8569817A818B819C810E942D1FC5
S1130A809B01AC01C701B6010E944F1C9058A501FF
S1130A9094010E94C31C21EE3EE245E652E40E940A
S1130AA02D1FDC01CB01B05880933E0390933F038C
S1130AB0A0934003B093410364960FB6F894DEBF4D
S1130AC00FBECDBFDF91CF91FF90EF90DF90CF901D
S1130AD0BF90AF909F908F907F906F905F904F905A
S1130AE008958130910549F46130710511F461E094
S1130AF001C060E08091140218C0029721F46130B3
S1130B00710581F408C06130710539F461E08091A8
S1130B1014020E941A2761E006C060E0809114026A
S1130B200E941A2760E0809112020C941A27CF9237
S1130B30DF92EF92FF92CF93DF93EC0122E12C9F9F
S1130B40C0012D9F900D1124825E9B4F0E940B11BA
S1130B5069E370E00E944A2780E090E00E94B61D9D
S1130B606B017C012196C230D105F1F024F4C1302F
S1130B70D10521F04CC025977CF149C020E030E03C
S1130B8040E752E40E94161D87FF41C020E030E098
S1130B90A901C701B6010E94221F1816C4F5D093FB
S1130BA06904C093680433C020E030E040E752E4B5
S1130BB00E94161D87FF2BC020E030E0A901C70169
S1130BC0B6010E94221F181614F581E090E090935C
S1130BD06704809366041BC020E030E040EA52E4DE
S1130BE00E94161D87FF13C020E030E0A901C70151
S1130BF0B6010E94221F181654F481E090E09093ED
S1130C006704809366049093690480936804DF9179
S1130C10CF91FF90EF90DF90CF90089520E049E1CD
S1130C2050E060E070E080911804909119040E94F3
S1130C306D14813009F052C0109269041092680456
S1130C40109267041092660480E090E070DF81E007
S1130C5090E06DDF82E090E06ADF83E090E067DFA0
S1130C608091680490916904019729F461E070E02F
S1130C7081E090E036DF80916604909167040197EB
S1130C8029F461E070E082E090E02BDF8091680459
S1130C9090916904892B29F460E070E081E090E090
S1130CA020DF8091660490916704892B29F460E029
S1130CB070E082E090E015DF20E040E050E060E08A
S1130CC070E080911804909119040E94E0130E942E
S1130CD0161288EE93E00E949F17A0CF68E172E09D
S1130CE088EF99E10E94AE24FFCF0F931F9328EC65
S1130CF030E04BE26AE28EE194E00E94451028EC79
S1130D0030E04DE26CE280E394E00E94451028EC70
S1130D1030E041E360E382E494E00E94451028EC73
S1130D2030E043E362E384E594E00E9445100FE67B
S1130D3012E123E83AE30093E0031093E1032093E4
S1130D40E2033093E30346EA5BE964E47BE3409324
S1130D50E4035093E5036093E6037093E7038FE89D
S1130D6092ECA5EFBCE38093E8039093E903A0938E
S1130D70EA03B093EB031092EC031092ED0310928C
S1130D80EE031092EF031092F0031092F10310920D
S1130D90F2031092F3031092F8031092F9031092E5
S1130DA0FA031092FB031092FC031092FD031092BD
S1130DB0FE031092FF03109200041092010410929B
S1130DC00204109203041092040410920504109279
S1130DD00604109207040093A8031093A903209318
S1130DE0AA033093AB034093AC035093AD036093D9
S1130DF0AE037093AF038093B0039093B103A093B9
S1130E00B203B093B3031092B4031092B5031092DB
S1130E10B6031092B7031092B8031092B90310925C
S1130E20BA031092BB031092C0031092C103109234
S1130E30C2031092C3031092C4031092C50310920C
S1130E40C6031092C7031092C8031092C9031092EC
S1130E50CA031092CB031092CC031092CD031092CC
S1130E60CE031092CF030093700310937103209369
S1130E707203309373034093740350937503609328
S1130E807603709377038093780390937903A09308
S1130E907A03B0937B0310927C0310927D0310922B
S1130EA07E0310927F0310928003109281031092AC
S1130EB08203109283031092880310928903109284
S1130EC08A0310928B0310928C0310928D0310925C
S1130ED08E0310928F03109290031092910310923C
S1130EE0920310929303109294031092950310921C
S1130EF09603109297031F910F910895EF92FF921A
S1130F000F931F93CF93DF931F92CDB7DEB7162FA6
S1130F107A01682F80E499E129830E94301C612FB3
S1130F2080E499E10E94DD1B2981422F50E0B70142
S1130F3080E499E10E94B11B602F80E499E10E9452
S1130F403A1C182F882369F068E871E088EF99E16A
S1130F500E9446244AE050E0612F88EF99E10E9404
S1130F605625812F0F90DF91CF911F910F91FF9004
S1130F70EF9008950F93CF93DF931F92CDB7DEB711
S1130F804983022F21E0AE014F5F5F4FB7DF0F901F
S1130F90DF91CF910F910895CF92DF92EF92FF925C
S1130FA00F931F93CF93DF93D82FC62FF42EE52EE4
S1130FB0122F682F80E499E10E94301C6C2F80E48A
S1130FC099E10E94DD1B60E080E499E10E943A1CF3
S1130FD0C82F882379F067E771E088EF99E10E94D0
S1130FE046244AE050E06C2F88EF99E10E94562590
S1130FF08C2F40C021E0412F6D2F80E499E10E94A5
S1131000241C0F2DCF2DDE2D8C2F801B811718F55E
S113101080E499E10E94861B892BB1F40E94C125CA
S11310206B017C010E94C1256C197D098E099F0901
S1131030683E73408105910580F480E499E10E9443
S1131040861B892B51F4EECF80E499E10E948E1B1C
S113105088832196D9CF80E00DC080E499E10E9475
S1131060861B892B89F767E671E088EF99E10E9476
S11310709E2485E0DF91CF911F910F91FF90EF9017
S1131080DF90CF9008952EE048E053E06BE388E6CC
S113109083DF8111F8CF6091080370E0762F662713
S11310A080910903682B882777FD8095982F0E94EB
S11310B0B81D60936C0370936D0380936E039093DB
S11310C06F0380910A0390E0982F882720910B03E7
S11310D0822B66277727681B790B882777FD8095F5
S11310E0982F0E94B81D60936803709369038093DE
S11310F06A0390936B0360910C0370E0762F66276C
S113110080910D03682B882777FD8095982F0E9486
S1131110B81D609364037093650380936603909392
S1131120670380910E0390E0982F882720910F0386
S1131130822B90934B0380934A036091100370E0D9
S1131140762F662771956195710980911103682B3B
S1131150882777FD8095982F0E94B81D60936003BF
S1131160709361038093620390936303609112030D
S113117070E0762F662780911303682B882777FD0C
S11311808095982F0E94B81D60935C0370935D0353
S113119080935E0390935F036091140370E0762F55
S11311A0662771956195710980911503682B8827CD
S11311B077FD8095982F0E94B81D60935803709313
S11311C0590380935A0390935B03089526E048E003
S11311D053E063E08EE1E0DE8111F8CF6091080313
S11311E070E0762F662780910903682B882777FDA6
S11311F08095982F0E94B81D6093540370935503F3
S1131200809356039093570360910A0370E0762FFE
S1131210662780910B03682B882777FD8095982F8C
S11312200E94B81D60934C0370934D0380934E034A
S113123090934F0360910C0370E0762F66278091A2
S11312400D03682B882777FD8095982F0E94B81D81
S1131250609350037093510380935203909353030C
S113126008954F925F926F927F928F929F92AF9266
S1131270BF92CF92DF92EF92FF92CF93DF93CDB7DD
S1131280DEB72C970FB6F894DEBF0FBECDBF21E0BA
S113129041E160E08EE16EDE64E670E080E090E0C3
S11312A00E94E72593DF6091540370915503809168
S11312B05603909157030E94851D2B013C016091B8
S11312C050037091510380915203909153030E94F3
S11312D0851D6B017C0160914C0370914D038091DD
S11312E04E0390914F030E94851D69837A838B83FB
S11312F09C8321E042E160E08EE13CDE64E670E044
S113130080E090E00E94E72561DF609154037091D2
S1131310550380915603909157030E94851D6D8358
S11313207E838F83988760915003709151038091DD
S11313305203909153030E94851D4B015C016091FF
S11313404C0370914D0380914E0390914F030E9482
S1131350851D69877A878B879C8721E040E160E05F
S11313608EE108DE6D817E8164197509882777FD19
S11313708095982F0E94B81D9B01AC0160E070E439
S11313808CE195EC0E941D1D6093FC027093FD029C
S11313908093FE029093FF028C189D08B401882765
S11313A077FD8095982F0E94B81D9B01AC0160E0E9
S11313B070E48CE195EC0E941D1D60930003709312
S11313C00103809302039093030369857A858981DD
S11313D09A81681B790B882777FD8095982F0E9446
S11313E0B81D9B01AC0160E070E48CE195EC0E94B7
S11313F01D1D60930403709305038093060390936B
S113140007032C960FB6F894DEBF0FBECDBFDF9155
S1131410CF91FF90EF90DF90CF90BF90AF909F90CF
S11314208F907F906F905F904F900895CF93DF934C
S1131430CDB7DEB7CA5BD1090FB6F894DEBF0FBED5
S1131440CDBF20E042E350E060E070E080911804FA
S1131450909119040E946D14813009F00EC413DEBA
S1131460B5DE0E94C125C0901603D0901703E0900A
S11314701803F09019036C197D098E099F090E94C5
S1131480B61D20E034E244E759E40E941D1D4B01DF
S11314905C010E94C1256093160370931703809327
S11314A01803909319035CD920E030E043E053E43F
S11314B06091600370916103809162039091630372
S11314C00E941D1DC155DF4F688379838A839B83E6
S11314D0CF5AD04020E030E043E053E460915C0315
S11314E070915D0380915E0390915F030E941D1DC6
S11314F0C555DF4F688379838A839B83CB5AD04059
S1131500409046035090470360904803709049030D
S113151020E030E044EB52ECC301B2010E94161DFE
S113152087FF10C020E030E044EB52E460912203D6
S11315307091230380912403909125030E94221F1C
S11315401816D4F020E030E044EB52E4C301B201B9
S11315500E94221F18168CF520E030E044EB52EC78
S113156060912203709123038091240390912503B9
S11315700E94161D87FF21C04092EC035092ED0398
S11315806092EE037092EF0340922E0350922F0369
S113159060923003709231034092220350922303ED
S11315A0609224037092250340923A0350923B03C5
S11315B060923C0370923D0318C075016401C155EB
S11315C0DF4F088119812A813B81CF5AD040B30172
S11315D0A20180EE93E00E940F02609322037093B5
S11315E023038093240390932503C0902203D09077
S11315F02303E0902403F090250320E030E0A901C8
S1131600C701B6010E94221F18165CF420E030E0E6
S113161044EB52E4C701B6010E94221F18165CF085
S11316201BC020E030E044EB52ECC701B6010E943D
S1131630161D87FF11C0C555DF4F88819981AA8186
S1131640BB81CB5AD040B058C555DF4F88839983AE
S1131650AA83BB83CB5AD0404091420350914303A9
S1131660609144037091450375016401C555DF4FD2
S1131670088119812A813B81CB5AD04088EA93E0C2
S11316800E940F0260931E0370931F038093200334
S113169090932103CFD820E030E043E053E46091FD
S11316A058037091590380915A0390915B030E94EF
S11316B01D1DCD54DF4F688379838A839B83C35B6D
S11316C0D04040903E0350903F03609040037090A0
S11316D0410320E030E044EB52ECC301B2010E942C
S11316E0161D87FF10C020E030E044EB52E4609107
S11316F01A0370911B0380911C0390911D030E9497
S1131700221F1816D4F020E030E044EB52E4C30169
S1131710B2010E94221F18168CF520E030E044EB41
S113172052EC60911A0370911B0380911C039091F9
S11317301D030E94161D87FF21C040927C03509216
S11317407D0360927E0370927F0340922603509241
S11317502703609228037092290340921A0350923F
S11317601B0360921C0370921D034092320350923B
S11317703303609234037092350318C07501640119
S1131780CD54DF4F088119812A813B81C35BD0404E
S1131790B301A20180E793E00E940F0260931A0351
S11317A070931B0380931C0390931D03A501940164
S11317B0C155DF4F688179818A819B81CF5AD0409E
S11317C00E942D1F6B017C0120913A0330913B0351
S11317D040913C0350913D030E94501CC155DF4F82
S11317E0688379838A839B83CF5AD04060933A037A
S11317F070933B0380933C0390933D03A5019401B4
S1131800C555DF4F688179818A819B81CB5AD0404D
S11318100E942D1FC954DF4F688379838A839B8379
S1131820C75BD04020913603309137034091380391
S1131830509139030E94501C2B013C0160933603E4
S1131840709337038093380390933903A50194016F
S1131850CD54DF4F688179818A819B81C35BD040FD
S11318600E942D1F4B015C01209132033091330300
S113187040913403509135030E94501CC555DF4FED
S1131880688379838A839B83CB5AD04060933203E5
S113189070933303809334039093350320912E0384
S11318A030912F034091300350913103C701B601A9
S11318B00E94501C2BE734E14EE65FE30E942D1F8B
S11318C06B017C0129E23CE54FE85DE3609146034E
S11318D07091470380914803909149030E942D1F02
S11318E09B01AC01C701B6010E94501C60932E03FA
S11318F070932F03809330039093310320912A0334
S113190030912B0340912C0350912D03C954DF4F88
S1131910688179818A819B81C75BD0400E94501C79
S11319202BE734E14EE65FE30E942D1F6B017C013F
S113193029E23CE54FE85DE3609142037091430383
S113194080914403909145030E942D1F9B01AC019B
S1131950C701B6010E94501C60932A0370932B03A5
S113196080932C0390932D03C0903E03D0903F03AB
S1131970E0904003F0904103209126033091270327
S11319804091280350912903C501B4010E94501CC1
S11319902BE734E14EE65FE30E942D1F4B015C010F
S11319A029E23CE54FE85DE3C701B6010E942D1F23
S11319B09B01AC01C501B4010E94501C6093260335
S11319C070932703809328039093290320E030E049
S11319D044E353ECC155DF4F688179818A819B814F
S11319E0CF5AD0400E94161D87FD10C020E030E081
S11319F044E353E4C155DF4F688179818A819B8137
S1131A00CF5AD0400E94221F181684F480912203DA
S1131A1090912303A0912403B091250380933A036A
S1131A2090933B03A0933C03B0933D0320E030E04C
S1131A3044E353ECC301B2010E94161D87FD0AC0A2
S1131A4020E030E044E353E4C301B2010E94221FCA
S1131A50181684F480911E0390911F03A091200313
S1131A60B09121038093360390933703A0933803F6
S1131A70B093390320E030E044E353ECC555DF4F25
S1131A80688179818A819B81CB5AD0400E94161D3E
S1131A9087FD10C020E030E044E353E4C555DF4F38
S1131AA0688179818A819B81CB5AD0400E94221F10
S1131AB0181684F480911A0390911B03A0911C03BF
S1131AC0B0911D038093320390933303A0933403A6
S1131AD0B093350320E030E040E858E360916803B8
S1131AE07091690380916A0390916B030E942D1F8A
S1131AF02DEC3CEC4CE151E40E942D1F2B013C01E8
S1131B0020E030E040E858E360916403709165039D
S1131B1080916603909167030E942D1F2DEC3CEC8D
S1131B204CE151E40E942D1F4B015C0120E030E0A8
S1131B3044EB53E4C701B6010E94501C20E030E09E
S1131B4044EB53E40E94FA1D6B017C0120E030E079
S1131B5040E858E360916C0370916D0380916E03CB
S1131B6090916F030E942D1F2DEC3CEC4CE151E44D
S1131B700E942D1F8E010F551F4F22E043E00E944B
S1131B808A270A50110922E043E0C301B2010E94EE
S1131B908A270A50110922E043E0C501B4010E94DA
S1131BA08A270A50110922E043E0C701B6010E94C6
S1131BB08A270E94B5252AE0AE014B595F4F0E9447
S1131BC0C52765E472E0CE0101960E94BE27BE01DE
S1131BD06F557F4FCE0101960E94B32764E672E0F1
S1131BE0CE0101960E94B327BE0169567F4FCE01F4
S1131BF001960E94B3276BE672E0CE0101960E9423
S1131C00B327BE0163577F4FCE0101960E94B327CD
S1131C1062E772E0CE0101960E94B327B801CE01BB
S1131C2001960E94B32766E872E0CE0101960E94F5
S1131C30B327BE016B597F4FCE0101960E94B32793
S1131C4067E972E0CE0101960E94B327BE016F5F7F
S1131C507F4F88EF99E10E94AE2420E040E050E0FD
S1131C6060E070E08091180490911904A9D5DED346
S1131C7082E390E00E949F17E4CB69E972E088EF69
S1131C8099E10E94AE24FFCF0F9380E499E10E9472
S1131C901B1C40E052EC61E070E088EF99E10E9487
S1131CA0CE2288EF99E10E94F31F892BD1F388EFAC
S1131CB099E10E941C20682F88EF99E10E94BE24BC
S1131CC088EF99E10E94F31F892BD1F388EF99E102
S1131CD00E941C208CE08093B80087E08093080366
S1131CE01092090310920A0310920B0300E024E0FF
S1131CF048E053E069E188E601D98111F7CF21E09A
S1131D0041E06BE688E636D98111F9CF21E048E05D
S1131D1053E065E788E640D98111F8CF8091080344
S1131D20883639F062E571E088EF99E10E94462433
S1131D30FFCF21E042E067E388E61CD98111F9CFA7
S1131D4021E040E062E08EE115D98111F9CF89DA12
S1131D5064E670E080E090E00E94E72594D936DAEA
S1131D600E94B0030E941A04809146039091470395
S1131D70A0914803B09149038093EC039093ED0341
S1131D80A093EE03B093EF0380933A0390933B0345
S1131D90A0933C03B0933D0380932E0390932F03B1
S1131DA0A0933003B0933103809142039091430395
S1131DB0A0914403B09145038093B4039093B50379
S1131DC0A093B603B093B70380933603909337037D
S1131DD0A0933803B093390380932A0390932B0381
S1131DE0A0932C03B0932D0380913E0390913F0365
S1131DF0A0914003B091410380937C0390937D03B1
S1131E00A0937E03B0937F038093320390933303B4
S1131E10A0933403B0933503809326039093270350
S1131E20A0932803B09329030E94C125609316034D
S1131E307093170380931803909319030E94B52598
S1131E406C597F4F8F4F9F4F60931A0470931B04FC
S1131E5080931C0490931D0461E0809114020E94FD
S1131E60DC2661E0809112020F910C94DC26AF9283
S1131E70BF92CF92DF92EF92FF920F93CF93DF93B3
S1131E8000D01F92CDB7DEB70E941A26FDDE43E0D4
S1131E9060E081E06ED49093190480931804009755
S1131EA031F020E040E050E060E070E089D4A12C03
S1131EB0B12CC12CD12CCE0103967C0101E020E091
S1131EC030E040E052E066EC72E08EE096E0FED551
S1131ED0CE0101967C0102E020E030E040E052E0D7
S1131EE062ED72E086E19AE0F1D5DCD680E090E024
S1131EF00F900F900F900F90DF91CF910F91FF9063
S1131F00EF90DF90CF90BF90AF900895CF93DF9381
S1131F10EC01F8D680916A0490916B04892B31F41A
S1131F208FE694E090936B0480936A0420916C0490
S1131F3030916D04CE01820F931F8F3F43E19407CC
S1131F4070F42817390758F4C0916A04D0916B04CF
S1131F50C20FD31F90936D0480936C0402C0C0E041
S1131F60D0E082D7CE01DF91CF9108950895FC018E
S1131F700396928381832FEF3FEF348323839683E9
S1131F8085839087878310820895FC0111861086CB
S1131F900895CF93DF939C01FB01DC011196CD9151
S1131FA0DC911297D383C2838C819D819583848332
S1131FB08C819D81DC0113967C936E9312977D83B3
S1131FC06C8331872087F90180818F5F8083DF9163
S1131FD0CF9108950F931F93CF93DF938C01FB014F
S1131FE0208131812F3F8FEF380721F4E801AF8141
S1131FF0B8850EC0D801139612968D919C911397B3
S1132000EC01488159812417350710F0DC01F4CF25
S113201012968D919C91139793838283EC01FD8397
S1132020EC83B583A4831396FC93EE9312971187E4
S11320300087F80180818F5F8083DF91CF911F91AA
S11320400F910895CF93DF93FC01A085B185828120
S1132050938124813581EC013D832C83C481D58116
S11320609B838A8311968D919C9112978E179F075B
S113207021F41296DC93CE931197118610868C91DD
S113208081508C93DF91CF910895CF93DF93DC013E
S113209070E0FB01E052FE4FE4911496EC93149728
S11320A0842F90E0FC01E052FE4FE4911596EC93EE
S11320B015976A5D7D4FFB01C491D0E0CC0FDD1F05
S11320C0CA57DD4FFE014591549117965C934E9388
S11320D01697FC01EA5DFD4F849190E0880F991FEB
S11320E084599D4FFC01459154911B965C934E93EA
S11320F01A97FB016491E62FF0E0EE0FFF1FE05604
S1132100FD4F8591949119969C938E931897C901CC
S1132110253FF1E03F0714F084EF91E049E3489F45
S11321209001499F300D1124245E3F4F1D963C932E
S11321302E931C97DF91CF9108950F931F93CF9304
S1132140DF93EC01E885F98580819C81892B80836C
S1132150EE81FF8190818C8180958923808384E046
S113216090E00E940F26EE81FF8180819C81892B63
S113217080838AE090E00E940F26EE81FF819081A7
S11321808C81809589238083E885F98590818C8171
S11321908095892380830E94C125605B794B8F4F92
S11321A09F4F6E877F87888B998BEA85FB8580811B
S11321B09D81892359F00E94C1250E851F85288998
S11321C03989061717072807390778F7EA85FB8541
S11321D080819D81892369F40E94C1250E851F8514
S11321E028893989061717072807390778F780E0FF
S11321F00DC00E94C1252C853D85620F731F811D72
S1132200911D6E877F87888B998B81E0DF91CF91B9
S11322101F910F9108950F931F93CF93DF93EC01B8
S11322208CDF882389F0EA85FB8580819D81892361
S113223071F00E94C1250E851F85288939890617EA
S113224017072807390778F720E030E00CC00E9410
S1132250C1252C853D85255031094E855F85241B7C
S1132260350B260F371FC901DF91CF911F910F91B5
S113227008951F920F920FB60F9211240BB60F926E
S11322802F933F934F935F936F937F938F939F937A
S1132290AF93BF93EF93FF93E0916E18F0916F1893
S11322A0309709F01995FF91EF91BF91AF919F91EC
S11322B08F917F916F915F914F913F912F910F90EB
S11322C00BBE0F900FBE0F901F90189531E1FC01CB
S11322D03083319722E220833197A3E3A08331979F
S11322E060833197708331971082319710823197D0
S11322F060E86083319710823197108231971082A1
S1132300319762E06083319763E06083319764E0E2
S11323106083319765E06083319766E0608331972D
S113232067E06083319768E06083319769E0608398
S1132330319760E1608331973083319732E13083A4
S1132340319733E13083319734E13083319735E18C
S11323503083319736E13083319737E130833197D9
S113236038E13083319739E13083319730E230837B
S1132370319731E2308331972083319723E22083F0
S11323803197408331975083319726E220833197E8
S113239027E22083319728E22083319729E22083A2
S11323A0319720E32083319721E32083899708958F
S11323B01092800081E18093810080E49FE19093FA
S11323C087008093860081E080936F00A091D018ED
S11323D0B091D118CD91CDBFDD91DEBFFF91EF91CA
S11323E0DF91CF91BF91AF919F918F917F916F9129
S11323F05F914F913F912F911F910F91FF90EF901B
S1132400DF90CF90BF90AF909F908F907F906F9010
S11324105F904F903F902F901F900F900CBE0F90A5
S11324200BBE0F900FBE0F90089508950F920FB634
S1132430F8940F920CB60F920BB60F921F921124C0
S11324402F923F924F925F926F927F928F929F92C0
S1132450AF92BF92CF92DF92EF92FF920F931F93AE
S11324602F933F934F935F936F937F938F939F9398
S1132470AF93BF93CF93DF93EF93FF93A091D018C3
S1132480B091D1180DB60D920EB60D92A8D5A091AB
S1132490D018B091D118CD91CDBFDD91DEBFFF91A1
S11324A0EF91DF91CF91BF91AF919F918F917F91E8
S11324B06F915F914F913F912F911F910F91FF90D9
S11324C0EF90DF90CF90BF90AF909F908F907F90D0
S11324D06F905F904F903F902F901F900F900CBE85
S11324E00F900BBE0F900FBE0F9008950F920FB672
S11324F0F8940F920CB60F920BB60F921F92112400
S11325002F923F924F925F926F927F928F929F92FF
S1132510AF92BF92CF92DF92EF92FF920F931F93ED
S11325202F933F934F935F936F937F938F939F93D7
S1132530AF93BF93CF93DF93EF93FF93A091D01802
S1132540B091D1180DB60D920EB60D92E1D3811152
S113255046D5A091D018B091D118CD91CDBFDD91C1
S1132560DEBFFF91EF91DF91CF91BF91AF919F912A
S11325708F917F916F915F914F913F912F911F9117
S11325800F91FF90EF90DF90CF90BF90AF909F900E
S11325908F907F906F905F904F903F902F901F90FF
S11325A00F900CBE0F900BBE0F900FBE0F900895AE
S11325B09DDF18951F93CF93DF93EC01142F4C8D5F
S11325C041110BC088819981892B09F040C08A810F
S11325D09B8145D61B821A823BC050E0111115C065
S11325E08C819D810E94AA272C8D8C819D81820FD4
S11325F0911D9D838C832A813B818217930738F137
S1132600888199819D838C8322C08E819F810E94C1
S1132610AA272C8D30E03195219531098E819F8137
S1132620820F931F9F838E83688179818617970712
S113263030F48A819B81820F931F9F838E83123093
S113264031F48A8D882319F08A8D81508A8F80E035
S11326509A8D9F5F9A8FDF91CF911F910895FC010E
S1132660CB01448D4423A1F050E026813781240F0F
S1132670351F37832683628173812617370720F03D
S11326802081318137832683668177810C94AA2740
S113269008950F931F93CF93DF93EC010FB6F89433
S11326A00F928C010F5E1F4F8E8D18165CF4898972
S11326B0882341F0C801FED4811178D58E8D8150D4
S11326C08E8FF2CF8FEF8E8F0F900FBE0FB6F894D0
S11326D00F928E01085F1F4F8D8D18165CF488854C
S11326E0882341F0C801E6D4811160D58D8D8150D5
S11326F08D8FF2CF8FEF8D8F0F900FBEDF91CF9123
S11327001F910F910895CF93DF93EC010FB6F894C6
S11327100F92288139818B8D7C8D879FC001112474
S1132720A901480F591F5B834A831A8E3D832C836A
S1132730871B9109820F931F9F838E838FEF8D8F49
S11327408E8F61110AC08885882369F0CE010896AE
S1132750B1D4813041F46ADE06C0CE01089607DCAC
S1132760CE01419604DC0F900FBE81E0DF91CF9142
S113277008950F931F93CF93DF93182F062F882369
S1132780B9F08FE190E0C2DBEC01009789F0109F73
S1132790C00111240196BADB99838883892B31F017
S11327A01B8F0C8F61E0CE01AEDF04C0CE01DEDBF7
S11327B0C0E0D0E0CE01DF91CF911F910F91089539
S11327C0BF92CF92DF92EF92FF920F931F93CF931A
S11327D0DF9300D01F921F92CDB7DEB78C016B013F
S11327E05D834C83B22E20E07C0188E0E80EF11C6E
S11327F00FB6F8940F92F801928D838D981718F004
S1132800F2E0BF1215C04B2DB601C801D3DEF801AA
S11328109189992339F0C80141964CD4813021F42F
S113282005DE02C08111FCCF0F900FBE81E046C0CF
S11328308C819D81892B19F40F900FBE3EC021110C
S113284003C0CE01019676D40F900FBE5BD20FB6B3
S1132850F8940F92F801858D8F3F09F4158EF801D5
S1132860868D8F3F09F4168E0F900FBEBE016C5FEC
S11328707F4FCE01019669D481111CC00FB6F89424
S11328800F92F801928D0F900FBEF801838D98136B
S11328900DC06C817D81C701E2D3C801FADEE4D2A8
S11328A0882311F021E0A4CFC1DDFCCFC801F1DE03
S11328B0DBD2F8CFC801EDDED7D280E00F900F90C5
S11328C00F900F900F90DF91CF911F910F91FF9078
S11328D0EF90DF90CF90BF900895BF92CF92DF9298
S11328E0EF92FF920F931F93CF93DF9300D01F9229
S11328F01F92CDB7DEB78C016B015D834C83B22E82
S113290030E07C0181E1E80EF11C0FB6F8940F92DF
S1132910F801828D882361F1E680F780B601C80151
S11329209EDEF801B11016C0828D8150828F8081A5
S11329309181892B21F4CCD4F80193838283F8010B
S11329408085882389F0C8010896B4D3813061F466
S11329506DDD0AC0F782E6828189882329F0C801E7
S11329604196A8D38111F4CF0F900FBE81E052C0DD
S11329708C819D81892B19F40F900FBE4AC03111AF
S113298003C0CE010196D6D30F900FBEBBD10FB6B4
S1132990F8940F92F801858D8F3F09F4158EF80194
S11329A0868D8F3F09F4168E0F900FBEBE016C5FAB
S11329B07F4FCE010196C9D3811128C00FB6F89478
S11329C00F92F801828D0F900FBE81111BC0F80188
S11329D080819181892B49F40FB6F8940F92F80104
S11329E082819381E7D30F900FBE6C817D81C701F3
S11329F036D3C8014EDE38D2882311F031E085CFBA
S1132A0015DDFCCFC80145DE2FD2F8CFC80141DE69
S1132A102BD280E00F900F900F900F900F90DF91CA
S1132A20CF911F910F91FF90EF90DF90CF90BF90C7
S1132A300895E0919818F09199188081811103C04C
S1132A408FEF9FEF0CC0E0919818F09199180580D2
S1132A50F681E02D0680F781E02D828193819093A9
S1132A601702809316020895CF93DF93EC01E0914F
S1132A70D018F091D1189383828380917718909124
S1132A8078186091D0187091D118C817D90748F4F4
S1132A9080919618909197186E5F7F4FDF91CF9138
S1132AA099CA80919818909199186E5F7F4F92DA25
S1132AB08091160290911702C817D90720F4D09379
S1132AC01702C0931602DF91CF9108955F926F921F
S1132AD07F928F929F92AF92BF92CF92DF92EF92AA
S1132AE0FF920F931F93CF93DF934C01162F572E12
S1132AF05A01390183E290E009DAEC01009709F404
S1132B00C0C0C114D10419F4C50100DA01C0C60162
S1132B10988F8F8B009719F4CE0128DAB2C021E088
S1132B20A21AB108A80EB91EE12FF52D80E090E09D
S1132B30BF0141919E01280F391FD90159964C9329
S1132B40DB012C91222321F001968830910581F735
S1132B5018A2102F043008F013E01E8B19A31AA238
S1132B606E01B2E0CB0ED11CC6010FDACE010C9679
S1132B700CDAD987C88784E090E0811B91099D878E
S1132B808C87DB8BCA8BA301B401C5019FDB9983BE
S1132B908883E114F10419F0F701D183C0830FB6DF
S1132BA0F8940F92809179188F5F809379188091AF
S1132BB0D0189091D118892B89F5D093D118C0934E
S1132BC0D01880917918813009F037C08CEA98E1E7
S1132BD0CED985EB98E1CBD98EEB98E1C8D987ECB7
S1132BE098E1C5D983EA98E1C2D98AE998E1BFD9C5
S1132BF08DE898E1BCD984E898E1B9D98AE798E1ED
S1132C00B6D983EA98E190939918809398188AE941
S1132C1098E190939718809396180FC08091751837
S1132C2081110BC0E091D018F091D1188689081752
S1132C3020F0D093D118C093D018809171188F5F71
S1132C40809371188E8990917618981710F4809358
S1132C507618F9E08F9FC0011124B6018455974E70
S1132C6098D90F900FBE80917518882341F0E09198
S1132C70D018F091D1188689801708F4D7DB81E049
S1132C8001C08FEFDF91CF911F910F91FF90EF90D3
S1132C90DF90CF90BF90AF909F908F907F906F9078
S1132CA05F900895AF92BF92CF92DF92EF92FF921E
S1132CB00F93A12CB12CC12CD12CE12CF12C00E0D0
S1132CC020E030E045E550E066ED72E08FEB97E1FF
S1132CD0FDDE813079F4F894809375181092781899
S1132CE0109277180F91FF90EF90DF90CF90BF90E4
S1132CF0AF905ECB0F91FF90EF90DF90CF90BF909D
S1132D00AF900895809170188F5F80937018089524
S1132D10CF92DF92EF92FF920F931F93CF93DF93A3
S1132D208091701881118AC08091771890917818D9
S1132D3001969093781880937718009177181091E2
S1132D40781801151105B1F480919818909199188B
S1132D5020919618309197183093991820939818C9
S1132D609093971880939618809172188F5F809330
S1132D7072185FDE8091160290911702D12C081709
S1132D80190708F44AC089E0C82EE0919818F09118
S1132D9099188081811107C08FEF9FEF90931702DC
S1132DA0809316023AC0E0919818F0919918058022
S1132DB0F681E02DC681D7812A813B810217130752
S1132DC028F4309317022093160227C07E0182E074
S1132DD0E80EF11CC70136D92C893D89232B19F043
S1132DE0CE010C962FD92E8980917618821710F473
S1132DF020937618C29EC0011124B7018455974EC2
S1132E00C8D8E091D018F091D1189E898689981776
S1132E1008F4BBCFDD24D394B8CFE091D018F0915F
S1132E20D118E68989E0E89FF0011124E455F74EB2
S1132E308081823048F0DD24D39406C080917418D8
S1132E408F5F80937418D12C80917318882311F0AC
S1132E50DD24D3948D2DDF91CF911F910F91FF909D
S1132E60EF90DF90CF900895EF92FF920F931F930E
S1132E70CF93DF930FB6F8940F928091701881501E
S1132E808093701880917018882311F080E04EC0F0
S1132E90809179188823D1F399E0F92EEE24E394F4
S1132EA080918D18882339F1E0919218F09193184C
S1132EB0C681D781CE010C96C5D88E010E5F1F4FF7
S1132EC0C801C0D88E8990917618981710F4809311
S1132ED07618F89EC0011124B8018455974E59D82C
S1132EE0E091D018F091D1189E8986899817C0F284
S1132EF0E0927318D5CF80917418811108C0809125
S1132F007318813009F0C2CF91DA81E00FC0C1E0BB
S1132F1080917418882399F3FBDE8111C093731890
S1132F2080917418815080937418F2CF0F900FBE63
S1132F30DF91CF911F910F91FF90EF9008950F9320
S1132F401F93CF93DF938C01009711F46FDA12C0B3
S1132F50D9DEC0917718D0917818C00FD11F809115
S1132F60D0189091D11802966DD8CE017DDD7CDF0A
S1132F70882361F3DF91CF911F910F910895809180
S1132F808318882331F1BEDEC09184186DDFCC2311
S1132F90B1F30FB6F8940F92E0918918F0918A1862
S1132FA0C681D781CE0102964DD88091791881507F
S1132FB080937918809183188150809383180F909F
S1132FC00FBE8F89988D0E94B60FCE010E94B60F56
S1132FD0D6CF8091AC18823090F228DAD0CF80918D
S1132FE07018882321F081E080937318089510925B
S1132FF0731899E0E09176189E9FF0011124E4552E
S1133000F74E8081811106C080917618815080939B
S11330107618F0CFE091761889E0E89FF00111244A
S1133020E455F74EA181B28112960D90BC91A02D6A
S1133030B283A183CF010396A817B90731F412967E
S11330408D919C911397928381830180F281E02D6D
S1133050868197819093D1188093D0180895CF9347
S1133060DF93EB016091D0187091D118645F7F4FAA
S11330700E94EA0F8091D0189091D11802960E9474
S11330802210CF3F8FEFD80761F46091D018709170
S1133090D1186E5F7F4F8AE798E1DF91CF910C944E
S11330A0C90F80917718909178188C0F9D1FDF912C
S11330B0CF91DACC0F931F93CF93DF93DC01159656
S11330C0ED91FC911697C681D7818E01045F1F4F45
S11330D0C8010E94221080917018811114C00A50F6
S11330E01109C8010E9422108E89909176189817B0
S11330F010F480937618B9E08B9FC0011124B801B5
S11331008455974E03C0B8018DE898E10E94C90F19
S1133110E091D018F091D1189E898689891720F4FE
S113312081E08093731801C080E0DF91CF911F91FB
S11331300F91089520917218FC0120832091771833
S113314030917818328321830895CF93DF930FB69B
S1133150F8940F92E0917718F0917818DB014D9173
S11331605C914F3FBFEF5B07C9F0B0917218EC015F
S1133170A88129813A81BA1719F0E217F30780F47C
S1133180DF01A21BB30BA417B50750F42E1B3F0B92
S1133190240F351FFB0131832083CCDF80E001C085
S11331A081E00F900FBEDF91CF91089581E080936D
S11331B0731808950F931F93CF93DF93EC01009737
S11331C009F448C08E89E091D018F091D1189689FD
S11331D0891708F03FC02C853D8537FD0BC0E09171
S11331E0D018F091D118968924E030E0291B3109D8
S11331F03D872C8729E0829FC00111248455974E76
S11332002A853B8528173907F9F48E010E5F1F4F75
S1133210C8010E942210E091D018F091D11886893B
S11332208E8B90917618981710F48093761829E075
S1133230829FC0011124B8018455974EDF91CF912C
S11332401F910F910C94C90FE091D018F091D118EF
S113325086898E8BDF91CF911F910F9108950F93E3
S11332601F93CF93DF93EC01009711F480E02BC000
S11332708AA181508AA32E8999A12917B9F38111B2
S1133280F5CF8E010E5F1F4FC8010E94221089A145
S11332908E8B482F50E024E030E0241B350B3D8713
S11332A02C8790917618981710F48093761829E05B
S11332B0249FC001259F900D1124B8018455974E79
S11332C00E94C90F81E0DF91CF911F910F91089562
S11332D08091D0189091D118892B39F0E091D018B1
S11332E0F091D11882A18F5F82A38091D018909120
S11332F0D118089510923F1981E080933D191092DE
S11333003C1961E084E10E941A2761E085E10E9492
S11333101A27E9EBF0E080818E7F808380818D7FA6
S1133320808388E48093B80085E48093BC0008958A
S1133330413208F03FC090913F199111FCCF91E0C8
S113334090933F1920933D192FEF2093D218109298
S11333501719240F2093161990933E1990913E1932
S1133360880F892B80933E1980913C19813041F458
S113337010923C1980913E198093BB0085EC01C0EA
S113338085EE8093BC0080913F198130E1F38091F8
S11333901719841710F44091171928E139E1FB013A
S11333A0D9018A2F821B841718F48D918193F9CF48
S11333B0842F089580E008950F93413208F046C0A9
S11333C090913F199111FCCF92E090933F19009393
S11333D03D199FEF9093D218109217194093161924
S11333E0FB0168E179E1DB019A2F961B941718F42D
S11333F091919D93F9CF10923E1990913E19880FA7
S1133400892B80933E1980913C19813041F41092AC
S11334103C1980913E198093BB0085EC01C085EE78
S11334208093BC00222321F080913F198230E1F384
S11334308091D2188F3F61F08091D218803251F080
S11334408091D218803341F483E007C081E005C045
S113345080E003C082E001C084E00F9108956132EE
S113346098F420913F19243089F46093F418FC01F6
S113347086EF98E1DC012A2F281B261718F42191E6
S11334802D93F9CF80E0089581E0089582E00895B6
S113349085ED8093BC008091BC0084FDFCCF10922C
S11334A03F19089585EC8093BC0010923F1908954C
S11334B01F920F920FB60F9211240BB60F922F93F7
S11334C03F934F935F936F937F938F939F93AF93A8
S11334D0BF93EF93FF938091B900887F803609F4FE
S11334E09CC068F5883209F45BC090F4803109F41B
S11334F054C038F4882309F4F3C0883009F44DC06B
S1133500F2C0883109F44CC0803209F45DC0EBC0CC
S1133510803409F468C048F4803309F455C0883312
S113352009F0E1C08093D218A7C0803509F44FC0D8
S1133530883509F45DC0883409F0D5C0D3C0883912
S113354009F4C4C0A8F4883709F467C038F488368D
S113355009F463C0803709F460C0C5C0883809F431
S1133560B5C0803909F45FC0803809F0BCC05BC0C5
S1133570803B09F483C038F4803A09F466C0883A81
S113358009F47CC0B0C0803C09F4A4C0883C09F4B0
S1133590A1C0883B09F487C0A6C080913E1910C021
S11335A09091171980911619981770F5E0911719D1
S11335B081E08E0F80931719F0E0E85EF64E80816B
S11335C08093BB0085EC83C08093D2188BC0E091BC
S11335D0171981E08E0F809317198091BB00F0E0DA
S11335E0E85EF64E808390911719809116196BC08E
S11335F0E091171981E08E0F809317198091BB0019
S1133600F0E0E85EF64E808380913D1981116AC036
S113361081E080933C1984EA5EC083E080933F1983
S11336201092D318CFCF8091D318803208F04EC0B7
S1133630E091D31881E08E0F8093D3188091BB0062
S1133640F0E0EC52F74E8083BDCF8091D3188032E6
S113365030F4E091D318F0E0EC52F74E108218DF0A
S11336606091D31870E0E0913819F091391984ED24
S113367098E119951092D31815DF35C084E0809332
S11336803F191092F5181092F418E0913A19F0913C
S11336903B1919958091F418811105C081E080933C
S11336A0F4181092F618E091F51881E08E0F8093CB
S11336B0F518F0E0EA50F74E80818093BB009091BA
S11336C0F5188091F418981708F47CCF85E8809356
S11336D0BC0009C085EC8093BC0010923F1903C064
S11336E01092D218D5DEFF91EF91BF91AF919F91C7
S11336F08F917F916F915F914F913F912F910F9097
S11337000BBE0F900FBE0F901F90189580917019EB
S113371090E020917119821B9109089520917119EB
S113372080917019281750F4E22FF0E0EE58F64E0D
S1133730808190E02F5F2093711908958FEF9FEFA0
S11337400895E091711980917019E81730F4F0E050
S1133750EE58F64E808190E008958FEF9FEF089524
S11337600895CF92DF92EF92FF920F931F93CF931E
S1133770DF937C01CB018A0120914C19222389F02B
S1133780EB016B01C40ED51ECC15DD0561F069910A
S1133790D701ED91FC910190F081E02DC7011995BD
S11337A0F3CF642F5CDEC801DF91CF911F910F919D
S11337B0FF90EF90DF90CF900895CF93DF931F9207
S11337C0CDB7DEB7698320914C192223D1F0209123
S11337D04D19203240F021E030E0FC013383228394
S11337E080E090E014C080914E19E82FF0E0E15B96
S11337F0F64E998190838F5F80934E1980934D1973
S113380004C061E0CE0101962ADE81E090E00F90D1
S1133810DF91CF910895FC011382128248EE53E0A8
S113382060E070E044835583668377838FED92E094
S113383091838083089510927119109270191092D7
S11338404E1910924D1956CD862F413208F040E2A0
S113385062E779E16DDD1092711980937019089512
S113386081E080934C1960936F1910924E19109255
S11338704D1908950F93062F21E040914D196FE4DF
S113388079E180916F1998DD10924E1910924D19BB
S113389010924C190F91089580E499E1BCCF5058CF
S11338A0BB27AA270ED083C24CD230F051D220F0CD
S11338B031F49F3F11F41EF41CC20EF4E095E7FBB3
S11338C004C2E92F96D280F3BA17620773078407FC
S11338D0950718F071F49EF5AEC20EF4E0950B2E28
S11338E0BA2FA02D0B01B90190010C01CA01A0014E
S11338F01124FF27591B99F0593F50F4503E68F1A9
S11339001A16F040A22F232F342F4427585FF3CFE9
S1133910469537952795A795F0405395C9F77EF4BA
S11339201F16BA0B620B730B840BBAF09150A1F003
S1133930FF0FBB1F661F771F881FC2F70EC0BA0F89
S1133940621F731F841F48F4879577956795B79511
S1133950F7959E3F08F0B3CF9395880F08F0992709
S1133960EE0F979587950895ECD158F080E891E093
S113397009F49EEFEDD128F040E851E059F45EEFF0
S113398009C0B7C158C2E92FE07833D268F3092ED1
S1133990052AC1F3261737074807590738F00E2EB2
S11339A007F8E02569F0E025E0640AC0EF6307F852
S11339B0009407FADB01B9019D01DC01CA01AD01E4
S11339C0EF934AD0F4D10AD05F91552331F02BED17
S11339D03FE049E450FD49EC63CF0895DF93DD27D0
S11339E0B92FBF7740E85FE31616170648075B0751
S11339F010F4D92F2BD29F938F937F936F93D8D2A8
S1133A00E4EEF0E079D1D3D12F913F914F915F91C2
S1133A1030D2DD2349F09058A2EA2AED3FE049EC88
S1133A205FE3D0785D274DDFDF91C1C12AD108F46F
S1133A3081E0089595D1E395CBC10CD0B8C188D16C
S1133A4040F07FD130F021F45F3F19F03EC15111B5
S1133A50F3C14FC1CED198F39923C9F35523B1F3E0
S1133A60951B550BBB27AA2762177307840738F0E9
S1133A709F5F5F4F220F331F441FAA1FA9F333D048
S1133A800E2E3AF0E0E830D091505040E695001CFC
S1133A90CAF729D0FE2F27D0660F771F881FBB1FB8
S1133AA0261737074807AB07B0E809F0BB0B802D92
S1133AB0BF01FF2793585F4F2AF09E3F510568F0DE
S1133AC004C1BAC15F3FECF3983EDCF38695779569
S1133AD06795B795F7959F5FC9F7880F911D9695E0
S1133AE0879597F90895E1E0660F771F881FBB1F3C
S1133AF0621773078407BA0720F0621B730B840BE9
S1133B00BA0BEE1F88F7E095089504D06894B111BC
S1133B1093C1089576D188F09F5790F0B92F9927D3
S1133B20B751A0F0D1F0660F771F881F991F1AF0C4
S1133B30BA95C9F712C0B13081F07DD1B1E00895D2
S1133B407AC1672F782F8827B85F39F0B93FCCF353
S1133B50869577956795B395D9F73EF490958095BA
S1133B60709561957F4F8F4F9F4F0895E89409C0DA
S1133B7097FB3EF490958095709561957F4F8F4F9C
S1133B809F4F9923A9F0F92F96E9BB279395F695B2
S1133B90879577956795B795F111F8CFFAF4BB0F30
S1133BA011F460FF1BC06F5F7F4F8F4F9F4F16C094
S1133BB0882311F096E911C0772321F09EE8872F1E
S1133BC0762F05C0662371F096E8862F70E060E0DA
S1133BD02AF09A95660F771F881FDAF7880F969553
S1133BE0879597F90895ADD018F011F0B1D038F455
S1133BF080C022C1E92FFDD0B0F35523C9F3E7FB00
S1133C006217730784079507A8F199F3E92FFF2733
S1133C1088232AF03197660F771F881FDAF7952FCC
S1133C205527442332F091505040220F331F441F34
S1133C30D2F7BB27E91BF50B621B730B840BB1098D
S1133C40C1F222F4620F731F841FB11D31972AF051
S1133C50660F771F881FBB1FEFCF915050405AF05B
S1133C6041F0882332F0660F771F881F915050402F
S1133C70C1F7939530C08695779567959F5FD9F77F
S1133C80F8CF990F0008550FAA0BE0E8FEEF1616BF
S1133C901706E807F907C0F012161306E407F5073C
S1133CA098F0621B730B840B950B39F40A2661F0B0
S1133CB0232B242B252B21F408950A2609F4A14053
S1133CC0A6958FEF811D811D089597F99F6780E860
S1133CD070E060E008959F3F31F0915020F48795A3
S1133CE077956795B795880F911D9695879597F960
S1133CF008959FEF80EC0895DF93CF931F930F9364
S1133D00FF92EF92DF927B018C01689405C0DA2E5A
S1133D10EF01AFD0FE01E894A5912591359145912D
S1133D205591AEF3EF01CDDDFE019701A801DA94C0
S1133D3079F7DF90EF90FF900F911F91CF91DF9172
S1133D40089500240A9416161706180609060895FD
S1133D5000240A9412161306140605060895C9CF02
S1133D6050D0E8F3E894E0E0BB279F57F0F02AED49
S1133D703FE049EC06C0EE0FBB0F661F771F881F9C
S1133D8028F0B23A62077307840728F0B25A620B2C
S1133D90730B840BE3959A9572F7803830F49A95F7
S1133DA0BB0F661F771F881FD2F7904896CF092E46
S1133DB00394000C11F4882352F0BB0F40F4BF2B82
S1133DC011F460FF04C06F5F7F4F8F4F9F4F0895C2
S1133DD0EF93E0FF06C0A2EA2AED3FE049EC5FEB77
S1133DE070DDE5DF0F90039401FC9058E1E1F1E010
S1133DF0E9C057FD9058440F551F59F05F3F71F0CB
S1133E004795880F97FB991F61F09F3F79F087953D
S1133E100895121613061406551FF2CF4695F1DFC6
S1133E2008C0161617061806991FF1CF8695710556
S1133E30610508940895E894BB2766277727CB018A
S1133E4097F908951EDF08F48FEF08959B01AC01E4
S1133E5060E070E080E89FE3F0CD0BD0A8CF71DF85
S1133E6028F076DF18F0952309F02FCF42CF1124E4
S1133E70E3CFBFDFA0F3959FD1F3950F50E0551F1B
S1133E80629FF001729FBB27F00DB11D639FAA27AB
S1133E90F00DB11DAA1F649F6627B00DA11D661FFA
S1133EA0829F2227B00DA11D621F739FB00DA11D1B
S1133EB0621F839FA00D611D221F749F3327A00DD5
S1133EC0611D231F849F600D211D822F762F6A2F71
S1133ED011249F5750408AF0E1F088234AF0EE0FF6
S1133EE0FF1FBB1F661F771F881F91505040A9F703
S1133EF09E3F510570F0E9CE9FCF5F3FECF3983EB3
S1133F00DCF3869577956795B795F795E7959F5F69
S1133F10C1F7FE2B880F911D9695879597F9089503
S1133F209F931EDF0F9007FCEE5F52CF11F40EF447
S1133F30E0CED1CE66DFD0F39923D9F3CEF39F57E9
S1133F40550B87FF38D00024A0E640EA9001805842
S1133F505695979528F4805C660F771F881F20F08C
S1133F6026173707480730F4621B730B840B20298C
S1133F7031294A2BA69517940794202531254A27E1
S1133F8058F7660F771F881F20F026173707480752
S1133F9030F4620B730B840B200D311D411DA09571
S1133FA081F7B901842F9158880F969587950895C4
S1133FB09B01AC0152CF91505040660F771F881F70
S1133FC0D2F708959F938F937F936F93FF93EF930B
S1133FD09B01AC0142DFEF91FF918EDE2F913F9167
S1133FE04F915F913ACFFC0124853585F901E05C5E
S1133FF0FF4F80819181329620813181821B930B06
S11340008F7399270895FC0184859585FC01E05CF4
S1134010FF4F4081518132962081318142175307ED
S113402041F020813181FC01E20FF31F808190E097
S113403008958FEF9FEF0895FC0184859585FC0119
S1134040E05CFF4F408151813296208131814217DB
S1134050530781F020813181DC01A20FB31F8C91C1
S1134060208131812F5F3F4F2F733327318320838A
S113407090E008958FEF9FEF0895FC0181A18823BC
S113408029F0A489B5898C9186FFFBCF11A20895EC
S11340901F93CF93DF93EC018E859F85FC01E05C39
S11340A0FF4F0190F081E02D3196EF73FF271E2F13
S11340B07F2FDC01AE5BBF4F212F372F4D915C91D9
S11340C01197E417F507C1F3FC01E05CFF4F408151
S11340D05181FC01E40FF51F6083EE85FF85E05CF0
S11340E0FF4F31832083EE89FF89408121E030E056
S11340F0C9010F8C02C0880F991F0A94E2F7842B20
S1134100808381E089A3EC89FD8980818064808338
S113411081E090E0DF91CF911F9108951F920F925B
S11341200FB60F9211240BB60F922F933F934F9318
S11341308F939F93AF93BF93EF93FF938091C000AE
S113414082FD1AC04091C6008091361C9091371CA4
S113415001968F7399272091381C3091391C82174E
S1134160930761F0E6E3FCE1A081B181AA50B44E6B
S11341704C939183808302C08091C600FF91EF919C
S1134180BF91AF919F918F914F913F912F910F903C
S11341900BBE0F900FBE0F901F9018951F920F9299
S11341A00FB60F9211240BB60F922F933F934F9398
S11341B08F939F93AF93BF93EF93FF938091C80026
S11341C082FD1AC04091CE008091AE1B9091AF1B2E
S11341D001968F7399272091B01B3091B11B8217E0
S11341E0930761F0EEEAFBE1A081B181A259B44EDC
S11341F04C939183808302C08091CE00FF91EF9114
S1134200BF91AF919F918F914F913F912F910F90BB
S11342100BBE0F900FBE0F901F9018951F920F9218
S11342200FB60F9211240BB60F922F933F934F9317
S11342308F939F93AF93BF93EF93FF938091D0009D
S113424082FD1AC04091D6008091261B9091271BB5
S113425001968F7399272091281B3091291B82176F
S1134260930761F0E6E2FBE1A081B181AA51B54E6A
S11342704C939183808302C08091D600FF91EF918B
S1134280BF91AF919F918F914F913F912F910F903B
S11342900BBE0F900FBE0F901F9018951F920F9298
S11342A00FB60F9211240BB60F922F933F934F9397
S11342B08F939F93AF93BF93EF93FF9380913001BC
S11342C082FD1AC04091360180919E1A90919F1AE6
S11342D001968F7399272091A01A3091A11A821701
S11342E0930761F0EEE9FAE1A081B181A25AB54EDB
S11342F04C939183808302C080913601FF91EF91AA
S1134300BF91AF919F918F914F913F912F910F90BA
S11343100BBE0F900FBE0F901F9018951F920F9217
S11343200FB60F9211240BB60F922F933F938F93D6
S11343309F93AF93BF93EF93FF932091F21B309120
S1134340F31B8091F41B9091F51B2817390731F466
S1134350E1ECF0E080818F7D808310C0E4EFFBE12D
S1134360A081B181AE54B44E2C918081918101968B
S11343708F739927918380832093C600FF91EF91D7
S1134380BF91AF919F918F913F912F910F900BBE51
S11343900F900FBE0F901F9018951F920F920FB69B
S11343A00F9211240BB60F922F933F938F939F93E9
S11343B0AF93BF93EF93FF9320916A1B30916B1BD4
S11343C080916C1B90916D1B2817390731F4E9EC2F
S11343D0F0E080818F7D808310C0ECE6FBE1A0815A
S11343E0B181A65DB44E2C918081918101968F7329
S11343F09927918380832093CE00FF91EF91BF9101
S1134400AF919F918F913F912F910F900BBE0F9081
S11344100FBE0F901F9018951F920F920FB60F9218
S113442011240BB60F922F933F938F939F93AF93C7
S1134430BF93EF93FF932091E21A3091E31A809196
S1134440E41A9091E51A2817390731F4E1EDF0E008
S113445080818F7D808310C0E4EEFAE1A081B18178
S1134460AE55B54E2C918081918101968F73992719
S1134470918380832093D600FF91EF91BF91AF91F8
S11344809F918F913F912F910F900BBE0F900FBE74
S11344900F901F9018951F920F920FB60F92112430
S11344A00BB60F922F933F938F939F93AF93BF932A
S11344B0EF93FF9320915A1A30915B1A80915C1A02
S11344C090915D1A2817390731F4E1E3F1E0808116
S11344D08F7D808310C0ECE5FAE1A081B181A65EF6
S11344E0B54E2C918081918101968F739927918388
S11344F0808320933601FF91EF91BF91AF919F91FB
S11345008F913F912F910F900BBE0F900FBE0F9084
S11345101F9018958F929F92AF92BF92CF92DF9285
S1134520EF92FF920F931F93CF93DF93CDB7DEB734
S1134530FC011382128288EE93E0A0E0B0E0848351
S11345409583A683B7838FEE92E0918380837587EA
S1134550648757874687318B208B138B028BF58AB0
S1134560E48AD78AC68AB18EA08E938E828E888979
S1134570848F8989858F8A89868F8B89878F8C8997
S113458080A3DF91CF911F910F91FF90EF90DF9067
S1134590CF90BF90AF909F908F900895CF92DF926D
S11345A0EF92FF92CF93DF93EC016A017B014115F7
S11345B081EE58076105710501F1EC89FD8981E0FF
S11345C090E008A002C0880F991F0A94E2F7808344
S11345D060E079E08DE390E0A70196016FD4BA0121
S11345E0A90141505109610971097695679557955B
S11345F04795411580E15807A0F0EC89FD891082A8
S113460060E874E88EE190E0A701960157D4BA01FE
S1134610A90141505109610971097695679557952A
S11346204795E889F9895083EA89FB89408319A26F
S1134630EE89FF89408181E090E09C010C8C02C0EE
S1134640220F331F0A94E2F7242B2083EE89FF897B
S113465040819C010D8C02C0220F331F0A94E2F7A3
S1134660242B2083EE89FF8940819C010E8C02C09B
S1134670220F331F0A94E2F7242B2083EE89FF894B
S113468020810F8C02C0880F991F0A94E2F780954D
S113469082238083DF91CF91FF90EF90DF90CF90C2
S11346A008955F926F927F928F929F92AF92BF9282
S11346B0CF92DF92EF92FF920F931F93CF93DF93EA
S11346C0552453945F920F2EF5E06F2EF02D6F92C8
S11346D00F2EF7E07F2EF02D7F92D3E0DF93C4E01E
S11346E0CF930F2EF6EC8F2E912CF02D0F2EF2EC93
S11346F0AF2EB12CF02D0F2EF1ECCF2ED12CF02DAE
S11347000F2EF0ECEF2EF12CF02D04EC10E025EC44
S113471030E042EB5BE166EF7BE188EF99E1FADEA2
S11347205F926F927F92DF93CF930F2EFEEC8F2ECA
S1134730912CF02D0F2EFAECAF2EB12CF02D0F2E64
S1134740F9ECCF2ED12CF02D0F2EF8ECEF2EF12C0E
S1134750F02D0CEC10E02DEC30E04AE25BE16EE66B
S11347607BE186ED99E1D6DE5F926F927F92DF93D3
S1134770CF930F2EF6ED8F2E912CF02D0F2EF2ED00
S1134780AF2EB12CF02D0F2EF1EDCF2ED12CF02D1C
S11347900F2EF0EDEF2EF12CF02D04ED10E025EDB1
S11347A030E042EA5AE166EE7AE184EB99E1B2DE66
S11347B05F926F927F92DF93CF930F2EF6E38F2E4B
S11347C099249394F02D0F2EF2E3AF2EBB24B394CF
S11347D0F02D0F2EF1E3CF2EDD24D394F02D0F2EE8
S11347E0F0E3EF2EFF24F394F02D04E311E025E32E
S11347F031E04AE15AE16EE57AE182E999E18ADE43
S11348008DB79EB744960FB6F8949EBF0FBE8DBF6A
S1134810DF91CF911F910F91FF90EF90DF90CF9098
S1134820BF90AF909F908F907F906F905F9008950E
S1134830CF92DF92EF92FF920F931F93CF93DF9368
S11348406C0141155105B1F0062F172FEA01E12C37
S1134850F12CD8016D918D01D601ED91FC9101905F
S1134860F081E02DC6011995E80EF91E21972097D5
S113487081F702C0E12CF12CC701DF91CF911F9188
S11348800F91FF90EF90DF90CF900895EF92FF92F9
S11348900F931F93CF93DF937C01EB012196FB01D0
S11348A06491662389F000E010E0F701A081B181F2
S11348B0ED91FC91C7011995080F191FFE01649130
S11348C02196662319F0F1CF00E010E0C801DF91D2
S11348D0CF911F910F91FF90EF900895611571058D
S11348E081F0FB0101900020E9F73197AF01461BED
S11348F0570BDC01ED91FC910280F381E02D1995B9
S1134900089580E090E00895DC01ED91FC91019020
S1134910F081E02D199508950F931F93CF93DF93A2
S1134920EC016DE0F1DF8C016AE0CE01EDDF800F78
S1134930911FDF91CF911F910F9108950F931F93B2
S1134940CF93DF93EC01A2DF8C01CE01E5DF800F72
S1134950911FDF91CF911F910F9108950F931F9392
S1134960CF93DF93EC01BADF8C01CE01D5DF800F4A
S1134970911FDF91CF911F910F9108950F931F9372
S1134980CF93DF93EC01C0DF8C01CE01C5DF800F34
S1134990911FDF91CF911F910F9108956F927F9294
S11349A08F929F92AF92BF92CF92DF92EF92FF923B
S11349B00F931F93CF93DF93CDB7DEB7A1970FB6B5
S11349C0F894DEBF0FBECDBF6C01742E352F862F39
S11349D0972F622E19A221E0261520F00F2EFAE05F
S11349E06F2EF02D7E01A1E2EA0EF11C862C912C93
S11349F0A12CB12C672D732FA50194015FD2E22F56
S1134A00732F022F132F242F352FF72D6E9EF0199D
S1134A101124B1E0EB1AF108FA3010F4F05D01C092
S1134A20F95CD701FC93012B022B032B29F07E2E7A
S1134A30372F842F952FDECFE114F10491F0F70185
S1134A4001900020E9F73197AF014E195F09D601B3
S1134A50ED91FC910280F381E02DB701C601199517
S1134A6002C080E090E0A1960FB6F894DEBF0FBEBE
S1134A70CDBFDF91CF911F910F91FF90EF90DF9009
S1134A80CF90BF90AF909F908F907F906F9008953C
S1134A902115310549F4DC01ED91FC910190F0817F
S1134AA0E02D642F1995089579CF08950F931F93DE
S1134AB0CF93DF93EC019A01462F50E060E070E061
S1134AC0E7DF8C01CE0128DF800F911FDF91CF91AA
S1134AD01F910F9108951F920F920FB60F921124F8
S1134AE02F933F938F939F93AF93BF9380913B1CDE
S1134AF090913C1CA0913D1CB0913E1C30913A1CFD
S1134B0023E0230F2D3720F40196A11DB11D05C00C
S1134B1026E8230F0296A11DB11D20933A1C809311
S1134B203B1C90933C1CA0933D1CB0933E1C809175
S1134B303F1C9091401CA091411CB091421C0196D5
S1134B40A11DB11D80933F1C9093401CA093411C58
S1134B50B093421CBF91AF919F918F913F912F9140
S1134B600F900FBE0F901F9018952FB7F894609177
S1134B703B1C70913C1C80913D1C90913E1C2FBFAE
S1134B8008953FB7F89480913F1C9091401CA091E8
S1134B90411CB091421C26B5A89B05C02F3F19F0BB
S1134BA00196A11DB11D3FBFBA2FA92F982F8827A9
S1134BB0820F911DA11DB11DBC01CD01660F771F90
S1134BC0881F991F660F771F881F991F0895CF921A
S1134BD0DF92EF92FF92CF93DF936B017C01D1DFE1
S1134BE0EB01C114D104E104F10491F0CADF6C1BA0
S1134BF07D0B683E734038F081E0C81AD108E108A3
S1134C00F108C851DC4FC114D104E104F10471F777
S1134C10DF91CF91FF90EF90DF90CF9008950197AF
S1134C20009739F0880F991F880F991F02970197F1
S1134C30F1F70895789484B5826084BD84B5816069
S1134C4084BD85B5826085BD85B5816085BDEEE690
S1134C50F0E0808181608083E1E8F0E0108280816F
S1134C6082608083808181608083E0E8F0E08081DD
S1134C7081608083E1EBF0E0808184608083E0EBFD
S1134C80F0E0808181608083E1E9F0E080818260EE
S1134C908083808181608083E0E9F0E080818160AD
S1134CA08083E1EAF0E0808182608083808181609A
S1134CB08083E0EAF0E0808181608083E1E2F1E0DA
S1134CC0808182608083808181608083E0E2F1E082
S1134CD0808181608083EAE7F0E080818460808362
S1134CE0808182608083808181608083808180680C
S1134CF080831092C100089590E0FC013197E13166
S1134D00F10508F058C0E856FF4FFAC0E0E8F0E0BB
S1134D1080818F7780830895E0E8F0E080818F7D43
S1134D208083089584B58F7784BD089584B58F7D7D
S1134D3084BD0895E0EBF0E080818F77808308954F
S1134D40E0EBF0E080818F7D80830895E0E9F0E07E
S1134D5080818F7780830895E0E9F0E080818F7D02
S1134D6080830895E0E9F0E08081877F808308955F
S1134D70E0EAF0E080818F7780830895E0EAF0E054
S1134D8080818F7D80830895E0EAF0E08081877FD1
S1134D9080830895E0E2F1E080818F778083089535
S1134DA0E0E2F1E080818F7D80830895E0E2F1E02C
S1134DB08081877F80830895CF93DF9390E0FC0107
S1134DC0E052FE4F2491FC01EA5DFD4F849188235B
S1134DD071F190E0880F991FFC01E056FD4FA591F9
S1134DE0B4918A579D4FFC01C591D49161110BC0B8
S1134DF08FB7F8949C91209592239C93E8812E235D
S1134E0028838FBF14C0623061F48FB7F8943C914B
S1134E10922F909593239C93E8812E2B28838FBF08
S1134E2006C08FB7F894EC912E2B2C938FBFDF9193
S1134E30CF9108951F93CF93DF93C62F282F30E08F
S1134E40F901E656FE4F8491F901E052FE4F1491A8
S1134E50F901EA5DFD4FD491DD23C1F081114CDFEE
S1134E602D2F30E0F901EE0FFF1FEA57FD4FA591FA
S1134E70B4918FB7F894C11105C0EC9110951E231D
S1134E801C9303C0EC911E2B1C938FBFDF91CF9119
S1134E901F910895AA1BBB1B51E107C0AA1FBB1F8A
S1134EA0A617B70710F0A61BB70B881F991F5A95B2
S1134EB0A9F780959095BC01CD010895A1E21A2E21
S1134EC0AA1BBB1BFD010DC0AA1FBB1FEE1FFF1FAA
S1134ED0A217B307E407F50720F0A21BB30BE40BFA
S1134EE0F50B661F771F881F991F1A9469F7609541
S1134EF07095809590959B01AC01BD01CF010895FB
S1134F00EE0FFF1F0590F491E02D19940790F69190
S1134F10E02D1994EF920F931F93CF93DF93E80141
S1134F2047FF02C034E101C034E0E42FFF27E7FD6E
S1134F30F095F7FF03C0F195E195F109E32E022FF7
S1134F402E2FAE0151D0CE01DF91CF911F910F9141
S1134F50EF900895FB01DC0102C001900D924150D5
S1134F605040D8F70895FB01DC010D900020E9F7CB
S1134F70119701900D920020E1F70895FB01DC01E7
S1134F8001900D920020E1F70895BB272A3051F4D7
S1134F90992342F4BDE290958095709561957F4F79
S1134FA08F4F9F4F01C0BB27FA01A62F62177105CF
S1134FB081059105330B30FB66F0AA27660F771F36
S1134FC0881F991FAA1FA21710F0A21B63953850BF
S1134FD0A9F7A05DAA3308F0A95DA19336F7B11132
S1134FE0B1931082CA0155C26F927F929F92AF9281
S1134FF0BF92CF92DF92EF92FF920F931F93CF93C2
S1135000DF93CDB7DEB729970FB6F894DEBF0FBE96
S1135010CDBF6A01B22E102F0C3320F4FF24F39479
S1135020F00E02C04CE3F42E0F2D27E0AE014F5FCB
S11350305F4F57D17981272F2970213031F0E1FC5E
S113504006C0E0FC06C060E005C06DE203C06BE290
S113505001C060E2AE2DA07173FF36C0662311F06B
S113506084E001C083E08B1510F4B81A01C0B12CA0
S1135070A1110BC0F6018B2D90E2882319F09193B6
S11350808150FBCFCB0CD11CB12C662331F0F6013F
S1135090608396012F5F3F4F6901C6010396E2FECC
S11350A005C02EE4F601208331E404C02EE6F601A7
S11350B0208331E631832283FC012B2D30E222232D
S11350C0F1F131932150FBCF72FF40C0662311F000
S11350D084E001C083E08B1510F4B81A01C0B12C30
S11350E0A1110BC0F6018B2D90E2882319F0919346
S11350F08150FBCFCB0CD11CB12C662331F0F601CF
S1135100608396012F5F3F4F6901C6010396E2FE5B
S113511007C029E4F60120832EE4218326E406C097
S113512029E6F60120832EE6218326E62283FC016C
S11351302B2D30E2222319F031932150FBCFFC01B7
S1135140EB0DF11D10828EEF9FEFB7C0B1E061113E
S113515001C0B0E04B2F50E01816190624F49C014E
S11351602F5F3F4F02C021E030E0240F351F112391
S113517029F0412F50E04F5F5F4F02C040E050E004
S1135180420F531F2B2D30E04217530714F4B41A67
S113519001C0B12C2E2D287159F4F6012B2D30E2CB
S11351A0222319F031932150FBCFCB0CD11CB12C0D
S11351B0BB2331F0F601608396012F5F3F4F6901F5
S11351C0A1110BC0F6012B2D30E3222319F03193EA
S11351D02150FBCFCB0CD11CB12CF80E0A81372FF8
S11351E03071A32E74FF03C0013309F4FA941F1421
S11351F02CF42F2D293018F028E001C021E0682F6D
S1135200392F97FF02C060E030E0462F532F612C06
S1135210712C3EE2932EBC01621B71099B01DC01DF
S1135220A41BB50BE1E0F0E0EC0FFD1FAE0FBF1FB8
S1135230E12EF12CF194E194F1084F3FFFEF5F0769
S113524031F4F6019082B6016F5F7F4F6B018417D2
S113525095074CF02417350734F4BD01660D771D0E
S1135260FB01118101C010E341505109FFEF6F1A96
S11352707F0AB6016F5F7F4F4E155F0524F0F6017C
S113528010836B01DACF4817590739F4063320F439
S1135290053319F4A11001C011E3F6011083FB01D9
S11352A08B2D90E2882319F091938150FBCFFB0161
S11352B0EB0DF11D108280E090E029960FB6F89472
S11352C0DEBF0FBECDBFDF91CF911F910F91FF9035
S11352D0EF90DF90CF90BF90AF909F907F906F90B2
S11352E00895283008F027E03327DA01990F311D9B
S11352F087FD916000966105710539F432602E5F77
S11353003D9330E32A95E1F708959F3F30F08038CC
S11353107105610509F03C5F3C5F3D93913008F0F5
S11353208068911DDF93CF931F930F93FF92EF92A9
S1135330192F987F9695E92F96959695E90FFF2753
S1135340EC5EFC4F99273327EE24FF24A701E701E5
S113535005900894079428F4360FE71EF81E491F99
S1135360511D660F771F881F991F0694A1F705909A
S1135370079428F4E70EF81E491F561FC11D770F26
S1135380881F991F661F0694A1F70590079428F4B7
S1135390F80E491F561FC71FD11D880F991F661F7E
S11353A0771F0694A1F70590079420F4490F561F20
S11353B0C71FD81F990F661F771F881F0694A9F768
S11353C084911095177041F0D695C79557954795D8
S11353D0F794E7941A95C1F7EAEBF2E06894159014
S11353E0159135916591959105907FE27395E1183A
S11353F0F10A430B560BC90BD009C0F7E10CF11E9F
S1135400431F561FC91FD01D7EF4703311F48A95B3
S1135410E6CFE894015030F0080F0AF40027021791
S113542008F4202F2395022F7A3328F079E37D9313
S11354302A95E9F710C07D932A9589F606949795E5
S11354406795379517951794E118F10A430B560B96
S1135450C90BD00998F023957E9173957A3308F09F
S113546070E37C932013B8F77E9170617D9330F0E4
S1135470839571E37D9370E32A95E1F71124EF900E
S1135480FF900F911F91CF91DF91992787FD909500
S11354900895DC01FC01672F71917723E1F73297BE
S11354A004C07C916D9370836291AE17BF07C8F3FB
S10954B00895F894FFCFFB
S11354B60000431C20000000404100009EC2000082
S11354C680C009000800FFFF2A2A205461736B205C
S11354D631204572726F723A20636F756C64206E68
S11354E66F742074616B652073656D6170686F728B
S11354F665202A2A0028616363656C65726F6D6591
S113550674657252656164696E67203D202820784F
S1135516203D20002C2079203D20002C207A203D9F
S113552620002920636F6D7061737352656164692D
S11355366E67203D20002C2063757272656E74546C
S1135546696D65203D200029002A2A205461736B69
S11355562032204572726F723A20636F756C642034
S11355666E6F742074616B652073656D6170686F0E
S11355767265202A2A00556C747261536F6E6963D2
S11355867300494D550049444C450000000000DDB8
S11355961BB11B861B8E1BA11BB01B000000004801
S10F55A6201824F31F1C2003203D2000CB
S9030000FC
