:1000000065C1000093C1000091C100008FC10000D4
:100010008DC100008BC1000089C1000087C10000B4
:1000200085C1000083C1000081C100007FC10000C4
:100030007DC100000C949E0B79C1000077C10000C7
:1000400075C1000073C1000071C100006FC10000E4
:100050006DC100006BC1000069C100000C94D7178E
:1000600065C100000C945D120C945D135FC100002B
:100070005DC100005BC1000059C1000057C1000014
:1000800055C1000053C1000051C100004FC1000024
:100090000C949D120C949C1349C100000C94E00F29
:1000A00045C1000043C1000041C100003FC1000044
:1000B0003DC100003BC1000039C1000037C1000054
:1000C00035C1000033C1000031C100000C94DD12C5
:1000D0000C94DB132BC100000C941D130C941A1408
:1000E00025C10000E610E910E910E910E910E91057
:1000F000E910E9100010E910E910E910E910E91021
:10010000E910E9100010E910E910E910E910E91010
:10011000E910E9100810E910E910E910E910E910F8
:10012000E910E9102D10E910E910E910E910E910C3
:10013000E910E9100810E910E910E910E910E910D8
:10014000E910E9103210E910E910E910E910E9109E
:10015000E910E9103710E910E910E910E910E91089
:10016000E910E9104810E910E910E910E910E91068
:10017000E910E9107110E910E910E910E910E9102F
:10018000E910E9103C10E910E910E910E910E91054
:10019000E910E9105610E910E910E910E910E9102A
:1001A000E910E9107310E910E910E910E910E910FD
:1001B000E910E9107310E910E910E910E910E910ED
:1001C000E910E9107310E910E910E910E910E910DD
:1001D000E910E9107310E910E910E910E910E910CD
:1001E000E910E9107C10E910E910E910E910E910B4
:1001F000E910E910AD10E910E910E910E910E91073
:10020000E910E9107C10E910E910E910E910E91093
:10021000E910E910AD10E910E910E910E910E91052
:10022000E910E9109410E910E910E910E910E9105B
:10023000E910E910B110E910E910E910E910E9102E
:10024000E910E910B110E910E910E910E910E9101E
:10025000E910E910C610E910E910E910E910E910F9
:10026000E910E910E010E910E910E910E910E910CF
:10027000E910E910E010084AD73B3BCE016E84BC80
:10028000BFFDC12F3D6C74319ABD56833DDA3D00F0
:10029000C77F11BED9E4BB4C3E916BAAAABE000039
:1002A00000803F00693263526561642074696D6546
:1002B0006F75740069326352656164206661696CB0
:1002C00065643A200000C601BE119D1411241FBEB2
:1002D000CFEFD1E2DEBFCDBF00E00CBF12E0A0E067
:1002E000B2E0E8EFF6E300E00BBF02C007900D922A
:1002F000AE37B107D9F72CE0AEE7B2E001C01D92EE
:10030000AC3DB207E1F712E0CCECD2E000E006C071
:1003100022970109FE010BBF0E94761BC63CD10744
:1003200080E00807A9F703D00C947A1B69CEAF923E
:10033000BF92CF92DF92EF92FF920F93CF93DF9312
:100340001F921F92CDB7DEB7A12CB12CC12CD12C9E
:10035000CE0101967C0106E020E030E044E054E06C
:1003600068E072E089EE92E00E94F40B0E94EE0CCD
:1003700080E090E00F900F90DF91CF910F91FF9070
:10038000EF90DF90CF90BF90AF9008950F931F93A1
:100390000FE612E123E83AE30093FA021093FB021E
:1003A0002093FC023093FD0246EA5BE964E47BE3C0
:1003B0004093FE025093FF02609300037093010389
:1003C0008FE892ECA5EFBCE38093020390930303C4
:1003D000A0930403B0930503109206031092070341
:1003E000109208031092090310920A0310920B0353
:1003F00010920C0310920D0310921203109213032B
:100400001092140310921503109216031092170302
:10041000109218031092190310921A0310921B03E2
:1004200010921C0310921D0310921E0310921F03C2
:1004300010922003109221030093C2021093C30272
:100440002093C4023093C5024093C6025093C70262
:100450006093C8027093C9028093CA029093CB0242
:10046000A093CC02B093CD021092CE021092CF0294
:100470001092D0021092D1021092D2021092D302A6
:100480001092D4021092D5021092DA021092DB027E
:100490001092DC021092DD021092DE021092DF0256
:1004A0001092E0021092E1021092E2021092E30236
:1004B0001092E4021092E5021092E6021092E70216
:1004C0001092E8021092E9021F910F910895CF92C5
:1004D000DF92EF92FF920F931F93CF93DF93C82F7A
:1004E000F62E172F042F68E689ED99E00E94A211DD
:1004F0006C2F89ED99E00E94561160E089ED99E03A
:100500000E94AC11C82F882379F064EB72E081E976
:100510009AE00E9492154AE050E06C2F81E99AE03F
:100520000E94CA168C2F4CC021E0402F68E689ED4E
:1005300099E00E949611002309F43FC0CF2DD12FDE
:1005400010E089ED99E00E94FC10892B31F089EDD3
:1005500099E00E94041188832BC00E9421186B012E
:100560007C010E942118DC01CB018C199D09AE0988
:10057000BF09883E9340A105B10530F489ED99E0AB
:100580000E94FC10892B69F389ED99E00E94FC1010
:10059000892B31F089ED99E00E940411888308C00D
:1005A00064EA72E081E99AE00E94EA1585E008C0F9
:1005B0001F5F21961013C5CF02C080E001C080E00C
:1005C000DF91CF911F910F91FF90EF90DF90CF902F
:1005D00008952F923F924F925F926F927F928F92E7
:1005E0009F92AF92BF92CF92DF92EF92FF920F93C2
:1005F0001F93CF93DF93CDB7DEB7E4970FB6F89490
:10060000DEBF0FBECDBF6FE072E081E99AE00E94CD
:10061000FA154EE06EE772E08BE359DF8111F9CFF6
:1006200060917E0270E0762F662780917F02682BB2
:10063000882777FD8095982F0E94AD196093BE02A0
:100640007093BF028093C0029093C10260918002B8
:1006500070E0762F662780918102682B882777FDCE
:100660008095982F0E94AD196093BA027093BB02D7
:100670008093BC029093BD026091820270E0762F5D
:10068000662780918302682B882777FD8095982FB5
:100690000E94AD196093B6027093B7028093B802BE
:1006A0009093B9028091840290E0982F882720913E
:1006B0008502822B9093A9028093A8026091860202
:1006C00070E0762F662780918702682B882777FD58
:1006D0008095982F0E94AD196093B2027093B30277
:1006E0008093B4029093B5026091880270E0762FF7
:1006F000662780918902682B882777FD8095982F3F
:100700000E94AD196093AE027093AF028093B00265
:100710009093B10260918A0270E0762F66278091F3
:100720008B02682B882777FD8095982F0E94AD1942
:100730006093AA027093AB028093AC029093AD02D7
:100740000E94211800918C0210918D0220918E023E
:1007500030918F02601B710B820B930B0E94AB19BF
:1007600020E034E244E759E40E9412196D837E834D
:100770008F8398870E94211860938C0270938D025A
:1007800080938E0290938F02C090B602D090B702F1
:10079000E090B802F090B9028090BA029090BB024B
:1007A000A090BC02B090BD02A7019601C501B401A2
:1007B0000E94BB1821EE3EE245E652E40E948D1AEB
:1007C000698B7A8B8B8B9C8BA5019401C501B4013D
:1007D0000E948D1A4B015C01A7019601C701B60169
:1007E0000E948D1A9B01AC01C501B4010E944818FA
:1007F0000E94F41A9B01AC018091BE029091BF024D
:10080000A091C002B091C102BC01CD0190580E94DC
:1008100012190E94E61821EE3EE245E652E40E94DB
:100820008D1A6DA37EA38FA398A720E030E043E04C
:1008300053E46091B2027091B3028091B40290913E
:10084000B5020E9412196DA77EA78FA798AB20E072
:1008500030E043E053E46091AE027091AF028091CA
:10086000B0029091B1020E9412196D8F7E8F8F8F0E
:1008700098A320E030E044EB52EC69897A898B89B7
:100880009C890E940E19882384F420E030E044EB18
:1008900052E4609194027091950280919602909139
:1008A00097020E94821A1816E4F020E030E044EB30
:1008B00052E469897A898B899C890E94821A181668
:1008C000ACF520E030E044EB52EC60919402709182
:1008D000950280919602909197020E940E198823AA
:1008E0002CF589899A89AB89BC89809306039093FA
:1008F0000703A0930803B093090380939C0290938D
:100900009D02A0939E02B0939F02809394029093C5
:100910009502A0939602B09397028093A4029093BD
:10092000A502A093A602B093A70290C10AE013E02B
:10093000D8018D919D910D90BC91A02D89879A87AA
:10094000AB87BC879C01AD016DA57EA58FA598A93D
:100950000E9447189B01AC0160930E0370930F0334
:1009600080931003909311036D817E818F81988510
:100970000E948D1AE6E0F3E02081318142815381AB
:100980000E9448186D8B7E8B8F8B988FAEE1B3E001
:100990008D919D910D90BC91A02D89839A83AB83FD
:1009A000BC839C01AD016D817E818F8198850E9401
:1009B0008D1A6B017C01E6E1F3E04080518062809A
:1009C0007380AAE1B3E08D919D910D90BC91A02D13
:1009D0008D879E87AF87B88B0F2EF2E12F2EF3E025
:1009E0003F2EF02DA3019201C701B6010E944718C6
:1009F0002D853E854F8558890E9447182091FA021F
:100A00003091FB024091FC025091FD020E94481877
:100A10009B01AC016D817E818F8198850E948D1A2A
:100A2000F10120813181428153810E9448184B019C
:100A30005C01A7019601C301B2010E944718698FAA
:100A40007A8F8B8F9C8FA70196016D857E858F8510
:100A500098890E9447186D877E878F87988B209191
:100A6000FE023091FF0240910003509101036D811D
:100A70007E818F8198850E948D1A9B01AC016981CE
:100A80007A818B819C810E94481869A37AA38BA3E9
:100A90009CA32091020330910303409104035091E1
:100AA0000503C501B4010E9448186B017C016093E5
:100AB0002E0370932F0380933003909331039B0197
:100AC000AC01C501B4010E9412192B013C016093D5
:100AD0002203709323038093240390932503A7019B
:100AE00096016D857E858F8598890E9412196B010C
:100AF0007C016093260370932703809328039093CF
:100B000029032D893E894F89588D69897A898B8976
:100B10009C890E94471869837A838B839C836093A6
:100B20002A0370932B0380932C0390932D039B0136
:100B3000AC01C301B2010E948D1A9B01AC016D8909
:100B40007E898F89988D0E9448186D8B7E8B8F8B44
:100B5000988FA6E0B3E06D937D938D939C9313974C
:100B600029813A814B815C81C701B6010E948D1AAF
:100B70009B01AC0169857A858B859C850E9448180C
:100B8000F8016083718382839383A3019201C5017D
:100B9000B4010E948D1A9B01AC01C501B4010E94F1
:100BA00047184B015C01D1016D937D938D939C930C
:100BB0001397A3019201698D7A8D8B8D9C8D0E9474
:100BC0008D1A9B01AC01698D7A8D8B8D9C8D0E9455
:100BD00047182B013C01E6E1F3E0608371838283D7
:100BE0009383A5019401C701B6010E948D1A9B0150
:100BF000AC016D857E858F8598890E944718AAE192
:100C0000B3E06D937D938D939C931397A301920111
:100C1000C701B6010E948D1A9B01AC0169A17AA19E
:100C20008BA19CA10E944718EEE1F3E060837183E1
:100C3000828393838D899E89AF89B88D8093940236
:100C400090939502A0939602B0939702809194029C
:100C500090919502A0919602B09197028D879E8700
:100C6000AF87B88B20E030E0A901BC01CD010E9424
:100C7000821A18167CF411E020E030E044EB52E4D4
:100C80006D857E858F8598890E94821A181684F05A
:100C900010E00EC020E030E044EB52EC6D857E8524
:100CA0008F8598890E940E19182F111F1127111F67
:100CB000112349F08D8D9E8DAF8DB8A1B0588D8FC9
:100CC0009E8FAF8FB8A302ED12E0D8018D919D9158
:100CD0000D90BC91A02D8D8B9E8BAF8BB88F9C01FE
:100CE000AD016D8D7E8D8F8D98A10E9447189B015F
:100CF000AC016093D6027093D7028093D802909390
:100D0000D9026D817E818F8198850E948D1AEEECCB
:100D1000F2E020813181428153810E944818698F1D
:100D20007A8F8B8F9C8FA6EEB2E08D919D910D9066
:100D3000BC91A02D89839A83AB83BC839C01AD01B8
:100D40006D817E818F8198850E948D1A6B017C0157
:100D5000EEEDF2E04080518062807380A2EEB2E05E
:100D60008D919D910D90BC91A02D89879A87AB871D
:100D7000BC870F2EFAED2F2EF2E03F2EF02DA301AF
:100D80009201C701B6010E94471829853A854B8513
:100D90005C850E9447182091C2023091C3024091A5
:100DA000C4025091C5020E9448189B01AC016D819C
:100DB0007E818F8198850E948D1AF1012081318179
:100DC000428153810E9448184B015C01A7019601A2
:100DD000C301B2010E94471869A37AA38BA39CA305
:100DE000A701960169857A858B859C850E944718A5
:100DF00069A77AA78BA79CA72091C6023091C7024A
:100E00004091C8025091C9026D817E818F81988581
:100E10000E948D1A9B01AC0169817A818B819C8132
:100E20000E94481869AB7AAB8BAB9CAB2091CA028D
:100E30003091CB024091CC025091CD02C501B4015A
:100E40000E9448186B017C016093F6027093F702D0
:100E50008093F8029093F9029B01AC01C501B401A3
:100E60000E9412192B013C016093EA027093EB027D
:100E70008093EC029093ED02A701960169A57AA5F3
:100E80008BA59CA50E9412196B017C016093EE0258
:100E90007093EF028093F0029093F102298D3A8DC6
:100EA0004B8D5C8D6DA17EA18FA198A50E944718E6
:100EB00069837A838B839C836093F2027093F3023D
:100EC0008093F4029093F5029B01AC01C301B2013F
:100ED0000E948D1A9B01AC01698D7A8D8B8D9C8D42
:100EE0000E94481869877A878B879C87AEECB2E0AE
:100EF0006D937D938D939C93139729813A814B81B8
:100F00005C81C701B6010E948D1A9B01AC016D89FD
:100F10007E898F89988D0E944818F80160837183BB
:100F200082839383A3019201C501B4010E948D1AAB
:100F30009B01AC01C501B4010E9447184B015C0143
:100F4000D1016D937D938D939C931397A30192018F
:100F500069A17AA18BA19CA10E948D1A9B01AC0171
:100F600069A17AA18BA19CA10E9447182B013C0189
:100F7000EEEDF2E06083718382839383A501940197
:100F8000C701B6010E948D1A9B01AC0169A57AA523
:100F90008BA59CA50E944718A2EEB2E06D937D93AD
:100FA0008D939C931397A3019201C701B6010E94F0
:100FB0008D1A9B01AC0169A97AA98BA99CA90E94F1
:100FC0004718E6EEF2E0608371838283938389851C
:100FD0009A85AB85BC858093900290939102A093F3
:100FE0009202B09393022D813E814F8158856DA569
:100FF0007EA58FA598A90E948D1A2B013C012091F6
:10100000A4023091A5024091A6025091A7020E942D
:10101000481869837A838B839C836093A4027093BE
:10102000A5028093A6029093A7022D813E814F8155
:1010300058856D8D7E8D8F8D98A10E948D1A4B01E4
:101040005C012091A0023091A1024091A202509136
:10105000A3020E9448186B017C016093A002709368
:10106000A1028093A2029093A30220919C0230914E
:101070009D0240919E0250919F02C301B2010E94C5
:1010800048182BE734E14EE65FE30E948D1A2B01EE
:101090003C0129E23CE54FE85DE369897A898B8967
:1010A0009C890E948D1A9B01AC01C301B2010E9470
:1010B000481860939C0270939D0280939E029093C7
:1010C0009F02209198023091990240919A0250918A
:1010D0009B02C501B4010E9448182BE734E14EE69B
:1010E0005FE30E948D1A4B015C0129E23CE54FE869
:1010F0005DE36DA17EA18FA198A50E948D1A9B0131
:10110000AC01C501B4010E94481860939802709325
:10111000990280939A0290939B0220E030E044E38E
:1011200053EC69817A818B819C810E940E198823FE
:1011300064F020E030E044E353E469817A818B81FC
:101140009C810E94821A181664F48D859E85AF8555
:10115000B8898093A4029093A502A093A602B093AD
:10116000A70220E030E044E353ECC701B6010E943F
:101170000E19882354F020E030E044E353E4C70123
:10118000B6010E94821A181664F489859A85AB8587
:10119000BC858093A0029093A102A093A202B09379
:1011A000A30265E172E081E99AE00E94FA1540919C
:1011B000BE025091BF026091C0027091C10222E054
:1011C00030E081E99AE00E94C51760E372E081E9AE
:1011D0009AE00E94BA154091BA025091BB02609108
:1011E000BC027091BD0222E030E081E99AE00E94E9
:1011F000C51760E372E081E99AE00E94BA15409158
:10120000B6025091B7026091B8027091B90222E023
:1012100030E081E99AE00E94C71762E372E081E959
:101220009AE00E94FA154091B2025091B302609187
:10123000B4027091B50222E030E081E99AE00E94A8
:10124000C51760E372E081E99AE00E94BA15409107
:10125000AE025091AF026091B0027091B10222E0F3
:1012600030E081E99AE00E94C51760E372E081E90D
:101270009AE00E94BA154091AA025091AB02609187
:10128000AC027091AD0222E030E081E99AE00E9468
:10129000C71766E472E081E99AE00E94FA1586E9D0
:1012A00090E004D5E4960FB6F894DEBF0FBECDBF34
:1012B000DF91CF911F910F91FF90EF90DF90CF9032
:1012C000BF90AF909F908F907F906F905F904F9066
:1012D0003F902F900895CF93DF93EC01A8D3809196
:1012E000320390913303892B31F487E393E0909399
:1012F00033038093320340913403509135039E01B0
:10130000240F351F2B3D85E0380770F44217530733
:1013100070F4C0913203D0913303C40FD51F3093C2
:1013200035032093340305C0C0E0D0E002C0C0E024
:10133000D0E03ED4CE01DF91CF9108950895FC0115
:101340000396928381832FEF3FEF34832383968329
:1013500085839087878310820895FC01118610860B
:101360000895CF93DF939C01FB01DC011196CD9191
:10137000DC911297D383C2838C819D819583848372
:101380008C819D81DC0113967C936E9312977D83F3
:101390006C8331872087F90180818F5F8083DF91A3
:1013A000CF910895CF93DF93EB01488159814F3F4F
:1013B0002FEF520721F4FC01A781B0850DC0DC019D
:1013C00013961296ED91FC9113972081318142176B
:1013D000530710F0DF01F5CF1296ED91FC911397B2
:1013E000FB83EA83D583C483BD83AC831396DC93EC
:1013F000CE93129799878887FC0120812F5F2083E5
:10140000DF91CF910895CF93DF93FC01A085B18543
:10141000C281D381848195819D838C83C481D58150
:10142000828193819B838A831196CD91DC9112975F
:10143000CE17DF0731F48C819D8112969C938E9399
:101440001197118610868C9181508C93DF91CF91EA
:10145000089531E1FC013083319722E220833197F6
:10146000A3E3A08331976083319770833197108213
:1014700031971082319760E86083319710823197FD
:10148000108231971082319762E06083319763E078
:101490006083319764E06083319765E060833197C2
:1014A00066E06083319767E06083319768E060832E
:1014B000319769E06083319760E1608331973083D1
:1014C000319732E13083319733E13083319734E122
:1014D0003083319735E13083319736E1308331976E
:1014E00037E13083319738E13083319739E1308308
:1014F000319730E23083319731E230833197208366
:10150000319723E22083319740833197508331977D
:1015100026E22083319727E22083319728E2208337
:10152000319729E22083319720E32083319721E30B
:1015300020838997089582E08093B0001092B200D2
:1015400080E38093B300E0E7F0E0808182608083F5
:1015500083E08093B100A0916909B0916A09CD91AF
:10156000CDBFDD91DEBFFF91EF91DF91CF91BF91B4
:10157000AF919F918F917F916F915F914F913F912B
:101580002F911F910F91FF90EF90DF90CF90BF9020
:10159000AF909F908F907F906F905F904F903F9013
:1015A0002F901F900F900CBE0F900BBE0F900FBE90
:1015B0000F90189581E008950F920FB6F8940F924E
:1015C0000CB60F920BB60F921F9211242F923F92DE
:1015D0004F925F926F927F928F929F92AF92BF9243
:1015E000CF92DF92EF92FF920F931F932F933F932F
:1015F0004F935F936F937F938F939F93AF93BF931B
:10160000CF93DF93EF93FF93A0916909B0916A099B
:101610000DB60D920EB60D929AD3A0916909B091B4
:101620006A09CD91CDBFDD91DEBFFF91EF91DF91D2
:10163000CF91BF91AF919F918F917F916F915F916A
:101640004F913F912F911F910F91FF90EF90DF905D
:10165000CF90BF90AF909F908F907F906F905F9052
:101660004F903F902F901F900F900CBE0F900BBE8D
:101670000F900FBE0F9018950F920FB6F8940F921F
:101680000CB60F920BB60F921F9211242F923F921D
:101690004F925F926F927F928F929F92AF92BF9282
:1016A000CF92DF92EF92FF920F931F932F933F936E
:1016B0004F935F936F937F938F939F93AF93BF935A
:1016C000CF93DF93EF93FF93A0916909B0916A09DB
:1016D0000DB60D920EB60D92B0D1811138D3A091F6
:1016E0006909B0916A09CD91CDBFDD91DEBFFF914F
:1016F000EF91DF91CF91BF91AF919F918F917F91AA
:101700006F915F914F913F912F911F910F91FF909A
:10171000EF90DF90CF90BF90AF909F908F907F9091
:101720006F905F904F903F902F901F900F900CBE46
:101730000F900BBE0F900FBE0F9018959DDF189560
:10174000E0913109F09132098081811107C08FEF5A
:101750009FEF90930702809306020895E09131096C
:10176000F09132090580F681E02D0680F781E02DA9
:101770008281938190930702809306020895CF930C
:10178000DF93EC01E0916909F0916A099383828308
:101790008091190990911A09C817D90760F46091CE
:1017A000690970916A0980912F09909130096E5FE3
:1017B0007F4FF8DD16C06091690970916A098091C8
:1017C0003109909132096E5F7F4FECDD8091060206
:1017D00090910702C817D90720F4D0930702C0934D
:1017E0000602DF91CF9108954F925F926F927F92A0
:1017F0008F929F92AF92BF92CF92DF92EF92FF9221
:101800000F931F93CF93DF934C015B012A013901A2
:1018100081E290E060DDEC01009709F4CDC0C114D5
:10182000D10409F0B2C0C20156DD988F8F8B892B8D
:1018300009F0ADC0CE0182DDBFC0CF013191DA0128
:101840003D93AD01DC018C91882311F02150A9F763
:1018500018A2102F043008F013E01E8B5E01B2E0D6
:10186000AB0EB11CC50179DDCE010C9676DDD987B2
:10187000C88784E090E0811B91099D878C87DB8B72
:10188000CA8BA301B401C601E4DD99838883E11406
:10189000F10419F0F701D183C0830FB6F8940F92C9
:1018A00080911B098F5F80931B098091690990913A
:1018B0006A09892B69F5D0936A09C09369098091F7
:1018C0001B098130A1F585E499E039DD8EE499E0CA
:1018D00036DD87E599E033DD80E699E030DD8CE3A5
:1018E00099E02DDD83E399E02ADD86E299E027DDAA
:1018F0008DE199E024DD8CE399E0909332098093A7
:10190000310983E399E09093300980932F090FC048
:101910008091170981110BC0E0916909F0916A0962
:101920008689081720F0D0936A09C09369098091CD
:1019300013098F5F809313098E8990911809981766
:1019400010F48093180990E09C01220F331F220F9E
:10195000331F220F331F820F931FB5018B5B964FEE
:1019600000DD0F900FBE80911709882351F0E091A0
:101970006909F0916A098689801728F41DDE81E0E3
:101980001CC081E01AC081E018C0D88ECF8AF1E077
:101990004F1A5108CF88D88CC40CD51CD5018C9116
:1019A000898F8C91882309F453CFAE01465E5F4F37
:1019B000F501319627E041CF8FEFDF91CF911F9155
:1019C0000F91FF90EF90DF90CF90BF90AF909F90DE
:1019D0008F907F906F905F904F900895AF92BF92DD
:1019E000CF92DF92EF92FF920F93A12CB12CC12CDA
:1019F000D12CE12CF12C00E020E030E045E550E076
:101A00006AE472E081E79EE0EFDE813041F4F89411
:101A10008093170910921A09109219098CDD0F9101
:101A2000FF90EF90DF90CF90BF90AF90089580919E
:101A300012098F5F809312090895CF92DF92EF927F
:101A4000FF920F931F93CF93DF938091120981111F
:101A500096C08091190990911A09019690931A09DC
:101A600080931909E0901909F0901A09E114F10422
:101A7000B1F4809131099091320920912F09309170
:101A800030093093320920933109909330098093C3
:101A90002F09809114098F5F8093140951DE809182
:101AA000060290910702E816F90608F451C0D12CFD
:101AB000CC24C39401C0DC2CE0913109F0913209AF
:101AC0008081811107C08FEF9FEF90930702809371
:101AD00006023FC0E0913109F09132090580F6819C
:101AE000E02DC681D7812A813B81E216F30628F4D6
:101AF00030930702209306022CC08E010E5F1F4F09
:101B0000C80181DC8C899D89892B19F0CE010C9646
:101B10007ADC2E8980911809821710F42093180915
:101B200030E0C901880F991F880F991F880F991FEE
:101B3000820F931FB8018B5B964F13DCE09169090C
:101B4000F0916A099E898689981708F0B4CFB4CFBE
:101B5000D12CE0916909F0916A09868990E0FC0135
:101B6000EE0FFF1FEE0FFF1FEE0FFF1F8E0F9F1FC9
:101B7000FC01EB5BF64F8081823040F409C080911C
:101B800016098F5F80931609D12C02C0DD24D394EF
:101B900080911509882311F0DD24D3948D2DDF91D8
:101BA000CF911F910F91FF90EF90DF90CF9008950C
:101BB000DF92EF92FF920F931F93CF93DF930FB6B5
:101BC000F8940F92809112098150809312098091AC
:101BD000120981115CC080911B09882309F459C046
:101BE0000F2EF6E2EF2EF9E0FF2EF02DDD24D39438
:101BF0002DC0E0912B09F0912C09C681D781CE012F
:101C00000C9601DC8E010E5F1F4FC801FCDB8E8934
:101C100090911809981710F48093180990E09C018E
:101C2000220F331F220F331F220F331F820F931FE8
:101C3000B8018B5B964F95DBE0916909F0916A09D9
:101C40009E898689981710F0D0921509F701808136
:101C50008111CFCF80911609882391F080911609C8
:101C6000882371F0C1E0E9DE8111C09315098091EC
:101C70001609815080931609809116098111F3CFBE
:101C800080911509813039F497DC81E005C080E04E
:101C900003C080E001C080E00F900FBEDF91CF91C4
:101CA0001F910F91FF90EF90DF900895CF93DF93F6
:101CB000EC01009791F0BBDE8091190990911A090F
:101CC000C80FD91F8091690990916A0902969BDB20
:101CD000CE0155DD6DDF811101C06EDCDF91CF914A
:101CE00008950F2EF5E4EF2EF9E0FF2EF02DCDE153
:101CF000D9E023C09CDE18815BDF1123F1F00FB621
:101D0000F8940F92E0912209F0912309068117813E
:101D1000C801029678DB80911B09815080931B09D2
:101D200080911C09815080931C090F900FBEF8010F
:101D30008789908D03DBC80101DB80911C0981112B
:101D4000D9CFF70180818230C0F336DCF6CF8091A5
:101D50001209882321F081E08093150908951092DB
:101D600015098091180990E0FC01EE0FFF1FEE0F9E
:101D7000FF1FEE0FFF1F8E0F9F1FFC01EB5BF64F47
:101D80008081811117C080911809815080931809B2
:101D90008091180990E0FC01EE0FFF1FEE0FFF1F6E
:101DA000EE0FFF1F8E0F9F1FFC01EB5BF64F808134
:101DB000882349F3E0911809F0E0CF01880F991FBB
:101DC000880F991F880F991FE80FF91FEB5BF64FDB
:101DD000A181B28112960D90BC91A02DB283A183F6
:101DE000CF010396A817B90731F412968D919C91F3
:101DF0001397928381830180F281E02D8681978100
:101E000090936A09809369090895413208F045C0AA
:101E10009091D8099111FCCF91E09093D80920932B
:101E2000D6092FEF20936B091092B009240F20934D
:101E3000AF099093D7099091D709880F892B809388
:101E4000D7098091D509813051F41092D50980913C
:101E5000D7098093BB0085EC8093BC0003C085EE5E
:101E60008093BC008091D8098130E1F38091B00962
:101E7000841710F44091B009442389F0E1EBF9E0B4
:101E8000A62FB72F2FEF240F30E02E54364F91910D
:101E90009D93E217F307D9F704C080E00895842FDB
:101EA0000895842F08950F93413208F050C0909107
:101EB000D8099111FCCF92E09093D8090093D609EC
:101EC0009FEF90936B091092B0094093AF094423A0
:101ED00069F0FB01A1EBB9E06F5F7F4F4150640FE8
:101EE000711D91919D93E617F707D9F71092D709C5
:101EF0009091D709880F892B8093D7098091D509B4
:101F0000813051F41092D5098091D7098093BB009C
:101F100085EC8093BC0003C085EE8093BC00222337
:101F200041F08091D809823021F48091D809823023
:101F3000E1F380916B098F3F61F080916B098032F2
:101F400051F080916B09803341F483E007C081E058
:101F500005C080E003C082E001C084E00F910895D5
:101F60006132A8F42091D809243099F460938D0946
:101F7000662389F0FC01AFE8B9E001966150860F55
:101F8000911D21912D93E817F907D9F706C081E03B
:101F9000089582E0089580E0089580E0089585ED39
:101FA0008093BC00ECEBF0E0808184FDFDCF1092CB
:101FB000D809089585EC8093BC001092D809089543
:101FC0001F920F920FB60F9211240BB60F922F9300
:101FD0003F934F935F936F937F938F939F93AF93B1
:101FE000BF93EF93FF938091B900887F90E0893C85
:101FF000910508F0EEC0FC01EE58FF4F0C94701BE9
:102000008091D7098093BB0085EC8093BC00E1C030
:102010009091B0098091AF09981780F4E091B009D0
:1020200081E08E0F8093B009F0E0EF54F64F80818D
:102030008093BB0085EC8093BC00CBC08091D60917
:10204000882311F0ACDFC5C081E08093D50984EA14
:102050008093BC001092D809BCC080E280936B09C9
:102060009EDFB7C080E380936B0999DFB2C088E33D
:1020700080936B099FDFADC0E091B00981E08E0FC6
:102080008093B0098091BB00F0E0EF54F64F80835D
:102090009091B0098091AF09981720F485EC809356
:1020A000BC0097C085E88093BC0093C0E091B00964
:1020B00081E08E0F8093B0098091BB00F0E0EF5477
:1020C000F64F80838091D609882311F068DF81C0A4
:1020D00081E08093D50984EA8093BC001092D809EE
:1020E00078C05DDF76C083E08093D80910926C09D8
:1020F00085EC8093BC006DC080916C09803280F4C7
:10210000E0916C0981E08E0F80936C098091BB0097
:10211000F0E0E359F64F808385EC8093BC0059C012
:1021200085E88093BC0055C080916C09803230F402
:10213000E0916C09F0E0E359F64F108230DF6091D6
:102140006C0970E0E091D109F091D2098DE699E037
:10215000199510926C092EDF3CC085E88093BC0075
:1021600038C084E08093D80910928E0910928D09AE
:10217000E091D309F091D409199580918D098111CD
:1021800005C081E080938D0910928F09E0918E093E
:1021900081E08E0F80938E09F0E0E157F64F808149
:1021A0008093BB0090918E0980918D09981720F43F
:1021B00085EC8093BC000DC085E88093BC0009C00D
:1021C00085EC8093BC001092D80903C010926B0973
:1021D000E6DEFF91EF91BF91AF919F918F917F913B
:1021E0006F915F914F913F912F910F900BBE0F9088
:1021F0000FBE0F901F9018958091090A90E02091D2
:102200000A0A821B9109089520910A0A8091090AFD
:10221000281750F4E22FF0E0E55FF54F808190E061
:102220002F5F20930A0A08958FEF9FEF0895E091A2
:102230000A0A8091090AE81730F4F0E0E55FF54FEB
:10224000808190E008958FEF9FEF08950895CF92D9
:10225000DF92EF92FF920F931F93CF93DF938C0146
:102260007B016A018091E509882399F041155105A8
:1022700099F0EB01E40EF51E6991D801ED91FC9106
:102280000190F081E02DC8011995CE15DF05A1F769
:1022900003C0642FC70164DEC601DF91CF911F9197
:1022A0000F91FF90EF90DF90CF900895CF93DF9341
:1022B0001F92CDB7DEB769832091E5092223E1F0B3
:1022C0002091E609203240F021E030E0FC01338328
:1022D000228380E090E016C08091E709E82FF0E0CB
:1022E000E851F64F998190838F5F8093E70980933F
:1022F000E60981E090E006C061E0CE01019630DEA3
:1023000081E090E00F90DF91CF910895FC0113825E
:10231000128248EE53E060E070E0448355836683A8
:10232000778383E592E0918380830895862F4132FD
:1023300008F040E26BE07AE068DD10920A0A8093D0
:10234000090A089581E08093E5096093080A1092D4
:10235000E7091092E60908950F93062F21E04091B6
:10236000E60968EE79E08091080A9DDD1092E709A0
:102370001092E6091092E5090F91089589ED99E010
:10238000C5CF0895FC0124853585F901E05CFF4F38
:1023900080819181329620813181821B930B8F73D2
:1023A00099270895FC0184859585FC01E05CFF4F29
:1023B000408151813296208131814217530741F08B
:1023C00020813181FC01E20FF31F808190E00895AC
:1023D0008FEF9FEF0895FC0184859585FC01E05CFB
:1023E000FF4F40815181329620813181421753073E
:1023F00081F020813181DC01A20FB31F8C912081FB
:1024000031812F5F3F4F2F7333273183208390E03B
:1024100008958FEF9FEF0895FC0181A1882329F093
:10242000A489B5898C9186FFFBCF11A208951F93D3
:10243000CF93DF93EC018E859F85FC01E05CFF4F1D
:102440000190F081E02D3196EF73FF271E2F7F2F33
:10245000DC01AE5BBF4F212F372F4D915C9111975F
:10246000E417F507C1F3FC01E05CFF4F40815181A7
:10247000FC01E40FF51F6083EE85FF85E05CFF4FF4
:1024800031832083EE89FF89408121E030E0C9015A
:102490000F8C02C0880F991F0A94E2F7842B808367
:1024A00081E089A3EC89FD8980818064808381E05B
:1024B00090E0DF91CF911F9108951F920F920FB678
:1024C0000F9211240BB60F922F933F934F938F933C
:1024D0009F93AF93BF93EF93FF938091C00082FDD2
:1024E0001AC04091C6008091CF0C9091D00C0196FB
:1024F0008F7399272091D10C3091D20C82179307BA
:1025000061F0EFECFCE0A081B181A157B34F4C9397
:102510009183808302C08091C600FF91EF91BF91AB
:10252000AF919F918F914F913F912F910F900BBE43
:102530000F900FBE0F901F9018951F920F920FB61D
:102540000F9211240BB60F922F933F934F938F93BB
:102550009F93AF93BF93EF93FF938091C80082FD49
:102560001AC04091CE008091470C9091480C019682
:102570008F7399272091490C30914A0C8217930749
:1025800061F0E7E4FCE0A081B181A95FB34F4C9317
:102590009183808302C08091CE00FF91EF91BF9123
:1025A000AF919F918F914F913F912F910F900BBEC3
:1025B0000F900FBE0F901F9018951F920F920FB69D
:1025C0000F9211240BB60F922F933F934F938F933B
:1025D0009F93AF93BF93EF93FF938091D00082FDC1
:1025E0001AC04091D6008091BF0B9091C00B01960C
:1025F0008F7399272091C10B3091C20B82179307DB
:1026000061F0EFEBFBE0A081B181A158B44F4C9396
:102610009183808302C08091D600FF91EF91BF919A
:10262000AF919F918F914F913F912F910F900BBE42
:102630000F900FBE0F901F9018951F920F920FB61C
:102640000F9211240BB60F922F933F934F938F93BA
:102650009F93AF93BF93EF93FF938091300182FDDF
:102660001AC0409136018091370B9091380B01963A
:102670008F7399272091390B30913A0B821793076A
:1026800061F0E7E3FBE0A081B181A950B54F4C9325
:102690009183808302C080913601FF91EF91BF91B9
:1026A000AF919F918F914F913F912F910F900BBEC2
:1026B0000F900FBE0F901F9018951F920F920FB69C
:1026C0000F9211240BB60F922F933F938F939F93EA
:1026D000AF93BF93EF93FF9320918B0C30918C0CB1
:1026E00080918D0C90918E0C2817390731F4E1EC14
:1026F000F0E080818F7D808310C0EDE8FCE0A08158
:10270000B181A55BB34F2C918081918101968F732C
:102710009927918380832093C600FF91EF91BF9109
:10272000AF919F918F913F912F910F900BBE0F9082
:102730000FBE0F901F9018951F920F920FB60F9219
:1027400011240BB60F922F933F938F939F93AF93C8
:10275000BF93EF93FF932091030C3091040C809171
:10276000050C9091060C2817390731F4E9ECF0E0DC
:1027700080818F7D808310C0E5E0FCE0A081B18185
:10278000AD53B44F2C918081918101968F7399271D
:10279000918380832093CE00FF91EF91BF91AF9101
:1027A0009F918F913F912F910F900BBE0F900FBE75
:1027B0000F901F9018951F920F920FB60F92112431
:1027C0000BB60F922F933F938F939F93AF93BF932B
:1027D000EF93FF9320917B0B30917C0B80917D0BCD
:1027E00090917E0B2817390731F4E1EDF0E08081FC
:1027F0008F7D808310C0EDE7FBE0A081B181A55CF7
:10280000B44F2C918081918101968F739927918388
:1028100080832093D600FF91EF91BF91AF919F915C
:102820008F913F912F910F900BBE0F900FBE0F9085
:102830001F9018951F920F920FB60F9211240BB68E
:102840000F922F933F938F939F93AF93BF93EF93E9
:10285000FF932091F30A3091F40A8091F50A909148
:10286000F60A2817390731F4E1E3F1E080818F7D22
:10287000808310C0E5EFFAE0A081B181AD54B54F7F
:102880002C918081918101968F7399279183808308
:1028900020933601FF91EF91BF91AF919F918F915E
:1028A0003F912F910F900BBE0F900FBE0F901F9076
:1028B00018958F929F92AF92BF92CF92DF92EF9234
:1028C000FF920F931F93CF93DF93CDB7DEB7FC0139
:1028D0001382128288EE93E0A0E0B0E084839583B7
:1028E000A683B78383E692E09183808375876487AC
:1028F00057874687318B208B138B028BF58AE48AAE
:10290000D78AC68AB18EA08E938E828E8889848F54
:102910008989858F8A89868F8B89878F8C8980A307
:10292000DF91CF911F910F91FF90EF90DF90CF90AB
:10293000BF90AF909F908F9008955F926F927F921B
:102940008F929F92AF92BF92CF92DF92EF92FF92BF
:102950000F931F93CF93DF93552453945F920F2EC1
:10296000F5E06F2EF02D6F920F2EF7E07F2EF02DF9
:102970007F92D3E0DF93C4E0CF930F2EF6EC8F2E3F
:10298000912CF02D0F2EF2ECAF2EB12CF02D0F2E3E
:10299000F1ECCF2ED12CF02D0F2EF0ECEF2EF12CF0
:1029A000F02D04EC10E025EC30E04BE45CE06FE847
:1029B0007CE081E99AE07DDF5F926F927F92DF9306
:1029C000CF930F2EFEEC8F2E912CF02D0F2EFAECC4
:1029D000AF2EB12CF02D0F2EF9ECCF2ED12CF02DE7
:1029E0000F2EF8ECEF2EF12CF02D0CEC10E02DEC6E
:1029F00030E043EC5BE067E07CE08FE69AE059DF93
:102A00005F926F927F92DF93CF930F2EF6ED8F2E12
:102A1000912CF02D0F2EF2EDAF2EB12CF02D0F2EAC
:102A2000F1EDCF2ED12CF02D0F2EF0EDEF2EF12C5D
:102A3000F02D04ED10E025ED30E04BE35BE06FE7B7
:102A40007BE08DE49AE035DF5F926F927F92DF93B7
:102A5000CF930F2EF6E38F2E99249394F02D0F2E03
:102A6000F2E3AF2EBB24B394F02D0F2EF1E3CF2E63
:102A7000DD24D394F02D0F2EF0E3EF2EFF24F394FA
:102A8000F02D04E311E025E331E043EB5AE067EF7A
:102A90007AE08BE29AE00DDF8DB79EB744960FB6D1
:102AA000F8949EBF0FBE8DBFDF91CF911F910F9104
:102AB000FF90EF90DF90CF90BF90AF909F908F905E
:102AC0007F906F905F900895CF92DF92EF92FF9288
:102AD0000F931F93CF93DF936C0141155105B1F014
:102AE000062F172FEA01E12CF12CD8016D918D01F1
:102AF000D601ED91FC910190F081E02DC601199570
:102B0000E80EF91E2197209781F702C0E12CF12CE5
:102B1000C701DF91CF911F910F91FF90EF90DF9050
:102B2000CF900895EF92FF920F931F93CF93DF936F
:102B30007C01EB012196FB016491662389F000E0A2
:102B400010E0F701A081B181ED91FC91C7011995C9
:102B5000080F191FFE0164912196662319F0F1CF29
:102B600000E010E0C801DF91CF911F910F91FF901D
:102B7000EF9008956115710581F0FB01019000202F
:102B8000E9F73197AF01461B570BDC01ED91FC9142
:102B90000280F381E02D1995089580E090E008957A
:102BA000DC01ED91FC910190F081E02D19950895E3
:102BB0000F931F93CF93DF93EC016DE0F1DF8C0156
:102BC0006AE0CE01EDDF800F911FDF91CF911F9161
:102BD0000F9108950F931F93CF93DF93EC01A2DF22
:102BE0008C01CE01E5DF800F911FDF91CF911F9106
:102BF0000F9108950F931F93CF93DF93EC01BADFEA
:102C00008C01CE01D5DF800F911FDF91CF911F91F5
:102C10000F9108956F927F928F929F92AF92BF9281
:102C2000CF92DF92EF92FF920F931F93CF93DF9398
:102C3000CDB7DEB7A1970FB6F894DEBF0FBECDBFFC
:102C40006C01742E352F862F972F622E19A221E04A
:102C5000261520F00F2EFAE06F2EF02D7E01A1E256
:102C6000EA0EF11C862C912CA12CB12C672D732F10
:102C7000A501940113D5E22F732F022F132F242FB8
:102C8000352FF72D6E9EF0191124B1E0EB1AF108E3
:102C9000FA3010F4F05D01C0F95CD701FC93012B10
:102CA000022B032B29F07E2E372F842F952FDECF7A
:102CB000E114F10491F0F70101900020E9F7319758
:102CC000AF014E195F09D601ED91FC910280F381AD
:102CD000E02DB701C601199502C080E090E0A196F1
:102CE0000FB6F894DEBF0FBECDBFDF91CF911F911D
:102CF0000F91FF90EF90DF90CF90BF90AF909F909B
:102D00008F907F906F900895CF92DF92EF92FF9215
:102D10000F931F93CF93DF93EC016A017B01211581
:102D2000310541F4E881F9810190F081E02D642FB3
:102D3000199519C02A303105A9F4772384F46DE27E
:102D40002FDF8C0144275527BA014C195D096E0904
:102D50007F092AE0CE015EDF800F911F04C02AE0C8
:102D600059DF01C057DFDF91CF911F910F91FF9085
:102D7000EF90DF90CF9008952115310549F4DC01E3
:102D8000ED91FC910190F081E02D642F199508954B
:102D900041CF08950F931F93CF93DF93EC019A01D6
:102DA000462F50E060E070E0E7DF8C01CE0100DFED
:102DB000800F911FDF91CF911F910F9108952F9256
:102DC0003F924F925F927F928F929F92AF92BF926B
:102DD000CF92DF92EF92FF920F931F93CF93DF93E7
:102DE0008C014A015B01722E9A01AB01C501B4014D
:102DF0003CD4882329F06FE672E0C801BBDEB3C083
:102E000075016401E894F7F82FEF3FEF4FE75FE7B4
:102E1000C701B6012AD481110EC02FEF3FEF4FE753
:102E20005FE7C701B601FAD118162CF463E772E028
:102E3000C801A0DE98C02FEF3FEF4FE75FE4C50168
:102E4000B40160D318162CF467E772E0C80192DE73
:102E50008AC02FEF3FEF4FE75FECC501B401DED131
:102E600088232CF467E772E0C80184DE7CC020E090
:102E700030E0A901C501B401D1D188234CF46DE241
:102E8000C8018EDE7C01B7FAB094B7F8B09402C0E6
:102E9000E12CF12C772009F456C0C0E060E070E02E
:102EA00080E09FE320E030E040E251E4BBD1CF5F1F
:102EB000C711F8CF25C020E030E040E251E4C50161
:102EC000B4012BD36B017C0115D24B01AA2497FCD2
:102ED000A094BA2C2AE030E0B501A401C80114DFA7
:102EE000C80FD91FC501B40138D29B01AC01C7017D
:102EF000B601CDD04B015C017A94E9F6CE0133C026
:102F00009B01AC01C501B401C3D04B015C01F7D1F9
:102F10001B012C0120D29B01AC01C501B401B7D02B
:102F20004B015C012AE030E0B201A101C80124DFBD
:102F3000EC016BE772E0C8011DDE8C0F9D1FEC01F8
:102F4000CE0DDF1DB8CF20E030E040E05FE3C501EB
:102F5000B4019ED0D4D1AB01BC012AE030E0C8015D
:102F60000BDF8E0D9F1DDF91CF911F910F91FF9071
:102F7000EF90DF90CF90BF90AF909F908F907F9019
:102F80005F904F903F902F90089519CF08950F9321
:102F90001F93CF93DF93EC0112DF8C01CE0108DE8B
:102FA000800F911FDF91CF911F910F9108951F9274
:102FB0000F920FB60F9211242F933F938F939F93ED
:102FC000AF93BF938091D40C9091D50CA091D60C67
:102FD000B091D70C3091D30C23E0230F2D3720F480
:102FE0000196A11DB11D05C026E8230F0296A11D63
:102FF000B11D2093D30C8093D40C9093D50CA09347
:10300000D60CB093D70C8091D80C9091D90CA0918C
:10301000DA0CB091DB0C0196A11DB11D8093D80C88
:103020009093D90CA093DA0CB093DB0CBF91AF91C5
:103030009F918F913F912F910F900FBE0F901F90F6
:1030400018953FB7F8948091D80C9091D90CA09125
:10305000DA0CB091DB0C26B5A89B05C02F3F19F008
:103060000196A11DB11D3FBFBA2FA92F982F882708
:10307000820F911DA11DB11DBC01CD01660F771FEF
:10308000881F991F660F771F881F991F0895505832
:10309000BB27AA270ED0FCC1EDD130F0F2D120F031
:1030A00031F49F3F11F41EF4BDC10EF4E095E7FB2F
:1030B000B3C1E92FFED180F3BA1762077307840703
:1030C000950718F071F49EF516C20EF4E0950B2EDC
:1030D000BA2FA02D0B01B90190010C01CA01A0016A
:1030E0001124FF27591B99F0593F50F4503E68F1C5
:1030F0001A16F040A22F232F342F4427585FF3CF06
:10310000469537952795A795F0405395C9F77EF4D6
:103110001F16BA0B620B730B840BBAF09150A1F01F
:10312000FF0FBB1F661F771F881FC2F70EC0BA0FA5
:10313000621F731F841F48F4879577956795B7952D
:10314000F7959E3F08F0B3CF9395880F08F0992725
:10315000EE0F9795879508958DD158F080E891E00E
:1031600009F49EEF8ED128F040E851E059F45EEF6B
:1031700009C058C1C0C1E92FE0789BD168F3092E7E
:10318000052AC1F3261737074807590738F00E2ECE
:1031900007F8E02569F0E025E0640AC0EF6307F86E
:1031A000009407FADB01B9019D01DC01CA01AD0100
:1031B000EF9347D06DD10AD05F91552331F02BEDBD
:1031C0003FE049E450FD49EC63CF0895DF93DD27EC
:1031D000B92FBF7740E85FE31616170648075B076D
:1031E00010F4D92F93D19F938F937F936F933AD2FB
:1031F000E6E7F2E01AD14CD12F913F914F915F91C8
:1032000098D1DD2349F09058A2EA2AED3FE049EC3D
:103210005FE3D0785D274DDFDF913AC1D9D008F464
:1032200081E008950CD034C12CD140F023D130F08E
:1032300021F45F3F19F0F0C051115EC1F3C039D1E4
:1032400098F39923C9F35523B1F3951B550BBB276D
:10325000AA2762177307840738F09F5F5F4F220F1A
:10326000331F441FAA1FA9F333D00E2E3AF0E0E813
:1032700030D091505040E695001CCAF729D0FE2F5F
:1032800027D0660F771F881FBB1F261737074807F1
:10329000AB07B0E809F0BB0B802DBF01FF279358A7
:1032A0005F4F2AF09E3F510568F0B6C025C15F3FD1
:1032B000ECF3983EDCF3869577956795B795F7958F
:1032C0009F5FC9F7880F911D9695879597F9089587
:1032D000E1E0660F771F881FBB1F62177307840723
:1032E000BA0720F0621B730B840BBA0BEE1F88F732
:1032F000E095089504D06894B111FEC00895E1D01E
:1033000088F09F5790F0B92F9927B751A0F0D1F0CE
:10331000660F771F881F991F1AF0BA95C9F712C058
:10332000B13081F0E8D0B1E00895E5C0672F782F83
:103330008827B85F39F0B93FCCF3869577956795C4
:10334000B395D9F73EF490958095709561957F4F30
:103350008F4F9F4F0895E89409C097FB3EF49095D6
:103360008095709561957F4F8F4F9F4F9923A9F05E
:10337000F92F96E9BB279395F695879577956795ED
:10338000B795F111F8CFFAF4BB0F11F460FF1BC031
:103390006F5F7F4F8F4F9F4F16C0882311F096E9C4
:1033A00011C0772321F09EE8872F762F05C0662372
:1033B00071F096E8862F70E060E02AF09A95660F2B
:1033C000771F881FDAF7880F9695879597F90895E4
:1033D000990F0008550FAA0BE0E8FEEF1616170626
:1033E000E807F907C0F012161306E407F50798F08E
:1033F000621B730B840B950B39F40A2661F0232BA7
:10340000242B252B21F408950A2609F4A140A69522
:103410008FEF811D811D089597F99F6780E870E007
:1034200060E008959FEF80EC0895DF93CF931F93A2
:103430000F93FF92EF92DF927B018C01689405C09D
:10344000DA2EEF0176D0FE01E894A5912591359111
:1034500045915591AEF3EF012CDEFE019701A801D5
:10346000DA9479F7DF90EF90FF900F911F91CF9151
:10347000DF91089500240A94161617061806090607
:10348000089500240A9412161306140605060895DA
:10349000092E0394000C11F4882352F0BB0F40F462
:1034A000BF2B11F460FF04C06F5F7F4F8F4F9F4FA2
:1034B000089557FD9058440F551F59F05F3F71F024
:1034C0004795880F97FB991F61F09F3F79F087958B
:1034D0000895121613061406551FF2CF4695F1DF14
:1034E00008C0161617061806991FF1CF86957105A4
:1034F000610508940895E894BB2766277727CB01D8
:1035000097F9089565DF08F48FEF08959B01AC01EA
:1035100060E070E080E89FE385CE0BD0B9CFAADFF2
:1035200028F0AFDF18F0952309F076CF7BCF112478
:10353000E3CFBFDFA0F3959FD1F3950F50E0551F68
:10354000629FF001729FBB27F00DB11D639FAA27F8
:10355000F00DB11DAA1F649F6627B00DA11D661F47
:10356000829F2227B00DA11D621F739FB00DA11D68
:10357000621F839FA00D611D221F749F3327A00D22
:10358000611D231F849F600D211D822F762F6A2FBE
:1035900011249F5750408AF0E1F088234AF0EE0F43
:1035A000FF1FBB1F661F771F881F91505040A9F750
:1035B0009E3F510570F030CF9FCF5F3FECF3983EB8
:1035C000DCF3869577956795B795F795E7959F5FB7
:1035D000C1F7FE2B880F911D9695879597F9089551
:1035E00011F40EF41FCF45C06CDFD0F39923D9F34B
:1035F000CEF39F57550B87FF4AD00024A0E640EA40
:10360000900180585695979528F4805C660F771F37
:10361000881F20F026173707480730F4621B730B0A
:10362000840B202931294A2BA6951794079420252D
:1036300031254A2758F7660F771F881F20F0261775
:103640003707480730F4620B730B840B200D311DD4
:10365000411DA09581F7B901842F9158880F969547
:10366000879508959B01AC0158CFB2DE880B990B6A
:1036700008959F3F31F0915020F487957795679595
:10368000B795880F911D9695879597F90895915054
:103690005040660F771F881FD2F70895A1E21A2EB7
:1036A000AA1BBB1BFD010DC0AA1FBB1FEE1FFF1FE6
:1036B000A217B307E407F50720F0A21BB30BE40B36
:1036C000F50B661F771F881F991F1A9469F760957D
:1036D0007095809590959B01AC01BD01CF01089537
:1036E000EE0FFF1F0590F491E02D19940790F691CD
:0836F000E02D1994F894FFCFBE
:1036F8000000DC0C2000FFFF5461736B2031004593
:103708006E74657200416363656C65726F6D657494
:103718006572204461746120696E202767273A002A
:1037280009004779726F73636F7065204461746133
:1037380020696E203A00456E640049444C450000FB
:1037480000000056112711FC100411171126110052
:1037580000000017126415C211EB11D2110C126E81
:0E376800616E00696E66006F7666002E0000CE
:00000001FF
