S01400004672656552544F53323536302E7372656379
S1130000DCC100000BC2000009C2000007C20000EE
S113001005C2000003C2000001C20000FFC10000CD
S1130020FDC10000FBC10000F9C10000F7C10000E0
S1130030F5C100000C94A611F1C10000EFC100004D
S1130040EDC10000EBC10000E9C10000E7C1000000
S11300500C944513E3C10000E1C100000C94B025E9
S1130060DDC100000C94C3200C94C321D7C100004F
S1130070D5C10000D3C10000D1C10000CFC1000030
S1130080CDC10000CBC10000C9C10000C7C1000040
S11300900C9403210C940222C1C100000C948D1A0B
S11300A0BDC10000BBC10000B9C10000B7C1000060
S11300B0B5C10000B3C10000B1C10000AFC1000070
S11300C0ADC10000ABC10000A9C100000C944321E4
S11300D00C944122A3C100000C9483210C9480222F
S11300E09DC10000084AD73B3BCE016E84BCBFFDD6
S11300F0C12F3D6C74319ABD56833DDA3D00C77FF4
S113010011BED9E4BB4C3E916BAAAABE000000808C
S11301103F05A84CCDB2D44EB93836A9020C50B91B
S1130120918688083CA6AAAA2ABE000000803F0047
S1130130D726DB26CB26D1262027DF26E526EB266D
S1130140F126F726FD260327092720270F27152741
S11301501B274572726F722072656164696E672035
S113016073656E736F7200693263526561642074E3
S1130170696D656F757400693263526561642066E8
S113018061696C65643A2000693263577269746509
S1130190206661696C65643A20000000090A02085F
S11301A00B0C0D0706030401000000000000000012
S11301B0000000000000000000000000000000003B
S11301C000000000000011100F00000000000000FB
S11301D0000000000000000000000000000000001B
S11301E00102102020080810204010204080020145
S11301F0020108040201010204081020408080402A
S11302002010080402018004020180402010080428
S113021002010804020101020408102040800102C6
S1130220040810204080050505050705080808088E
S1130230020202020A0A080804040404010101017A
S11302400101010103030303030303030407070775
S11302500C0C0C0C0C0C0C0C02020202060606061A
S1130260060606060B0B0B0B0B0B0B0B00002000FA
S11302702300260029002C002F003200000100007A
S113028003010601090100002200250028002B00BB
S11302902E003100340002010000050108010B01A9
S11302A000002100240027002A002D003000330024
S11302B001010000040107010A0100407A10F35A09
S11302C000A0724E18090010A5D4E80000E8764892
S11302D0170000E40B54020000CA9A3B000000E13E
S11302E0F505000080969800000040420F000000D1
S11302F0A08601000000102700000000E8030000B1
S113030000006400000000000A000000000001007A
S1130310000000002C76D888DC674F0823DFC1DF9B
S1130320AE59E1B1B796E5E3E453C63AE65199769E
S113033096E8E6C28426EB898C9B62ED407C6FFCD8
S1130340EFBC9C9F40F2BAA56FA5F490055A2AF71A
S11303505C936B6CF9676DC11BFCE0E40D47FEF523
S113036020E6B500D0ED902E03009435770500808B
S1130370841E080000204E0A000000C80C333333EA
S1130380330F986E12831141EF8D2114893BE6558A
S113039016CFFEE6DB18D1844B381BF77C1D901D6D
S11303A0A4BBE424203284725E228100C9F124ECCF
S11303B0A1E53D277506811C862311241FBECFEFBE
S11303C0D1E2DEBFCDBF00E00CBF12E0A0E0B2E09E
S11303D0E2ECF4E500E00BBF02C007900D92AC3EE6
S11303E0B107D9F72CE1ACEEB2E001C01D92A733FE
S11303F0B207E1F713E0CAEBD3E000E006C02297AE
S11304000109FE010BBF0E94CB27C43BD10780E04A
S11304100807A9F70E94A40F0C945F2AF1CD2F922C
S11304203F924F925F926F927F928F929F92AF9280
S1130430BF92CF92DF92EF92FF920F931F93CF93CD
S1130440DF93CDB7DEB76C970FB6F894DEBF0FBE5F
S1130450CDBF1C014D8B5E8B6F8B788FC901B801AA
S1130460D10150962D913D914D915C915397298BDB
S11304703A8B4B8B5C8B0E94841C9B01AC01F10179
S1130480648B758B868B978BC701B6010E94621FA4
S1130490D1011C962D913D914D915C911F970E9425
S11304A0851C6D877E878F87988BD10194962D91BB
S11304B03D914D915C91979729833A834B835C835B
S11304C0C701B6010E94621F4B015C01D1015C9619
S11304D02D913D914D915C915F972D833E834F8388
S11304E0588790962D913D914D915C9193972987D2
S11304F03A874B875C872D813E814F8158850E94C6
S1130500841C29853A854B855C850E94841CF101F5
S113051020813181428153810E94851C9B01AC0161
S1130520C701B6010E94621FD10158962D913D91D9
S11305304D915C915B970E94851C2B013C01A501A8
S113054094016D817E818F8198850E94841C6D83C6
S11305507E838F839887A501940169857A858B852D
S11305609C850E94841C69877A878B879C87F1010C
S11305702481358146815781C701B6010E94621FDB
S11305809B01AC0169817A818B819C810E94851CCD
S1130590698F7A8F8B8F9C8FD10118962D913D9105
S11305A04D915C911B97C301B2010E94851C6B01A4
S11305B07C01F10164AB75AB86AB97AB9B01AC01DD
S11305C0C301B2010E94521D4B015C01D1019896F6
S11305D06D937D938D939C939B97A7019601698559
S11305E07A858B859C850E94521D6B017C01F101EB
S11305F064A775A786A797A72D853E854F8558893B
S11306006D897E898F89988D0E94841C69837A8381
S11306108B839C83D101D0966D937D938D939C9312
S1130620D3979B01AC01C501B4010E94621F9B01D9
S1130630AC016D857E858F8598890E94851C6D87A8
S11306407E878F87988BF101648775878687978764
S113065029813A814B815C81C701B6010E94621FE6
S11306609B01AC0169897A898B899C890E94851CCC
S1130670D10150966D937D938D939C935397A301D1
S11306809201C501B4010E94621F9B01AC01C30128
S1130690B2010E94841C2B013C01F101608F718F17
S11306A0828F938F2D813E814F815885C501B4017E
S11306B00E94621F9B01AC016D817E818F819885B0
S11306C00E94841C4B015C01D1015C966D937D9367
S11306D08D939C935F97A3019201C701B6010E9479
S11306E0621F9B01AC0169857A858B859C850E947C
S11306F0841CF10160A371A382A393A3A5019401B7
S1130700C701B6010E94621F9B01AC01698D7A8DFD
S11307108B8D9C8D0E94841CD10194966D937D9346
S11307208D939C9397976D857E858F8598896C961C
S11307300FB6F894DEBF0FBECDBFDF91CF911F91EE
S11307400F91FF90EF90DF90CF90BF90AF909F906C
S11307508F907F906F905F904F903F902F9008956F
S11307608F929F92AF92BF92CF92DF92EF92FF92BD
S1130770C0905403D0905503E0905603F090570373
S11307808090580390905903A0905A03B0905B0353
S1130790A7019601C501B4010E94F81C21EE3EE2B6
S11307A045E652E40E94621F609336037093370358
S11307B08093380390933903A5019401C501B401D2
S11307C00E94621F4B015C01A7019601C701B6019B
S11307D00E94621F9B01AC01C501B4010E94851CEB
S11307E00E94CF1F9B01AC0180915C0390915D033B
S11307F0A0915E03B0915F03BC01CD0190580E94AB
S1130800521D0E94231D21EE3EE245E652E40E9461
S1130810621F609332037093330380933403909385
S11308203503FF90EF90DF90CF90BF90AF909F90F3
S11308308F9008954F925F926F927F928F929F92C2
S1130840AF92BF92CF92DF92EF92FF92CF93DF935A
S1130850CDB7DEB764970FB6F894DEBF0FBECDBF39
S11308602091F0023091F1024091F2025091F30292
S1130870609140037091410380914203909143033E
S11308800E94621F2B013C0180913C0390913D0327
S1130890A0913E03B0913F03BC01CD01905820913B
S11308A0F4023091F5024091F6025091F7020E9451
S11308B0621F6B017C018091440390914503A091D8
S11308C04603B0914703BC01CD0190582091EC023E
S11308D03091ED024091EE025091EF020E94621FAE
S11308E020910602309107024091080250910902BA
S11308F00E94841C4B015C01609344037093450384
S1130900809346039093470320910A0230910B028F
S113091040910C0250910D02C301B2010E94841C4B
S113092069837A838B839C83609340037093410330
S1130930809342039093430320910E0230910F025F
S11309404091100250911102C701B6010E94841C0B
S11309506B017C0160933C0370933D0380933E03E1
S113096090933F0325E33AEF4EE85CE36091120372
S11309707091130380911403909115030E94621FD8
S11309802B013C0125E33AEF4EE85CE360910E0352
S113099070910F0380911003909111030E94621FC4
S11309A06D877E878F87988BC301B2010E94C51F14
S11309B06D837E838F839887C301B2010E944F1D8C
S11309C069877A878B879C876D857E858F859889D3
S11309D00E944F1D9B01AC016D857E858F85988992
S11309E0298B3A8B4B8B5C8B0E94C51F2B013C01DE
S11309F029893A894B895C89C501B4010E94621F27
S1130A004B015C01A301920169817A818B819C81F4
S1130A100E94621F2D813E814F8158850E94621F72
S1130A209B01AC01C501B4010E94851C4B015C0112
S1130A30A3019201C701B6010E94621F29853A856C
S1130A404B855C850E94621F9B01AC01C501B4010A
S1130A500E94851C4B015C012D813E814F8158858C
S1130A60C701B6010E94621F6B017C0129853A858A
S1130A704B855C8569817A818B819C810E94621F90
S1130A809B01AC01C701B6010E94841C9058A501CA
S1130A9094010E94F81C21EE3EE245E652E40E94D5
S1130AA0621FDC01CB01B05880932E0390932F0377
S1130AB0A0933003B093310364960FB6F894DEBF6D
S1130AC00FBECDBFDF91CF91FF90EF90DF90CF901D
S1130AD0BF90AF909F908F907F906F905F904F905A
S1130AE008958130910549F46130710511F461E094
S1130AF001C060E08091140218C0029721F46130B3
S1130B00710581F408C06130710539F461E08091A8
S1130B1014020E945F2761E006C060E08091140225
S1130B200E945F2760E0809112020C945F27CF92AD
S1130B30DF92EF92FF92CF93DF93EC0122E12C9F9F
S1130B40C0012D9F900D1124825F9B4F0E9478114C
S1130B5069E370E00E948F2780E090E00E94EB1D23
S1130B606B017C012196C230D105F1F024F4C1302F
S1130B70D10521F04CC025977CF149C020E030E03C
S1130B8040E752E40E944B1D87FF41C020E030E063
S1130B90A901C701B6010E94571F1816C4F5D093C6
S1130BA05904C093580433C020E030E040E752E4D5
S1130BB00E944B1D87FF2BC020E030E0A901C70134
S1130BC0B6010E94571F181614F581E090E0909327
S1130BD05704809356041BC020E030E040EA52E4FE
S1130BE00E944B1D87FF13C020E030E0A901C7011C
S1130BF0B6010E94571F181654F481E090E09093B8
S1130C005704809356049093590480935804DF91B9
S1130C10CF91FF90EF90DF90CF90089520E049E1CD
S1130C2050E060E070E080910804909109040E9413
S1130C30A514813009F052C010925904109258043E
S1130C40109257041092560480E090E070DF81E027
S1130C5090E06DDF82E090E06ADF83E090E067DFA0
S1130C608091580490915904019729F461E070E04F
S1130C7081E090E036DF809156049091570401970B
S1130C8029F461E070E082E090E02BDF8091580469
S1130C9090915904892B29F460E070E081E090E0A0
S1130CA020DF8091560490915704892B29F460E049
S1130CB070E082E090E015DF20E040E050E060E08A
S1130CC070E080910804909109040E94F0130E943E
S1130CD0831288EE93E00E94D717A0CF68E172E0F8
S1130CE08CEE99E10E94E324FFCF0F931F9328EC2D
S1130CF030E04BE26AE28EE094E00E94B21028EC0D
S1130D0030E04DE26CE280E294E00E94B21028EC04
S1130D1030E041E360E382E394E00E94B21028EC07
S1130D2030E043E362E384E494E00E94B2100FE60F
S1130D3012E123E83AE30093D0031093D103209304
S1130D40D2033093D30346EA5BE964E47BE3409344
S1130D50D4035093D5036093D6037093D7038FE8DD
S1130D6092ECA5EFBCE38093D8039093D903A093AE
S1130D70DA03B093DB031092DC031092DD031092CC
S1130D80DE031092DF031092E0031092E10310924D
S1130D90E2031092E3031092E8031092E903109225
S1130DA0EA031092EB031092EC031092ED031092FD
S1130DB0EE031092EF031092F0031092F1031092DD
S1130DC0F2031092F3031092F4031092F5031092BD
S1130DD0F6031092F703009398031093990320935A
S1130DE09A0330939B0340939C0350939D03609319
S1130DF09E0370939F038093A0039093A103A093F9
S1130E00A203B093A3031092A4031092A50310921B
S1130E10A6031092A7031092A8031092A90310929C
S1130E20AA031092AB031092B0031092B103109274
S1130E30B2031092B3031092B4031092B50310924C
S1130E40B6031092B7031092B8031092B90310922C
S1130E50BA031092BB031092BC031092BD0310920C
S1130E60BE031092BF0300936003109361032093A9
S1130E706203309363034093640350936503609368
S1130E806603709367038093680390936903A09348
S1130E906A03B0936B0310926C0310926D0310926B
S1130EA06E0310926F0310927003109271031092EC
S1130EB072031092730310927803109279031092C4
S1130EC07A0310927B0310927C0310927D0310929C
S1130ED07E0310927F03109280031092810310927C
S1130EE0820310928303109284031092850310925C
S1130EF08603109287031F910F910895EF92FF923A
S1130F000F931F93CF93DF931F92CDB7DEB7162FA6
S1130F107A01682F84E399E129830E94651C612F7B
S1130F2084E399E10E94121C2981422F50E0B70109
S1130F3084E399E10E94E61B602F84E399E10E9417
S1130F406F1C182F882369F068E871E08CEE99E132
S1130F500E947B244AE050E0612F8CEE99E10E94CC
S1130F609B25812F0F90DF91CF911F910F91FF90BF
S1130F70EF9008950F93CF93DF931F92CDB7DEB711
S1130F804983022F21E0AE014F5F5F4FB7DF0F901F
S1130F90DF91CF910F910895CF92DF92EF92FF925C
S1130FA00F931F93CF93DF93D82FC62FF42EE52EE4
S1130FB0122F682F84E399E10E94651C6C2F84E34F
S1130FC099E10E94121C60E084E399E10E946F1C85
S1130FD0C82F882379F067E771E08CEE99E10E94CD
S1130FE07B244AE050E06C2F8CEE99E10E949B2513
S1130FF08C2F40C021E0412F6D2F84E399E10E94A2
S1131000591C0F2DCF2DDE2D8C2F801B811718F529
S113101084E399E10E94BB1B892BB1F40E9406264C
S11310206B017C010E9406266C197D098E099F09BB
S1131030683E73408105910580F484E399E10E9440
S1131040BB1B892B51F4EECF84E399E10E94C31BAF
S113105088832196D9CF80E00DC084E399E10E9472
S1131060BB1B892B89F767E671E08CEE99E10E943E
S1131070D32485E0DF91CF911F910F91FF90EF90E2
S1131080DF90CF9008952EE048EF52E06BE388E6BE
S113109083DF8111F8CF6091F80270E0762F662724
S11310A08091F902682B882777FD8095982F0E94FC
S11310B0ED1D60935C0370935D0380935E039093D6
S11310C05F038091FA0290E0982F88272091FB0219
S11310D0822B66277727681B790B882777FD8095F5
S11310E0982F0E94ED1D60935803709359038093C9
S11310F05A0390935B036091FC0270E0762F66279D
S11311008091FD02682B882777FD8095982F0E9497
S1131110ED1D60935403709355038093560390938D
S113112057038091FE0290E0982F88272091FF02B8
S1131130822B90933B0380933A036091000370E009
S1131140762F662771956195710980910103682B4B
S1131150882777FD8095982F0E94ED1D609350039A
S1131160709351038093520390935303609102034D
S113117070E0762F662780910303682B882777FD1C
S11311808095982F0E94ED1D60934C0370934D033E
S113119080934E0390934F036091040370E0762F85
S11311A0662771956195710980910503682B8827DD
S11311B077FD8095982F0E94ED1D609348037093EE
S11311C0490380934A0390934B03089526E048EF24
S11311D052E063E08EE1E0DE8111F8CF6091F80225
S11311E070E0762F66278091F902682B882777FDB7
S11311F08095982F0E94ED1D6093440370934503DE
S113120080934603909347036091FA0270E0762F2F
S113121066278091FB02682B882777FD8095982F9D
S11312200E94ED1D60933C0370933D0380933E0345
S113123090933F036091FC0270E0762F66278091C3
S1131240FD02682B882777FD8095982F0E94ED1D5D
S1131250609340037093410380934203909343034C
S113126008954F925F926F927F928F929F92AF9266
S1131270BF92CF92DF92EF92FF92CF93DF93CDB7DD
S1131280DEB72C970FB6F894DEBF0FBECDBF21E0BA
S113129041E160E08EE16EDE64E670E080E090E0C3
S11312A00E942C2693DF6091440370914503809142
S11312B04603909147030E94BA1D2B013C016091A3
S11312C040037091410380914203909143030E9433
S11312D0BA1D6B017C0160913C0370913D038091C8
S11312E03E0390913F030E94BA1D69837A838B83E6
S11312F09C8321E042E160E08EE13CDE64E670E044
S113130080E090E00E942C2661DF6091440370919C
S1131310450380914603909147030E94BA1D6D8353
S11313207E838F83988760914003709141038091FD
S11313304203909143030E94BA1D4B015C016091EA
S11313403C0370913D0380913E0390913F030E94C2
S1131350BA1D69877A878B879C8721E040E160E02A
S11313608EE108DE6D817E8164197509882777FD19
S11313708095982F0E94ED1D9B01AC0160E070E404
S11313808CE195EC0E94521D6093EC027093ED0287
S11313908093EE029093EF028C189D08B401882785
S11313A077FD8095982F0E94ED1D9B01AC0160E0B4
S11313B070E48CE195EC0E94521D6093F0027093EE
S11313C0F1028093F2029093F30269857A85898110
S11313D09A81681B790B882777FD8095982F0E9446
S11313E0ED1D9B01AC0160E070E48CE195EC0E9482
S11313F0521D6093F4027093F5028093F602909369
S1131400F7022C960FB6F894DEBF0FBECDBFDF9166
S1131410CF91FF90EF90DF90CF90BF90AF909F90CF
S11314208F907F906F905F904F900895CF93DF934C
S1131430CDB7DEB7C859D1090FB6F894DEBF0FBED9
S1131440CDBF20E04BE450E060E070E08091080400
S1131450909109040E94A514813009F071C413DE2F
S1131460B5DE0E9406260091060310910703209121
S1131470080330910903601B710B820B930B0E94CC
S1131480EB1D20E034E244E759E40E94521D4B0175
S11314905C010E9406266093060370930703809301
S11314A00803909309035CD920E030E043E053E45F
S11314B060915003709151038091520390915303B2
S11314C00E94521DCF56DF4F688379838A839B83A2
S11314D0C159D04020E030E043E053E460914C0334
S11314E070914D0380914E0390914F030E94521DC1
S11314F0C357DF4F688379838A839B83CD58D04059
S1131500409036035090370360903803709039034D
S113151020E030E044EB52ECC301B2010E944B1DC9
S113152087FF10C020E030E044EB52E460911203E6
S11315307091130380911403909115030E94571F17
S11315401816D4F020E030E044EB52E4C301B201B9
S11315500E94571F18168CF520E030E044EB52EC43
S113156060911203709113038091140390911503F9
S11315700E944B1D87FF21C04092DC035092DD0383
S11315806092DE037092DF0340921E0350921F03A9
S1131590609220037092210340921203509213032D
S11315A0609214037092150340922A0350922B0305
S11315B060922C0370922D0318C075016401CF56FC
S11315C0DF4F088119812A813B81C159D040B30181
S11315D0A20180ED93E00E940F02609312037093C6
S11315E013038093140390931503C0901203D090B7
S11315F01303E0901403F090150320E030E0A901F8
S1131600C701B6010E94571F18165CF420E030E0B1
S113161044EB52E4C701B6010E94571F18165CF050
S11316201BC020E030E044EB52ECC701B6010E943D
S11316304B1D87FF11C0C357DF4F88819981AA8151
S1131640BB81CD58D040B058C357DF4F88839983AE
S1131650AA83BB83CD58D0404091320350913303C9
S1131660609134037091350375016401C357DF4FF2
S1131670088119812A813B81CD58D04088E993E0C3
S11316800E940F0260930E0370930F038093100364
S113169090931103CFD820E030E043E053E460910D
S11316A048037091490380914A0390914B030E942F
S11316B0521DCB56DF4F688379838A839B83C55938
S11316C0D04040902E0350902F03609030037090D0
S11316D0310320E030E044EB52ECC301B2010E943C
S11316E04B1D87FF10C020E030E044EB52E46091D2
S11316F00A0370910B0380910C0390910D030E94D7
S1131700571F1816D4F020E030E044EB52E4C30134
S1131710B2010E94571F18168CF520E030E044EB0C
S113172052EC60910A0370910B0380910C03909129
S11317300D030E944B1D87FF21C040926C03509201
S11317406D0360926E0370926F0340921603509281
S11317501703609218037092190340920A0350927F
S11317600B0360920C0370920D034092220350927B
S11317702303609224037092250318C07501640149
S1131780CB56DF4F088119812A813B81C559D0404E
S1131790B301A20180E693E00E940F0260930A0362
S11317A070930B0380930C0390930D03A501940194
S11317B0CF56DF4F688179818A819B81C159D0409E
S11317C00E94621F6B017C0120912A0330912B033C
S11317D040912C0350912D030E94851CCF56DF4F5E
S11317E0688379838A839B83C159D04060932A0399
S11317F070932B0380932C0390932D03A5019401E4
S1131800C357DF4F688179818A819B81CD58D0404D
S11318100E94621FC357DF4F688379838A839B8347
S1131820CD58D040209126033091270340912803BE
S1131830509129030E94851C2B013C0160932603CF
S1131840709327038093280390932903A50194019F
S1131850CB56DF4F688179818A819B81C559D040FD
S11318600E94621FCB56DF4F688379838A839B83F0
S1131870C559D04020912203309123034091240381
S1131880509125030E94851C4B015C016093220347
S113189070932303809324039093250320911E03C4
S11318A030911F034091200350912103C701B601D9
S11318B00E94851C2BE734E14EE65FE30E94621F21
S11318C06B017C0129E23CE54FE85DE3609136035E
S11318D07091370380913803909139030E94621FFD
S11318E09B01AC01C701B6010E94851C60931E03D5
S11318F070931F03809320039093210320911A0374
S113190030911B0340911C0350911D03C357DF4FBB
S1131910688179818A819B81CD58D0400E94851C41
S11319202BE734E14EE65FE30E94621F6B017C010A
S113193029E23CE54FE85DE36091320370913303A3
S113194080913403909135030E94621F9B01AC0186
S1131950C701B6010E94851C60931A0370931B0390
S113196080931C0390931D0380912E0390912F0369
S1131970A0913003B0913103C357DF4F888399831B
S1131980AA83BB83CD58D04020911603309117030E
S11319904091180350911903CB56DF4F6881798128
S11319A08A819B81C559D0400E94851C2BE734E174
S11319B04EE65FE30E94621F6B017C0129E23CE575
S11319C04FE85DE3C357DF4F688179818A819B814A
S11319D0CD58D0400E94621F9B01AC01C701B601E3
S11319E00E94851C60931603709317038093180359
S11319F09093190320E030E044E353ECCF56DF4FDB
S1131A00688179818A819B81C159D0400E944B1D94
S1131A1087FD10C020E030E044E353E4CF56DF4FAD
S1131A20688179818A819B81C159D0400E94571F66
S1131A30181684F48091120390911303A091140357
S1131A40B091150380932A0390932B03A0932C0346
S1131A50B0932D0320E030E044E353ECC301B20122
S1131A600E944B1D87FD0AC020E030E044E353E4AC
S1131A70C301B2010E94571F181684F480910E030B
S1131A8090910F03A0911003B0911103809326034A
S1131A9090932703A0932803B093290320E030E018
S1131AA044E353ECC501B4010E944B1D87FD0AC0F9
S1131AB020E030E044E353E4C501B4010E94571F21
S1131AC0181684F480910A0390910B03A0910C03DF
S1131AD0B0910D038093220390932303A0932403D6
S1131AE0B093250320E030E040E858E360915C03C4
S1131AF070915D0380915E0390915F030E94621F69
S1131B002DEC3CEC4CE151E40E94621F6B017C0122
S1131B1020E030E040E858E36091580370915903A5
S1131B2080915A0390915B030E94621F2DEC3CEC60
S1131B304CE151E40E94621F2B013C0120E030E0A3
S1131B4040E858E360915403709155038091560323
S1131B50909157030E94621F2DEC3CEC4CE151E440
S1131B600E94621F4B015C0120E030E044EB53E42F
S1131B70C357DF4F688179818A819B81CD58D040DA
S1131B800E94851C20E030E044E353E40E94851C5D
S1131B9020E030E044EB53E40E942F1EC357DF4F94
S1131BA0688379838A839B83CD58D0408E010D57F7
S1131BB01F4F22E043E0C701B6010E94CF270A501D
S1131BC0110922E043E0C301B2010E94CF270A5069
S1131BD0110922E043E0C501B4010E94CF270A5055
S1131BE0110922E043E0C357DF4F688179818A817C
S1131BF09B81CD58D0400E94CF2765E472E0CE018E
S1131C0001960E940328BE016D577F4FCE010196B5
S1131C100E94F82765E672E0CE0101960E94F8273B
S1131C20BE0167587F4FCE0101960E94F8276CE6EB
S1131C3072E0CE0101960E94F827BE0161597F4FE0
S1131C40CE0101960E94F82763E772E0CE01019667
S1131C500E94F827B801CE0101960E94F82768E88F
S1131C6072E0CE0101960E94F8270E94FA250091A5
S1131C705A0410915B0420915C0430915D04601B54
S1131C80710B820B930B693873418105910590F4B4
S1131C90BE016F5F7F4F8CEE99E10E94E3240E94A6
S1131CA0FA25AB01BC012AE030E08CEE99E10E94F8
S1131CB08B2536C0A7019601C701B6010E94621F99
S1131CC06B017C01A3019201C301B2010E94621F56
S1131CD09B01AC01C701B6010E94851C6B017C010C
S1131CE0A5019401C501B4010E94621F9B01AC01CE
S1131CF0C701B6010E94851C6B017C0120E030E025
S1131D004AEA52E40E944B1D181614F620E030E013
S1131D1040EF52E4C701B6010E94571F87FFB8CFB6
S1131D2020E040E050E060E070E080910804909191
S1131D30090456D5E8D382E390E00E94D71781CBFB
S1131D406AE872E08CEE99E10E94E324FFCF0F93DE
S1131D5084E399E10E94501C40E052EC61E070E0A1
S1131D608CEE99E10E9403238CEE99E10E942820D5
S1131D70892BD1F38CEE99E10E945120682F8CEECF
S1131D8099E10E94F3248CEE99E10E942820892B8A
S1131D90D1F38CEE99E10E9451208CE08093B8003D
S1131DA087E08093F8021092F9021092FA021092DE
S1131DB0FB0200E024E048EF52E069E188E69ED8A7
S1131DC08111F7CF21E041E06BE688E6D3D8811199
S1131DD0F9CF21E048EF52E065E788E6DDD88111CC
S1131DE0F8CF8091F802883639F062E571E08CEE24
S1131DF099E10E947B24FFCF21E042E067E388E67B
S1131E00B9D88111F9CF21E040E062E08EE1B2D887
S1131E108111F9CF26DA64E670E080E090E00E9458
S1131E202C2631D9D3D90E94B0030E941A04809180
S1131E30360390913703A0913803B091390380930E
S1131E40DC039093DD03A093DE03B093DF03809360
S1131E502A0390932B03A0932C03B0932D03809318
S1131E601E0390931F03A0932003B093210380913A
S1131E70320390913303A0913403B09135038093DE
S1131E80A4039093A503A093A603B093A703809300
S1131E90260390932703A0932803B09329038093E8
S1131EA01A0390931B03A0931C03B0931D0380910A
S1131EB02E0390912F03A0913003B09131038093AE
S1131EC06C0390936D03A0936E03B0936F038093A0
S1131ED0220390932303A0932403B09325038093B8
S1131EE0160390931703A0931803B09319030E9449
S1131EF00626609306037093070380930803909368
S1131F0009030E94FA256C597F4F8F4F9F4F6093AE
S1131F100A0470930B0480930C0490930D0461E005
S1131F20809114020E94212761E0809112020E9494
S1131F3021278CEE99E10E942820892BD1F38CEE85
S1131F4099E10F910C945120AF92BF92CF92DF92FE
S1131F50EF92FF920F93CF93DF9300D01F92CDB7F0
S1131F60DEB70E945F26F3DE0E94FA2560935A04CE
S1131F7070935B0480935C0490935D0481E0BDD412
S1131F809093090480930804A12CB12CC12CD12C6A
S1131F90CE0103967C0101E020E030E040E052E015
S1131FA067EB72E08EE096E0C9D5CE0101967C0124
S1131FB002E020E030E040E052E063EC72E086E1D1
S1131FC09AE0BCD5A7D680E090E00F900F900F90D8
S1131FD00F90DF91CF910F91FF90EF90DF90CF9012
S1131FE0BF90AF900895CF93DF93EC01C3D6809157
S1131FF05E0490915F04892B31F483E694E090931E
S11320005F0480935E042091600430916104CE01EA
S1132010820F931F8F3F43E1940770F42817390709
S113202058F4C0915E04D0915F04C20FD31F909303
S113203061048093600402C0C0E0D0E04DD7CE01BB
S1132040DF91CF9108950895FC01039692838183D3
S11320502FEF3FEF34832383968385839087878391
S113206010820895FC01118610860895CF93DF93A2
S11320709C01FB01DC011196CD91DC911297D38375
S1132080C2838C819D81958384838C819D81DC01B5
S113209013967C936E9312977D836C83318720878C
S11320A0F90180818F5F8083DF91CF9108950F9331
S11320B01F93CF93DF938C01FB01208131812F3F4C
S11320C08FEF380721F4E801AF81B8850EC0D8013D
S11320D0139612968D919C911397EC014881598126
S11320E02417350710F0DC01F4CF12968D919C91E2
S11320F0139793838283EC01FD83EC83B583A483DC
S11321001396FC93EE93129711870087F801808150
S11321108F5F8083DF91CF911F910F910895CF93AB
S1132120DF93FC01A085B18582819381248135816F
S1132130EC013D832C83C481D5819B838A831196D2
S11321408D919C9112978E179F0721F41296DC9320
S1132150CE931197118610868C9181508C93DF91C8
S1132160CF910895CF93DF93DC0170E0FB01E0523F
S1132170FE4FE4911496EC931497842F90E0FC01A5
S1132180E052FE4FE4911596EC9315976A5D7D4FEE
S1132190FB01C491D0E0CC0FDD1FCA57DD4FFE0117
S11321A04591549117965C934E931697FC01EA5D02
S11321B0FD4F849190E0880F991F84599D4FFC0135
S11321C0459154911B965C934E931A97FB0164912D
S11321D0E62FF0E0EE0FFF1FE056FD4F859194913E
S11321E019969C938E931897C901253FF1E03F07F8
S11321F014F084EF91E049E3489F9001499F300D2A
S11322001124245E3F4F1D963C932E931C97DF911F
S1132210CF9108950F931F93CF93DF93EC01E8853B
S1132220F98580819C81892B8083EE81FF81908157
S11322308C8180958923808384E090E00E945426D9
S1132240EE81FF8180819C81892B80838AE090E0EC
S11322500E945426EE81FF8190818C818095892390
S11322608083E885F98590818C818095892380839A
S11322700E940626605B794B8F4F9F4F6E877F8746
S1132280888B998BEA85FB8580819D81892359F010
S11322900E9406260E851F85288939890617170787
S11322A02807390778F7EA85FB8580819D81892392
S11322B069F40E9406260E851F8528893989061728
S11322C017072807390778F780E00DC00E94062613
S11322D02C853D85620F731F811D911D6E877F873D
S11322E0888B998B81E0DF91CF911F910F91089595
S11322F00F931F93CF93DF93EC018CDF882389F036
S1132300EA85FB8580819D81892371F00E940626E0
S11323100E851F8528893989061717072807390765
S113232078F720E030E00CC00E9406262C853D851D
S1132330255031094E855F85241B350B260F371F29
S1132340C901DF91CF911F910F9108951F920F92B0
S11323500FB60F9211240BB60F922F933F934F9306
S11323605F936F937F938F939F93AF93BF93EF93F9
S1132370FF93E0916218F0916318309709F0199572
S1132380FF91EF91BF91AF919F918F917F916F9149
S11323905F914F913F912F910F900BBE0F900FBE05
S11323A00F901F90189531E1FC013083319722E2A0
S11323B020833197A3E3A08331976083319770839F
S11323C03197108231971082319760E8608331979A
S11323D010823197108231971082319762E06083C6
S11323E0319763E06083319764E06083319765E0FF
S11323F06083319766E06083319767E0608331974B
S113240068E06083319769E06083319760E16083BD
S113241031973083319732E13083319733E1308320
S1132420319734E13083319735E13083319736E1A8
S11324303083319737E13083319738E130833197F6
S113244039E13083319730E23083319731E23083A0
S113245031972083319723E220833197408331974A
S11324605083319726E22083319727E220833197E6
S113247028E22083319729E22083319720E32083C7
S1132480319721E32083899708951092800081E198
S11324908093810080E49FE190938700809386007D
S11324A081E080936F00A091C418B091C518CD91BC
S11324B0CDBFDD91DEBFFF91EF91DF91CF91BF9151
S11324C0AF919F918F917F916F915F914F913F91C8
S11324D02F911F910F91FF90EF90DF90CF90BF90BD
S11324E0AF909F908F907F906F905F904F903F90B0
S11324F02F901F900F900CBE0F900BBE0F900FBE2D
S11325000F90089508950F920FB6F8940F920CB699
S11325100F920BB60F921F9211242F923F924F925B
S11325205F926F927F928F929F92AF92BF92CF925F
S1132530DF92EF92FF920F931F932F933F934F934A
S11325405F936F937F938F939F93AF93BF93CF9337
S1132550DF93EF93FF93A091C418B091C5180DB603
S11325600D920EB60D9271D5A091C418B091C518F4
S1132570CD91CDBFDD91DEBFFF91EF91DF91CF9182
S1132580BF91AF919F918F917F916F915F914F9187
S11325903F912F911F910F91FF90EF90DF90CF907B
S11325A0BF90AF909F908F907F906F905F904F906F
S11325B03F902F901F900F900CBE0F900BBE0F906A
S11325C00FBE0F9008950F920FB6F8940F920CB6A9
S11325D00F920BB60F921F9211242F923F924F929B
S11325E05F926F927F928F929F92AF92BF92CF929F
S11325F0DF92EF92FF920F931F932F933F934F938A
S11326005F936F937F938F939F93AF93BF93CF9376
S1132610DF93EF93FF93A091C418B091C5180DB642
S11326200D920EB60D92ACD381110FD5A091C418A2
S1132630B091C518CD91CDBFDD91DEBFFF91EF9173
S1132640DF91CF91BF91AF919F918F917F916F91C6
S11326505F914F913F912F911F910F91FF90EF90B8
S1132660DF90CF90BF90AF909F908F907F906F90AE
S11326705F904F903F902F901F900F900CBE0F9043
S11326800BBE0F900FBE0F9008959DDF18951F93FA
S1132690CF93DF93EC01142F4C8D41110BC0888133
S11326A09981892B09F040C08A819B810DD61B82B8
S11326B01A823BC050E0111115C08C819D810E948B
S11326C0EF272C8D8C819D81820F911D9D838C839E
S11326D02A813B818217930738F1888199819D83F0
S11326E08C8322C08E819F810E94EF272C8D30E045
S11326F03195219531098E819F81820F931F9F838C
S11327008E83688179818617970730F48A819B814B
S1132710820F931F9F838E83123031F48A8D882316
S113272019F08A8D81508A8F80E09A8D9F5F9A8FED
S1132730DF91CF911F910895FC01CB01448D442377
S1132740A1F050E026813781240F351F378326837B
S1132750628173812617370720F020813181378306
S11327602683668177810C94EF2708950F931F9336
S1132770CF93DF93EC010FB6F8940F928C010F5EA8
S11327801F4F8E8D18165CF48989882341F0C80187
S1132790C6D4811140D58E8D81508E8FF2CF8FEFAC
S11327A08E8F0F900FBE0FB6F8940F928E01085FB4
S11327B01F4F8D8D18165CF48885882341F0C8015D
S11327C0AED4811128D58D8D81508D8FF2CF8FEFAE
S11327D08D8F0F900FBEDF91CF911F910F910895B0
S11327E0BF92CF92DF92EF92FF920F931F93CF93FA
S11327F0DF9300D01F921F92CDB7DEB78C016B011F
S11328005D834C83B22E20E07C0188E0E80EF11C4D
S11328100FB6F8940F92F801928D838D981718F0E3
S1132820F2E0BF1215C04B2DB601C80130DFF8012C
S11328309189992339F0C801419671D4813021F4EA
S113284062DE02C08111FCCF0F900FBE81E046C052
S11328508C819D81892B19F40F900FBE3EC02111EC
S113286003C0CE0101969BD40F900FBE83D20FB646
S1132870F8940F92F801858D8F3F09F4158EF801B5
S1132880868D8F3F09F4168E0F900FBEBE016C5FCC
S11328907F4FCE0101968ED481111CC00FB6F894DF
S11328A00F92F801928D0F900FBEF801838D98134B
S11328B00DC06C817D81C70108D4C80157DF0CD3DA
S11328C0882311F021E0A4CF1EDEFCCFC8014EDF27
S11328D003D3F8CFC8014ADFFFD280E00F900F90F6
S11328E00F900F900F90DF91CF911F910F91FF9058
S11328F0EF90DF90CF90BF900895CF93DF938FE157
S113290090E071DBEC010097E1F01B821A821982DE
S113291018821D821C821F821E821A8E81E08B8F78
S11329201C8E8FEF8D8F8E8FCE0108968DDBCE019E
S113293041968ADB20E040E050E060E070E0CE01A8
S11329404FDFCE01DF91CF910895BF92CF92DF92F6
S1132950EF92FF920F931F93CF93DF9300D01F92B8
S11329601F92CDB7DEB78C016B015D834C83B22E11
S113297030E07C0181E1E80EF11C0FB6F8940F926F
S1132980F801828D882361F1E680F780B601C801E1
S1132990D3DEF801B11016C0828D8150828F808100
S11329A09181892B21F4C9D4F80193838283F8019E
S11329B08085882389F0C8010896B1D3813061F4F9
S11329C0A2DD0AC0F782E6828189882329F0C80142
S11329D04196A5D38111F4CF0F900FBE81E052C070
S11329E08C819D81892B19F40F900FBE4AC031113F
S11329F003C0CE010196D3D30F900FBEBBD10FB647
S1132A00F8940F92F801858D8F3F09F4158EF80123
S1132A10868D8F3F09F4168E0F900FBEBE016C5F3A
S1132A207F4FCE010196C6D3811128C00FB6F8940A
S1132A300F92F801828D0F900FBE81111BC0F80117
S1132A4080819181892B49F40FB6F8940F92F80193
S1132A5082819381E4D30F900FBE6C817D81C70185
S1132A6034D3C80183DE38D2882311F031E085CF16
S1132A704ADDFCCFC8017ADE2FD2F8CFC80176DE5A
S1132A802BD280E00F900F900F900F900F90DF915A
S1132A90CF911F910F91FF90EF90DF90CF90BF9057
S1132AA00895E0918C18F0918D188081811103C0F4
S1132AB08FEF9FEF0CC0E0918C18F0918D1805807A
S1132AC0F681E02D0680F781E02D82819381909339
S1132AD01702809316020895CF93DF93EC01E091DF
S1132AE0C418F091C5189383828380916B189091D8
S1132AF06C186091C4187091C518C817D90748F4A8
S1132B0080918A1890918B186E5F7F4FDF91CF91DF
S1132B10CECA80918C1890918D186E5F7F4FC7DA62
S1132B208091160290911702C817D90720F4D09308
S1132B301702C0931602DF91CF9108955F926F92AE
S1132B407F928F929F92AF92BF92CF92DF92EF9239
S1132B50FF920F931F93CF93DF934C01162F572EA1
S1132B605A01390183E290E03EDAEC01009709F45E
S1132B70C0C0C114D10419F4C50135DA01C0C601BD
S1132B80988F8F8B009719F4CE015DDAB2C021E0E3
S1132B90A21AB108A80EB91EE12FF52D80E090E02D
S1132BA0BF0141919E01280F391FD90159964C93B9
S1132BB0DB012C91222321F001968830910581F7C5
S1132BC018A2102F043008F013E01E8B19A31AA2C8
S1132BD06E01B2E0CB0ED11CC60144DACE010C96D4
S1132BE041DAD987C88784E090E0811B91099D87E9
S1132BF08C87DB8BCA8BA301B401C501D4DB998319
S1132C008883E114F10419F0F701D183C0830FB66E
S1132C10F8940F9280916D188F5F80936D18809156
S1132C20C4189091C518892B89F5D093C518C09301
S1132C30C41880916D18813009F037C080EA98E19A
S1132C4003DA89EA98E100DA82EB98E1FDD98BEBAB
S1132C5098E1FAD987E998E1F7D98EE898E1F4D9AF
S1132C6081E898E1F1D988E798E1EED98EE698E118
S1132C70EBD987E998E190938D1880938C188EE8AE
S1132C8098E190938B1880938A180FC080916918EB
S1132C9081110BC0E091C418F091C51886890817FA
S1132CA020F0D093C518C093C418809165188F5F25
S1132CB0809365188E8990916A18981710F4809300
S1132CC06A18F9E08F9FC0011124B6018056974E0F
S1132CD0CDD90F900FBE80916918882341F0E091FF
S1132CE0C418F091C5188689801708F40CDC81E0BB
S1132CF001C08FEFDF91CF911F910F91FF90EF9063
S1132D00DF90CF90BF90AF909F908F907F906F9007
S1132D105F900895AF92BF92CF92DF92EF92FF92AD
S1132D200F93A12CB12CC12CD12CE12CF12C00E05F
S1132D3020E030E045E550E067EC72E087EF97E192
S1132D40FDDE813079F4F8948093691810926C1840
S1132D5010926B180F91FF90EF90DF90CF90BF907F
S1132D60AF9093CB0F91FF90EF90DF90CF90BF90F7
S1132D70AF900895809164188F5F809364180895CC
S1132D80CF92DF92EF92FF920F931F93CF93DF9333
S1132D908091641881118AC080916B1890916C188D
S1132DA0019690936C1880936B1800916B18109196
S1132DB06C1801151105B1F480918C1890918D183F
S1132DC020918A1830918B1830938D1820938C1889
S1132DD090938B1880938A18809166188F5F8093E4
S1132DE066185FDE8091160290911702D12C0817A5
S1132DF0190708F44AC089E0C82EE0918C18F091B4
S1132E008D188081811107C08FEF9FEF9093170277
S1132E10809316023AC0E0918C18F0918D180580C9
S1132E20F681E02DC681D7812A813B8102171307E1
S1132E3028F4309317022093160227C07E0182E003
S1132E40E80EF11CC7016BD92C893D89232B19F09D
S1132E50CE010C9664D92E8980916A18821710F4D9
S1132E6020936A18C29EC0011124B7018056974E60
S1132E70FDD8E091C418F091C5189E8986899817E9
S1132E8008F4BBCFDD24D394B8CFE091C418F091FB
S1132E90C518E68989E0E89FF0011124E056F74E51
S1132EA08081823048F0DD24D39406C08091681874
S1132EB08F5F80936818D12C80916718882311F054
S1132EC0DD24D3948D2DDF91CF911F910F91FF902D
S1132ED0EF90DF90CF900895EF92FF920F931F939E
S1132EE0CF93DF930FB6F8940F92809164188150BA
S1132EF08093641880916418882311F080E04EC098
S1132F0080916D188823D1F399E0F92EEE24E3948F
S1132F1080918118882339F1E0918618F0918718FF
S1132F20C681D781CE010C96FAD88E010E5F1F4F51
S1132F30C801F5D88E8990916A18981710F4809377
S1132F406A18F89EC0011124B8018056974E8ED895
S1132F50E091C418F091C5189E8986899817C0F22B
S1132F60E0926718D5CF80916818811108C08091CC
S1132F706718813009F0C2CFC6DA81E00FC0C1E022
S1132F8080916818882399F3FBDE8111C093671838
S1132F9080916818815080936818F2CF0F900FBE0B
S1132FA0DF91CF911F910F91FF90EF9008950F93B0
S1132FB01F93CF93DF938C01009711F4A4DA12C00E
S1132FC0D9DEC0916B18D0916C18C00FD11F8091BD
S1132FD0C4189091C5180296A2D8CE017DDD7CDF7D
S1132FE0882361F3DF91CF911F910F910895809110
S1132FF07718882321F1BEDEC09178186DDFCC23C9
S1133000B1F30FB6F8940F92E0917D18F0917E1809
S1133010C681D781CE01029682D880916D188150E5
S113302080936D18809177188150809377180F9052
S11330300FBE8F89988D07D8CE0105D8D8CF80913F
S1133040A0188230A0F25FDAD2CF8091641888236E
S113305021F081E08093671808951092671899E031
S1133060E0916A189E9FF0011124E056F74E80818A
S1133070811106C080916A18815080936A18F0CF3C
S1133080E0916A1889E0E89FF0011124E056F74EB8
S1133090A181B28112960D90BC91A02DB283A1831F
S11330A0CF010396A817B90731F412968D919C911C
S11330B01397928381830180F281E02D8681978129
S11330C09093C5188093C4180895CF93DF93EB01B0
S11330D06091C4187091C518645F7F4F0E945710A7
S11330E08091C4189091C518029619D8CF3F8FEFDC
S11330F0D80761F46091C4187091C5186E5F7F4F52
S11331008EE698E1DF91CF910C94361080916B1884
S113311090916C188C0F9D1FDF91CF91DDCC0F9394
S11331201F93CF93DF93DC011596ED91FC911697D5
S1133130C681D7818E01045F1F4FC8010E948F1082
S113314080916418811114C00A501109C8010E94A9
S11331508F108E8990916A18981710F480936A18CA
S1133160B9E08B9FC0011124B8018056974E03C06B
S1133170B80181E898E10E943610E091C418F091FA
S1133180C5189E898689891720F481E08093671881
S113319001C080E0DF91CF911F910F91089520919C
S11331A06618FC01208320916B1830916C183283CF
S11331B021830895CF93DF930FB6F8940F92E09193
S11331C06B18F0916C18DB014D915C914F3FBFEF90
S11331D05B07C9F0B0916618EC01A88129813A8196
S11331E0BA1719F0E217F30780F4DF01A21BB30B3F
S11331F0A417B50750F42E1B3F0B240F351FFB01FA
S113320031832083CCDF80E001C081E00F900FBECA
S1133210DF91CF91089581E08093671808950F930B
S11332201F93CF93DF93EC01009709F448C08E8974
S1133230E091C418F091C5189689891708F03FC029
S11332402C853D8537FD0BC0E091C418F091C5185D
S1133250968924E030E0291B31093D872C8729E039
S1133260829FC00111248056974E2A853B852817DA
S11332703907F9F48E010E5F1F4FC8010E948F10A9
S1133280E091C418F091C51886898E8B90916A18C4
S1133290981710F480936A1829E0829FC0011124C2
S11332A0B8018056974EDF91CF911F910F910C94E6
S11332B03610E091C418F091C51886898E8BDF9181
S11332C0CF911F910F9108950F931F93CF93DF9385
S11332D0EC01009711F480E02BC08AA181508AA3ED
S11332E02E8999A12917B9F38111F5CF8E010E5FAB
S11332F01F4FC8010E948F1089A18E8B482F50E068
S113330024E030E0241B350B3D872C8790916A180C
S1133310981710F480936A1829E0249FC001259F10
S1133320900D1124B8018056974E0E94361081E00A
S1133330DF91CF911F910F9108958091C4189091BE
S1133340C518892B39F0E091C418F091C51882A1F1
S11333508F5F82A38091C4189091C518089510922C
S1133360331981E0809331191092301961E084E1BE
S11333700E945F2761E085E10E945F27E9EBF0E0AE
S113338080818E7F808380818D7F808388E4809399
S1133390B80085E48093BC000895413208F03FC032
S11333A0909133199111FCCF91E0909333192093AC
S11333B031192FEF2093C61810920B19240F209364
S11333C00A199093321990913219880F892B80939E
S11333D0321980913019813041F410923019809162
S11333E032198093BB0085EC01C085EE8093BC004C
S11333F0809133198130E1F380910B19841710F413
S113340040910B192CE039E1FB01D9018A2F821B71
S1133410841718F48D918193F9CF842F089580E057
S113342008950F93413208F046C0909133199111D9
S1133430FCCF92E090933319009331199FEF90934E
S1133440C61810920B1940930A19FB016CE079E13C
S1133450DB019A2F961B941718F491919D93F9CF41
S11334601092321990913219880F892B8093321956
S113347080913019813041F41092301980913219C1
S11334808093BB0085EC01C085EE8093BC002223B1
S113349021F0809133198230E1F38091C6188F3F77
S11334A061F08091C618803251F08091C618803343
S11334B041F483E007C081E005C080E003C082E0FE
S11334C001C084E00F910895613298F4209133197A
S11334D0243089F46093E818FC018AEE98E1DC0159
S11334E02A2F281B261718F421912D93F9CF80E059
S11334F0089581E0089582E0089585ED8093BC00ED
S11335008091BC0084FDFCCF10923319089585ECA2
S11335108093BC001092331908951F920F920FB636
S11335200F9211240BB60F922F933F934F935F93F7
S11335306F937F938F939F93AF93BF93EF93FF9377
S11335408091B900887F803609F49CC068F5883280
S113355009F45BC090F4803109F454C038F4882332
S113356009F4F3C0883009F44DC0F2C0883109F47D
S11335704CC0803209F45DC0EBC0803409F468C0EB
S113358048F4803309F455C0883309F0E1C08093CE
S1133590C618A7C0803509F44FC0883509F45DC04A
S11335A0883409F0D5C0D3C0883909F4C4C0A8F45C
S11335B0883709F467C038F4883609F463C0803763
S11335C009F460C0C5C0883809F4B5C0803909F46D
S11335D05FC0803809F0BCC05BC0803B09F483C085
S11335E038F4803A09F466C0883A09F47CC0B0C063
S11335F0803C09F4A4C0883C09F4A1C0883B09F4C8
S113360087C0A6C08091321910C090910B19809187
S11336100A19981770F5E0910B1981E08E0F8093C9
S11336200B19F0E0E45FF64E80818093BB0085ECDB
S113363083C08093C6188BC0E0910B1981E08E0F74
S113364080930B198091BB00F0E0E45FF64E808319
S113365090910B1980910A196BC0E0910B1981E0CC
S11336608E0F80930B198091BB00F0E0E45FF64E5F
S113367080838091311981116AC081E0809330196F
S113368084EA5EC083E0809333191092C718CFCFC9
S11336908091C718803208F04EC0E091C71881E0CD
S11336A08E0F8093C7188091BB00F0E0E853F74E6B
S11336B08083BDCF8091C718803230F4E091C71861
S11336C0F0E0E853F74E108218DF6091C71870E0FD
S11336D0E0912C19F0912D1988EC98E1199510922C
S11336E0C71815DF35C084E0809333191092E918A8
S11336F01092E818E0912E19F0912F1919958091E4
S1133700E818811105C081E08093E8181092EA1846
S1133710E091E91881E08E0F8093E918F0E0E6511A
S1133720F74E80818093BB009091E9188091E8184E
S1133730981708F47CCF85E88093BC0009C085EC19
S11337408093BC001092331903C01092C618D5DEC2
S1133750FF91EF91BF91AF919F918F917F916F9165
S11337605F914F913F912F910F900BBE0F900FBE21
S11337700F901F9018958091641990E0209165191D
S1133780821B910908952091651980916419281765
S113379050F4E22FF0E0EA59F64E808190E02F5F7A
S11337A02093651908958FEF9FEF0895E0916519AF
S11337B080916419E81730F4F0E0EA59F64E8081FC
S11337C090E008958FEF9FEF08950895CF92DF92D0
S11337D0EF92FF920F931F93CF93DF937C01CB0162
S11337E08A0120914019222389F0EB016B01C40E58
S11337F0D51ECC15DD0561F06991D701ED91FC91E1
S11338000190F081E02DC7011995F3CF642F5CDEA0
S1133810C801DF91CF911F910F91FF90EF90DF903E
S1133820CF900895CF93DF931F92CDB7DEB769830E
S1133830209140192223D1F020914119203240F0E7
S113384021E030E0FC013383228380E090E014C067
S113385080914219E82FF0E0ED5BF64E9981908358
S11338608F5F809342198093411904C061E0CE01B7
S113387001962ADE81E090E00F90DF91CF910895C8
S1133880FC011382128248EE53E060E070E044834E
S113389055836683778380ED92E0918380830895D6
S11338A010926519109264191092421910924119DC
S11338B056CD862F413208F040E266E679E16DDDAF
S11338C01092651980936419089581E080934019DA
S11338D060936319109242191092411908950F933D
S11338E0062F21E04091411963E479E18091631945
S11338F098DD1092421910924119109240190F91BB
S1133900089584E399E1BCCF5058BB27AA270ED071
S113391083C24CD230F051D220F031F49F3F11F4E5
S11339201EF41CC20EF4E095E7FB04C2E92F96D204
S113393080F3BA17620773078407950718F071F4C8
S11339409EF5AEC20EF4E0950B2EBA2FA02D0B01FE
S1133950B90190010C01CA01A0011124FF27591BD0
S113396099F0593F50F4503E68F11A16F040A22FD6
S1133970232F342F4427585FF3CF46953795279547
S1133980A795F0405395C9F77EF41F16BA0B620B46
S1133990730B840BBAF09150A1F0FF0FBB1F661F8D
S11339A0771F881FC2F70EC0BA0F621F731F841FD0
S11339B048F4879577956795B795F7959E3F08F0F6
S11339C0B3CF9395880F08F09927EE0F97958795B5
S11339D00895ECD158F080E891E009F49EEFEDD120
S11339E028F040E851E059F45EEF09C0B7C158C26D
S11339F0E92FE07833D268F3092E052AC1F326179C
S1133A0037074807590738F00E2E07F8E02569F004
S1133A10E025E0640AC0EF6307F8009407FADB01CD
S1133A20B9019D01DC01CA01AD01EF934AD0F4D183
S1133A300AD05F91552331F02BED3FE049E450FD6E
S1133A4049EC63CF0895DF93DD27B92FBF7740E8B2
S1133A505FE31616170648075B0710F4D92F2BD21D
S1133A609F938F937F936F93D8D2E4EEF0E079D154
S1133A70D3D12F913F914F915F9130D2DD2349F003
S1133A809058A2EA2AED3FE049EC5FE3D0785D2745
S1133A904DDFDF91C1C12AD108F481E0089595D1A9
S1133AA0E395CBC10CD0B8C188D140F07FD130F0C0
S1133AB021F45F3F19F03EC15111F3C14FC1CED182
S1133AC098F39923C9F35523B1F3951B550BBB27E1
S1133AD0AA2762177307840738F09F5F5F4F220F8E
S1133AE0331F441FAA1FA9F333D00E2E3AF0E0E887
S1133AF030D091505040E695001CCAF729D0FE2FD3
S1133B0027D0660F771F881FBB1F26173707480764
S1133B10AB07B0E809F0BB0B802DBF01FF2793581A
S1133B205F4F2AF09E3F510568F004C1BAC15F3F60
S1133B30ECF3983EDCF3869577956795B795F79502
S1133B409F5FC9F7880F911D9695879597F90895FA
S1133B50E1E0660F771F881FBB1F62177307840796
S1133B60BA0720F0621B730B840BBA0BEE1F88F7A5
S1133B70E095089504D06894B11193C1089576D165
S1133B8088F09F5790F0B92F9927B751A0F0D1F042
S1133B90660F771F881F991F1AF0BA95C9F712C0CC
S1133BA0B13081F07DD1B1E008957AC1672F782FCB
S1133BB08827B85F39F0B93FCCF386957795679538
S1133BC0B395D9F73EF490958095709561957F4FA4
S1133BD08F4F9F4F0895E89409C097FB3EF490954A
S1133BE08095709561957F4F8F4F9F4F9923A9F0D2
S1133BF0F92F96E9BB279395F69587957795679561
S1133C00B795F111F8CFFAF4BB0F11F460FF1BC0A4
S1133C106F5F7F4F8F4F9F4F16C0882311F096E937
S1133C2011C0772321F09EE8872F762F05C06623E5
S1133C3071F096E8862F70E060E02AF09A95660F9E
S1133C40771F881FDAF7880F9695879597F9089557
S1133C50ADD018F011F0B1D038F480C022C1E92FF2
S1133C60FDD0B0F35523C9F3E7FB6217730784074C
S1133C709507A8F199F3E92FFF2788232AF03197B4
S1133C80660F771F881FDAF7952F5527442332F0E4
S1133C9091505040220F331F441FD2F7BB27E91B1A
S1133CA0F50B621B730B840BB109C1F222F4620F92
S1133CB0731F841FB11D31972AF0660F771F881F69
S1133CC0BB1FEFCF915050405AF041F0882332F09F
S1133CD0660F771F881F91505040C1F7939530C0ED
S1133CE08695779567959F5FD9F7F8CF990F000868
S1133CF0550FAA0BE0E8FEEF16161706E807F907BA
S1133D00C0F012161306E407F50798F0621B730B54
S1133D10840B950B39F40A2661F0232B242B252BD5
S1133D2021F408950A2609F4A140A6958FEF811D78
S1133D30811D089597F99F6780E870E060E0089519
S1133D409F3F31F0915020F4879577956795B7950B
S1133D50880F911D9695879597F908959FEF80ECAC
S1133D600895DF93CF931F930F93FF92EF92DF9207
S1133D707B018C01689405C0DA2EEF01AFD0FE01FF
S1133D80E894A5912591359145915591AEF3EF01B4
S1133D90CDDDFE019701A801DA9479F7DF90EF9069
S1133DA0FF900F911F91CF91DF91089500240A9401
S1133DB01616170618060906089500240A94121602
S1133DC01306140605060895C9CF50D0E8F3E89405
S1133DD0E0E0BB279F57F0F02AED3FE049EC06C036
S1133DE0EE0FBB0F661F771F881F28F0B23A6207D9
S1133DF07307840728F0B25A620B730B840BE395A4
S1133E009A9572F7803830F49A95BB0F661F771F26
S1133E10881FD2F7904896CF092E0394000C11F412
S1133E20882352F0BB0F40F4BF2B11F460FF04C091
S1133E306F5F7F4F8F4F9F4F0895EF93E0FF06C052
S1133E40A2EA2AED3FE049EC5FEB70DDE5DF0F907D
S1133E50039401FC9058E1E1F1E0E9C057FD90586A
S1133E60440F551F59F05F3F71F04795880F97FB3A
S1133E70991F61F09F3F79F08795089512161306F4
S1133E801406551FF2CF4695F1DF08C01616170623
S1133E901806991FF1CF8695710561050894089558
S1133EA0E894BB2766277727CB0197F908951EDF8F
S1133EB008F48FEF08959B01AC0160E070E080E8A6
S1133EC09FE3F0CD0BD0A8CF71DF28F076DF18F098
S1133ED0952309F02FCF42CF1124E3CFBFDFA0F306
S1133EE0959FD1F3950F50E0551F629FF001729F8B
S1133EF0BB27F00DB11D639FAA27F00DB11DAA1FAA
S1133F00649F6627B00DA11D661F829F2227B00DF6
S1133F10A11D621F739FB00DA11D621F839FA00D81
S1133F20611D221F749F3327A00D611D231F849FD1
S1133F30600D211D822F762F6A2F11249F57504028
S1133F408AF0E1F088234AF0EE0FFF1FBB1F661FC3
S1133F50771F881F91505040A9F79E3F510570F07C
S1133F60E9CE9FCF5F3FECF3983EDCF386957795DF
S1133F706795B795F795E7959F5FC1F7FE2B880F77
S1133F80911D9695879597F908959F931EDF0F903D
S1133F9007FCEE5F52CF11F40EF4E0CED1CE66DF13
S1133FA0D0F39923D9F3CEF39F57550B87FF38D01D
S1133FB00024A0E640EA900180585695979528F48D
S1133FC0805C660F771F881F20F026173707480785
S1133FD030F4621B730B840B202931294A2BA695DC
S1133FE017940794202531254A2758F7660F771F21
S1133FF0881F20F026173707480730F4620B730B2D
S1134000840B200D311D411DA09581F7B901842F2A
S11340109158880F9695879508959B01AC0152CFCE
S113402091505040660F771F881FD2F708959F93D1
S11340308F937F936F93FF93EF939B01AC0142DFC8
S1134040EF91FF918EDE2F913F914F915F913ACF87
S1134050FC0124853585F901E05CFF4F8081918165
S1134060329620813181821B930B8F739927089597
S1134070FC0184859585FC01E05CFF4F4081518102
S11340803296208131814217530741F020813181DA
S1134090FC01E20FF31F808190E008958FEF9FEF02
S11340A00895FC0184859585FC01E05CFF4F408107
S11340B051813296208131814217530781F020814A
S11340C03181DC01A20FB31F8C91208131812F5FDC
S11340D03F4F2F7333273183208390E008958FEF70
S11340E09FEF0895FC0181A1882329F0A489B58953
S11340F08C9186FFFBCF11A208951F93CF93DF937A
S1134100EC018E859F85FC01E05CFF4F0190F081FE
S1134110E02D3196EF73FF271E2F7F2FDC01AE5B5E
S1134120BF4F212F372F4D915C911197E417F5075D
S1134130C1F3FC01E05CFF4F40815181FC01E40FBD
S1134140F51F6083EE85FF85E05CFF4F318320839C
S1134150EE89FF89408121E030E0C9010F8C02C063
S1134160880F991F0A94E2F7842B808381E089A346
S1134170EC89FD8980818064808381E090E0DF9117
S1134180CF911F9108951F920F920FB60F92112491
S11341900BB60F922F933F934F938F939F93AF93AD
S11341A0BF93EF93FF938091C00082FD1AC04091AA
S11341B0C60080912A1C90912B1C01968F7399271D
S11341C020912C1C30912D1C8217930761F0EAE298
S11341D0FCE1A081B181A651B44E4C9391838083BC
S11341E002C08091C600FF91EF91BF91AF919F9162
S11341F08F914F913F912F910F900BBE0F900FBE57
S11342000F901F9018951F920F920FB60F921124C2
S11342100BB60F922F933F934F938F939F93AF932C
S1134220BF93EF93FF938091C80082FD1AC0409121
S1134230CE008091A21B9091A31B01968F739927A6
S11342402091A41B3091A51B8217930761F0E2EA29
S1134250FBE1A081B181AE59B44E4C93918380832C
S113426002C08091CE00FF91EF91BF91AF919F91D9
S11342708F914F913F912F910F900BBE0F900FBED6
S11342800F901F9018951F920F920FB60F92112442
S11342900BB60F922F933F934F938F939F93AF93AC
S11342A0BF93EF93FF938091D00082FD1AC0409199
S11342B0D60080911A1B90911B1B01968F7399272E
S11342C020911C1B30911D1B8217930761F0EAE1BA
S11342D0FBE1A081B181A652B54E4C9391838083BA
S11342E002C08091D600FF91EF91BF91AF919F9151
S11342F08F914F913F912F910F900BBE0F900FBE56
S11343000F901F9018951F920F920FB60F921124C1
S11343100BB60F922F933F934F938F939F93AF932B
S1134320BF93EF93FF938091300182FD1AC04091B7
S113433036018091921A9091931A01968F7399275E
S11343402091941A3091951A8217930761F0E2E94B
S1134350FAE1A081B181AE5AB54E4C93918380832A
S113436002C080913601FF91EF91BF91AF919F916F
S11343708F914F913F912F910F900BBE0F900FBED5
S11343800F901F9018951F920F920FB60F92112441
S11343900BB60F922F933F938F939F93AF93BF933B
S11343A0EF93FF932091E61B3091E71B8091E81B6C
S11343B09091E91B2817390731F4E1ECF0E0808192
S11343C08F7D808310C0E8EEFBE1A081B181AA5506
S11343D0B44E2C918081918101968F73992791839A
S11343E080832093C600FF91EF91BF91AF919F917D
S11343F08F913F912F910F900BBE0F900FBE0F9096
S11344001F9018951F920F920FB60F9211240BB69E
S11344100F922F933F938F939F93AF93BF93EF93F9
S1134420FF9320915E1B30915F1B8091601B9091E4
S1134430611B2817390731F4E9ECF0E080818F7DA6
S1134440808310C0E0E6FBE1A081B181A25EB44E9E
S11344502C918081918101968F7399279183808318
S11344602093CE00FF91EF91BF91AF919F918F91D7
S11344703F912F910F900BBE0F900FBE0F901F9086
S113448018951F920F920FB60F9211240BB60F922C
S11344902F933F938F939F93AF93BF93EF93FF9388
S11344A02091D61A3091D71A8091D81A9091D91A9E
S11344B02817390731F4E1EDF0E080818F7D8083A6
S11344C010C0E8EDFAE1A081B181AA56B54E2C9155
S11344D08081918101968F739927918380832093A2
S11344E0D600FF91EF91BF91AF919F918F913F9132
S11344F02F910F900BBE0F900FBE0F901F90189529
S11345001F920F920FB60F9211240BB60F922F9396
S11345103F938F939F93AF93BF93EF93FF93209118
S11345204E1A30914F1A8091501A9091511A2817AF
S1134530390731F4E1E3F1E080818F7D808310C09D
S1134540E0E5FAE1A081B181A25FB54E2C918081B2
S1134550918101968F7399279183808320933601EB
S1134560FF91EF91BF91AF919F918F913F912F91C7
S11345700F900BBE0F900FBE0F901F9018958F9247
S11345809F92AF92BF92CF92DF92EF92FF920F93DE
S11345901F93CF93DF93CDB7DEB7FC011382128252
S11345A088EE93E0A0E0B0E084839583A683B7838C
S11345B080EE92E09183808375876487578746876E
S11345C0318B208B138B028BF58AE48AD78AC68AB7
S11345D0B18EA08E938E828E8889848F8989858FEF
S11345E08A89868F8B89878F8C8980A3DF91CF916D
S11345F01F910F91FF90EF90DF90CF90BF90AF90FD
S11346009F908F900895CF92DF92EF92FF92CF9375
S1134610DF93EC016A017B01411581EE58076105C6
S1134620710501F1EC89FD8981E090E008A002C0E8
S1134630880F991F0A94E2F7808360E079E08DE3A4
S113464090E0A70196017FD4BA01A9014150510914
S1134650610971097695679557954795411580E1EC
S11346605807A0F0EC89FD89108260E874E88EE1B7
S113467090E0A701960167D4BA01A90141505109FC
S1134680610971097695679557954795E889F98980
S11346905083EA89FB89408319A2EE89FF8940810E
S11346A081E090E09C010C8C02C0220F331F0A941D
S11346B0E2F7242B2083EE89FF8940819C010D8C35
S11346C002C0220F331F0A94E2F7242B2083EE89C1
S11346D0FF8940819C010E8C02C0220F331F0A9473
S11346E0E2F7242B2083EE89FF8920810F8C02C0FE
S11346F0880F991F0A94E2F7809582238083DF91C3
S1134700CF91FF90EF90DF90CF9008955F926F92DA
S11347107F928F929F92AF92BF92CF92DF92EF924D
S1134720FF920F931F93CF93DF93552453945F927B
S11347300F2EF5E06F2EF02D6F920F2EF7E07F2EE7
S1134740F02D7F92D3E0DF93C4E0CF930F2EF6ECED
S11347508F2E912CF02D0F2EF2ECAF2EB12CF02DCC
S11347600F2EF1ECCF2ED12CF02D0F2EF0ECEF2EDE
S1134770F12CF02D04EC10E025EC30E046EA5BE18E
S11347806AEE7BE18CEE99E1FADE5F926F927F92A2
S1134790DF93CF930F2EFEEC8F2E912CF02D0F2E46
S11347A0FAECAF2EB12CF02D0F2EF9ECCF2ED12C2C
S11347B0F02D0F2EF8ECEF2EF12CF02D0CEC10E078
S11347C02DEC30E04EE15BE162E67BE18AEC99E1BD
S11347D0D6DE5F926F927F92DF93CF930F2EF6ED2A
S11347E08F2E912CF02D0F2EF2EDAF2EB12CF02D3B
S11347F00F2EF1EDCF2ED12CF02D0F2EF0EDEF2E4C
S1134800F12CF02D04ED10E025ED30E046E95AE1FD
S11348106AED7AE188EA99E1B2DE5F926F927F9263
S1134820DF93CF930F2EF6E38F2E99249394F02DDC
S11348300F2EF2E3AF2EBB24B394F02D0F2EF1E331
S1134840CF2EDD24D394F02D0F2EF0E3EF2EFF2492
S1134850F394F02D04E311E025E331E04EE05AE156
S113486062E57AE186E899E18ADE8DB79EB74496DF
S11348700FB6F8949EBF0FBE8DBFDF91CF911F91ED
S11348800F91FF90EF90DF90CF90BF90AF909F90EB
S11348908F907F906F905F900895CF92DF92EF9208
S11348A0FF920F931F93CF93DF936C014115510532
S11348B0B1F0062F172FEA01E12CF12CD8016D91EC
S11348C08D01D601ED91FC910190F081E02DC6019E
S11348D01995E80EF91E2197209781F702C0E12C63
S11348E0F12CC701DF91CF911F910F91FF90EF90B1
S11348F0DF90CF900895EF92FF920F931F93CF9381
S1134900DF937C01EB012196FB016491662389F01E
S113491000E010E0F701A081B181ED91FC91C701A5
S11349201995080F191FFE0164912196662319F049
S1134930F1CF00E010E0C801DF91CF911F910F91FA
S1134940FF90EF9008956115710581F0FB010190CE
S11349500020E9F73197AF01461B570BDC01ED91BD
S1134960FC910280F381E02D1995089580E090E098
S11349700895DC01ED91FC910190F081E02D1995F1
S113498008950F931F93CF93DF93EC016DE0F1DF54
S11349908C016AE0CE01EDDF800F911FDF91CF9192
S11349A01F910F9108950F931F93CF93DF93EC0101
S11349B0A2DF8C01CE01E5DF800F911FDF91CF9143
S11349C01F910F9108950F931F93CF93DF93EC01E1
S11349D0BADF8C01CE01D5DF800F911FDF91CF911B
S11349E01F910F9108950F931F93CF93DF93EC01C1
S11349F0C0DF8C01CE01C5DF800F911FDF91CF9105
S1134A001F910F9108956F927F928F929F92AF9210
S1134A10BF92CF92DF92EF92FF920F931F93CF93A7
S1134A20DF93CDB7DEB7A1970FB6F894DEBF0FBE04
S1134A30CDBF6C01742E352F862F972F622E19A2AD
S1134A4021E0261520F00F2EFAE06F2EF02D7E01C6
S1134A50A1E2EA0EF11C862C912CA12CB12C672D1D
S1134A60732FA50194016FD2E22F732F022F132FFE
S1134A70242F352FF72D6E9EF0191124B1E0EB1A77
S1134A80F108FA3010F4F05D01C0F95CD701FC9331
S1134A90012B022B032B29F07E2E372F842F952FE9
S1134AA0DECFE114F10491F0F70101900020E9F761
S1134AB03197AF014E195F09D601ED91FC91028047
S1134AC0F381E02DB701C601199502C080E090E0A2
S1134AD0A1960FB6F894DEBF0FBECDBFDF91CF9184
S1134AE01F910F91FF90EF90DF90CF90BF90AF9008
S1134AF09F908F907F906F9008952115310549F410
S1134B00DC01ED91FC910190F081E02D642F199569
S1134B10089579CF08950F931F93CF93DF93EC01FA
S1134B20ECDF8C01CE012DDF800F911FDF91CF913F
S1134B301F910F9108950F931F93CF93DF93EC016F
S1134B409A01462F50E060E070E0D7DF8C01CE017F
S1134B5018DF800F911FDF91CF911F910F9108955E
S1134B601F920F920FB60F9211242F933F938F939E
S1134B709F93AF93BF9380912F1C9091301CA09171
S1134B80311CB091321C30912E1C23E0230F2D37A1
S1134B9020F40196A11DB11D05C026E8230F02963D
S1134BA0A11DB11D20932E1C80932F1C9093301CAB
S1134BB0A093311CB093321C8091331C9091341C0F
S1134BC0A091351CB091361C0196A11DB11D809396
S1134BD0331C9093341CA093351CB093361CBF91A6
S1134BE0AF919F918F913F912F910F900FBE0F9096
S1134BF01F9018952FB7F89460912F1C7091301C5A
S1134C008091311C9091321C2FBF08953FB7F894C6
S1134C108091331C9091341CA091351CB091361CAA
S1134C2026B5A89B05C02F3F19F00196A11DB11D03
S1134C303FBFBA2FA92F982F8827820F911DA11D3E
S1134C40B11DBC01CD01660F771F881F991F660F28
S1134C50771F881F991F0895CF92DF92EF92FF92DA
S1134C60CF93DF936B017C01D1DFEB01C114D1043D
S1134C70E104F10491F0CADF6C1B7D0B683E7340C4
S1134C8038F081E0C81AD108E108F108C851DC4FB6
S1134C90C114D104E104F10471F7DF91CF91FF90C5
S1134CA0EF90DF90CF9008950197009739F0880F27
S1134CB0991F880F991F02970197F1F70895789427
S1134CC084B5826084BD84B5816084BD85B582600D
S1134CD085BD85B5816085BDEEE6F0E080818160AB
S1134CE08083E1E8F0E010828081826080838081AB
S1134CF081608083E0E8F0E0808181608083E1EB83
S1134D00F0E0808184608083E0EBF0E0808181606A
S1134D108083E1E9F0E0808182608083808181602A
S1134D208083E0E9F0E0808181608083E1EAF0E063
S1134D30808182608083808181608083E0EAF0E00A
S1134D40808181608083E1E2F1E080818260808300
S1134D50808181608083E0E2F1E0808181608083F2
S1134D60EAE7F0E0808184608083808182608083D0
S1134D708081816080838081806880831092C100FB
S1134D80089590E0FC013197E131F10508F058C035
S1134D90E856FF4FFAC0E0E8F0E080818F77808327
S1134DA00895E0E8F0E080818F7D8083089584B5E4
S1134DB08F7784BD089584B58F7D84BD0895E0EB1D
S1134DC0F0E080818F7780830895E0EBF0E08081CC
S1134DD08F7D80830895E0E9F0E080818F77808380
S1134DE00895E0E9F0E080818F7D80830895E0E913
S1134DF0F0E08081877F80830895E0EAF0E080819D
S1134E008F7780830895E0EAF0E080818F7D80834E
S1134E100895E0EAF0E08081877F80830895E0E2EE
S1134E20F1E080818F7780830895E0E2F1E0808172
S1134E308F7D80830895E0E2F1E08081877F808325
S1134E400895CF93DF9390E0FC01E052FE4F24914C
S1134E50FC01EA5DFD4F8491882371F190E0880F95
S1134E60991FFC01E056FD4FA591B4918A579D4FBF
S1134E70FC01C591D49161110BC08FB7F8949C913A
S1134E80209592239C93E8812E2328838FBF14C0FE
S1134E90623061F48FB7F8943C91922F90959323EC
S1134EA09C93E8812E2B28838FBF06C08FB7F8947C
S1134EB0EC912E2B2C938FBFDF91CF9108951F93EC
S1134EC0CF93DF93C62F282F30E0F901E656FE4F2B
S1134ED08491F901E052FE4F1491F901EA5DFD4F0E
S1134EE0D491DD23C1F081114CDF2D2F30E0F90185
S1134EF0EE0FFF1FEA57FD4FA591B4918FB7F894B9
S1134F00C11105C0EC9110951E231C9303C0EC91B4
S1134F101E2B1C938FBFDF91CF911F910895AA1B65
S1134F20BB1B51E107C0AA1FBB1FA617B70710F090
S1134F30A61BB70B881F991F5A95A9F780959095C2
S1134F40BC01CD010895A1E21A2EAA1BBB1BFD01D1
S1134F500DC0AA1FBB1FEE1FFF1FA217B307E40754
S1134F60F50720F0A21BB30BE40BF50B661F771FAC
S1134F70881F991F1A9469F760957095809590958C
S1134F809B01AC01BD01CF010895EE0FFF1F0590F9
S1134F90F491E02D19940790F691E02D1994EF9275
S1134FA00F931F93CF93DF93E80147FF02C034E1CF
S1134FB001C034E0E42FFF27E7FDF095F7FF03C0BD
S1134FC0F195E195F109E32E022F2E2FAE0122D0A7
S1134FD0CE01DF91CF911F910F91EF900895FB01C6
S1134FE0DC0102C001900D9241505040D8F7089561
S1134FF0FB01DC010D900020E9F7119701900D925F
S11350000020E1F70895FB01DC0101900D920020DE
S1135010E1F708956F927F929F92AF92BF92CF92E1
S1135020DF92EF92FF920F931F93CF93DF93CDB74D
S1135030DEB729970FB6F894DEBF0FBECDBF6A0165
S1135040B22E102F0C3320F4FF24F394F00E02C080
S11350504CE3F42E0F2D27E0AE014F5F5F4F57D185
S11350607981272F2970213031F0E1FC06C0E0FC62
S113507006C060E005C06DE203C06BE201C060E2FF
S1135080AE2DA07173FF36C0662311F084E001C019
S113509083E08B1510F4B81A01C0B12CA1110BC018
S11350A0F6018B2D90E2882319F091938150FBCF68
S11350B0CB0CD11CB12C662331F0F6016083960130
S11350C02F5F3F4F6901C6010396E2FE05C02EE43F
S11350D0F601208331E404C02EE6F601208331E694
S11350E031832283FC012B2D30E22223F1F1319311
S11350F02150FBCF72FF40C0662311F084E001C051
S113510083E08B1510F4B81A01C0B12CA1110BC0A7
S1135110F6018B2D90E2882319F091938150FBCFF7
S1135120CB0CD11CB12C662331F0F60160839601BF
S11351302F5F3F4F6901C6010396E2FE07C029E4D1
S1135140F60120832EE4218326E406C029E6F60135
S113515020832EE6218326E62283FC012B2D30E2D8
S1135160222319F031932150FBCFFC01EB0DF11DEB
S113517010828EEF9FEFB7C0B1E0611101C0B0E0C3
S11351804B2F50E01816190624F49C012F5F3F4F53
S113519002C021E030E0240F351F112329F0412FF4
S11351A050E04F5F5F4F02C040E050E0420F531F9A
S11351B02B2D30E04217530714F4B41A01C0B12C5C
S11351C02E2D287159F4F6012B2D30E2222319F0EB
S11351D031932150FBCFCB0CD11CB12CBB2331F02C
S11351E0F601608396012F5F3F4F6901A1110BC047
S11351F0F6012B2D30E3222319F031932150FBCFFC
S1135200CB0CD11CB12CF80E0A81372F3071A32E90
S113521074FF03C0013309F4FA941F142CF42F2DE6
S1135220293018F028E001C021E0682F392F97FFBA
S113523002C060E030E0462F532F612C712C3EE217
S1135240932EBC01621B71099B01DC01A41BB50BED
S1135250E1E0F0E0EC0FFD1FAE0FBF1FE12EF12CDB
S1135260F194E194F1084F3FFFEF5F0731F4F60149
S11352709082B6016F5F7F4F6B01841795074CF0E6
S11352802417350734F4BD01660D771DFB01118128
S113529001C010E341505109FFEF6F1A7F0AB601B4
S11352A06F5F7F4F4E155F0524F0F60110836B018D
S11352B0DACF4817590739F4063320F4053319F4C3
S11352C0A11001C011E3F6011083FB018B2D90E2C4
S11352D0882319F091938150FBCFFB01EB0DF11D55
S11352E0108280E090E029960FB6F894DEBF0FBEDE
S11352F0CDBFDF91CF911F910F91FF90EF90DF9081
S1135300CF90BF90AF909F907F906F90089528307A
S113531008F027E03327DA01990F311D87FD9160EA
S113532000966105710539F432602E5F3D9330E3D8
S11353302A95E1F708959F3F30F0803871056105A3
S113534009F03C5F3C5F3D93913008F08068911D0B
S1135350DF93CF931F930F93FF92EF92192F987FB0
S11353609695E92F96959695E90FFF27EC5EFC4FED
S113537099273327EE24FF24A701E7010590089419
S1135380079428F4360FE71EF81E491F511D660FB7
S1135390771F881F991F0694A1F70590079428F496
S11353A0E70EF81E491F561FC11D770F881F991F4E
S11353B0661F0694A1F70590079428F4F80E491F78
S11353C0561FC71FD11D880F991F661F771F06948C
S11353D0A1F70590079420F4490F561FC71FD81F43
S11353E0990F661F771F881F0694A9F7849110955B
S11353F0177041F0D695C79557954795F794E7945C
S11354001A95C1F7EAEBF2E068941590159135917D
S11354106591959105907FE27395E118F10A430B2C
S1135420560BC90BD009C0F7E10CF11E431F561FE0
S1135430C91FD01D7EF4703311F48A95E6CFE89429
S1135440015030F0080F0AF40027021708F4202F47
S11354502395022F7A3328F079E37D932A95E9F78F
S113546010C07D932A9589F606949795679537958C
S113547017951794E118F10A430B560BC90BD00981
S113548098F023957E9173957A3308F070E37C93BA
S11354902013B8F77E9170617D9330F0839571E3AA
S11354A07D9370E32A95E1F71124EF90FF900F911B
S11354B01F91CF91DF91992787FD90950895F894D6
S10554C0FFCF18
S11354C20000371C20000000404100009EC2000082
S11354D280C009000800FFFF2A2A205461736B2050
S11354E231204572726F723A20636F756C64206E5C
S11354F26F742074616B652073656D6170686F727F
S113550265202A2A002820616363656C65726F6DC9
S11355126574657252656164696E67203D20282056
S113552278203D20002C2079203D20002C207A2058
S11355323D2000292C20636F6D7061737352656185
S113554264696E67203D200029002A2A2054617371
S11355526B2032204572726F723A20636F756C64ED
S1135562206E6F742074616B652073656D61706861
S11355726F7265202A2A00556C747261536F6E69CA
S1135582637300494D550049444C45000000000036
S1135592121CE61BBB1BC31BD61BE51B0000000031
S10F55A27D204D24282051203820722048
S9030000FC
