S01400004672656552544F53323536302E7372656379
S1130000FBC0000029C1000027C1000025C1000079
S113001023C1000021C100001FC100001DC1000058
S11300201BC1000019C1000017C1000015C1000068
S113003013C1000082C500000FC100000DC1000003
S11300400BC1000009C1000007C1000005C1000088
S113005003C1000001C10000FFC000000C94811026
S1130060FBC000000C94CF0B0C94CF0CF5C0000027
S1130070F3C00000F1C00000EFC00000EDC00000BC
S1130080EBC00000E9C00000E7C00000E5C00000CC
S11300900C940F0C0C940E0DDFC000000C94390965
S11300A0DBC00000D9C00000D7C00000D5C00000EC
S11300B0D3C00000D1C00000CFC00000CDC00000FC
S11300C0CBC00000C9C00000C7C000000C944F0C96
S11300D00C944D0DC1C000000C948F0C0C948C0D2D
S11300E0BBC000005A115E114E115411A3116211CC
S11300F068116E1174117A11801186118C11A3117B
S1130100921198119E110000090A02080B0C0D07A8
S113011006030401000000000000000000000000CD
S113012000000000000000000000000000000000CB
S1130130000011100F00000000000000000000008B
S11301400000000000000000000000000102102078
S113015020080810204010204080020102010804F9
S1130160020101020408102040808040201008048D
S113017002018004020180402010080402010804E6
S1130180020101020408102040800102040810202A
S11301904080050505050705080808080202020253
S11301A00A0A08080404040401010101010101010F
S11301B00303030303030303040707070C0C0C0CDA
S11301C00C0C0C0C020202020606060606060606C3
S11301D00B0B0B0B0B0B0B0B000022002500280054
S11301E02B002E003100340002010000050108013B
S11301F00B01B501310B920E11241FBECFEFD1E2DA
S1130200DEBFCDBF00E00CBF12E0A0E0B2E0E4E04E
S1130210F4E200E00BBF02C007900D92A234B107D4
S1130220D9F721E1A2E4B2E001C01D92AD3DB207CD
S1130230E1F711E0C8EFD1E000E006C02297010920
S1130240FE010BBF0E94FC11C23FD10780E00807EA
S1130250A9F75BD00C940012D3CE6AE072E082E975
S11302609FE00E94B70F22E432E044E452E066E4E7
S113027072E088E492E08DD260E172E082E99FE06E
S11302800E94870F60914602709147024AE050E055
S113029082E99FE00E94791064E172E082E99FE0C4
S11302A00E94870F60914402709145024AE050E039
S11302B082E99FE00E94791064E172E082E99FE0A4
S11302C00E94870F60914202709143024AE050E01D
S11302D082E99FE00E94791064E172E082E99FE084
S11302E00E94870F84E690E00C94D7108AED9EE07C
S11302F00E94FC0A40E052EC61E070E082E99FE079
S11303000E940F0E88E492E093C2AF92BF92CF9204
S1130310DF92EF92FF920F93CF93DF931F921F927E
S1130320CDB7DEB70E94E210E1DFA12CB12CC12CC5
S1130330D12CCE0101967C0106E020E030E040E0C3
S113034058E066E172E08DE291E014D4F9D480E0E3
S113035090E00F900F90DF91CF910F91FF90EF906D
S1130360DF90CF90BF90AF90089588E492E0F9C1F8
S1130370CF93DF93EC0114D58091570290915802EA
S1130380892B31F48CE592E09093580280935702C4
S11303902091590230915A02CE01820F931F873B5C
S11303A04BE0940770F42817390758F4C0915702AA
S11303B0D0915802C20FD31F90935A0280935902CE
S11303C002C0C0E0D0E09ED5CE01DF91CF91089568
S11303D00895EF92FF920F931F93CF93DF931F9291
S11303E01F92CDB7DEB7062F142F682F8AED9EE03B
S11303F029833A830E94130B602F8AED9EE00E94AA
S1130400BE0A2981022FE22E3A81F32E8E2D801B03
S1130410811740F4F70161917F018AED9EE00E940B
S1130420BE0AF4CF8AED9EE00E942F0B81E00F906C
S11304300F90DF91CF911F910F91FF90EF9008954E
S1130440CF93DF931F92CDB7DEB749839E012F5F11
S11304503F4F41E0BEDF0F90DF91CF9108953F926F
S11304604F925F926F927F928F929F92AF92BF92C0
S1130470CF92DF92EF92FF920F931F93CF93DF936C
S113048000D000D0CDB7DEB7682E562E742E3A8336
S113049029830E94CB106B017C01312C412C872DC8
S11304A090E09C838B834801A12CB12C3714A8F5D0
S11304B0662D8AED9EE00E94130B652D8AED9EE069
S11304C00E94BE0A8AED9EE00E942F0B662D8AEDE3
S11304D09EE00E94130B4B815C8143195109413208
S11304E0510514F040E250E0662D8AED9EE00E9432
S11304F0110B8AED9EE0EBD7892B59F101151105FB
S113050099F10E94CB106C197D098E099F09681519
S113051079058A059B0540F11CC001151105A1F15F
S11305200E94CB106C197D098E099F0920E030E0F0
S1130530601771078207930738F1872D90E0242D07
S1130540332727FD309528173907F4F444244A94B7
S11305501BC08AED9EE00E942F0B872D90E2971519
S113056008F480E2380EA2CFE981FA81E40DF11D8E
S113057047FCFA95FE83ED838AED9EE0B0D7ED81CA
S1130580FE8180834394B5CF842D26960FB6F894CC
S1130590DEBF0FBECDBFDF91CF911F910F91FF90B2
S11305A0EF90DF90CF90BF90AF909F908F907F900F
S11305B06F905F904F903F9008950F931F93890120
S11305C09A0141E04CDF1F910F910895EF92FF9241
S11305D00F931F93CF93DF931F92CDB7DEB7182FDE
S11305E0062FF42EE22E2091060230910702AE016E
S11305F04F5F5F4FE2DF898121E030E00F2C01C0C3
S1130600220F0A94EAF7EE2019F0482F422B03C078
S1130610422F409548234983602F812F11DF0F908B
S1130620DF91CF911F910F91FF90EF900895DF928A
S1130630EF92FF920F931F93CF93DF931F92CDB747
S1130640DEB7F82EE62ED42E122F2091060230911A
S11306500702AE014F5F5F4FB0DF882311F14D2DCC
S113066050E0411B51094F5F5F4FE1E0F0E002C0F1
S1130670EE0FFF1F1A95E2F73197042E01C0EE0F1B
S11306800A94EAF701C0000F4A95EAF74E2F409505
S113069089814823E0234E2B49836E2D8F2DD0DE94
S11306A001C080E00F90DF91CF911F910F91FF90D7
S11306B0EF90DF900895FC010396928381832FEFDE
S11306C03FEF3483238396838583908787831082C7
S11306D00895FC01118610860895CF93DF939C0141
S11306E0FB01DC011196CD91DC911297D383C28377
S11306F08C819D81958384838C819D81DC011396FB
S11307007C936E9312977D836C8331872087F901E4
S113071080818F5F8083DF91CF910895CF93DF93A2
S1130720FC01A085B1858281938124813581EC010E
S11307303D832C83C481D5819B838A8311968D91BB
S11307409C9112978E179F0721F41296DC93CE93F7
S11307501197118610868C9181508C93DF91CF91E3
S1130760089528E6FC01208308950F93062F22E0C4
S113077044E06BE1FC0180815ADF0F9108950F93EF
S1130780062F22E044E06CE1FC01808150DF0F91F0
S11307900895AF92BF92CF92DF92EF92FF920F93A0
S11307A01F93CF93DF93EC017B015A016901009100
S11307B00602109107029C012F5F3F4F46E06BE356
S11307C088814DDE898190E0982F88272A81822BA9
S11307D0F701918380838B8190E0982F88272C8167
S11307E0822BF501918380838D8190E0982F882757
S11307F02E81822BF60191838083DF91CF911F910B
S11308000F91FF90EF90DF90CF90BF90AF9008953D
S1130810262F46E06BE6FC018081D8CE0F93062F8D
S113082023E042E06BE6FC01808101DF0F91089533
S1130830CF93DF93EC0161E0F1DF60E0CE0195DF5F
S113084060E0CE019CDF60E0CE01DF91CF91E0CF8C
S113085031E1FC013083319722E220833197A3E315
S1130860A0833197608331977083319710823197D9
S11308701082319760E8608331971082319710823B
S113088031971082319762E06083319763E060832F
S1130890319764E06083319765E06083319766E067
S11308A06083319767E06083319768E060833197B4
S11308B069E06083319760E16083319730833197D9
S11308C032E13083319733E13083319734E130833F
S11308D0319735E13083319736E13083319737E111
S11308E03083319738E13083319739E13083319760
S11308F030E23083319731E230833197208331976E
S113090023E220833197408331975083319726E245
S11309102083319727E22083319728E2208331977F
S113092029E22083319720E32083319721E3208338
S11309308997089582E08093B0001092B20080E31A
S11309408093B300E0E7F0E080818260808383E0FD
S11309508093B100A0916A0EB0916B0ECD91CDBF82
S1130960DD91DEBFFF91EF91DF91CF91BF91AF9108
S11309709F918F917F916F915F914F913F912F91B3
S11309801F910F91FF90EF90DF90CF90BF90AF90A9
S11309909F908F907F906F905F904F903F902F909B
S11309A01F900F900CBE0F900BBE0F900FBE0F90B8
S11309B0089581E008950F920FB6F8940F920CB643
S11309C00F920BB60F921F9211242F923F924F92C7
S11309D05F926F927F928F929F92AF92BF92CF92CB
S11309E0DF92EF92FF920F931F932F933F934F93B6
S11309F05F936F937F938F939F93AF93BF93CF93A3
S1130A00DF93EF93FF93A0916A0EB0916B0E0DB636
S1130A100D920EB60D920FD3A0916A0EB0916B0E8B
S1130A20CD91CDBFDD91DEBFFF91EF91DF91CF91ED
S1130A30BF91AF919F918F917F916F915F914F91F2
S1130A403F912F911F910F91FF90EF90DF90CF90E6
S1130A50BF90AF909F908F907F906F905F904F90DA
S1130A603F902F901F900F900CBE0F900BBE0F90D5
S1130A700FBE0F9008950F920FB6F8940F920CB614
S1130A800F920BB60F921F9211242F923F924F9206
S1130A905F926F927F928F929F92AF92BF92CF920A
S1130AA0DF92EF92FF920F931F932F933F934F93F5
S1130AB05F936F937F938F939F93AF93BF93CF93E2
S1130AC0DF93EF93FF93A0916A0EB0916B0E0DB676
S1130AD00D920EB60D926AD18111ADD2A0916A0E1B
S1130AE0B0916B0ECD91CDBFDD91DEBFFF91EF9143
S1130AF0DF91CF91BF91AF919F918F917F916F9132
S1130B005F914F913F912F911F910F91FF90EF9023
S1130B10DF90CF90BF90AF909F908F907F906F9019
S1130B205F904F903F902F901F900F900CBE0F90AE
S1130B300BBE0F900FBE0F9008959DDF1895E091A6
S1130B40320EF091330E8081811103C08FEF9FEF3D
S1130B500CC0E091320EF091330E0580F681E02D49
S1130B600680F781E02D828193819093090280931E
S1130B70080208955F926F927F928F929F92AF9234
S1130B80BF92CF92DF92EF92FF920F931F93CF9376
S1130B90DF934C01162F572E5A01390181E290E060
S1130BA0E7DBEC01009709F4BAC0C114D10419F4CD
S1130BB0C501DEDB01C0C601988F8F8B009719F445
S1130BC0CE0106DCACC021E0A21AB108A80EB91E01
S1130BD0E12FF52D80E090E0BF0141919E01280FA7
S1130BE0391FD90159964C93DB012C91222321F012
S1130BF001968830910581F718A2102F043008F06F
S1130C0013E01E8B6E01B2E0CB0ED11CC60161DD78
S1130C10CE010C965EDDD987C88784E090E0811B05
S1130C2091099D878C87DB8BCA8BA301B401C50115
S1130C300FDE99838883E114F10419F0F701D1835D
S1130C40C0830FB6F8940F9280911C0E8F5F80932F
S1130C501C0E80916A0E90916B0E892B69F5D093CE
S1130C606B0EC0936A0E80911C0E8130A1F586E450
S1130C709EE021DD8FE49EE01EDD88E59EE01BDD25
S1130C8081E69EE018DD8DE39EE015DD84E39EE0C1
S1130C9012DD87E29EE00FDD8EE19EE00CDD8DE348
S1130CA09EE09093330E8093320E84E39EE0909303
S1130CB0310E8093300E0FC08091180E81110BC03D
S1130CC0E0916A0EF0916B0E8689081720F0D0939C
S1130CD06B0EC0936A0E8091140E8F5F8093140E76
S1130CE08E899091190E981710F48093190EF9E0DB
S1130CF08F9FC0011124B6018A5B914FEEDC0F90E7
S1130D000FBE8091180E882341F0E0916A0EF09195
S1130D106B0E8689801708F44EDE81E001C08FEFE8
S1130D20DF91CF911F910F91FF90EF90DF90CF90C3
S1130D30BF90AF909F908F907F906F905F90089539
S1130D40AF92BF92CF92DF92EF92FF920F93A12CBA
S1130D50B12CC12CD12CE12CF12C00E020E030E0AE
S1130D6045E550E06DE172E08DEE97E003DF813000
S1130D7079F4F8948093180E10921B0E10921A0EA8
S1130D800F91FF90EF90DF90CF90BF90AF90D2CDB6
S1130D900F91FF90EF90DF90CF90BF90AF900895A8
S1130DA08091130E8F5F8093130E0895CF92DF927C
S1130DB0EF92FF920F931F93CF93DF938091130EC3
S1130DC081118AC080911A0E90911B0E0196909306
S1130DD01B0E80931A0E00911A0E10911B0E011512
S1130DE01105B1F48091320E9091330E2091300EA2
S1130DF03091310E3093330E2093320E9093310E96
S1130E008093300E8091150E8F5F8093150E97DEC0
S1130E108091080290910902D12C0817190708F44F
S1130E204AC089E0C82EE091320EF091330E8081E1
S1130E30811107C08FEF9FEF9093090280930802FE
S1130E403AC0E091320EF091330E0580F681E02D28
S1130E50C681D7812A813B810217130728F4309376
S1130E6009022093080227C07E0182E0E80EF11CEB
S1130E70C70154DC2C893D89232B19F0CE010C9633
S1130E804DDC2E898091190E821710F42093190ECF
S1130E90C29EC0011124B7018A5B914F1EDCE09110
S1130EA06A0EF0916B0E9E898689981708F4BBCF61
S1130EB0DD24D394B8CFE0916A0EF0916B0EE689ED
S1130EC089E0E89FF0011124EA5BF14F80818230D0
S1130ED048F0DD24D39406C08091170E8F5F809371
S1130EE0170ED12C8091160E882311F0DD24D39493
S1130EF08D2DDF91CF911F910F91FF90EF90DF9097
S1130F00CF900895EF92FF920F931F93CF93DF93A7
S1130F100FB6F8940F928091130E81508093130EA4
S1130F208091130E882311F080E04EC080911C0E36
S1130F308823D1F399E0F92EEE24E3948091270ECF
S1130F40882339F1E0912C0EF0912D0EC681D781C2
S1130F50CE010C96E3DB8E010E5F1F4FC801DEDB72
S1130F608E899091190E981710F48093190EF89E9B
S1130F70C0011124B8018A5B914FAFDBE0916A0E86
S1130F80F0916B0E9E8986899817C0F2E092160E36
S1130F90D5CF8091170E811108C08091160E813033
S1130FA009F0C2CF08DD81E00FC0C1E08091170EC7
S1130FB0882399F3FBDE8111C093160E8091170EDE
S1130FC081508093170EF2CF0F900FBEDF91CF9117
S1130FD01F910F91FF90EF90089580911D0E88232B
S1130FE021F1DEDEC0911E0E8DDFCC23B1F30FB6EE
S1130FF0F8940F92E091230EF091240EC681D781CC
S1131000CE0102968BDB80911C0E815080931C0EC6
S113101080911D0E815080931D0E0F900FBE8F89FD
S1131020988DD6D9CE01D4D9D8CF8091460E8230AE
S1131030A0F2C1DCD2CF8091130E882321F081E08D
S11310408093160E08951092160E99E0E091190EF1
S11310509E9FF0011124EA5BF14F8081811106C04B
S11310608091190E81508093190EF0CFE091190EE2
S113107089E0E89FF0011124EA5BF14FA181B2817C
S113108012960D90BC91A02DB283A183CF0103963B
S1131090A817B90731F412968D919C9113979283F6
S11310A081830180F281E02D8681978190936B0E7C
S11310B080936A0E08951092D90E81E08093D70E22
S11310C01092D60E61E084E10E94A41161E085E1F2
S11310D00E94A411E9EBF0E080818E7F80838081FF
S11310E08D7F808388E48093B80085E48093BC007E
S11310F00895413208F03FC09091D90E9111FCCF70
S113110091E09093D90E2093D70E2FEF20936C0E7D
S11311101092B10E240F2093B00E9093D80E90919C
S1131120D80E880F892B8093D80E8091D60E8130EB
S113113041F41092D60E8091D80E8093BB0085ECBA
S113114001C085EE8093BC008091D90E8130E1F31B
S11311508091B10E841710F44091B10E22EB3EE061
S1131160FB01D9018A2F821B841718F48D91819376
S1131170F9CF842F089580E008950F93413208F049
S113118046C09091D90E9111FCCF92E09093D90E64
S11311900093D70E9FEF90936C0E1092B10E409374
S11311A0B00EFB0162EB7EE0DB019A2F961B9417D5
S11311B018F491919D93F9CF1092D80E9091D80E76
S11311C0880F892B8093D80E8091D60E813041F4FC
S11311D01092D60E8091D80E8093BB0085EC01C08E
S11311E085EE8093BC00222321F08091D90E8230B9
S11311F0E1F380916C0E8F3F61F080916C0E803230
S113120051F080916C0E803341F483E007C081E09B
S113121005C080E003C082E001C084E00F9108951E
S1131220613298F42091D90E243089F460938E0EA3
S1131230FC0180E99EE0DC012A2F281B261718F404
S113124021912D93F9CF80E0089581E0089582E003
S1131250089585ED8093BC008091BC0084FDFCCF93
S11312601092D90E089585EC8093BC001092D90E8B
S113127008951F920F920FB60F9211240BB60F927E
S11312802F933F934F935F936F937F938F939F938A
S1131290AF93BF93EF93FF938091B900887F80361B
S11312A009F49CC068F5883209F45BC090F480317D
S11312B009F454C038F4882309F4F3C0883009F4DD
S11312C04DC0F2C0883109F44CC0803209F45DC0CD
S11312D0EBC0803409F468C048F4803309F455C085
S11312E0883309F0E1C080936C0EA7C0803509F4FF
S11312F04FC0883509F45DC0883409F0D5C0D3C027
S1131300883909F4C4C0A8F4883709F467C038F4EC
S1131310883609F463C0803709F460C0C5C08838D2
S113132009F4B5C0803909F45FC0803809F0BCC045
S11313305BC0803B09F483C038F4803A09F466C08A
S1131340883A09F47CC0B0C0803C09F4A4C0883C4D
S113135009F4A1C0883B09F487C0A6C08091D80EC7
S113136010C09091B10E8091B00E981770F5E09175
S1131370B10E81E08E0F8093B10EF0E0EE54F14F88
S113138080818093BB0085EC83C080936C0E8BC0FE
S1131390E091B10E81E08E0F8093B10E8091BB007D
S11313A0F0E0EE54F14F80839091B10E8091B00E35
S11313B06BC0E091B10E81E08E0F8093B10E8091ED
S11313C0BB00F0E0EE54F14F80838091D70E811181
S11313D06AC081E08093D60E84EA5EC083E0809385
S11313E0D90E10926D0ECFCF80916D0E803208F021
S11313F04EC0E0916D0E81E08E0F80936D0E809152
S1131400BB00F0E0E259F14F8083BDCF80916D0EB7
S1131410803230F4E0916D0EF0E0E259F14F108229
S113142018DF60916D0E70E0E091D20EF091D30E52
S11314308EE69EE0199510926D0E15DF35C084E09E
S11314408093D90E10928F0E10928E0EE091D40ECE
S1131450F091D50E199580918E0E811105C081E011
S113146080938E0E1092900EE0918F0E81E08E0F7D
S113147080938F0EF0E0E057F14F80818093BB00A2
S113148090918F0E80918E0E981708F47CCF85E88A
S11314908093BC0009C085EC8093BC001092D90EE7
S11314A003C010926C0ED5DEFF91EF91BF91AF9106
S11314B09F918F917F916F915F914F913F912F9168
S11314C00F900BBE0F900FBE0F901F901895809138
S11314D00A0F90E020910B0F821B9109089520912F
S11314E00B0F80910A0F281750F4E22FF0E0E45F0D
S11314F0F04F808190E02F5F20930B0F08958FEFC2
S11315009FEF0895E0910B0F80910A0FE81730F4D4
S1131510F0E0E45FF04F808190E008958FEF9FEF5B
S113152008950895CF92DF92EF92FF920F931F9345
S1131530CF93DF937C01CB018A012091E60E222315
S113154089F0EB016B01C40ED51ECC15DD0561F0ED
S11315506991D701ED91FC910190F081E02DC701D3
S11315601995F3CF642F5CDEC801DF91CF911F91F1
S11315700F91FF90EF90DF90CF900895CF93DF937A
S11315801F92CDB7DEB769832091E60E2223D1F0F6
S11315902091E70E203240F021E030E0FC0133835B
S11315A0228380E090E014C08091E80EE82FF0E000
S11315B0E751F14F998190838F5F8093E80E809378
S11315C0E70E04C061E0CE0101962ADE81E090E0DE
S11315D00F90DF91CF910895FC011382128248EE9F
S11315E053E060E070E0448355836683778386E24A
S11315F092E091838083089510920B0F10920A0F4A
S11316001092E80E1092E70E56CD862F413208F064
S113161040E26CE07FE06DDD10920B0F80930A0FC7
S1131620089521E0F2CF81E08093E60E6093090FE4
S11316301092E80E1092E70E08950F93062F21E002
S11316404091E70E69EE7EE08091090F96DD1092DD
S1131650E80E1092E70E1092E60E0F91089561E0E5
S1131660ECCF8AED9EE0B8CFFC0124853585F901E5
S1131670E05CFF4F80819181329620813181821B11
S1131680930B8F7399270895FC0184859585FC013C
S1131690E05CFF4F408151813296208131814217B5
S11316A0530741F020813181FC01E20FF31F808157
S11316B090E008958FEF9FEF0895FC018485958550
S11316C0FC01E05CFF4F40815181329620813181E1
S11316D04217530781F020813181DC01A20FB31F2F
S11316E08C91208131812F5F3F4F2F7333273183BA
S11316F0208390E008958FEF9FEF0895FC0181A16E
S1131700882329F0A489B5898C9186FFFBCF11A287
S113171008951F93CF93DF93EC018E859F85FC0181
S1131720E05CFF4F0190F081E02D3196EF73FF27CD
S11317301E2F7F2FDC01AE5BBF4F212F372F4D9122
S11317405C911197E417F507C1F3FC01E05CFF4FCE
S113175040815181FC01E40FF51F6083EE85FF8514
S1131760E05CFF4F31832083EE89FF89408121E0D3
S113177030E0C9010F8C02C0880F991F0A94E2F768
S1131780842B808381E089A3EC89FD898081806436
S1131790808381E090E0DF91CF911F9108951F92A3
S11317A00F920FB60F9211240BB60F922F933F9303
S11317B04F938F939F93AF93BF93EF93FF93809136
S11317C0C00082FD1AC04091C6008091D011909152
S11317D0D11101968F7399272091D2113091D31191
S11317E08217930761F0E0EDF1E1A081B181A05788
S11317F0BE4E4C939183808302C08091C600FF91BA
S1131800EF91BF91AF919F918F914F913F912F9104
S11318100F900BBE0F900FBE0F901F9018951F9244
S11318200F920FB60F9211240BB60F922F933F9382
S11318304F938F939F93AF93BF93EF93FF938091B5
S1131840C80082FD1AC04091CE0080914811909149
S1131850491101968F73992720914A1130914B11A8
S11318608217930761F0E8E4F1E1A081B181A85FF8
S1131870BE4E4C939183808302C08091CE00FF9131
S1131880EF91BF91AF919F918F914F913F912F9184
S11318900F900BBE0F900FBE0F901F9018951F92C4
S11318A00F920FB60F9211240BB60F922F933F9302
S11318B04F938F939F93AF93BF93EF93FF93809135
S11318C0D00082FD1AC04091D6008091C010909142
S11318D0C11001968F7399272091C2103091C310C3
S11318E08217930761F0E0ECF0E1A081B181A05888
S11318F0BF4E4C939183808302C08091D600FF91A8
S1131900EF91BF91AF919F918F914F913F912F9103
S11319100F900BBE0F900FBE0F901F9018951F9243
S11319200F920FB60F9211240BB60F922F933F9381
S11319304F938F939F93AF93BF93EF93FF938091B4
S1131940300182FD1AC04091360180913810909187
S1131950391001968F73992720913A1030913B10DA
S11319608217930761F0E8E3F0E1A081B181A85008
S1131970B04F4C939183808302C080913601FF91D4
S1131980EF91BF91AF919F918F914F913F912F9183
S11319900F900BBE0F900FBE0F901F9018951F92C3
S11319A00F920FB60F9211240BB60F922F933F9301
S11319B08F939F93AF93BF93EF93FF9320918C11D9
S11319C030918D1180918E1190918F1128173907C4
S11319D031F4E1ECF0E080818F7D808310C0EEE88B
S11319E0F1E1A081B181A45BBE4E2C9180819181F3
S11319F001968F739927918380832093C600FF916A
S1131A00EF91BF91AF919F918F913F912F910F9043
S1131A100BBE0F900FBE0F901F9018951F920F9240
S1131A200FB60F9211240BB60F922F933F938F93FF
S1131A309F93AF93BF93EF93FF9320910411309141
S1131A40051180910611909107112817390731F477
S1131A50E9ECF0E080818F7D808310C0E6E0F1E165
S1131A60A081B181AC53BF4E2C91808191810196AC
S1131A708F739927918380832093CE00FF91EF91F8
S1131A80BF91AF919F918F913F912F910F900BBE7A
S1131A900F900FBE0F901F9018951F920F920FB6C4
S1131AA00F9211240BB60F922F933F938F939F9312
S1131AB0AF93BF93EF93FF9320917C1030917D10EF
S1131AC080917E1090917F102817390731F4E1ED51
S1131AD0F0E080818F7D808310C0EEE7F0E1A0818B
S1131AE0B181A45CBF4E2C918081918101968F734A
S1131AF09927918380832093D600FF91EF91BF9122
S1131B00AF919F918F913F912F910F900BBE0F90AA
S1131B100FBE0F901F9018951F920F920FB60F9241
S1131B2011240BB60F922F933F938F939F93AF93F0
S1131B30BF93EF93FF932091F40F3091F50F8091B1
S1131B40F60F9091F70F2817390731F4E1E3F1E02C
S1131B5080818F7D808310C0E6EFFFE0A081B1819A
S1131B60AC54B04F2C918081918101968F73992749
S1131B709183808320933601FF91EF91BF91AF91C0
S1131B809F918F913F912F910F900BBE0F900FBE9D
S1131B900F901F9018958F929F92AF92BF92CF9201
S1131BA0DF92EF92FF920F931F93CF93DF93CDB702
S1131BB0DEB7FC011382128288EE93E0A0E0B0E06D
S1131BC084839583A683B78386E392E0918380839D
S1131BD07587648757874687318B208B138B028BDD
S1131BE0F58AE48AD78AC68AB18EA08E938E828EB5
S1131BF08889848F8989858F8A89868F8B89878F45
S1131C008C8980A3DF91CF911F910F91FF90EF906A
S1131C10DF90CF90BF90AF909F908F900895CF9218
S1131C20DF92EF92FF92CF93DF93EC016A017B0185
S1131C30411581EE58076105710501F1EC89FD89B3
S1131C4081E090E008A002C0880F991F0A94E2F78F
S1131C50808360E079E08DE390E0A7019601A4D34E
S1131C60BA01A90141505109610971097695679535
S1131C7057954795411580E15807A0F0EC89FD89F7
S1131C80108260E874E88EE190E0A70196018CD39D
S1131C90BA01A90141505109610971097695679505
S1131CA057954795E889F9895083EA89FB894083E8
S1131CB019A2EE89FF89408181E090E09C010C8C9F
S1131CC002C0220F331F0A94E2F7242B2083EE89EB
S1131CD0FF8940819C010D8C02C0220F331F0A949E
S1131CE0E2F7242B2083EE89FF8940819C010E8C2E
S1131CF002C0220F331F0A94E2F7242B2083EE89BB
S1131D00FF8920810F8C02C0880F991F0A94E2F783
S1131D10809582238083DF91CF91FF90EF90DF90B5
S1131D20CF9008955F926F927F928F929F92AF921D
S1131D30BF92CF92DF92EF92FF920F931F93CF93B4
S1131D40DF93552453945F920F2EF5E06F2EF02D00
S1131D506F920F2EF7E07F2EF02D7F92D3E0DF936A
S1131D60C4E0CF930F2EF6EC8F2E912CF02D0F2E76
S1131D70F2ECAF2EB12CF02D0F2EF1ECCF2ED12C96
S1131D80F02D0F2EF0ECEF2EF12CF02D04EC10E0E2
S1131D9025EC30E04CE451E160E971E182E99FE037
S1131DA0FADE5F926F927F92DF93CF930F2EFEEC59
S1131DB08F2E912CF02D0F2EFAECAF2EB12CF02D8E
S1131DC00F2EF9ECCF2ED12CF02D0F2EF8ECEF2E98
S1131DD0F12CF02D0CEC10E02DEC30E044EC50E153
S1131DE068E071E180E79FE0D6DE5F926F927F92B8
S1131DF0DF93CF930F2EF6ED8F2E912CF02D0F2E17
S1131E00F2EDAF2EB12CF02D0F2EF1EDCF2ED12C03
S1131E10F02D0F2EF0EDEF2EF12CF02D04ED10E04F
S1131E2025ED30E04CE350E160E870E18EE49FE0A2
S1131E30B2DE5F926F927F92DF93CF930F2EF6E321
S1131E408F2E99249394F02D0F2EF2E3AF2EBB2402
S1131E50B394F02D0F2EF1E3CF2EDD24D394F02D87
S1131E600F2EF0E3EF2EFF24F394F02D04E311E0A2
S1131E7025E331E044EB5FE068EF7FE08CE29FE034
S1131E808ADE8DB79EB744960FB6F8949EBF0FBEF8
S1131E908DBFDF91CF911F910F91FF90EF90DF9055
S1131EA0CF90BF90AF909F908F907F906F905F90F6
S1131EB00895CF92DF92EF92FF920F931F93CF93E7
S1131EC0DF936C0141155105B1F0062F172FEA017C
S1131ED0E12CF12CD8016D918D01D601ED91FC918D
S1131EE00190F081E02DC6011995E80EF91E2197A5
S1131EF0209781F702C0E12CF12CC701DF91CF912B
S1131F001F910F91FF90EF90DF90CF90089561158E
S1131F10710581F0FB0101900020E9F73197AF01D1
S1131F20461B570BDC01ED91FC910280F381E02DFF
S1131F301995089580E090E00895DC01ED91FC91FD
S1131F400190F081E02D199508950F931F93CF937D
S1131F50DF93EC016DE0F1DF8C016AE0CE01EDDF8F
S1131F60800F911FDF91CF911F910F9108950F93CF
S1131F701F93CF93DF93EC01CADF8C01CE01E5DF21
S1131F80800F911FDF91CF911F910F9108956F9250
S1131F907F928F929F92AF92BF92CF92DF92EF92F5
S1131FA0FF920F931F93CF93DF93CDB7DEB7A19723
S1131FB00FB6F894DEBF0FBECDBF6C01742E352F63
S1131FC0862F972F622E19A221E0261520F00F2EBE
S1131FD0FAE06F2EF02D7E01A1E2EA0EF11C862CB0
S1131FE0912CA12CB12C672D732FA5019401DCD168
S1131FF0E22F732F022F132F242F352FF72D6E9ED0
S1132000F0191124B1E0EB1AF108FA3010F4F05D84
S113201001C0F95CD701FC93012B022B032B29F09F
S11320207E2E372F842F952FDECFE114F10491F00B
S1132030F70101900020E9F73197AF014E195F09CC
S1132040D601ED91FC910280F381E02DB701C60128
S1132050199502C080E090E0A1960FB6F894DEBF17
S11320600FBECDBFDF91CF911F910F91FF90EF90E5
S1132070DF90CF90BF90AF909F908F907F906F90A4
S11320800895CF92DF92EF92FF920F931F93CF9315
S1132090DF93EC016A017B012115310541F4E881EC
S11320A0F9810190F081E02D642F199519C02A302F
S11320B03105A9F4772384F46DE23FDF8C014427D2
S11320C05527BA014C195D096E097F092AE0CE0132
S11320D05EDF800F911F04C02AE059DF01C057DF83
S11320E0DF91CF911F910F91FF90EF90DF90CF90F0
S11320F008959A01AB01662757FD6095762FC1CFED
S113210008951F920F920FB60F9211242F933F93AD
S11321108F939F93AF93BF938091D5119091D611D4
S1132120A091D711B091D8113091D41123E0230F8D
S11321302D3720F40196A11DB11D05C026E8230FFB
S11321400296A11DB11D2093D4118093D5119093B3
S1132150D611A093D711B093D8118091D911909131
S1132160DA11A091DB11B091DC110196A11DB11D12
S11321708093D9119093DA11A093DB11B093DC1101
S1132180BF91AF919F918F913F912F910F900FBE6F
S11321900F901F9018952FB7F8946091D5117091F6
S11321A0D6118091D7119091D8112FBF089501971E
S11321B0009739F0880F991F880F991F029701978C
S11321C0F1F70895789484B5826084BD84B5816004
S11321D084BD85B5826085BD85B5816085BDEEE62B
S11321E0F0E0808181608083E1E8F0E0108280810A
S11321F082608083808181608083E0E8F0E0808178
S113220081608083E1EBF0E0808184608083E0EB97
S1132210F0E0808181608083E1E9F0E08081826088
S11322208083808181608083E0E9F0E08081816047
S11322308083E1EAF0E08081826080838081816034
S11322408083E0EAF0E0808181608083E1E2F1E074
S1132250808182608083808181608083E0E2F1E01C
S1132260808181608083EAE7F0E0808184608083FC
S113227080818260808380818160808380818068A6
S113228080831092C100089590E0FC013197E13100
S1132290F10508F058C0EE58FF4FA8C0E0E8F0E0A0
S11322A080818F7780830895E0E8F0E080818F7DDE
S11322B08083089584B58F7784BD089584B58F7D18
S11322C084BD0895E0EBF0E080818F7780830895EA
S11322D0E0EBF0E080818F7D80830895E0E9F0E019
S11322E080818F7780830895E0E9F0E080818F7D9D
S11322F080830895E0E9F0E08081877F80830895FA
S1132300E0EAF0E080818F7780830895E0EAF0E0EE
S113231080818F7D80830895E0EAF0E08081877F6B
S113232080830895E0E2F1E080818F7780830895CF
S1132330E0E2F1E080818F7D80830895E0E2F1E0C6
S11323408081877F808308951F93CF93DF93C62F67
S1132350282F30E0F901EA5FFE4F8491F901E45B34
S1132360FE4F1491F901EE56FE4FD491DD23C1F0D6
S113237081118ADF2D2F30E0F901EE0FFF1FE852A3
S1132380FE4FA591B4918FB7F894C11105C0EC919B
S113239010951E231C9303C0EC911E2B1C938FBF1E
S11323A0DF91CF911F910895A1E21A2EAA1BBB1BA6
S11323B0FD010DC0AA1FBB1FEE1FFF1FA217B3070D
S11323C0E407F50720F0A21BB30BE40BF50B661F23
S11323D0771F881F991F1A9469F7609570958095E7
S11323E090959B01AC01BD01CF010895EE0FFF1F35
S11323F00590F491E02D19940790F691E02D19942D
S1072400F894FFCF7A
S11324040000DD112000E803FFFF7374617274009F
S1132414612F673A09005461736B20310049444CBD
S1132424450000000000BE0A920A670A6F0A820A85
S1132434910A00000000890B590F340B5D0B440B07
S10524447E0B09
S9030000FC
