S01400004672656552544F53323536302E7372656379
S1130000DCC100000BC2000009C2000007C20000EE
S113001005C2000003C2000001C20000FFC10000CD
S1130020FDC10000FBC10000F9C10000F7C10000E0
S1130030F5C100000C94A910F1C10000EFC100004B
S1130040EDC10000EBC10000E9C10000E7C1000000
S11300500C944812E3C10000E1C100000C94E124B7
S1130060DDC100000C94FE1F0C94FE20D7C10000DB
S1130070D5C10000D3C10000D1C10000CFC1000030
S1130080CDC10000CBC10000C9C10000C7C1000040
S11300900C943E200C943D21C1C100000C94C8195D
S11300A0BDC10000BBC10000B9C10000B7C1000060
S11300B0B5C10000B3C10000B1C10000AFC1000070
S11300C0ADC10000ABC10000A9C100000C947E20AA
S11300D00C947C21A3C100000C94BE200C94BB2181
S11300E09DC10000084AD73B3BCE016E84BCBFFDD6
S11300F0C12F3D6C74319ABD56833DDA3D00C77FF4
S113010011BED9E4BB4C3E916BAAAABE000000808C
S11301103F05A84CCDB2D44EB93836A9020C50B91B
S1130120918688083CA6AAAA2ABE000000803F0047
S113013008260C26FC2502265126102616261C26E7
S1130140222628262E2634263A26512640264626BE
S11301504C264572726F722072656164696E672005
S113016073656E736F7200693263526561642074E3
S1130170696D656F757400693263526561642066E8
S113018061696C65643A2000693263577269746509
S1130190206661696C65643A20000000090A02085F
S11301A00B0C0D0706030401000000000000000012
S11301B0000000000000000000000000000000003B
S11301C000000000000011100F00000000000000FB
S11301D0000000000000000000000000000000001B
S11301E00102102020080810204010204080020145
S11301F0020108040201010204081020408080402A
S11302002010080402018004020180402010080428
S113021002010804020101020408102040800102C6
S1130220040810204080050505050705080808088E
S1130230020202020A0A080804040404010101017A
S11302400101010103030303030303030407070775
S11302500C0C0C0C0C0C0C0C02020202060606061A
S1130260060606060B0B0B0B0B0B0B0B00002000FA
S11302702300260029002C002F003200000100007A
S113028003010601090100002200250028002B00BB
S11302902E003100340002010000050108010B01A9
S11302A000002100240027002A002D003000330024
S11302B001010000040107010A0100407A10F35A09
S11302C000A0724E18090010A5D4E80000E8764892
S11302D0170000E40B54020000CA9A3B000000E13E
S11302E0F505000080969800000040420F000000D1
S11302F0A08601000000102700000000E8030000B1
S113030000006400000000000A000000000001007A
S1130310000000002C76D888DC674F0823DFC1DF9B
S1130320AE59E1B1B796E5E3E453C63AE65199769E
S113033096E8E6C28426EB898C9B62ED407C6FFCD8
S1130340EFBC9C9F40F2BAA56FA5F490055A2AF71A
S11303505C936B6CF9676DC11BFCE0E40D47FEF523
S113036020E6B500D0ED902E03009435770500808B
S1130370841E080000204E0A000000C80C333333EA
S1130380330F986E12831141EF8D2114893BE6558A
S113039016CFFEE6DB18D1844B381BF77C1D901D6D
S11303A0A4BBE424203284725E228100C9F124ECCF
S11303B0A1E53D273F06BC1BC12211241FBECFEF80
S11303C0D1E2DEBFCDBF00E00CBF12E0A0E0B2E09E
S11303D0E4E2F8E500E00BBF02C007900D92A63FEF
S11303E0B107D9F72CE1A6EFB2E001C01D92AF34FA
S11303F0B207E1F713E0CAEBD3E000E006C02297AE
S11304000109FE010BBF0E947C27C43BD10780E099
S11304100807A9F70E94A70E0C94102CF1CDC9E38C
S1130420D0E020E049E150E060E070E08091120407
S1130430909113040E94DD13813009F0B7C068E184
S113044072E080E09AE10E941E2488E194E00E9418
S11304507B108C0165E272E080E09AE10E94DE2369
S1130460C801BE010E9440274AE050E080E09AE1C2
S11304700E94C6246DE272E080E09AE10E941E248C
S113048061E270E080E090E00E945D258AE294E001
S11304900E947B108C0160E372E080E09AE10E948C
S11304A0DE23C801BE010E9440274AE050E080E0FC
S11304B09AE10E94C6246DE272E080E09AE10E9413
S11304C01E2461E270E080E090E00E945D258CE3F0
S11304D094E00E947B108C0168E372E080E09AE172
S11304E00E94DE23C801BE010E9440274AE050E07A
S11304F080E09AE10E94C6246DE272E080E09AE115
S11305000E941E2461E270E080E090E00E945D257C
S11305108EE494E00E947B108C0160E472E080E041
S11305209AE10E94DE23C801BE010E9440274AE0EE
S113053050E080E09AE10E94C6246DE272E080E01F
S11305409AE10E941E2461E270E080E090E00E9443
S11305505D2580E694E00E947B108C0168E472E0E3
S113056080E09AE10E94DE23C801BE010E94402778
S11305704AE050E080E09AE10E94C6246DE272E015
S113058080E09AE10E941E2420E040E050E060E018
S113059070E080911204909113040E9450130E9401
S11305A0861184EF91E00E940F173BCF60E572E063
S11305B080E09AE10E941E24FFCF2F923F924F9237
S11305C05F926F927F928F929F92AF92BF92CF92DF
S11305D0DF92EF92FF920F931F93CF93DF93CDB7E8
S11305E0DEB76C970FB6F894DEBF0FBECDBF1C010B
S11305F04D8B5E8B6F8B788FC901B801D1015096FA
S11306002D913D914D915C915397298B3A8B4B8B56
S11306105C8B0E94BF1B9B01AC01F101648B758B49
S1130620868B978BC701B6010E949D1ED1011C9633
S11306302D913D914D915C911F970E94C01B6D8738
S11306407E878F87988BD10194962D913D914D9102
S11306505C91979729833A834B835C83C701B601E6
S11306600E949D1E4B015C01D1015C962D913D9130
S11306704D915C915F972D833E834F83588790966D
S11306802D913D914D915C91939729873A874B87A2
S11306905C872D813E814F8158850E94BF1B29852F
S11306A03A854B855C850E94BF1BF1012081318115
S11306B0428153810E94C01B9B01AC01C701B6015A
S11306C00E949D1ED10158962D913D914D915C91B2
S11306D05B970E94C01B2B013C01A50194016D8115
S11306E07E818F8198850E94BF1B6D837E838F835B
S11306F09887A501940169857A858B859C850E94DC
S1130700BF1B69877A878B879C87F1012481358198
S113071046815781C701B6010E949D1E9B01AC0111
S113072069817A818B819C810E94C01B698F7A8F39
S11307308B8F9C8FD10118962D913D914D915C9199
S11307401B97C301B2010E94C01B6B017C01F10124
S113075064AB75AB86AB97AB9B01AC01C301B20133
S11307600E948D1C4B015C01D10198966D937D9381
S11307708D939C939B97A701960169857A858B85B8
S11307809C850E948D1C6B017C01F10164A775A7F7
S113079086A797A72D853E854F8558896D897E89C3
S11307A08F89988D0E94BF1B69837A838B839C8376
S11307B0D101D0966D937D938D939C93D3979B0198
S11307C0AC01C501B4010E949D1E9B01AC016D8565
S11307D07E858F8598890E94C01B6D877E878F8751
S11307E0988BF101648775878687978729813A8179
S11307F04B815C81C701B6010E949D1E9B01AC0127
S113080069897A898B899C890E94C01BD101509681
S11308106D937D938D939C935397A3019201C5018E
S1130820B4010E949D1E9B01AC01C301B2010E9450
S1130830BF1B2B013C01F101608F718F828F938F5D
S11308402D813E814F815885C501B4010E949D1EB2
S11308509B01AC016D817E818F8198850E94BF1BB5
S11308604B015C01D1015C966D937D938D939C93B8
S11308705F97A3019201C701B6010E949D1E9B01CF
S1130880AC0169857A858B859C850E94BF1BF1012B
S113089060A371A382A393A3A5019401C701B60128
S11308A00E949D1E9B01AC01698D7A8D8B8D9C8D60
S11308B00E94BF1BD10194966D937D938D939C935D
S11308C097976D857E858F8598896C960FB6F89479
S11308D0DEBF0FBECDBFDF91CF911F910F91FF906F
S11308E0EF90DF90CF90BF90AF909F908F907F90CC
S11308F06F905F904F903F902F9008958F929F92AA
S1130900AF92BF92CF92DF92EF92FF92C0905E03BC
S1130910D0905F03E0906003F090610380906203E5
S113092090906303A0906403B0906503A7019601BF
S1130930C501B4010E94331C21EE3EE245E652E4B7
S11309400E949D1E60934003709341038093420371
S113095090934303A5019401C501B4010E949D1E17
S11309604B015C01A7019601C701B6010E949D1EBF
S11309709B01AC01C501B4010E94C01B0E940A1F67
S11309809B01AC018091660390916703A091680379
S1130990B0916903BC01CD0190580E948D1C0E9446
S11309A05E1C21EE3EE245E652E40E949D1E6093E9
S11309B03C0370933D0380933E0390933F03FF9069
S11309C0EF90DF90CF90BF90AF909F908F9008955D
S11309D04F925F926F927F928F929F92AF92BF924B
S11309E0CF92DF92EF92FF92CF93DF93CDB7DEB732
S11309F064970FB6F894DEBF0FBECDBF2091FA0204
S1130A003091FB024091FC025091FD0260914A0337
S1130A1070914B0380914C0390914D030E949D1E55
S1130A202B013C018091460390914703A091480318
S1130A30B0914903BC01CD0190582091FE02309140
S1130A40FF0240910003509101030E949D1E6B011F
S1130A507C0180914E0390914F03A0915003B0917B
S1130A605103BC01CD0190582091F6023091F70258
S1130A704091F8025091F9020E949D1E20910602B5
S1130A803091070240910802509109020E94BF1B55
S1130A904B015C0160934E0370934F0380935003AA
S1130AA09093510320910A0230910B0240910C0261
S1130AB050910D02C301B2010E94BF1B69837A8366
S1130AC08B839C8360934A0370934B0380934C0302
S1130AD090934D0320910E0230910F024091100229
S1130AE050911102C701B6010E94BF1B6B017C012A
S1130AF0609346037093470380934803909349039C
S1130B0025E33AEF4EE85CE360911C0370911D030A
S1130B1080911E0390911F030E949D1E2B013C0196
S1130B2025E33AEF4EE85CE36091180370911903F2
S1130B3080911A0390911B030E949D1E6D877E87EE
S1130B408F87988BC301B2010E94001F6D837E833F
S1130B508F839887C301B2010E948A1C69877A87B0
S1130B608B879C876D857E858F8598890E948A1CDA
S1130B709B01AC016D857E858F859889298B3A8B85
S1130B804B8B5C8B0E94001F2B013C0129893A8905
S1130B904B895C89C501B4010E949D1E4B015C0117
S1130BA0A301920169817A818B819C810E949D1E9F
S1130BB02D813E814F8158850E949D1E9B01AC0171
S1130BC0C501B4010E94C01B4B015C01A301920149
S1130BD0C701B6010E949D1E29853A854B855C8517
S1130BE00E949D1E9B01AC01C501B4010E94C01B63
S1130BF04B015C012D813E814F815885C701B601AF
S1130C000E949D1E6B017C0129853A854B855C857C
S1130C1069817A818B819C810E949D1E9B01AC011C
S1130C20C701B6010E94BF1B9058A50194010E9400
S1130C30331C21EE3EE245E652E40E949D1EDC0197
S1130C40CB01B0588093380390933903A0933A03AF
S1130C50B0933B0364960FB6F894DEBF0FBECDBFCE
S1130C60DF91CF91FF90EF90DF90CF90BF90AF9046
S1130C709F908F907F906F905F904F9008950F9307
S1130C801F9328EC30E04BE26AE288E194E00E9492
S1130C90B50F28EC30E04DE26CE28AE294E00E9469
S1130CA0B50F28EC30E04FE26EE28CE394E00E9452
S1130CB0B50F28EC30E041E360E38EE494E00E9459
S1130CC0B50F28EC30E043E362E380E694E00E9451
S1130CD0B50F0FE612E123E83AE30093DA03109329
S1130CE0DB032093DC033093DD0346EA5BE964E431
S1130CF07BE34093DE035093DF036093E003709340
S1130D00E1038FE892ECA5EFBCE38093E2039093B8
S1130D10E303A093E403B093E5031092E603109277
S1130D20E7031092E8031092E9031092EA03109289
S1130D30EB031092EC031092ED031092F203109265
S1130D40F3031092F4031092F5031092F603109239
S1130D50F7031092F8031092F9031092FA03109219
S1130D60FB031092FC031092FD031092FE031092F9
S1130D70FF0310920004109201040093A203109345
S1130D80A3032093A4033093A5034093A603509395
S1130D90A7036093A8037093A9038093AA03909375
S1130DA0AB03A093AC03B093AD031092AE031092C7
S1130DB0AF031092B0031092B1031092B2031092D9
S1130DC0B3031092B4031092B5031092BA031092B5
S1130DD0BB031092BC031092BD031092BE03109289
S1130DE0BF031092C0031092C1031092C203109269
S1130DF0C3031092C4031092C5031092C603109249
S1130E00C7031092C8031092C90300936A03109396
S1130E106B0320936C0330936D0340936E035093E4
S1130E206F036093700370937103809372039093C4
S1130E307303A0937403B093750310927603109216
S1130E407703109278031092790310927A03109228
S1130E507B0310927C0310927D0310928203109204
S1130E6083031092840310928503109286031092D8
S1130E708703109288031092890310928A031092B8
S1130E808B0310928C0310928D0310928E03109298
S1130E908F0310929003109291031F910F91089564
S1130EA0EF92FF920F931F93CF93DF931F92CDB7CF
S1130EB0DEB7162F7A01682F88E499E129830E940E
S1130EC0A01B612F88E499E10E944D1B2981422FC8
S1130ED050E0B70188E499E10E94211B602F88E467
S1130EE099E10E94AA1B182F882369F068E871E031
S1130EF080E09AE10E94B6234AE050E0612F80E04E
S1130F009AE10E94CC24812F0F90DF91CF911F9101
S1130F100F91FF90EF9008950F93CF93DF931F925B
S1130F20CDB7DEB74983022F21E0AE014F5F5F4F9B
S1130F30B7DF0F90DF91CF910F910895CF92DF9299
S1130F40EF92FF920F931F93CF93DF93D82FC62F67
S1130F50F42EE52E122F682F88E499E10E94A01B3D
S1130F606C2F88E499E10E944D1B60E088E499E1CC
S1130F700E94AA1BC82F882379F067E771E080E0FC
S1130F809AE10E94B6234AE050E06C2F80E09AE197
S1130F900E94CC248C2F40C021E0412F6D2F88E487
S1130FA099E10E94941B0F2DCF2DDE2D8C2F801BD9
S1130FB0811718F588E499E10E94F61A892BB1F497
S1130FC00E9437256B017C010E9437256C197D092D
S1130FD08E099F09683E73408105910580F488E479
S1130FE099E10E94F61A892B51F4EECF88E499E135
S1130FF00E94FE1A88832196D9CF80E00DC088E430
S113100099E10E94F61A892B89F767E671E080E07E
S11310109AE10E940E2485E0DF91CF911F910F91F8
S1131020FF90EF90DF90CF9008952EE042E053E0E0
S11310306BE388E683DF8111F8CF6091020370E0EF
S1131040762F662780910303682B882777FD809588
S1131050982F0E94281D6093660370936703809302
S11310606803909369038091040390E0982F882784
S113107020910503822B66277727681B790B882725
S113108077FD8095982F0E94281D609362037093CA
S1131090630380936403909365036091060370E097
S11310A0762F662780910703682B882777FD809524
S11310B0982F0E94281D60935E0370935F038093B2
S11310C06003909361038091080390E0982F882730
S11310D020910903822B90934503809344036091EC
S11310E00A0370E0762F66277195619571098091E6
S11310F00B03682B882777FD8095982F0E94281D65
S113110060935A0370935B0380935C0390935D0335
S113111060910C0370E0762F662780910D03682B95
S1131120882777FD8095982F0E94281D6093560389
S113113070935703809358039093590360910E035F
S113114070E0762F662771956195710980910F0380
S1131150682B882777FD8095982F0E94281D60931F
S1131160520370935303809354039093550308954B
S113117026E042E053E063E08EE1E0DE8111F8CF47
S11311806091020370E0762F662780910303682B39
S1131190882777FD8095982F0E94281D60934E0321
S11311A070934F0380935003909351036091040311
S11311B070E0762F662780910503682B882777FDDA
S11311C08095982F0E94281D6093460370934703CF
S11311D080934803909349036091060370E0762F4F
S11311E0662780910703682B882777FD8095982FC1
S11311F00E94281D60934A0370934B0380934C0311
S113120090934D0308954F925F926F927F928F92C5
S11312109F92AF92BF92CF92DF92EF92FF92CF93C1
S1131220DF93CDB7DEB72C970FB6F894DEBF0FBEB1
S1131230CDBF21E041E160E08EE16EDE64E670E066
S113124080E090E00E945D2593DF60914E037091F1
S11312504F0380915003909151030E94F51C2B0180
S11312603C0160914A0370914B0380914C0390912F
S11312704D030E94F51C6B017C0160914603709143
S1131280470380914803909149030E94F51C6983A8
S11312907A838B839C8321E042E160E08EE13CDE33
S11312A064E670E080E090E00E945D2561DF60917B
S11312B04E0370914F0380915003909151030E940B
S11312C0F51C6D837E838F83988760914A037091A8
S11312D04B0380914C0390914D030E94F51C4B01EC
S11312E05C0160914603709147038091480390919B
S11312F049030E94F51C69877A878B879C8721E0C4
S113130040E160E08EE108DE6D817E81641975093B
S1131310882777FD8095982F0E94281D9B01AC019A
S113132060E070E48CE195EC0E948D1C6093F60201
S11313307093F7028093F8029093F9028C189D0839
S1131340B401882777FD8095982F0E94281D9B0162
S1131350AC0160E070E48CE195EC0E948D1C60931C
S1131360FA027093FB028093FC029093FD0269855C
S11313707A8589819A81681B790B882777FD809506
S1131380982F0E94281D9B01AC0160E070E48CE161
S113139095EC0E948D1C6093FE027093FF02809373
S11313A00003909301032C960FB6F894DEBF0FBE92
S11313B0CDBFDF91CF91FF90EF90DF90CF90BF90A2
S11313C0AF909F908F907F906F905F904F90089513
S11313D0CF93DF93CDB7DEB7C454D1090FB6F894D9
S11313E0DEBF0FBECDBF20E042E350E060E070E01E
S11313F080911204909113040E94DD13813009F04E
S1131400ACC36DE772E080E09AE10E941E246AE8B2
S113141072E080E09AE10E941E2407DEA9DE0E94A9
S11314203725C0901003D0901103E0901203F09080
S113143013036C197D098E099F090E94261D20E063
S113144034E244E759E40E948D1C4B015C010E9484
S113145037256093100370931103809312039093C4
S113146013034CDA20E030E043E053E460915A0384
S113147070915B0380915C0390915D030E948D1CCD
S113148021966CAF7DAF8EAF9FAF219720E030E007
S113149043E053E4609156037091570380915803DD
S11314A0909159030E948D1C69AF7AAF8BAF9CAFAA
S11314B04090400350904103609042037090430376
S11314C020E030E044EB52ECC301B2010E94861CE0
S11314D087FF10C020E030E044EB52E460911C032D
S11314E070911D0380911E0390911F030E94921E10
S11314F01816D4F020E030E044EB52E4C301B2010A
S11315000E94921E18168CF520E030E044EB52EC59
S113151060911C0370911D0380911E0390911F0321
S11315200E94861C87FF21C04092E6035092E70385
S11315306092E8037092E9034092280350922903D1
S113154060922A0370922B0340921C0350921D0355
S113155060921E0370921F0340923403509235032D
S1131560609236037092370315C0750164012196A9
S11315700CAD1DAD2EAD3FAD2197B301A2018AED97
S113158093E01BD860931C0370931D0380931E0388
S113159090931F03C0901C03D0901D03E0901E0382
S11315A0F0901F0320E030E0A901C701B6010E94BA
S11315B0921E18165CF420E030E044EB52E4C701BC
S11315C0B6010E94921E18165CF013C020E030E0B1
S11315D044EB52ECC701B6010E94861C87FF09C088
S11315E089AD9AADABADBCADB05889AF9AAFABAFD6
S11315F0BCAF40913C0350913D0360913E03709118
S11316003F037501640109AD1AAD2BAD3CAD82EA0F
S113161093E00E94DD026093180370931903809392
S11316201A0390931B03D4D920E030E043E053E441
S11316306091520370915303809154039091550328
S11316400E948D1C25966CAF7DAF8EAF9FAF259702
S1131650409038035090390360903A0370903B03F4
S113166020E030E044EB52ECC301B2010E94861C3E
S113167087FF10C020E030E044EB52E46091140393
S11316807091150380911603909117030E94921E86
S11316901816D4F020E030E044EB52E4C301B20168
S11316A00E94921E18168CF520E030E044EB52ECB8
S11316B060911403709115038091160390911703A0
S11316C00E94861C87FF21C04092760350927703C4
S11316D06092780370927903409220035092210320
S11316E060922203709223034092140350921503D4
S11316F0609216037092170340922C0350922D03AC
S113170060922E0370922F0316C075016401259612
S11317100CAD1DAD2EAD3FAD2597B301A2018AE6F8
S113172093E00E94DD026093140370931503809389
S1131730160390931703A501940121966CAD7DAD1A
S11317408EAD9FAD21970E949D1E6B017C0120915F
S113175034033091350340913603509137030E948E
S1131760C01B21966CAF7DAF8EAF9FAF2197609366
S11317703403709335038093360390933703A501A4
S1131780940169AD7AAD8BAD9CAD0E949D1E69AF8D
S11317907AAF8BAF9CAF20913003309131034091ED
S11317A03203509133030E94C01B2B013C01609310
S11317B03003709331038093320390933303A50174
S11317C0940125966CAD7DAD8EAD9FAD25970E949D
S11317D09D1E25966CAF7DAF8EAF9FAF2597209150
S11317E02C0330912D0340912E0350912F030E941E
S11317F0C01B4B015C0160932C0370932D038093F9
S11318002E0390932F0320912803309129034091B4
S11318102A0350912B03C701B6010E94C01B2BE77A
S113182034E14EE65FE30E949D1E6B017C0129E2D8
S11318303CE54FE85DE36091400370914103809182
S11318404203909143030E949D1E9B01AC01C7017A
S1131850B6010E94C01B60932803709329038093F0
S11318602A0390932B032091240330912503409164
S113187026035091270369AD7AAD8BAD9CAD0E94D0
S1131880C01B2BE734E14EE65FE30E949D1E6B0113
S11318907C0129E23CE54FE85DE360913C037091F3
S11318A03D0380913E0390913F030E949D1E9B0146
S11318B0AC01C701B6010E94C01B6093240370935E
S11318C025038093260390932703209120033091CE
S11318D02103409122035091230325966CAD7DADE5
S11318E08EAD9FAD25970E94C01B2BE734E14EE6D9
S11318F05FE30E949D1E6B017C0129E23CE54FE8F9
S11319005DE3609138037091390380913A039091BB
S11319103B030E949D1E9B01AC01C701B6010E94BE
S1131920C01B609320037093210380932203909340
S1131930230320E030E044E353EC21966CAD7DAD0D
S11319408EAD9FAD21970E94861C87FD0EC020E0BE
S113195030E044E353E421966CAD7DAD8EAD9FAD94
S113196021970E94921E181684F480911C03909172
S11319701D03A0911E03B0911F0380933403909321
S11319803503A0933603B093370320E030E044E3FB
S113199053ECC301B2010E94861C87FD0AC020E0FB
S11319A030E044E353E4C301B2010E94921E1816CE
S11319B084F48091180390911903A0911A03B091B3
S11319C01B038093300390933103A0933203B093AD
S11319D0330320E030E044E353ECC501B4010E943A
S11319E0861C87FD0AC020E030E044E353E4C501CF
S11319F0B4010E94921E181684F4809114039091ED
S1131A001503A0911603B091170380932C039093B0
S1131A102D03A0932E03B0932F036CE272E0CE014A
S1131A20C3960E942C2720E030E040E858E3609100
S1131A3062037091630380916403909165030E9433
S1131A409D1E2DEC3CEC4CE151E40E949D1E2B01AB
S1131A503C0120E030E040E858E360915E0370917F
S1131A605F0380916003909161030E949D1E2DECA1
S1131A703CEC4CE151E40E949D1E4B015C0120E0D2
S1131A8030E044EB53E46091380370913903809162
S1131A903A0390913B030E94C01B20E030E044EBEA
S1131AA053E40E946A1D6B017C0120E030E040E8B1
S1131AB058E3609166037091670380916803909185
S1131AC069030E949D1E2DEC3CEC4CE151E40E9404
S1131AD09D1E8E01075D1F4F22E043E00E94802778
S1131AE00A50110922E043E0C301B2010E94802799
S1131AF00A50110922E043E0C501B4010E94802785
S1131B000A50110922E043E0C701B6010E94802770
S1131B100E942B250E94261D0A50110922E043E051
S1131B200E948027BE01675D7F4F80E09AE10E949A
S1131B301E2420E040E050E060E070E08091120458
S1131B4090911304ADD5E2D384E690E00E940F1780
S1131B50CE01C3960E94C02646CC63E972E080E0C1
S1131B609AE10E941E24FFCF0F9388E499E10E941A
S1131B708B1B40E052EC61E070E080E09AE10E944F
S1131B803E2280E09AE10E94631F892BD1F380E01A
S1131B909AE10E948C1F682F80E09AE10E942E2413
S1131BA080E09AE10E94631F892BD1F380E09AE1DF
S1131BB00E948C1F8CE08093B80087E0809302031E
S1131BC010920303109204031092050300E024E032
S1131BD042E053E069E188E663D98111F7CF21E05F
S1131BE041E06BE688E698D98111F9CF21E042E023
S1131BF053E065E788E6A2D98111F8CF809102030A
S1131C00883639F062E571E080E09AE10E94B623FB
S1131C10FFCF21E042E067E388E67ED98111F9CF66
S1131C2021E040E062E08EE177D98111F9CFEBDA6F
S1131C3064E670E080E090E00E945D25F6D998DAD1
S1131C400E947E040E94E804809140039091410325
S1131C50A0914203B09143038093E6039093E7037A
S1131C60A093E803B093E90380933403909335037E
S1131C70A0933603B09337038093280390932903EA
S1131C80A0932A03B0932B0380913C0390913D03CE
S1131C90A0913E03B0913F038093AE039093AF03B2
S1131CA0A093B003B093B1038093300390933103B6
S1131CB0A0933203B09333038093240390932503BA
S1131CC0A0932603B093270380913803909139039E
S1131CD0A0913A03B0913B038093760390937703EA
S1131CE0A0937803B093790380932C0390932D03EE
S1131CF0A0932E03B0932F0380932003909321038A
S1131D00A0932203B09323030E943725609310030A
S1131D107093110380931203909313030E942B2555
S1131D206C597F4F8F4F9F4F609314047093150429
S1131D30809316049093170461E0809114020E942A
S1131D40522661E0809112020F910C945226AF92B8
S1131D50BF92CF92DF92EF92FF920F93CF93DF93D4
S1131D6000D01F92CDB7DEB70E949025FDDE43E080
S1131D7060E081E06ED49093130480931204009782
S1131D8031F020E040E050E060E070E089D4A12C24
S1131D90B12CC12CD12CCE0103967C0101E020E0B2
S1131DA030E040E050E160EC72E08FE092E0FED57C
S1131DB0CE0101967C0102E020E030E040E050E1F9
S1131DC06CEC72E088EE99E0F1D5DCD680E090E02E
S1131DD00F900F900F900F90DF91CF910F91FF9084
S1131DE0EF90DF90CF90BF90AF900895CF93DF93A3
S1131DF0EC01F8D68091720490917304892B31F42C
S1131E0087E794E0909373048093720420917404A0
S1131E1030917504CE01820F931F8F3F43E19407E5
S1131E2070F42817390758F4C0917204D0917304E0
S1131E30C20FD31F909375048093740402C0C0E052
S1131E40D0E082D7CE01DF91CF9108950895FC01AF
S1131E500396928381832FEF3FEF3483238396830A
S1131E6085839087878310820895FC0111861086EC
S1131E700895CF93DF939C01FB01DC011196CD9172
S1131E80DC911297D383C2838C819D819583848353
S1131E908C819D81DC0113967C936E9312977D83D4
S1131EA06C8331872087F90180818F5F8083DF9184
S1131EB0CF9108950F931F93CF93DF938C01FB0170
S1131EC0208131812F3F8FEF380721F4E801AF8162
S1131ED0B8850EC0D801139612968D919C911397D4
S1131EE0EC01488159812417350710F0DC01F4CF47
S1131EF012968D919C91139793838283EC01FD83B9
S1131F00EC83B583A4831396FC93EE931297118705
S1131F100087F80180818F5F8083DF91CF911F91CB
S1131F200F910895CF93DF93FC01A085B185828141
S1131F30938124813581EC013D832C83C481D58137
S1131F409B838A8311968D919C9112978E179F077C
S1131F5021F41296DC93CE931197118610868C91FE
S1131F6081508C93DF91CF910895CF93DF93DC015F
S1131F7070E0FB01E052FE4FE4911496EC93149749
S1131F80842F90E0FC01E052FE4FE4911596EC930F
S1131F9015976A5D7D4FFB01C491D0E0CC0FDD1F26
S1131FA0CA57DD4FFE014591549117965C934E93A9
S1131FB01697FC01EA5DFD4F849190E0880F991F0C
S1131FC084599D4FFC01459154911B965C934E930B
S1131FD01A97FB016491E62FF0E0EE0FFF1FE05625
S1131FE0FD4F8591949119969C938E931897C901EE
S1131FF0253FF1E03F0714F084EF91E049E3489F67
S11320009001499F300D1124245E3F4F1D963C934F
S11320102E931C97DF91CF9108950F931F93CF9325
S1132020DF93EC01E885F98580819C81892B80838D
S1132030EE81FF8190818C8180958923808384E067
S113204090E00E948525EE81FF8180819C81892B0F
S113205080838AE090E00E948525EE81FF81908153
S11320608C81809589238083E885F98590818C8192
S11320708095892380830E943725605B794B8F4F3D
S11320809F4F6E877F87888B998BEA85FB8580813C
S11320909D81892359F00E9437250E851F85288943
S11320A03989061717072807390778F7EA85FB8562
S11320B080819D81892369F40E9437250E851F85BF
S11320C028893989061717072807390778F780E020
S11320D00DC00E9437252C853D85620F731F811D1D
S11320E0911D6E877F87888B998B81E0DF91CF91DB
S11320F01F910F9108950F931F93CF93DF93EC01DA
S11321008CDF882389F0EA85FB8580819D81892382
S113211071F00E9437250E851F8528893989061795
S113212017072807390778F720E030E00CC00E9431
S113213037252C853D85255031094E855F85241B27
S1132140350B260F371FC901DF91CF911F910F91D6
S113215008951F920F920FB60F9211240BB60F928F
S11321602F933F934F935F936F937F938F939F939B
S1132170AF93BF93EF93FF93E0917618F0917718A4
S1132180309709F01995FF91EF91BF91AF919F910D
S11321908F917F916F915F914F913F912F910F900C
S11321A00BBE0F900FBE0F901F90189531E1FC01EC
S11321B03083319722E220833197A3E3A0833197C0
S11321C060833197708331971082319710823197F1
S11321D060E86083319710823197108231971082C2
S11321E0319762E06083319763E06083319764E004
S11321F06083319765E06083319766E0608331974F
S113220067E06083319768E06083319769E06083B9
S1132210319760E1608331973083319732E13083C5
S1132220319733E13083319734E13083319735E1AD
S11322303083319736E13083319737E130833197FA
S113224038E13083319739E13083319730E230839C
S1132250319731E2308331972083319723E2208311
S11322603197408331975083319726E22083319709
S113227027E22083319728E22083319729E22083C3
S1132280319720E32083319721E3208389970895B0
S11322901092800081E18093810080E49FE190931B
S11322A087008093860081E080936F00A091D81806
S11322B0B091D918CD91CDBFDD91DEBFFF91EF91E3
S11322C0DF91CF91BF91AF919F918F917F916F914A
S11322D05F914F913F912F911F910F91FF90EF903C
S11322E0DF90CF90BF90AF909F908F907F906F9032
S11322F05F904F903F902F901F900F900CBE0F90C7
S11323000BBE0F900FBE0F90089508950F920FB655
S1132310F8940F920CB60F920BB60F921F921124E1
S11323202F923F924F925F926F927F928F929F92E1
S1132330AF92BF92CF92DF92EF92FF920F931F93CF
S11323402F933F934F935F936F937F938F939F93B9
S1132350AF93BF93CF93DF93EF93FF93A091D818DC
S1132360B091D9180DB60D920EB60D92A8D5A091C4
S1132370D818B091D918CD91CDBFDD91DEBFFF91B2
S1132380EF91DF91CF91BF91AF919F918F917F9109
S11323906F915F914F913F912F911F910F91FF90FA
S11323A0EF90DF90CF90BF90AF909F908F907F90F1
S11323B06F905F904F903F902F901F900F900CBEA6
S11323C00F900BBE0F900FBE0F9008950F920FB693
S11323D0F8940F920CB60F920BB60F921F92112421
S11323E02F923F924F925F926F927F928F929F9221
S11323F0AF92BF92CF92DF92EF92FF920F931F930F
S11324002F933F934F935F936F937F938F939F93F8
S1132410AF93BF93CF93DF93EF93FF93A091D8181B
S1132420B091D9180DB60D920EB60D92E1D381116B
S113243046D5A091D818B091D918CD91CDBFDD91D2
S1132440DEBFFF91EF91DF91CF91BF91AF919F914B
S11324508F917F916F915F914F913F912F911F9138
S11324600F91FF90EF90DF90CF90BF90AF909F902F
S11324708F907F906F905F904F903F902F901F9020
S11324800F900CBE0F900BBE0F900FBE0F900895CF
S11324909DDF18951F93CF93DF93EC01142F4C8D80
S11324A041110BC088819981892B09F040C08A8130
S11324B09B8145D61B821A823BC050E0111115C086
S11324C08C819D810E94AB292C8D8C819D81820FF2
S11324D0911D9D838C832A813B818217930738F158
S11324E0888199819D838C8322C08E819F810E94E3
S11324F0AB292C8D30E03195219531098E819F8156
S1132500820F931F9F838E83688179818617970733
S113251030F48A819B81820F931F9F838E831230B4
S113252031F48A8D882319F08A8D81508A8F80E056
S11325309A8D9F5F9A8FDF91CF911F910895FC012F
S1132540CB01448D4423A1F050E026813781240F30
S1132550351F37832683628173812617370720F05E
S11325602081318137832683668177810C94AB295E
S113257008950F931F93CF93DF93EC010FB6F89454
S11325800F928C010F5E1F4F8E8D18165CF4898993
S1132590882341F0C801FED4811178D58E8D8150F5
S11325A08E8FF2CF8FEF8E8F0F900FBE0FB6F894F1
S11325B00F928E01085F1F4F8D8D18165CF488856D
S11325C0882341F0C801E6D4811160D58D8D8150F6
S11325D08D8FF2CF8FEF8D8F0F900FBEDF91CF9144
S11325E01F910F910895CF93DF93EC010FB6F894E8
S11325F00F92288139818B8D7C8D879FC001112496
S1132600A901480F591F5B834A831A8E3D832C838B
S1132610871B9109820F931F9F838E838FEF8D8F6A
S11326208E8F61110AC08885882369F0CE010896CF
S1132630B1D4813041F46ADE06C0CE01089607DCCD
S1132640CE01419604DC0F900FBE81E0DF91CF9163
S113265008950F931F93CF93DF93182F062F88238A
S1132660B9F08FE190E0C2DBEC01009789F0109F94
S1132670C00111240196BADB99838883892B31F038
S11326801B8F0C8F61E0CE01AEDF04C0CE01DEDB18
S1132690C0E0D0E0CE01DF91CF911F910F9108955A
S11326A0BF92CF92DF92EF92FF920F931F93CF933B
S11326B0DF9300D01F921F92CDB7DEB78C016B0160
S11326C05D834C83B22E20E07C0188E0E80EF11C8F
S11326D00FB6F8940F92F801928D838D981718F025
S11326E0F2E0BF1215C04B2DB601C801D3DEF801CC
S11326F09189992339F0C80141964CD4813021F451
S113270005DE02C08111FCCF0F900FBE81E046C0F0
S11327108C819D81892B19F40F900FBE3EC021112D
S113272003C0CE01019676D40F900FBE5BD20FB6D4
S1132730F8940F92F801858D8F3F09F4158EF801F6
S1132740868D8F3F09F4168E0F900FBEBE016C5F0D
S11327507F4FCE01019669D481111CC00FB6F89445
S11327600F92F801928D0F900FBEF801838D98138C
S11327700DC06C817D81C701E2D3C801FADEE4D2C9
S1132780882311F021E0A4CFC1DDFCCFC801F1DE24
S1132790DBD2F8CFC801EDDED7D280E00F900F90E6
S11327A00F900F900F90DF91CF911F910F91FF9099
S11327B0EF90DF90CF90BF900895BF92CF92DF92B9
S11327C0EF92FF920F931F93CF93DF9300D01F924A
S11327D01F92CDB7DEB78C016B015D834C83B22EA3
S11327E030E07C0181E1E80EF11C0FB6F8940F9201
S11327F0F801828D882361F1E680F780B601C80173
S11328009EDEF801B11016C0828D8150828F8081C6
S11328109181892B21F4CCD4F80193838283F8012C
S11328208085882389F0C8010896B4D3813061F487
S11328306DDD0AC0F782E6828189882329F0C80108
S11328404196A8D38111F4CF0F900FBE81E052C0FE
S11328508C819D81892B19F40F900FBE4AC03111D0
S113286003C0CE010196D6D30F900FBEBBD10FB6D5
S1132870F8940F92F801858D8F3F09F4158EF801B5
S1132880868D8F3F09F4168E0F900FBEBE016C5FCC
S11328907F4FCE010196C9D3811128C00FB6F89499
S11328A00F92F801828D0F900FBE81111BC0F801A9
S11328B080819181892B49F40FB6F8940F92F80125
S11328C082819381E7D30F900FBE6C817D81C70114
S11328D036D3C8014EDE38D2882311F031E085CFDB
S11328E015DDFCCFC80145DE2FD2F8CFC80141DE8B
S11328F02BD280E00F900F900F900F900F90DF91EC
S1132900CF911F910F91FF90EF90DF90CF90BF90E8
S11329100895E091A018F091A1188081811103C05D
S11329208FEF9FEF0CC0E091A018F091A1180580E3
S1132930F681E02D0680F781E02D828193819093CA
S11329401702809316020895CF93DF93EC01E09170
S1132950D818F091D9189383828380917F1890912D
S113296080186091D8187091D918C817D90748F4FD
S113297080919E1890919F186E5F7F4FDF91CF9149
S113298099CA8091A0189091A1186E5F7F4F92DA36
S11329908091160290911702C817D90720F4D0939A
S11329A01702C0931602DF91CF9108955F926F9240
S11329B07F928F929F92AF92BF92CF92DF92EF92CB
S11329C0FF920F931F93CF93DF934C01162F572E33
S11329D05A01390183E290E009DAEC01009709F425
S11329E0C0C0C114D10419F4C50100DA01C0C60184
S11329F0988F8F8B009719F4CE0128DAB2C021E0AA
S1132A00A21AB108A80EB91EE12FF52D80E090E0BE
S1132A10BF0141919E01280F391FD90159964C934A
S1132A20DB012C91222321F001968830910581F756
S1132A3018A2102F043008F013E01E8B19A31AA259
S1132A406E01B2E0CB0ED11CC6010FDACE010C969A
S1132A500CDAD987C88784E090E0811B91099D87AF
S1132A608C87DB8BCA8BA301B401C5019FDB9983DF
S1132A708883E114F10419F0F701D183C0830FB600
S1132A80F8940F92809181188F5F809381188091C0
S1132A90D8189091D918892B89F5D093D918C09357
S1132AA0D81880918118813009F037C084EB98E1FF
S1132AB0CED98DEB98E1CBD986EC98E1C8D98FECCF
S1132AC098E1C5D98BEA98E1C2D982EA98E1BFD9E5
S1132AD085E998E1BCD98CE898E1B9D982E898E114
S1132AE0B6D98BEA98E19093A1188093A01882EA52
S1132AF098E190939F1880939E180FC080917D1841
S1132B0081110BC0E091D818F091D9188689081763
S1132B1020F0D093D918C093D818809179188F5F7A
S1132B20809379188E8990917E18981710F4809369
S1132B307E18F9E08F9FC0011124B6018C54974E82
S1132B4098D90F900FBE80917D18882341F0E091B1
S1132B50D818F091D9188689801708F4D7DB81E05A
S1132B6001C08FEFDF91CF911F910F91FF90EF90F4
S1132B70DF90CF90BF90AF909F908F907F906F9099
S1132B805F900895AF92BF92CF92DF92EF92FF923F
S1132B900F93A12CB12CC12CD12CE12CF12C00E0F1
S1132BA020E030E045E550E060ED72E08FE297E12F
S1132BB0FDDE813079F4F89480937D1810928018AA
S1132BC010927F180F91FF90EF90DF90CF90BF90FD
S1132BD0AF905ECB0F91FF90EF90DF90CF90BF90BE
S1132BE0AF900895809178188F5F80937818089536
S1132BF0CF92DF92EF92FF920F931F93CF93DF93C5
S1132C008091781881118AC080917F1890918018E2
S1132C1001969093801880937F1800917F181091EB
S1132C20801801151105B1F48091A0189091A11894
S1132C3020919E1830919F183093A1182093A018CA
S1132C4090939F1880939E1880917A188F5F809339
S1132C507A185FDE8091160290911702D12C081722
S1132C60190708F44AC089E0C82EE091A018F09131
S1132C70A1188081811107C08FEF9FEF90931702F5
S1132C80809316023AC0E091A018F091A118058033
S1132C90F681E02DC681D7812A813B810217130773
S1132CA028F4309317022093160227C07E0182E095
S1132CB0E80EF11CC70136D92C893D89232B19F064
S1132CC0CE010C962FD92E8980917E18821710F48C
S1132CD020937E18C29EC0011124B7018C54974ED4
S1132CE0C8D8E091D818F091D9189E898689981788
S1132CF008F4BBCFDD24D394B8CFE091D818F09179
S1132D00D918E68989E0E89FF0011124EC54F74EC4
S1132D108081823048F0DD24D39406C080917C18F1
S1132D208F5F80937C18D12C80917B18882311F0BD
S1132D30DD24D3948D2DDF91CF911F910F91FF90BE
S1132D40EF90DF90CF900895EF92FF920F931F932F
S1132D50CF93DF930FB6F8940F9280917818815037
S1132D608093781880917818882311F080E04EC001
S1132D70809181188823D1F399E0F92EEE24E3940D
S1132D8080919518882339F1E0919A18F0919B1855
S1132D90C681D781CE010C96C5D88E010E5F1F4F18
S1132DA0C801C0D88E8990917E18981710F480932A
S1132DB07E18F89EC0011124B8018C54974E59D83E
S1132DC0E091D818F091D9189E8986899817C0F295
S1132DD0E0927B18D5CF80917C18811108C0809136
S1132DE07B18813009F0C2CF91DA81E00FC0C1E0D5
S1132DF080917C18882399F3FBDE8111C0937B18A2
S1132E0080917C18815080937C18F2CF0F900FBE74
S1132E10DF91CF911F910F91FF90EF9008950F9341
S1132E201F93CF93DF938C01009711F46FDA12C0D4
S1132E30D9DEC0917F18D0918018C00FD11F809126
S1132E40D8189091D91802966DD8CE017DDD7CDF1B
S1132E50882361F3DF91CF911F910F9108958091A1
S1132E608B18882331F1BEDEC0918C186DDFCC2322
S1132E70B1F30FB6F8940F92E0919118F091921873
S1132E80C681D781CE0102964DD880918118815098
S1132E908093811880918B18815080938B180F90A8
S1132EA00FBE8F89988D0E94260FCE010E94260F97
S1132EB0D6CF8091B418823090F228DAD0CF8091A6
S1132EC07818882321F081E080937B18089510926C
S1132ED07B1899E0E0917E189E9FF0011124EC5438
S1132EE0F74E8081811106C080917E1881508093B5
S1132EF07E18F0CFE0917E1889E0E89FF00111245C
S1132F00EC54F74EA181B28112960D90BC91A02D84
S1132F10B283A183CF010396A817B90731F412969F
S1132F208D919C911397928381830180F281E02D8E
S1132F30868197819093D9188093D8180895CF9358
S1132F40DF93EB016091D8187091D918645F7F4FBB
S1132F500E945A0F8091D8189091D91802960E9415
S1132F60920FCF3F8FEFD80761F46091D81870911A
S1132F70D9186E5F7F4F82E898E1DF91CF910C946E
S1132F80390F80917F18909180188C0F9D1FDF91CD
S1132F90CF91DACC0F931F93CF93DF93DC01159677
S1132FA0ED91FC911697C681D7818E01045F1F4F66
S1132FB0C8010E94920F80917818811114C00A50A0
S1132FC01109C8010E94920F8E8990917E1898175A
S1132FD010F480937E18B9E08B9FC0011124B801CE
S1132FE08C54974E03C0B80185E998E10E94390FCB
S1132FF0E091D818F091D9189E898689891720F410
S113300081E080937B1801C080E0DF91CF911F9114
S11330100F91089520917A18FC01208320917F1844
S113302030918018328321830895CF93DF930FB6B4
S1133030F8940F92E0917F18F0918018DB014D9184
S11330405C914F3FBFEF5B07C9F0B0917A18EC0178
S1133050A88129813A81BA1719F0E217F30780F49D
S1133060DF01A21BB30BA417B50750F42E1B3F0BB3
S1133070240F351FFB0131832083CCDF80E001C0A6
S113308081E00F900FBEDF91CF91089581E080938E
S11330907B1808950F931F93CF93DF93EC01009750
S11330A009F448C08E89E091D818F091D91896890E
S11330B0891708F03FC02C853D8537FD0BC0E09192
S11330C0D818F091D918968924E030E0291B3109E9
S11330D03D872C8729E0829FC00111248C54974E90
S11330E02A853B8528173907F9F48E010E5F1F4F97
S11330F0C8010E94920FE091D818F091D9188689DE
S11331008E8B90917E18981710F480937E1829E086
S1133110829FC0011124B8018C54974EDF91CF9146
S11331201F910F910C94390FE091D818F091D91890
S113313086898E8BDF91CF911F910F9108950F9304
S11331401F93CF93DF93EC01009711F480E02BC021
S11331508AA181508AA32E8999A12917B9F38111D3
S1133160F5CF8E010E5F1F4FC8010E94920F89A1F7
S11331708E8B482F50E024E030E0241B350B3D8734
S11331802C8790917E18981710F480937E1829E06C
S1133190249FC001259F900D1124B8018C54974E93
S11331A00E94390F81E0DF91CF911F910F91089513
S11331B08091D8189091D918892B39F0E091D818BA
S11331C0F091D91882A18F5F82A38091D818909131
S11331D0D91808951092471981E0809345191092E7
S11331E0441961E084E10E94902661E085E10E9437
S11331F09026E9EBF0E080818E7F808380818D7F53
S1133200808388E48093B80085E48093BC000895AB
S1133210413208F03FC0909147199111FCCF91E0E1
S113322090934719209345192FEF2093DA181092A1
S11332301F19240F20931E19909346199091461933
S1133240880F892B8093461980914419813041F469
S113325010924419809146198093BB0085EC01C0FB
S113326085EE8093BC00809147198130E1F3809111
S11332701F19841710F440911F1920E239E1FB0152
S1133280D9018A2F821B841718F48D918193F9CF69
S1133290842F089580E008950F93413208F046C0CA
S11332A0909147199111FCCF92E0909347190093A4
S11332B045199FEF9093DA1810921F1940931E1925
S11332C0FB0160E279E1DB019A2F961B941718F455
S11332D091919D93F9CF1092461990914619880FB8
S11332E0892B8093461980914419813041F41092BE
S11332F04419809146198093BB0085EC01C085EE8A
S11333008093BC00222321F0809147198230E1F39D
S11333108091DA188F3F61F08091DA18803251F091
S11333208091DA18803341F483E007C081E005C05E
S113333080E003C082E001C084E00F91089561320F
S113334098F420914719243089F46093FC18FC0107
S11333508EEF98E1DC012A2F281B261718F42191FF
S11333602D93F9CF80E0089581E0089582E00895D7
S113337085ED8093BC008091BC0084FDFCCF10924D
S11333804719089585EC8093BC001092471908955D
S11333901F920F920FB60F9211240BB60F922F9318
S11333A03F934F935F936F937F938F939F93AF93C9
S11333B0BF93EF93FF938091B900887F803609F41F
S11333C09CC068F5883209F45BC090F4803109F43C
S11333D054C038F4882309F4F3C0883009F44DC08C
S11333E0F2C0883109F44CC0803209F45DC0EBC0EE
S11333F0803409F468C048F4803309F455C0883334
S113340009F0E1C08093DA18A7C0803509F44FC0F1
S1133410883509F45DC0883409F0D5C0D3C0883933
S113342009F4C4C0A8F4883709F467C038F48836AE
S113343009F463C0803709F460C0C5C0883809F452
S1133440B5C0803909F45FC0803809F0BCC05BC0E6
S1133450803B09F483C038F4803A09F466C0883AA2
S113346009F47CC0B0C0803C09F4A4C0883C09F4D1
S1133470A1C0883B09F487C0A6C08091461910C03A
S113348090911F1980911E19981770F5E0911F19DA
S113349081E08E0F80931F19F0E0E05EF64E80818C
S11334A08093BB0085EC83C08093DA188BC0E091D5
S11334B01F1981E08E0F80931F198091BB00F0E0EB
S11334C0E05EF64E808390911F1980911E196BC0A7
S11334D0E0911F1981E08E0F80931F198091BB002A
S11334E0F0E0E05EF64E80838091451981116AC058
S11334F081E08093441984EA5EC083E08093471995
S11335001092DB18CFCF8091DB18803208F04EC0C8
S1133510E091DB1881E08E0F8093DB188091BB0073
S1133520F0E0E452F74E8083BDCF8091DB18803207
S113353030F4E091DB18F0E0E452F74E108218DF2B
S11335406091DB1870E0E0914019F09141198CED25
S113355098E119951092DB1815DF35C084E080934B
S113356047191092FD181092FC18E0914219F0913D
S1133570431919958091FC18811105C081E080934D
S1133580FC181092FE18E091FD1881E08E0F8093D4
S1133590FD18F0E0E250F74E80818093BB009091DB
S11335A0FD188091FC18981708F47CCF85E8809367
S11335B0BC0009C085EC8093BC001092471903C07D
S11335C01092DA18D5DEFF91EF91BF91AF919F91E0
S11335D08F917F916F915F914F913F912F910F90B8
S11335E00BBE0F900FBE0F901F9018958091781905
S11335F090E020917919821B9109089520917919FD
S113360080917819281750F4E22FF0E0E658F64E2E
S1133610808190E02F5F2093791908958FEF9FEFB9
S11336200895E091791980917819E81730F4F0E061
S1133630E658F64E808190E008958FEF9FEF08954D
S11336400895CF92DF92EF92FF920F931F93CF933F
S1133650DF937C01CB018A0120915419222389F044
S1133660EB016B01C40ED51ECC15DD0561F069912B
S1133670D701ED91FC910190F081E02DC7011995DE
S1133680F3CF642F5CDEC801DF91CF911F910F91BE
S1133690FF90EF90DF90CF900895CF93DF931F9228
S11336A0CDB7DEB76983209154192223D1F020913C
S11336B05519203240F021E030E0FC0133832283AD
S11336C080E090E014C080915619E82FF0E0E95AA8
S11336D0F64E998190838F5F809356198093551984
S11336E004C061E0CE0101962ADE81E090E00F90F3
S11336F0DF91CF910895FC011382128248EE53E0CA
S113370060E070E0448355836683778389ED92E0BB
S113371091838083089510927919109278191092E8
S113372056191092551956CD862F413208F040E2B1
S11337306AE779E16DDD109279198093781908951B
S113374081E080935419609377191092561910925E
S1133750551908950F93062F21E04091551967E5F7
S113376079E18091771998DD1092561910925519C4
S1133770109254190F91089588E499E1BCCF5058E0
S1133780BB27AA270ED083C24CD230F051D220F0EE
S113379031F49F3F11F41EF41CC20EF4E095E7FBD4
S11337A004C2E92F96D280F3BA176207730784071D
S11337B0950718F071F49EF5AEC20EF4E0950B2E49
S11337C0BA2FA02D0B01B90190010C01CA01A0016F
S11337D01124FF27591B99F0593F50F4503E68F1CA
S11337E01A16F040A22F232F342F4427585FF3CF0B
S11337F0469537952795A795F0405395C9F77EF4DC
S11338001F16BA0B620B730B840BBAF09150A1F024
S1133810FF0FBB1F661F771F881FC2F70EC0BA0FAA
S1133820621F731F841F48F4879577956795B79532
S1133830F7959E3F08F0B3CF9395880F08F099272A
S1133840EE0F979587950895ECD158F080E891E0B4
S113385009F49EEFEDD128F040E851E059F45EEF11
S113386009C0B7C158C2E92FE07833D268F3092EF2
S1133870052AC1F3261737074807590738F00E2ED3
S113388007F8E02569F0E025E0640AC0EF6307F873
S1133890009407FADB01B9019D01DC01CA01AD0105
S11338A0EF934AD0F4D10AD05F91552331F02BED38
S11338B03FE049E450FD49EC63CF0895DF93DD27F1
S11338C0B92FBF7740E85FE31616170648075B0772
S11338D010F4D92F2BD29F938F937F936F93D8D2C9
S11338E0E4EEF0E079D1D3D12F913F914F915F91E4
S11338F030D2DD2349F09058A2EA2AED3FE049ECAA
S11339005FE3D0785D274DDFDF91C1C12AD108F490
S113391081E0089595D1E395CBC10CD0B8C188D18D
S113392040F07FD130F021F45F3F19F03EC15111D6
S1133930F3C14FC1CED198F39923C9F35523B1F301
S1133940951B550BBB27AA2762177307840738F00A
S11339509F5F5F4F220F331F441FAA1FA9F333D069
S11339600E2E3AF0E0E830D091505040E695001C1D
S1133970CAF729D0FE2F27D0660F771F881FBB1FD9
S1133980261737074807AB07B0E809F0BB0B802DB3
S1133990BF01FF2793585F4F2AF09E3F510568F0FF
S11339A004C1BAC15F3FECF3983EDCF3869577958A
S11339B06795B795F7959F5FC9F7880F911D969501
S11339C0879597F90895E1E0660F771F881FBB1F5D
S11339D0621773078407BA0720F0621B730B840B0A
S11339E0BA0BEE1F88F7E095089504D06894B111DE
S11339F093C1089576D188F09F5790F0B92F9927F5
S1133A00B751A0F0D1F0660F771F881F991F1AF0E5
S1133A10BA95C9F712C0B13081F07DD1B1E00895F3
S1133A207AC1672F782F8827B85F39F0B93FCCF374
S1133A30869577956795B395D9F73EF490958095DB
S1133A40709561957F4F8F4F9F4F0895E89409C0FB
S1133A5097FB3EF490958095709561957F4F8F4FBD
S1133A609F4F9923A9F0F92F96E9BB279395F695D3
S1133A70879577956795B795F111F8CFFAF4BB0F51
S1133A8011F460FF1BC06F5F7F4F8F4F9F4F16C0B5
S1133A90882311F096E911C0772321F09EE8872F3F
S1133AA0762F05C0662371F096E8862F70E060E0FB
S1133AB02AF09A95660F771F881FDAF7880F969574
S1133AC0879597F90895ADD018F011F0B1D038F476
S1133AD080C022C1E92FFDD0B0F35523C9F3E7FB21
S1133AE06217730784079507A8F199F3E92FFF2755
S1133AF088232AF03197660F771F881FDAF7952FEE
S1133B005527442332F091505040220F331F441F55
S1133B10D2F7BB27E91BF50B621B730B840BB109AE
S1133B20C1F222F4620F731F841FB11D31972AF072
S1133B30660F771F881FBB1FEFCF915050405AF07C
S1133B4041F0882332F0660F771F881F9150504050
S1133B50C1F7939530C08695779567959F5FD9F7A0
S1133B60F8CF990F0008550FAA0BE0E8FEEF1616E0
S1133B701706E807F907C0F012161306E407F5075D
S1133B8098F0621B730B840B950B39F40A2661F0D1
S1133B90232B242B252B21F408950A2609F4A14074
S1133BA0A6958FEF811D811D089597F99F6780E881
S1133BB070E060E008959F3F31F0915020F48795C4
S1133BC077956795B795880F911D9695879597F981
S1133BD008959FEF80EC0895DF93CF931F930F9385
S1133BE0FF92EF92DF927B018C01689405C0DA2E7C
S1133BF0EF01AFD0FE01E894A5912591359145914F
S1133C005591AEF3EF01CDDDFE019701A801DA94E1
S1133C1079F7DF90EF90FF900F911F91CF91DF9193
S1133C20089500240A94161617061806090608951E
S1133C3000240A9412161306140605060895C9CF23
S1133C4050D0E8F3E894E0E0BB279F57F0F02AED6A
S1133C503FE049EC06C0EE0FBB0F661F771F881FBD
S1133C6028F0B23A62077307840728F0B25A620B4D
S1133C70730B840BE3959A9572F7803830F49A9518
S1133C80BB0F661F771F881FD2F7904896CF092E67
S1133C900394000C11F4882352F0BB0F40F4BF2BA3
S1133CA011F460FF04C06F5F7F4F8F4F9F4F0895E3
S1133CB0EF93E0FF06C0A2EA2AED3FE049EC5FEB98
S1133CC070DDE5DF0F90039401FC9058E1E1F1E031
S1133CD0E9C057FD9058440F551F59F05F3F71F0EC
S1133CE04795880F97FB991F61F09F3F79F087955F
S1133CF00895121613061406551FF2CF4695F1DFE8
S1133D0008C0161617061806991FF1CF8695710577
S1133D10610508940895E894BB2766277727CB01AB
S1133D2097F908951EDF08F48FEF08959B01AC0105
S1133D3060E070E080E89FE3F0CD0BD0A8CF71DFA6
S1133D4028F076DF18F0952309F02FCF42CF112405
S1133D50E3CFBFDFA0F3959FD1F3950F50E0551F3C
S1133D60629FF001729FBB27F00DB11D639FAA27CC
S1133D70F00DB11DAA1F649F6627B00DA11D661F1B
S1133D80829F2227B00DA11D621F739FB00DA11D3C
S1133D90621F839FA00D611D221F749F3327A00DF6
S1133DA0611D231F849F600D211D822F762F6A2F92
S1133DB011249F5750408AF0E1F088234AF0EE0F17
S1133DC0FF1FBB1F661F771F881F91505040A9F724
S1133DD09E3F510570F0E9CE9FCF5F3FECF3983ED4
S1133DE0DCF3869577956795B795F795E7959F5F8B
S1133DF0C1F7FE2B880F911D9695879597F9089525
S1133E009F931EDF0F9007FCEE5F52CF11F40EF468
S1133E10E0CED1CE66DFD0F39923D9F3CEF39F570A
S1133E20550B87FF38D00024A0E640EA9001805863
S1133E305695979528F4805C660F771F881F20F0AD
S1133E4026173707480730F4621B730B840B2029AD
S1133E5031294A2BA69517940794202531254A2702
S1133E6058F7660F771F881F20F026173707480773
S1133E7030F4620B730B840B200D311D411DA09592
S1133E8081F7B901842F9158880F969587950895E5
S1133E909B01AC0152CF91505040660F771F881F91
S1133EA0D2F708959F938F937F936F93FF93EF932C
S1133EB09B01AC0142DFEF91FF918EDE2F913F9188
S1133EC04F915F913ACFFC0124853585F901E05C7F
S1133ED0FF4F80819181329620813181821B930B27
S1133EE08F7399270895FC0184859585FC01E05C16
S1133EF0FF4F40815181329620813181421753070F
S1133F0041F020813181FC01E20FF31F808190E0B8
S1133F1008958FEF9FEF0895FC0184859585FC013A
S1133F20E05CFF4F408151813296208131814217FC
S1133F30530781F020813181DC01A20FB31F8C91E2
S1133F40208131812F5F3F4F2F73332731832083AB
S1133F5090E008958FEF9FEF0895FC0181A18823DD
S1133F6029F0A489B5898C9186FFFBCF11A208950D
S1133F701F93CF93DF93EC018E859F85FC01E05C5A
S1133F80FF4F0190F081E02D3196EF73FF271E2F34
S1133F907F2FDC01AE5BBF4F212F372F4D915C91FA
S1133FA01197E417F507C1F3FC01E05CFF4F408172
S1133FB05181FC01E40FF51F6083EE85FF85E05C11
S1133FC0FF4F31832083EE89FF89408121E030E077
S1133FD0C9010F8C02C0880F991F0A94E2F7842B41
S1133FE0808381E089A3EC89FD898081806480835A
S1133FF081E090E0DF91CF911F9108951F920F927D
S11340000FB60F9211240BB60F922F933F934F9339
S11340108F939F93AF93BF93EF93FF938091C000CF
S113402082FD1AC04091C60080913E1C90913F1CB5
S113403001968F7399272091401C3091411C82175F
S1134040930761F0EEE3FCE1A081B181A250B44E8C
S11340504C939183808302C08091C600FF91EF91BD
S1134060BF91AF919F918F914F913F912F910F905D
S11340700BBE0F900FBE0F901F9018951F920F92BA
S11340800FB60F9211240BB60F922F933F934F93B9
S11340908F939F93AF93BF93EF93FF938091C80047
S11340A082FD1AC04091CE008091B61B9091B71B3F
S11340B001968F7399272091B81B3091B91B8217F1
S11340C0930761F0E6EBFBE1A081B181AA58B44EFD
S11340D04C939183808302C08091CE00FF91EF9135
S11340E0BF91AF919F918F914F913F912F910F90DD
S11340F00BBE0F900FBE0F901F9018951F920F923A
S11341000FB60F9211240BB60F922F933F934F9338
S11341108F939F93AF93BF93EF93FF938091D000BE
S113412082FD1AC04091D60080912E1B90912F1BC6
S113413001968F7399272091301B3091311B821780
S1134140930761F0EEE2FBE1A081B181A251B54E8B
S11341504C939183808302C08091D600FF91EF91AC
S1134160BF91AF919F918F914F913F912F910F905C
S11341700BBE0F900FBE0F901F9018951F920F92B9
S11341800FB60F9211240BB60F922F933F934F93B8
S11341908F939F93AF93BF93EF93FF9380913001DD
S11341A082FD1AC0409136018091A61A9091A71AF7
S11341B001968F7399272091A81A3091A91A821712
S11341C0930761F0E6EAFAE1A081B181AA59B54EFC
S11341D04C939183808302C080913601FF91EF91CB
S11341E0BF91AF919F918F914F913F912F910F90DC
S11341F00BBE0F900FBE0F901F9018951F920F9239
S11342000FB60F9211240BB60F922F933F938F93F7
S11342109F93AF93BF93EF93FF932091FA1B309139
S1134220FB1B8091FC1B9091FD1B2817390731F46F
S1134230E1ECF0E080818F7D808310C0ECEFFBE146
S1134240A081B181A654B44E2C91808191810196B4
S11342508F739927918380832093C600FF91EF91F8
S1134260BF91AF919F918F913F912F910F900BBE72
S11342700F900FBE0F901F9018951F920F920FB6BC
S11342800F9211240BB60F922F933F938F939F930A
S1134290AF93BF93EF93FF932091721B3091731BE5
S11342A08091741B9091751B2817390731F4E9EC40
S11342B0F0E080818F7D808310C0E4E7FBE1A08182
S11342C0B181AE5CB44E2C918081918101968F7343
S11342D09927918380832093CE00FF91EF91BF9122
S11342E0AF919F918F913F912F910F900BBE0F90A3
S11342F00FBE0F901F9018951F920F920FB60F923A
S113430011240BB60F922F933F938F939F93AF93E8
S1134310BF93EF93FF932091EA1A3091EB1A8091A7
S1134320EC1A9091ED1A2817390731F4E1EDF0E019
S113433080818F7D808310C0ECEEFAE1A081B18191
S1134340A655B54E2C918081918101968F73992742
S1134350918380832093D600FF91EF91BF91AF9119
S11343609F918F913F912F910F900BBE0F900FBE95
S11343700F901F9018951F920F920FB60F92112451
S11343800BB60F922F933F938F939F93AF93BF934B
S1134390EF93FF932091621A3091631A8091641A0B
S11343A09091651A2817390731F4E1E3F1E080812F
S11343B08F7D808310C0E4E6FAE1A081B181AE5D17
S11343C0B54E2C918081918101968F7399279183A9
S11343D0808320933601FF91EF91BF91AF919F911C
S11343E08F913F912F910F900BBE0F900FBE0F90A6
S11343F01F9018958F929F92AF92BF92CF92DF92A7
S1134400EF92FF920F931F93CF93DF93CDB7DEB755
S1134410FC011382128288EE93E0A0E0B0E0848372
S11344209583A683B78389EE92E091838083758711
S1134430648757874687318B208B138B028BF58AD1
S1134440E48AD78AC68AB18EA08E938E828E88899A
S1134450848F8989858F8A89868F8B89878F8C89B8
S113446080A3DF91CF911F910F91FF90EF90DF9088
S1134470CF90BF90AF909F908F900895CF92DF928E
S1134480EF92FF92CF93DF93EC016A017B01411518
S113449081EE58076105710501F1EC89FD8981E020
S11344A090E008A002C0880F991F0A94E2F7808365
S11344B060E079E08DE390E0A7019601F5D4BA01BC
S11344C0A90141505109610971097695679557957C
S11344D04795411580E15807A0F0EC89FD891082C9
S11344E060E874E88EE190E0A7019601DDD4BA019A
S11344F0A90141505109610971097695679557954C
S11345004795E889F9895083EA89FB89408319A290
S1134510EE89FF89408181E090E09C010C8C02C00F
S1134520220F331F0A94E2F7242B2083EE89FF899C
S113453040819C010D8C02C0220F331F0A94E2F7C4
S1134540242B2083EE89FF8940819C010E8C02C0BC
S1134550220F331F0A94E2F7242B2083EE89FF896C
S113456020810F8C02C0880F991F0A94E2F780956E
S113457082238083DF91CF91FF90EF90DF90CF90E3
S113458008955F926F927F928F929F92AF92BF92A3
S1134590CF92DF92EF92FF920F931F93CF93DF930B
S11345A0552453945F920F2EF5E06F2EF02D6F92E9
S11345B00F2EF7E07F2EF02D7F92D3E0DF93C4E03F
S11345C0CF930F2EF6EC8F2E912CF02D0F2EF2ECB4
S11345D0AF2EB12CF02D0F2EF1ECCF2ED12CF02DCF
S11345E00F2EF0ECEF2EF12CF02D04EC10E025EC66
S11345F030E04AEB5BE16EEF7BE180E09AE1FADECA
S11346005F926F927F92DF93CF930F2EFEEC8F2EEB
S1134610912CF02D0F2EFAECAF2EB12CF02D0F2E85
S1134620F9ECCF2ED12CF02D0F2EF8ECEF2EF12C2F
S1134630F02D0CEC10E02DEC30E042E35BE166E79A
S11346407BE18EED99E1D6DE5F926F927F92DF93EC
S1134650CF930F2EF6ED8F2E912CF02D0F2EF2ED21
S1134660AF2EB12CF02D0F2EF1EDCF2ED12CF02D3D
S11346700F2EF0EDEF2EF12CF02D04ED10E025EDD2
S113468030E04AEA5AE16EEE7AE18CEB99E1B2DE6F
S11346905F926F927F92DF93CF930F2EF6E38F2E6C
S11346A099249394F02D0F2EF2E3AF2EBB24B394F0
S11346B0F02D0F2EF1E3CF2EDD24D394F02D0F2E09
S11346C0F0E3EF2EFF24F394F02D04E311E025E34F
S11346D031E042E25AE166E67AE18AE999E18ADE6A
S11346E08DB79EB744960FB6F8949EBF0FBE8DBF8C
S11346F0DF91CF911F910F91FF90EF90DF90CF90BA
S1134700BF90AF909F908F907F906F905F9008952F
S1134710CF92DF92EF92FF920F931F93CF93DF9389
S11347206C0141155105B1F0062F172FEA01E12C58
S1134730F12CD8016D918D01D601ED91FC91019080
S1134740F081E02DC6011995E80EF91E21972097F6
S113475081F702C0E12CF12CC701DF91CF911F91A9
S11347600F91FF90EF90DF90CF900895EF92FF921A
S11347700F931F93CF93DF937C01EB012196FB01F1
S11347806491662389F000E010E0F701A081B18113
S1134790ED91FC91C7011995080F191FFE01649151
S11347A02196662319F0F1CF00E010E0C801DF91F3
S11347B0CF911F910F91FF90EF90089561157105AE
S11347C081F0FB0101900020E9F73197AF01461B0E
S11347D0570BDC01ED91FC910280F381E02D1995DA
S11347E0089580E090E00895DC01ED91FC91019042
S11347F0F081E02D199508950F931F93CF93DF93C4
S1134800EC016DE0F1DF8C016AE0CE01EDDF800F99
S1134810911FDF91CF911F910F9108950F931F93D3
S1134820CF93DF93EC01A2DF8C01CE01E5DF800F93
S1134830911FDF91CF911F910F9108950F931F93B3
S1134840CF93DF93EC01BADF8C01CE01D5DF800F6B
S1134850911FDF91CF911F910F9108950F931F9393
S1134860CF93DF93EC01C0DF8C01CE01C5DF800F55
S1134870911FDF91CF911F910F9108956F927F92B5
S11348808F929F92AF92BF92CF92DF92EF92FF925C
S11348900F931F93CF93DF93CDB7DEB7A1970FB6D6
S11348A0F894DEBF0FBECDBF6C01742E352F862F5A
S11348B0972F622E19A221E0261520F00F2EFAE080
S11348C06F2EF02D7E01A1E2EA0EF11C862C912CB4
S11348D0A12CB12C672D732FA5019401E5D2E22FF1
S11348E0732F022F132F242F352FF72D6E9EF019BF
S11348F01124B1E0EB1AF108FA3010F4F05D01C0B4
S1134900F95CD701FC93012B022B032B29F07E2E9B
S1134910372F842F952FDECFE114F10491F0F701A6
S113492001900020E9F73197AF014E195F09D601D4
S1134930ED91FC910280F381E02DB701C601199538
S113494002C080E090E0A1960FB6F894DEBF0FBEDF
S1134950CDBFDF91CF911F910F91FF90EF90DF902A
S1134960CF90BF90AF909F908F907F906F9008955D
S11349702115310549F4DC01ED91FC910190F081A0
S1134980E02D642F1995089579CF08959A01AB010C
S113499060E070E0EDCF08950F931F93CF93DF9302
S11349A0EC019A01462F50E060E070E0E1DF8C01F9
S11349B0CE0122DF800F911FDF91CF911F910F91C4
S11349C008951F920F920FB60F9211242F933F93C5
S11349D08F939F93AF93BF938091431C9091441CFA
S11349E0A091451CB091461C3091421C23E0230F3A
S11349F02D3720F40196A11DB11D05C026E8230F13
S1134A000296A11DB11D2093421C8093431C9093D8
S1134A10441CA093451CB093461C8091471C909164
S1134A20481CA091491CB0914A1C0196A11DB11DBE
S1134A308093471C9093481CA093491CB0934A1C34
S1134A40BF91AF919F918F913F912F910F900FBE86
S1134A500F901F9018952FB7F8946091431C709194
S1134A60441C8091451C9091461C2FBF08953FB76C
S1134A70F8948091471C9091481CA091491CB091D6
S1134A804A1C26B5A89B05C02F3F19F00196A11D0D
S1134A90B11D3FBFBA2FA92F982F8827820F911DD0
S1134AA0A11DB11DBC01CD01660F771F881F991F81
S1134AB0660F771F881F991F0895CF92DF92EF9298
S1134AC0FF92CF93DF936B017C01D1DFEB01C11423
S1134AD0D104E104F10491F0CADF6C1B7D0B683E44
S1134AE0734038F081E0C81AD108E108F108C851D0
S1134AF0DC4FC114D104E104F10471F7DF91CF91CB
S1134B00FF90EF90DF90CF9008950197009739F0D0
S1134B10880F991F880F991F02970197F1F708953D
S1134B20789484B5826084BD84B5816084BD85B584
S1134B30826085BD85B5816085BDEEE6F0E080814B
S1134B4081608083E1E8F0E010828081826080836C
S1134B50808181608083E0E8F0E0808181608083EF
S1134B60E1EBF0E0808184608083E0EBF0E0808121
S1134B7081608083E1E9F0E08081826080838081CC
S1134B8081608083E0E9F0E0808181608083E1EAF4
S1134B90F0E0808182608083808181608083E0EAAC
S1134BA0F0E0808181608083E1E2F1E080818260D5
S1134BB08083808181608083E0E2F1E08081816094
S1134BC08083EAE7F0E08081846080838081826072
S1134BD0808380818160808380818068808310925B
S1134BE0C100089590E0FC013197E131F10508F02E
S1134BF058C0E856FF4F7AC1E0E8F0E080818F7733
S1134C0080830895E0E8F0E080818F7D80830895BB
S1134C1084B58F7784BD089584B58F7D84BD089550
S1134C20E0EBF0E080818F7780830895E0EBF0E0A3
S1134C3080818F7D80830895E0E9F0E080818F7723
S1134C4080830895E0E9F0E080818F7D808308957A
S1134C50E0E9F0E08081877F80830895E0EAF0E076
S1134C6080818F7780830895E0EAF0E080818F7DF2
S1134C7080830895E0EAF0E08081877F808308954F
S1134C80E0E2F1E080818F7780830895E0E2F1E053
S1134C9080818F7D80830895E0E2F1E08081877FC9
S1134CA080830895CF93DF9390E0FC01E052FE4FA0
S1134CB02491FC01EA5DFD4F8491882371F190E019
S1134CC0880F991FFC01E056FD4FA591B4918A57B6
S1134CD09D4FFC01C591D49161110BC08FB7F8941D
S1134CE09C91209592239C93E8812E2328838FBF47
S1134CF014C0623061F48FB7F8943C91922F909570
S1134D0093239C93E8812E2B28838FBF06C08FB7F3
S1134D10F894EC912E2B2C938FBFDF91CF910895B3
S1134D201F93CF93DF93C62F282F30E0F901E65667
S1134D30FE4F8491F901E052FE4F1491F901EA5DAE
S1134D40FD4FD491DD23C1F081114CDF2D2F30E0D4
S1134D50F901EE0FFF1FEA57FD4FA591B4918FB7EC
S1134D60F894C11105C0EC9110951E231C9303C047
S1134D70EC911E2B1C938FBFDF91CF911F9108954F
S1134D80FC018081918174C10895CF93DF93EC017C
S1134D9088819981009709F06BD1198218821D824C
S1134DA01C821B821A82DF91CF9108950F931F9367
S1134DB0CF93DF93EC018B016F5F7F4F88819981E3
S1134DC0E6D1009731F0998388831B830A8381E0BD
S1134DD001C080E0DF91CF911F910F910895CF938F
S1134DE0DF93EC0188819981892B29F08A819B8149
S1134DF08617970768F4CE01D9DF882361F08C8188
S1134E009D81892B39F4E881F981108281E003C006
S1134E1081E001C081E0DF91CF910895EF92FF928C
S1134E200F931F93CF93DF93EC017B018A01BA01A7
S1134E30D6DF811103C0CE01A8DF06C01D830C8319
S1134E40B7018881998190D2CE01DF91CF911F91D2
S1134E500F91FF90EF900895FC011182108213824C
S1134E601282158214826115710549F0FB010190CB
S1134E700020E9F73197AF01461B570BCFCF0895B8
S1134E80AA1BBB1B51E107C0AA1FBB1FA617B7076C
S1134E9010F0A61BB70B881F991F5A95A9F7809588
S1134EA09095BC01CD010895A1E21A2EAA1BBB1B4B
S1134EB0FD010DC0AA1FBB1FEE1FFF1FA217B307E2
S1134EC0E407F50720F0A21BB30BE40BF50B661FF8
S1134ED0771F881F991F1A9469F7609570958095BC
S1134EE090959B01AC01BD01CF010895EE0FFF1F0A
S1134EF00590F491E02D19940790F691E02D199402
S1134F00EF920F931F93CF93DF93E80147FF02C003
S1134F1034E101C034E0E42FFF27E7FDF095F7FF0B
S1134F2003C0F195E195F109E32E022F2E2FAE0176
S1134F3022D2CE01DF91CF911F910F91EF9008956E
S1134F40CF93DF938230910510F482E090E0E091FA
S1134F504D1CF0914E1C20E030E0A0E0B0E0309712
S1134F6039F14081518148175907B8F0481759075A
S1134F7071F482819381109729F013969C938E93F8
S1134F8012972CC090934E1C80934D1C27C0211562
S1134F90310531F04217530718F0A901DB0101C0B4
S1134FA0EF019A01BD01DF010280F381E02DD7CF2B
S1134FB021153105F9F0281B390B2430310580F413
S1134FC08A819B816115710521F0FB0193838283A2
S1134FD004C090934E1C80934D1CFE01329644C035
S1134FE0FE01E20FF31F819391932250310939831B
S1134FF028833AC020914B1C30914C1C232B41F444
S1135000209102023091030230934C1C20934B1CDC
S113501020910002309101022115310541F42DB790
S11350203EB74091040250910502241B350BE091D8
S11350304B1CF0914C1CE217F307A0F42E1B3F0B02
S11350402817390778F0AC014E5F5F4F24173507F6
S113505048F04E0F5F1F50934C1C40934B1C8193A0
S1135060919302C0E0E0F0E0CF01DF91CF91089589
S1135070CF93DF93009709F487C0FC013297138222
S11350801282C0914D1CD0914E1C209781F4208136
S11350903181280F391F80914B1C90914C1C821731
S11350A0930779F5F0934C1CE0934B1C6DC0DE0123
S11350B020E030E0AE17BF0750F412964D915C919A
S11350C013979D014115510509F1DA01F3CFB3831B
S11350D0A28340815181840F951F8A179B0771F425
S11350E08D919C911197840F951F029691838083D3
S11350F012968D919C911397938382832115310588
S113510029F4F0934E1CE0934D1C3EC0D901139634
S1135110FC93EE9312974D915D91A40FB51FEA177E
S1135120FB0779F480819181840F951F0296D90140
S113513011969C938E938281938113969C938E9364
S11351401297E0E0F0E08A819B81009719F0FE015C
S1135150EC01F9CFCE01029628813981820F931F89
S113516020914B1C30914C1C2817390769F4309757
S113517029F410924E1C10924D1C02C0138212820C
S1135180D0934C1CC0934B1CDF91CF9108956F9228
S11351907F928F929F92AF92BF92CF92DF92EF92C3
S11351A0FF920F931F93CF93DF93EC01CB012097D2
S11351B079F4DF91CF911F910F91FF90EF90DF90E1
S11351C0CF90BF90AF909F908F907F906F90B8CE0C
S11351D0FE01E60FF71F9E0122503109E217F30783
S11351E008F4A8C0D9010D911C911197061717074F
S11351F0B0F00530110508F49BC0A80144505109D2
S11352004617570708F494C002501109061B170BE0
S1135210019311936D937C93CF012ADF89C05B01C5
S1135220A01AB10A4E01800E911EA0914D1CB0919E
S11352304E1C612C712C60E070E0109709F449C099
S1135240A815B905C9F5ED90FC901197670142E0E6
S1135250C40ED11CCA14DB0478F147018A189B08D8
S1135260640142E0C40ED11C1296BC9012971396AE
S1135270AC91B5E0CB16D10440F0B282A383918205
S11352808082D9018D939C9309C00E5F1F4F0E0D30
S11352901F1DF90111830083EB2DFA2F6115710590
S11352A031F0DB011396FC93EE93129741C0F09317
S11352B04E1CE0934D1C3CC06D917C911197661679
S11352C0770608F43B01BD0112960D90BC91A02D08
S11352D0B4CF60914B1C70914C1C68157905E9F4AE
S11352E068167906D0F440910002509101024115EC
S11352F0510541F44DB75EB7609104027091050207
S1135300461B570BE417F507A8F4F0934C1CE093E5
S11353104B1CF901918380830BC012DE7C01009742
S113532049F0A801BE0117D0CE01A2DEC70104C016
S1135330CE0102C080E090E0DF91CF911F910F91E8
S1135340FF90EF90DF90CF90BF90AF909F908F90A1
S11353507F906F900895FB01DC0102C001900D92D3
S113536041505040D8F70895FB01DC0101900D92A3
S11353700020E1F708956F927F929F92AF92BF92BF
S1135380CF92DF92EF92FF920F931F93CF93DF930D
S1135390CDB7DEB729970FB6F894DEBF0FBECDBFE9
S11353A06A01B22E102F0C3320F4FF24F394F00E74
S11353B002C04CE3F42E0F2D27E0AE014F5F5F4F88
S11353C057D17981272F2970213031F0E1FC06C0B3
S11353D0E0FC06C060E005C06DE203C06BE201C002
S11353E060E2AE2DA07173FF36C0662311F084E035
S11353F001C083E08B1510F4B81A01C0B12CA111BF
S11354000BC0F6018B2D90E2882319F09193815003
S1135410FBCFCB0CD11CB12C662331F0F601608399
S113542096012F5F3F4F6901C6010396E2FE05C056
S11354302EE4F601208331E404C02EE6F601208335
S113544031E631832283FC012B2D30E22223F1F15A
S113545031932150FBCF72FF40C0662311F084E0EA
S113546001C083E08B1510F4B81A01C0B12CA1114E
S11354700BC0F6018B2D90E2882319F09193815093
S1135480FBCFCB0CD11CB12C662331F0F601608329
S113549096012F5F3F4F6901C6010396E2FE07C0E4
S11354A029E4F60120832EE4218326E406C029E6BC
S11354B0F60120832EE6218326E62283FC012B2D90
S11354C030E2222319F031932150FBCFFC01EB0D84
S11354D0F11D10828EEF9FEFB7C0B1E0611101C0E2
S11354E0B0E04B2F50E01816190624F49C012F5FEE
S11354F03F4F02C021E030E0240F351F112329F073
S1135500412F50E04F5F5F4F02C040E050E0420F38
S1135510531F2B2D30E04217530714F4B41A01C063
S1135520B12C2E2D287159F4F6012B2D30E22223B3
S113553019F031932150FBCFCB0CD11CB12CBB23E0
S113554031F0F601608396012F5F3F4F6901A1118D
S11355500BC0F6012B2D30E3222319F03193215097
S1135560FBCFCB0CD11CB12CF80E0A81372F307134
S1135570A32E74FF03C0013309F4FA941F142CF40E
S11355802F2D293018F028E001C021E0682F392F91
S113559097FF02C060E030E0462F532F612C712C3E
S11355A03EE2932EBC01621B71099B01DC01A41B2A
S11355B0B50BE1E0F0E0EC0FFD1FAE0FBF1FE12ED5
S11355C0F12CF194E194F1084F3FFFEF5F0731F4C0
S11355D0F6019082B6016F5F7F4F6B0184179507C8
S11355E04CF02417350734F4BD01660D771DFB011B
S11355F0118101C010E341505109FFEF6F1A7F0A76
S1135600B6016F5F7F4F4E155F0524F0F6011083DE
S11356106B01DACF4817590739F4063320F4053300
S113562019F4A11001C011E3F6011083FB018B2DC5
S113563090E2882319F091938150FBCFFB01EB0D8D
S1135640F11D108280E090E029960FB6F894DEBF39
S11356500FBECDBFDF91CF911F910F91FF90EF90BF
S1135660DF90CF90BF90AF909F907F906F90089500
S1135670283008F027E03327DA01990F311D87FD20
S1135680916000966105710539F432602E5F3D9397
S113569030E32A95E1F708959F3F30F08038710593
S11356A0610509F03C5F3C5F3D93913008F08068F0
S11356B0911DDF93CF931F930F93FF92EF92192FB6
S11356C0987F9695E92F96959695E90FFF27EC5EBE
S11356D0FC4F99273327EE24FF24A701E701059007
S11356E00894079428F4360FE71EF81E491F511D2D
S11356F0660F771F881F991F0694A1F705900794DA
S113570028F4E70EF81E491F561FC11D770F881F86
S1135710991F661F0694A1F70590079428F4F80EC4
S1135720491F561FC71FD11D880F991F661F771F5A
S11357300694A1F70590079420F4490F561FC71F3C
S1135740D81F990F661F771F881F0694A9F78491A5
S11357501095177041F0D695C79557954795F794CE
S1135760E7941A95C1F7EAEBF2E068941590159165
S113577035916591959105907FE27395E118F10A51
S1135780430B560BC90BD009C0F7E10CF11E431FA4
S1135790561FC91FD01D7EF4703311F48A95E6CFCD
S11357A0E894015030F0080F0AF40027021708F4B7
S11357B0202F2395022F7A3328F079E37D932A95BD
S11357C0E9F710C07D932A9589F606949795679515
S11357D0379517951794E118F10A430B560BC90B2B
S11357E0D00998F023957E9173957A3308F070E38D
S11357F07C932013B8F77E9170617D9330F083958C
S113580071E37D9370E32A95E1F71124EF90FF9003
S11358100F911F91CF91DF91992787FD909508955E
S1075820F894FFCF26
S113582400004F1C20000000404100009EC2000004
S113583480C009000800FFFF313A205461736B20D3
S11358444C6F6F700050696E67313A2000636D00CD
S113585450696E67323A200050696E67333A20000B
S113586450696E67343A200050696E67353A2000F7
S11358742A2A205461736B2031204572726F723A64
S113588420636F756C64206E6F742074616B652083
S113589473656D6170686F7265202A2A00323A203C
S11358A45461736B204C6F6F7000494D55205461E3
S11358B4736B002A2A205461736B20322045727260
S11358C46F723A20636F756C64206E6F7420746118
S11358D46B652073656D6170686F7265202A2A0098
S11358E4556C747261536F6E69637300494D55004E
S11358F449444C4500000000004D1B211BF61AFED0
S11359041A111B201B00000000B81F8823631F8C7E
S10959141F731FAD1F000C
S9030000FC
