S01400004672656552544F53323536302E7372656379
S1130000DCC100000BC2000009C2000007C20000EE
S113001005C2000003C2000001C20000FFC10000CD
S1130020FDC10000FBC10000F9C10000F7C10000E0
S1130030F5C100000C94DE0FF1C10000EFC1000017
S1130040EDC10000EBC10000E9C10000E7C1000000
S11300500C947D11E3C10000E1C100000C941B2449
S1130060DDC100000C94FB1E0C94FB1FD7C10000E3
S1130070D5C10000D3C10000D1C10000CFC1000030
S1130080CDC10000CBC10000C9C10000C7C1000040
S11300900C943B1F0C943A20C1C100000C94C51869
S11300A0BDC10000BBC10000B9C10000B7C1000060
S11300B0B5C10000B3C10000B1C10000AFC1000070
S11300C0ADC10000ABC10000A9C100000C947B1FAE
S11300D00C947920A3C100000C94BB1F0C94B8208D
S11300E09DC10000084AD73B3BCE016E84BCBFFDD6
S11300F0C12F3D6C74319ABD56833DDA3D00C77FF4
S113010011BED9E4BB4C3E916BAAAABE000000808C
S11301103F05A84CCDB2D44EB93836A9020C50B91B
S1130120918688083CA6AAAA2ABE000000803F0047
S11301304225462536253C258B254A25502556251E
S11301405C25622568256E2574258B257A258025F6
S113015086254572726F722072656164696E6720CC
S113016073656E736F7200693263526561642074E3
S1130170696D656F757400693263526561642066E8
S113018061696C65643A2000693263577269746509
S1130190206661696C65643A20000000090A02085F
S11301A00B0C0D0706030401000000000000000012
S11301B0000000000000000000000000000000003B
S11301C000000000000011100F00000000000000FB
S11301D0000000000000000000000000000000001B
S11301E00102102020080810204010204080020145
S11301F0020108040201010204081020408080402A
S11302002010080402018004020180402010080428
S113021002010804020101020408102040800102C6
S1130220040810204080050505050705080808088E
S1130230020202020A0A080804040404010101017A
S11302400101010103030303030303030407070775
S11302500C0C0C0C0C0C0C0C02020202060606061A
S1130260060606060B0B0B0B0B0B0B0B00002000FA
S11302702300260029002C002F003200000100007A
S113028003010601090100002200250028002B00BB
S11302902E003100340002010000050108010B01A9
S11302A000002100240027002A002D003000330024
S11302B001010000040107010A0100407A10F35A09
S11302C000A0724E18090010A5D4E80000E8764892
S11302D0170000E40B54020000CA9A3B000000E13E
S11302E0F505000080969800000040420F000000D1
S11302F0A08601000000102700000000E8030000B1
S113030000006400000000000A000000000001007A
S1130310000000002C76D888DC674F0823DFC1DF9B
S1130320AE59E1B1B796E5E3E453C63AE65199769E
S113033096E8E6C28426EB898C9B62ED407C6FFCD8
S1130340EFBC9C9F40F2BAA56FA5F490055A2AF71A
S11303505C936B6CF9676DC11BFCE0E40D47FEF523
S113036020E6B500D0ED902E03009435770500808B
S1130370841E080000204E0A000000C80C333333EA
S1130380330F986E12831141EF8D2114893BE6558A
S113039016CFFEE6DB18D1844B381BF77C1D901D6D
S11303A0A4BBE424203284725E228100C9F124ECCF
S11303B0A1E53D27B405B91ABE2111241FBECFEF14
S11303C0D1E2DEBFCDBF00E00CBF13E0A0E0B2E09D
S11303D0E8E5F6E500E00BBF02C007900D92A631F8
S11303E0B107D9F72CE1A6E1B3E001C01D92A53312
S11303F0B207E1F713E0CAEBD3E000E006C02297AE
S11304000109FE010BBF0E948B26C43BD10780E08B
S11304100807A9F70E94E60D0C942A2BF1CDC9E335
S1130420D0E020E049E150E060E070E080913204E7
S1130430909133040E94DD12813069F586E494E0E2
S11304400E94B00F8C0164E172E086EE99E10E9493
S11304501823C801BE010E944F264AE050E086EEF0
S113046099E10E9400246DE172E086EE99E10E9418
S1130470682320E040E050E060E070E080913204C6
S1130480909133040E9428120E94BB1080ED97E0E3
S11304900E940F16C6CF60E272E086EE99E10E94D8
S11304A06823FFCF2F923F924F925F926F927F9279
S11304B08F929F92AF92BF92CF92DF92EF92FF9270
S11304C00F931F93CF93DF93CDB7DEB76C970FB61F
S11304D0F894DEBF0FBECDBF1C014D8B5E8B6F8BBE
S11304E0788FC901B801D10150962D913D914D915C
S11304F05C915397298B3A8B4B8B5C8B0E94BC1A73
S11305009B01AC01F101648B758B868B978BC701C2
S1130510B6010E949A1DD1011C962D913D914D91D9
S11305205C911F970E94BD1A6D877E878F87988B79
S1130530D10194962D913D914D915C91979729838A
S11305403A834B835C83C701B6010E949A1D4B0119
S11305505C01D1015C962D913D914D915C915F9729
S11305602D833E834F83588790962D913D914D91D5
S11305705C91939729873A874B875C872D813E81CD
S11305804F8158850E94BC1A29853A854B855C8524
S11305900E94BC1AF10120813181428153810E9461
S11305A0BD1A9B01AC01C701B6010E949A1DD1017D
S11305B058962D913D914D915C915B970E94BD1A87
S11305C02B013C01A50194016D817E818F81988569
S11305D00E94BC1A6D837E838F839887A501940142
S11305E069857A858B859C850E94BC1A69877A8780
S11305F08B879C87F1012481358146815781C7010E
S1130600B6010E949A1D9B01AC0169817A818B819C
S11306109C810E94BD1A698F7A8F8B8F9C8FD10128
S113062018962D913D914D915C911B97C301B20198
S11306300E94BD1A6B017C01F10164AB75AB86AB02
S113064097AB9B01AC01C301B2010E948A1B4B0111
S11306505C01D10198966D937D938D939C939B97A8
S1130660A701960169857A858B859C850E948A1BE2
S11306706B017C01F10164A775A786A797A72D8557
S11306803E854F8558896D897E898F89988D0E9412
S1130690BC1A69837A838B839C83D101D0966D9332
S11306A07D938D939C93D3979B01AC01C501B401B9
S11306B00E949A1D9B01AC016D857E858F8598896A
S11306C00E94BD1A6D877E878F87988BF10164879E
S11306D075878687978729813A814B815C81C70119
S11306E0B6010E949A1D9B01AC0169897A898B89A4
S11306F09C890E94BD1AD10150966D937D938D9370
S11307009C935397A3019201C501B4010E949A1DC1
S11307109B01AC01C301B2010E94BC1A2B013C0134
S1130720F101608F718F828F938F2D813E814F8174
S11307305885C501B4010E949A1D9B01AC016D81CD
S11307407E818F8198850E94BC1A4B015C01D10186
S11307505C966D937D938D939C935F97A301920117
S1130760C701B6010E949A1D9B01AC0169857A8577
S11307708B859C850E94BC1AF10160A371A382A39E
S113078093A3A5019401C701B6010E949A1D9B0180
S1130790AC01698D7A8D8B8D9C8D0E94BC1AD10120
S11307A094966D937D938D939C9397976D857E8599
S11307B08F8598896C960FB6F894DEBF0FBECDBFB7
S11307C0DF91CF911F910F91FF90EF90DF90CF9029
S11307D0BF90AF909F908F907F906F905F904F905D
S11307E03F902F9008958F929F92AF92BF92CF9295
S11307F0DF92EF92FF92C0907E03D0907F03E0904F
S11308008003F09081038090820390908303A090F2
S11308108403B0908503A7019601C501B4010E9429
S1130820301B21EE3EE245E652E40E949A1D60939D
S11308306003709361038093620390936303A50143
S11308409401C501B4010E949A1D4B015C01A701EA
S11308509601C701B6010E949A1D9B01AC01C50116
S1130860B4010E94BD1A0E94071E9B01AC01809135
S1130870860390918703A0918803B0918903BC01FA
S1130880CD0190580E948A1B0E945B1B21EE3EE220
S113089045E652E40E949A1D60935C0370935D03E5
S11308A080935E0390935F03FF90EF90DF90CF906F
S11308B0BF90AF909F908F9008954F925F926F92E8
S11308C07F928F929F92AF92BF92CF92DF92EF92DC
S11308D0FF92CF93DF93CDB7DEB764970FB6F8944A
S11308E0DEBF0FBECDBF20911A0330911B03409190
S11308F01C0350911D0360916A0370916B038091F6
S11309006C0390916D030E949A1D2B013C01809110
S1130910660390916703A0916803B0916903BC01D9
S1130920CD01905820911E0330911F034091200364
S1130930509121030E949A1D6B017C0180916E03EA
S113094090916F03A0917003B0917103BC01CD012C
S11309509058209116033091170340911803509139
S113096019030E949A1D20910602309107024091BA
S11309700802509109020E94BC1A4B015C01609369
S11309806E0370936F0380937003909371032091AF
S11309900A0230910B0240910C0250910D02C301E6
S11309A0B2010E94BC1A69837A838B839C8360930F
S11309B06A0370936B0380936C0390936D0320918F
S11309C00E0230910F024091100250911102C701A2
S11309D0B6010E94BC1A6B017C016093660370939C
S11309E06703809368039093690325E33AEF4EE825
S11309F05CE360913C0370913D0380913E039091D0
S1130A003F030E949A1D2B013C0125E33AEF4EE877
S1130A105CE3609138037091390380913A039091BB
S1130A203B030E949A1D6D877E878F87988BC30135
S1130A30B2010E94FD1D6D837E838F839887C3015D
S1130A40B2010E94871B69877A878B879C876D8593
S1130A507E858F8598890E94871B9B01AC016D85DB
S1130A607E858F859889298B3A8B4B8B5C8B0E9472
S1130A70FD1D2B013C0129893A894B895C89C501FB
S1130A80B4010E949A1D4B015C01A301920169818A
S1130A907A818B819C810E949A1D2D813E814F8198
S1130AA058850E949A1D9B01AC01C501B4010E94A6
S1130AB0BD1A4B015C01A3019201C701B6010E945A
S1130AC09A1D29853A854B855C850E949A1D9B0158
S1130AD0AC01C501B4010E94BD1A4B015C012D811A
S1130AE03E814F815885C701B6010E949A1D6B0152
S1130AF07C0129853A854B855C8569817A818B8166
S1130B009C810E949A1D9B01AC01C701B6010E9401
S1130B10BC1A9058A50194010E94301B21EE3EE2BC
S1130B2045E652E40E949A1DDC01CB01B058809343
S1130B30580390935903A0935A03B0935B036496AC
S1130B400FB6F894DEBF0FBECDBFDF91CF91FF90FB
S1130B50EF90DF90CF90BF90AF909F908F907F9059
S1130B606F905F904F9008950F931F9328EC30E09F
S1130B704BE06CE086E494E00E94EA0E28EC30E05E
S1130B8047E06AE084E394E00E94EA0E0FE612E193
S1130B9023E83AE30093FA031093FB032093FC0346
S1130BA03093FD0346EA5BE964E47BE34093FE0390
S1130BB05093FF0360930004709301048FE892EC58
S1130BC0A5EFBCE38093020490930304A093040470
S1130BD0B0930504109206041092070410920804BE
S1130BE01092090410920A0410920B0410920C043F
S1130BF010920D0410921204109213041092140413
S1130C0010921504109216041092170410921804EE
S1130C101092190410921A0410921B0410921C04CE
S1130C2010921D0410921E0410921F0410922004AE
S1130C30109221040093C2031093C3032093C403AE
S1130C403093C5034093C6035093C7036093C8030E
S1130C507093C9038093CA039093CB03A093CC03EE
S1130C60B093CD031092CE031092CF031092D00311
S1130C701092D1031092D2031092D3031092D40392
S1130C801092D5031092DA031092DB031092DC0366
S1130C901092DD031092DE031092DF031092E00342
S1130CA01092E1031092E2031092E3031092E40322
S1130CB01092E5031092E6031092E7031092E80302
S1130CC01092E90300938A0310938B0320938C03FF
S1130CD030938D0340938E0350938F03609390035E
S1130CE0709391038093920390939303A09394033E
S1130CF0B093950310929603109297031092980361
S1130D001092990310929A0310929B0310929C03E1
S1130D1010929D031092A2031092A3031092A403B5
S1130D201092A5031092A6031092A7031092A80391
S1130D301092A9031092AA031092AB031092AC0371
S1130D401092AD031092AE031092AF031092B00351
S1130D501092B1031F910F910895EF92FF920F9398
S1130D601F93CF93DF931F92CDB7DEB7162F7A016F
S1130D70682F8EE299E129830E949D1A612F8EE2E9
S1130D8099E10E944A1A2981422F50E0B7018EE26C
S1130D9099E10E941E1A602F8EE299E10E94A71A1F
S1130DA0182F882369F068E871E086EE99E10E94C3
S1130DB0B3224AE050E0612F86EE99E10E940624B6
S1130DC0812F0F90DF91CF911F910F91FF90EF90A2
S1130DD008950F93CF93DF931F92CDB7DEB7498366
S1130DE0022F21E0AE014F5F5F4FB7DF0F90DF911D
S1130DF0CF910F910895CF92DF92EF92FF920F93CC
S1130E001F93CF93DF93D82FC62FF42EE52E122FE6
S1130E10682F8EE299E10E949D1A6C2F8EE299E16F
S1130E200E944A1A60E08EE299E10E94A71AC82F34
S1130E30882379F067E771E086EE99E10E94B32296
S1130E404AE050E06C2F86EE99E10E9406248C2F34
S1130E5040C021E0412F6D2F8EE299E10E94911A4A
S1130E600F2DCF2DDE2D8C2F801B811718F58EE2D0
S1130E7099E10E94F319892BB1F40E9471246B014A
S1130E807C010E9471246C197D098E099F09683EBA
S1130E9073408105910580F48EE299E10E94F31973
S1130EA0892B51F4EECF8EE299E10E94FB198883DD
S1130EB02196D9CF80E00DC08EE299E10E94F3190A
S1130EC0892B89F767E671E086EE99E10E94482351
S1130ED085E0DF91CF911F910F91FF90EF90DF900C
S1130EE0CF9008952EE042E253E06BE388E683DF7F
S1130EF08111F8CF6091220370E0762F66278091EC
S1130F002303682B882777FD8095982F0E94251C42
S1130F106093860370938703809388039093890377
S1130F208091240390E0982F882720912503822B19
S1130F3066277727681B790B882777FD8095982F7C
S1130F400E94251C6093820370938303809384031F
S1130F50909385036091260370E0762F6627809135
S1130F602703682B882777FD8095982F0E94251CDE
S1130F7060937E0370937F03809380039093810337
S1130F808091280390E0982F882720912903822BB1
S1130F90909365038093640360912A0370E0762F35
S1130FA0662771956195710980912B03682B8827B9
S1130FB077FD8095982F0E94251C60937A03709387
S1130FC07B0380937C0390937D0360912C0370E0FA
S1130FD0762F662780912D03682B882777FD8095CF
S1130FE0982F0E94251C6093760370937703809357
S1130FF078039093790360912E0370E0762F66272F
S113100071956195710980912F03682B882777FD6D
S11310108095982F0E94251C60937203709373032C
S11310208093740390937503089526E042E253E09D
S113103063E08EE1E0DE8111F8CF6091220370E07D
S1131040762F662780912303682B882777FD809568
S1131050982F0E94251C60936E0370936F038093F6
S11310607003909371036091240370E0762F6627D8
S113107080912503682B882777FD8095982F0E94FF
S1131080251C6093660370936703809368039093B1
S113109069036091260370E0762F66278091270309
S11310A0682B882777FD8095982F0E94251C6093D4
S11310B06A0370936B0380936C0390936D0308959C
S11310C04F925F926F927F928F929F92AF92BF9254
S11310D0CF92DF92EF92FF92CF93DF93CDB7DEB73B
S11310E02C970FB6F894DEBF0FBECDBF21E041E1CF
S11310F060E08EE16EDE64E670E080E090E00E94E5
S1131100972493DF60916E0370916F038091700355
S1131110909171030E94F21B2B013C0160916A03C0
S113112070916B0380916C0390916D030E94F21B8C
S11311306B017C0160916603709167038091680381
S1131140909169030E94F21B69837A838B839C8349
S113115021E042E160E08EE13CDE64E670E080E0A4
S113116090E00E94972461DF60916E0370916F0399
S113117080917003909171030E94F21B6D837E83B2
S11311808F83988760916A0370916B0380916C03DD
S113119090916D030E94F21B4B015C016091660308
S11311A07091670380916803909169030E94F21B18
S11311B069877A878B879C8721E040E160E08EE134
S11311C008DE6D817E8164197509882777FD809515
S11311D0982F0E94251C9B01AC0160E070E48CE117
S11311E095EC0E948A1B60931603709317038093F7
S11311F01803909319038C189D08B401882777FD70
S11312008095982F0E94251C9B01AC0160E070E43E
S11312108CE195EC0E948A1B60931A0370931B0364
S113122080931C0390931D0369857A8589819A8133
S1131230681B790B882777FD8095982F0E94251CC1
S11312409B01AC0160E070E48CE195EC0E948A1B88
S113125060931E0370931F038093200390932103D4
S11312602C960FB6F894DEBF0FBECDBFDF91CF91A1
S1131270FF90EF90DF90CF90BF90AF909F908F90B2
S11312807F906F905F904F900895CF93DF93CDB789
S1131290DEB7CA54D1090FB6F894DEBF0FBECDBF76
S11312A020E049E150E060E070E0809132049091E8
S11312B033040E94DD12813009F0C8C363E872E090
S11312C086EE99E10E9468230DDEAFDE0E94712450
S11312D0C0903003D0903103E0903203F090330398
S11312E06C197D098E099F090E94231C20E034E2B9
S11312F044E759E40E948A1B4B015C010E9471245B
S113130060933003709331038093320390933303DB
S11313106ADA20E030E043E053E460917A037091AC
S11313207B0380917C0390917D030E948A1B279606
S11313306CAF7DAF8EAF9FAF279720E030E043E0E6
S113134053E46091760370917703809178039091D0
S113135079030E948A1B23966CAF7DAF8EAF9FAF3B
S113136023974090600350906103609062037090F3
S1131370630320E030E044EB52ECC301B2010E946D
S1131380831B87FF10C020E030E044EB52E46091FF
S11313903C0370913D0380913E0390913F030E9472
S11313A08F1D1816D4F020E030E044EB52E4C30162
S11313B0B2010E948F1D18168CF520E030E044EB3A
S11313C052EC60913C0370913D0380913E039091F7
S11313D03F030E94831B87FF21C040920604509262
S11313E007046092080470920904409248035092E2
S11313F0490360924A0370924B0340923C0350921B
S11314003D0360923E0370923F0340925403509216
S11314105503609256037092570315C07501640119
S113142027960CAD1DAD2EAD3FAD2797B301A2019C
S11314308AEF93E037D860933C0370933D03809325
S11314403E0390933F03C0903C03D0903D03E09053
S11314503E03F0903F0320E030E0A901C701B6014C
S11314600E948F1D18165CF420E030E044EB52E437
S1131470C701B6010E948F1D18165CF017C020E04A
S113148030E044EB52ECC701B6010E94831B87FF96
S11314900DC023968CAD9DADAEADBFAD2397B058B6
S11314A023968CAF9DAFAEAFBFAF239740915C0343
S11314B050915D0360915E0370915F037501640157
S11314C023960CAD1DAD2EAD3FAD239782EC93E07A
S11314D00E945202609338037093390380933A0355
S11314E090933B03EAD920E030E043E053E4609179
S11314F072037091730380917403909175030E9439
S11315008A1B2B966CAF7DAF8EAF9FAF2B9740900D
S113151058035090590360905A0370905B0320E085
S113152030E044EB52ECC301B2010E94831B87FFFD
S113153010C020E030E044EB52E460913403709139
S1131540350380913603909137030E948F1D18163E
S1131550D4F020E030E044EB52E4C301B2010E9435
S11315608F1D18168CF520E030E044EB52EC6091AE
S113157034037091350380913603909137030E94B0
S1131580831B87FF21C04092960350929703609279
S113159098037092990340924003509241036092E1
S11315A04203709243034092340350923503609295
S11315B036037092370340924C0350924D0360926D
S11315C04E0370924F0316C0750164012B960CAD47
S11315D01DAD2EAD3FAD2B97B301A2018AE893E078
S11315E00E94520260933403709335038093360350
S11315F090933703A501940127966CAD7DAD8EAD14
S11316009FAD27970E949A1D6B017C012091540382
S11316103091550340915603509157030E94BD1ACF
S113162027966CAF7DAF8EAF9FAF2797609354031F
S1131630709355038093560390935703A501940127
S113164023966CAD7DAD8EAD9FAD23970E949A1D00
S113165023966CAF7DAF8EAF9FAF2397209150033D
S11316603091510340915203509153030E94BD1A8B
S11316702B013C01609350037093510380935203F8
S113168090935303A50194012B966CAD7DAD8EAD63
S11316909FAD2B970E949A1D2B966CAF7DAF8EAF9A
S11316A09FAF2B9720914C0330914D0340914E03F3
S11316B050914F030E94BD1A4B015C0160934C038F
S11316C070934D0380934E0390934F0320914803EE
S11316D03091490340914A0350914B03C701B6012D
S11316E00E94BD1A2BE734E14EE65FE30E949A1D87
S11316F06B017C0129E23CE54FE85DE36091600306
S11317007091610380916203909163030E949A1D1A
S11317109B01AC01C701B6010E94BD1A6093480346
S11317207093490380934A0390934B03209144039D
S113173030914503409146035091470323966CAD85
S11317407DAD8EAD9FAD23970E94BD1A2BE734E18A
S11317504EE65FE30E949A1D6B017C0129E23CE5A1
S11317604FE85DE360915C0370915D0380915E03DB
S113177090915F030E949A1D9B01AC01C701B601C1
S11317800E94BD1A609344037093450380934603FB
S113179090934703209140033091410340914203C9
S11317A0509143032B966CAD7DAD8EAD9FAD2B97C1
S11317B00E94BD1A2BE734E14EE65FE30E949A1DB6
S11317C06B017C0129E23CE54FE85DE3609158033D
S11317D07091590380915A0390915B030E949A1D62
S11317E09B01AC01C701B6010E94BD1A609340037E
S11317F070934103809342039093430320E030E0CD
S113180044E353EC27966CAD7DAD8EAD9FAD279729
S11318100E94831B87FD0EC020E030E044E353E4C4
S113182027966CAD7DAD8EAD9FAD27970E948F1D21
S1131830181684F480913C0390913D03A0913E03DB
S1131840B0913F038093540390935503A0935603A0
S1131850B093570320E030E044E353ECC301B201FA
S11318600E94831B87FD0AC020E030E044E353E478
S1131870C301B2010E948F1D181684F480913803AD
S113188090913903A0913A03B0913B0380935003A4
S113189090935103A0935203B093530320E030E09C
S11318A044E353ECC501B4010E94831B87FD0AC0C5
S11318B020E030E044E353E4C501B4010E948F1DED
S11318C0181684F48091340390913503A091360363
S11318D0B091370380934C0390934D03A0934E0330
S11318E0B0934F036CE172E0CE01C9960E942826A2
S11318F020E030E040E858E3609182037091830374
S113190080918403909185030E949A1D2DEC3CECF8
S11319104CE151E40E949A1D2B013C0120E030E08F
S113192040E858E360917E0370917F0380918003C7
S1131930909181030E949A1D2DEC3CEC4CE151E402
S11319400E949A1D4B015C0120E030E044EB53E41B
S1131950609158037091590380915A0390915B03ED
S11319600E94BD1A20E030E044EB53E40E94671C5F
S11319706B017C0120E030E040E858E3609186038D
S11319807091870380918803909189030E949A1D26
S11319902DEC3CEC4CE151E40E949A1D8E01075D54
S11319A01F4F22E043E00E948F260A50110922E0D3
S11319B043E0C301B2010E948F260A50110922E0BC
S11319C043E0C501B4010E948F260A50110922E0A8
S11319D043E0C701B6010E948F260E9465240E943D
S11319E0231C0A50110922E043E00E948F26BE0105
S11319F0675D7F4F8CE892E00E94C3286CEA72E036
S1131A000E94C328BC01CE01C3960E942826BE01B1
S1131A106D5C7F4F86EE99E10E945823CE01C396F8
S1131A200E94BC2520E040E050E060E070E080913E
S1131A303204909133040CD59ED384E690E00E9446
S1131A400F16CE01C9960E94BC252ACC63EB72E026
S1131A5086EE99E10E946823FFCF0F938EE299E10D
S1131A600E94881A40E052EC61E070E086EE99E151
S1131A700E943B218CE08093B80087E0809322038E
S1131A8010922303109224031092250300E024E013
S1131A9042E253E069E188E660D98111F7CF21E0A1
S1131AA041E06BE688E695D98111F9CF21E042E265
S1131AB053E065E788E69FD98111F8CF809122032E
S1131AC0883639F062E571E086EE99E10E94B3222E
S1131AD0FFCF21E042E067E388E67BD98111F9CFAB
S1131AE021E040E062E08EE174D98111F9CFE8DAB7
S1131AF064E670E080E090E00E949724F3D995DAE0
S1131B000E94F3030E945D0480916003909161033D
S1131B10A0916203B0916303809306049093070439
S1131B20A0930804B093090480935403909355033D
S1131B30A0935603B09357038093480390934903AB
S1131B40A0934A03B0934B0380915C0390915D038F
S1131B50A0915E03B0915F038093CE039093CF0373
S1131B60A093D003B093D103809350039093510377
S1131B70A0935203B093530380934403909345037B
S1131B80A0934603B093470380915803909159035F
S1131B90A0915A03B0915B038093960390939703AB
S1131BA0A0939803B093990380934C0390934D03AF
S1131BB0A0934E03B0934F0380934003909341034B
S1131BC0A0934203B09343030F910895AF92BF9241
S1131BD0CF92DF92EF92FF920F93CF93DF9300D0D7
S1131BE01F92CDB7DEB70E94CA2437DF81E0BDD48F
S1131BF09093330480933204A12CB12CC12CD12CAA
S1131C00CE0103967C0101E020E030E040E058E0A2
S1131C1060EE72E08FE092E0C9D5CE0101967C01BE
S1131C2002E020E030E040E058E06CEE72E085E451
S1131C3099E0BCD5A7D680E090E00F900F900F906C
S1131C400F90DF91CF910F91FF90EF90DF90CF90A5
S1131C50BF90AF900895CF93DF93EC01C3D68091EA
S1131C60580490915904892B31F48DE594E09093B4
S1131C7059048093580420915A0430915B04CE0196
S1131C80820F931F8F3F43E1940770F4281739079D
S1131C9058F4C0915804D0915904C20FD31F9093A3
S1131CA05B0480935A0402C0C0E0D0E04DD7CE015B
S1131CB0DF91CF9108950895FC0103969283818367
S1131CC02FEF3FEF34832383968385839087878325
S1131CD010820895FC01118610860895CF93DF9336
S1131CE09C01FB01DC011196CD91DC911297D38309
S1131CF0C2838C819D81958384838C819D81DC0149
S1131D0013967C936E9312977D836C83318720871F
S1131D10F90180818F5F8083DF91CF9108950F93C4
S1131D201F93CF93DF938C01FB01208131812F3FDF
S1131D308FEF380721F4E801AF81B8850EC0D801D0
S1131D40139612968D919C911397EC0148815981B9
S1131D502417350710F0DC01F4CF12968D919C9175
S1131D60139793838283EC01FD83EC83B583A4836F
S1131D701396FC93EE93129711870087F8018081E4
S1131D808F5F8083DF91CF911F910F910895CF933F
S1131D90DF93FC01A085B185828193812481358103
S1131DA0EC013D832C83C481D5819B838A83119666
S1131DB08D919C9112978E179F0721F41296DC93B4
S1131DC0CE931197118610868C9181508C93DF915C
S1131DD0CF910895CF93DF93DC0170E0FB01E052D3
S1131DE0FE4FE4911496EC931497842F90E0FC0139
S1131DF0E052FE4FE4911596EC9315976A5D7D4F82
S1131E00FB01C491D0E0CC0FDD1FCA57DD4FFE01AA
S1131E104591549117965C934E931697FC01EA5D95
S1131E20FD4F849190E0880F991F84599D4FFC01C8
S1131E30459154911B965C934E931A97FB016491C0
S1131E40E62FF0E0EE0FFF1FE056FD4F85919491D1
S1131E5019969C938E931897C901253FF1E03F078B
S1131E6014F084EF91E049E3489F9001499F300DBD
S1131E701124245E3F4F1D963C932E931C97DF91B3
S1131E80CF9108950F931F93CF93DF93EC01E885CF
S1131E90F98580819C81892B8083EE81FF819081EB
S1131EA08C8180958923808384E090E00E94BF2404
S1131EB0EE81FF8180819C81892B80838AE090E080
S1131EC00E94BF24EE81FF8190818C8180958923BB
S1131ED08083E885F98590818C818095892380832E
S1131EE00E947124605B794B8F4F9F4F6E877F8771
S1131EF0888B998BEA85FB8580819D81892359F0A4
S1131F000E9471240E851F852889398906171707B1
S1131F102807390778F7EA85FB8580819D81892325
S1131F2069F40E9471240E851F8528893989061752
S1131F3017072807390778F780E00DC00E9471243D
S1131F402C853D85620F731F811D911D6E877F87D0
S1131F50888B998B81E0DF91CF911F910F91089528
S1131F600F931F93CF93DF93EC018CDF882389F0C9
S1131F70EA85FB8580819D81892371F00E9471240B
S1131F800E851F85288939890617170728073907F9
S1131F9078F720E030E00CC00E9471242C853D8548
S1131FA0255031094E855F85241B350B260F371FBD
S1131FB0C901DF91CF911F910F9108951F920F9244
S1131FC00FB60F9211240BB60F922F933F934F939A
S1131FD05F936F937F938F939F93AF93BF93EF938D
S1131FE0FF93E0915C18F0915D18309709F0199512
S1131FF0FF91EF91BF91AF919F918F917F916F91DD
S11320005F914F913F912F910F900BBE0F900FBE98
S11320100F901F90189531E1FC013083319722E233
S113202020833197A3E3A083319760833197708332
S11320303197108231971082319760E8608331972D
S113204010823197108231971082319762E0608359
S1132050319763E06083319764E06083319765E092
S11320606083319766E06083319767E060833197DE
S113207068E06083319769E06083319760E1608351
S113208031973083319732E13083319733E13083B4
S1132090319734E13083319735E13083319736E13C
S11320A03083319737E13083319738E1308331978A
S11320B039E13083319730E23083319731E2308334
S11320C031972083319723E22083319740833197DE
S11320D05083319726E22083319727E2208331977A
S11320E028E22083319729E22083319720E320835B
S11320F0319721E32083899708951092800081E12C
S11321008093810080E49FE1909387008093860010
S113211081E080936F00A091BE18B091BF18CD915B
S1132120CDBFDD91DEBFFF91EF91DF91CF91BF91E4
S1132130AF919F918F917F916F915F914F913F915B
S11321402F911F910F91FF90EF90DF90CF90BF9050
S1132150AF909F908F907F906F905F904F903F9043
S11321602F901F900F900CBE0F900BBE0F900FBEC0
S11321700F90089508950F920FB6F8940F920CB62D
S11321800F920BB60F921F9211242F923F924F92EF
S11321905F926F927F928F929F92AF92BF92CF92F3
S11321A0DF92EF92FF920F931F932F933F934F93DE
S11321B05F936F937F938F939F93AF93BF93CF93CB
S11321C0DF93EF93FF93A091BE18B091BF180DB6A3
S11321D00D920EB60D9271D5A091BE18B091BF1894
S11321E0CD91CDBFDD91DEBFFF91EF91DF91CF9116
S11321F0BF91AF919F918F917F916F915F914F911B
S11322003F912F911F910F91FF90EF90DF90CF900E
S1132210BF90AF909F908F907F906F905F904F9002
S11322203F902F901F900F900CBE0F900BBE0F90FD
S11322300FBE0F9008950F920FB6F8940F920CB63C
S11322400F920BB60F921F9211242F923F924F922E
S11322505F926F927F928F929F92AF92BF92CF9232
S1132260DF92EF92FF920F931F932F933F934F931D
S11322705F936F937F938F939F93AF93BF93CF930A
S1132280DF93EF93FF93A091BE18B091BF180DB6E2
S11322900D920EB60D92ACD381110FD5A091BE183C
S11322A0B091BF18CD91CDBFDD91DEBFFF91EF910D
S11322B0DF91CF91BF91AF919F918F917F916F915A
S11322C05F914F913F912F911F910F91FF90EF904C
S11322D0DF90CF90BF90AF909F908F907F906F9042
S11322E05F904F903F902F901F900F900CBE0F90D7
S11322F00BBE0F900FBE0F9008959DDF18951F938E
S1132300CF93DF93EC01142F4C8D41110BC08881C6
S11323109981892B09F040C08A819B810DD61B824B
S11323201A823BC050E0111115C08C819D810E941E
S1132330BA282C8D8C819D81820F911D9D838C8365
S11323402A813B818217930738F1888199819D8383
S11323508C8322C08E819F810E94BA282C8D30E00C
S11323603195219531098E819F81820F931F9F831F
S11323708E83688179818617970730F48A819B81DF
S1132380820F931F9F838E83123031F48A8D8823AA
S113239019F08A8D81508A8F80E09A8D9F5F9A8F81
S11323A0DF91CF911F910895FC01CB01448D44230B
S11323B0A1F050E026813781240F351F378326830F
S11323C0628173812617370720F02081318137839A
S11323D02683668177810C94BA2808950F931F93FE
S11323E0CF93DF93EC010FB6F8940F928C010F5E3C
S11323F01F4F8E8D18165CF48989882341F0C8011B
S1132400C6D4811140D58E8D81508E8FF2CF8FEF3F
S11324108E8F0F900FBE0FB6F8940F928E01085F47
S11324201F4F8D8D18165CF48885882341F0C801F0
S1132430AED4811128D58D8D81508D8FF2CF8FEF41
S11324408D8F0F900FBEDF91CF911F910F91089543
S1132450BF92CF92DF92EF92FF920F931F93CF938D
S1132460DF9300D01F921F92CDB7DEB78C016B01B2
S11324705D834C83B22E20E07C0188E0E80EF11CE1
S11324800FB6F8940F92F801928D838D981718F077
S1132490F2E0BF1215C04B2DB601C80130DFF801C0
S11324A09189992339F0C801419671D4813021F47E
S11324B062DE02C08111FCCF0F900FBE81E046C0E6
S11324C08C819D81892B19F40F900FBE3EC0211180
S11324D003C0CE0101969BD40F900FBE83D20FB6DA
S11324E0F8940F92F801858D8F3F09F4158EF80149
S11324F0868D8F3F09F4168E0F900FBEBE016C5F60
S11325007F4FCE0101968ED481111CC00FB6F89472
S11325100F92F801928D0F900FBEF801838D9813DE
S11325200DC06C817D81C70108D4C80157DF0CD36D
S1132530882311F021E0A4CF1EDEFCCFC8014EDFBA
S113254003D3F8CFC8014ADFFFD280E00F900F9089
S11325500F900F900F90DF91CF911F910F91FF90EB
S1132560EF90DF90CF90BF900895CF93DF938FE1EA
S113257090E071DBEC010097E1F01B821A82198272
S113258018821D821C821F821E821A8E81E08B8F0C
S11325901C8E8FEF8D8F8E8FCE0108968DDBCE0132
S11325A041968ADB20E040E050E060E070E0CE013C
S11325B04FDFCE01DF91CF910895BF92CF92DF928A
S11325C0EF92FF920F931F93CF93DF9300D01F924C
S11325D01F92CDB7DEB78C016B015D834C83B22EA5
S11325E030E07C0181E1E80EF11C0FB6F8940F9203
S11325F0F801828D882361F1E680F780B601C80175
S1132600D3DEF801B11016C0828D8150828F808193
S11326109181892B21F4C9D4F80193838283F80131
S11326208085882389F0C8010896B1D3813061F48C
S1132630A2DD0AC0F782E6828189882329F0C801D5
S11326404196A5D38111F4CF0F900FBE81E052C003
S11326508C819D81892B19F40F900FBE4AC03111D2
S113266003C0CE010196D3D30F900FBEBBD10FB6DA
S1132670F8940F92F801858D8F3F09F4158EF801B7
S1132680868D8F3F09F4168E0F900FBEBE016C5FCE
S11326907F4FCE010196C6D3811128C00FB6F8949E
S11326A00F92F801828D0F900FBE81111BC0F801AB
S11326B080819181892B49F40FB6F8940F92F80127
S11326C082819381E4D30F900FBE6C817D81C70119
S11326D034D3C80183DE38D2882311F031E085CFAA
S11326E04ADDFCCFC8017ADE2FD2F8CFC80176DEEE
S11326F02BD280E00F900F900F900F900F90DF91EE
S1132700CF911F910F91FF90EF90DF90CF90BF90EA
S11327100895E0918618F09187188081811103C093
S11327208FEF9FEF0CC0E0918618F0918718058019
S1132730F681E02D0680F781E02D828193819093CC
S11327401302809312020895CF93DF93EC01E0917A
S1132750BE18F091BF18938382838091651890917D
S113276066186091BE187091BF18C817D90748F44D
S113277080918418909185186E5F7F4FDF91CF917F
S1132780CECA80918618909187186E5F7F4FC7DA02
S11327908091120290911302C817D90720F4D093A4
S11327A01302C0931202DF91CF9108955F926F924A
S11327B07F928F929F92AF92BF92CF92DF92EF92CD
S11327C0FF920F931F93CF93DF934C01162F572E35
S11327D05A01390183E290E03EDAEC01009709F4F2
S11327E0C0C0C114D10419F4C50135DA01C0C60151
S11327F0988F8F8B009719F4CE015DDAB2C021E077
S1132800A21AB108A80EB91EE12FF52D80E090E0C0
S1132810BF0141919E01280F391FD90159964C934C
S1132820DB012C91222321F001968830910581F758
S113283018A2102F043008F013E01E8B19A31AA25B
S11328406E01B2E0CB0ED11CC60144DACE010C9667
S113285041DAD987C88784E090E0811B91099D877C
S11328608C87DB8BCA8BA301B401C501D4DB9983AC
S11328708883E114F10419F0F701D183C0830FB602
S1132880F8940F92809167188F5F809367188091F6
S1132890BE189091BF18892B89F5D093BF18C093A7
S11328A0BE1880916718813009F037C08AE998E131
S11328B003DA83EA98E100DA8CEA98E1FDD985EB42
S11328C098E1FAD981E998E1F7D988E898E1F4D94F
S11328D08BE798E1F1D982E798E1EED988E698E1AF
S11328E0EBD981E998E1909387188093861888E85A
S11328F098E190938518809384180FC08091631891
S113290081110BC0E091BE18F091BF188689081799
S113291020F0D093BF18C093BE1880915F188F5FCA
S113292080935F188E8990916418981710F480939F
S11329306418F9E08F9FC0011124B6018656974EA2
S1132940CDD90F900FBE80916318882341F0E09198
S1132950BE18F091BF188689801708F40CDC81E05A
S113296001C08FEFDF91CF911F910F91FF90EF90F6
S1132970DF90CF90BF90AF909F908F907F906F909B
S11329805F900895AF92BF92CF92DF92EF92FF9241
S11329900F93A12CB12CC12CD12CE12CF12C00E0F3
S11329A020E030E045E550E060EF72E08FE296E130
S11329B0FDDE813079F4F8948093631810926618E0
S11329C0109265180F91FF90EF90DF90CF90BF9019
S11329D0AF9093CB0F91FF90EF90DF90CF90BF908B
S11329E0AF90089580915E188F5F80935E1808956C
S11329F0CF92DF92EF92FF920F931F93CF93DF93C7
S1132A0080915E1881118AC0809165189091661832
S1132A10019690936618809365180091651810913B
S1132A20661801151105B1F48091861890918718E4
S1132A302091841830918518309387182093861834
S1132A409093851880938418809160188F5F809389
S1132A5060185FDE8091120290911302D12C081746
S1132A60190708F44AC089E0C82EE0918618F0914D
S1132A7087188081811107C08FEF9FEF9093130215
S1132A80809312023AC0E0918618F091871805806D
S1132A90F681E02DC681D7812A813B810217130775
S1132AA028F4309313022093120227C07E0182E09F
S1132AB0E80EF11CC7016BD92C893D89232B19F031
S1132AC0CE010C9664D92E8980916418821710F473
S1132AD020936418C29EC0011124B7018656974EF4
S1132AE0FDD8E091BE18F091BF189E898689981789
S1132AF008F4BBCFDD24D394B8CFE091BE18F09195
S1132B00BF18E68989E0E89FF0011124E656F74EE4
S1132B108081823048F0DD24D39406C0809162180D
S1132B208F5F80936218D12C80916118882311F0F3
S1132B30DD24D3948D2DDF91CF911F910F91FF90C0
S1132B40EF90DF90CF900895EF92FF920F931F9331
S1132B50CF93DF930FB6F8940F9280915E18815053
S1132B6080935E1880915E18882311F080E04EC037
S1132B70809167188823D1F399E0F92EEE24E39429
S1132B8080917B18882339F1E0918018F0918118A5
S1132B90C681D781CE010C96FAD88E010E5F1F4FE5
S1132BA0C801F5D88E8990916418981710F4809311
S1132BB06418F89EC0011124B8018656974E8ED829
S1132BC0E091BE18F091BF189E8986899817C0F2CB
S1132BD0E0926118D5CF80916218811108C080916C
S1132BE06118813009F0C2CFC6DA81E00FC0C1E0BC
S1132BF080916218882399F3FBDE8111C0936118D8
S1132C0080916218815080936218F2CF0F900FBEAA
S1132C10DF91CF911F910F91FF90EF9008950F9343
S1132C201F93CF93DF938C01009711F4A4DA12C0A1
S1132C30D9DEC0916518D0916618C00FD11F80915C
S1132C40BE189091BF180296A2D8CE017DDD7CDF1C
S1132C50882361F3DF91CF911F910F9108958091A3
S1132C607118882321F1BEDEC09172186DDFCC2368
S1132C70B1F30FB6F8940F92E0917718F0917818A9
S1132C80C681D781CE01029682D88091671881507F
S1132C9080936718809171188150809371180F90F8
S1132CA00FBE8F89988D07D8CE0105D8D8CF8091D3
S1132CB09A188230A0F25FDAD2CF80915E1888230E
S1132CC021F081E08093611808951092611899E0D1
S1132CD0E09164189E9FF0011124E656F74E80811E
S1132CE0811106C080916418815080936418F0CFDC
S1132CF0E091641889E0E89FF0011124E656F74E4C
S1132D00A181B28112960D90BC91A02DB283A183B2
S1132D10CF010396A817B90731F412968D919C91AF
S1132D201397928381830180F281E02D86819781BC
S1132D309093BF188093BE180895CF93DF93EB014F
S1132D406091BE187091BF18645F7F4F0E948F0E10
S1132D508091BE189091BF18029619D8CF3F8FEF7B
S1132D60D80761F46091BE187091BF186E5F7F4FF1
S1132D7088E698E1DF91CF910C946E0E80916518EE
S1132D80909166188C0F9D1FDF91CF91DDCC0F932E
S1132D901F93CF93DF93DC011596ED91FC91169769
S1132DA0C681D7818E01045F1F4FC8010E94C70EE0
S1132DB080915E18811114C00A501109C8010E9443
S1132DC0C70E8E8990916418981710F48093641834
S1132DD0B9E08B9FC0011124B8018656974E03C0F9
S1132DE0B8018BE798E10E946E0EE091BE18F09155
S1132DF0BF189E898689891720F481E08093611821
S1132E0001C080E0DF91CF911F910F91089520912F
S1132E106018FC0120832091651830916618328374
S1132E2021830895CF93DF930FB6F8940F92E09126
S1132E306518F0916618DB014D915C914F3FBFEF2F
S1132E405B07C9F0B0916018EC01A88129813A812F
S1132E50BA1719F0E217F30780F4DF01A21BB30BD2
S1132E60A417B50750F42E1B3F0B240F351FFB018D
S1132E7031832083CCDF80E001C081E00F900FBE5E
S1132E80DF91CF91089581E08093611808950F93A5
S1132E901F93CF93DF93EC01009709F448C08E8908
S1132EA0E091BE18F091BF189689891708F03FC0C9
S1132EB02C853D8537FD0BC0E091BE18F091BF18FD
S1132EC0968924E030E0291B31093D872C8729E0CD
S1132ED0829FC00111248656974E2A853B85281768
S1132EE03907F9F48E010E5F1F4FC8010E94C70E07
S1132EF0E091BE18F091BF1886898E8B909164186A
S1132F00981710F48093641829E0829FC00111245B
S1132F10B8018656974EDF91CF911F910F910C9473
S1132F206E0EE091BE18F091BF1886898E8BDF91EA
S1132F30CF911F910F9108950F931F93CF93DF9318
S1132F40EC01009711F480E02BC08AA181508AA380
S1132F502E8999A12917B9F38111F5CF8E010E5F3E
S1132F601F4FC8010E94C70E89A18E8B482F50E0C5
S1132F7024E030E0241B350B3D872C8790916418A6
S1132F80981710F48093641829E0249FC001259FAA
S1132F90900D1124B8018656974E0E946E0E81E062
S1132FA0DF91CF911F910F9108958091BE18909158
S1132FB0BF18892B39F0E091BE18F091BF1882A197
S1132FC08F5F82A38091BE189091BF1808951092CC
S1132FD02D1981E080932B1910922A1961E084E164
S1132FE00E948C2561E085E10E948C25E9EBF0E0EC
S1132FF080818E7F808380818D7F808388E480932D
S1133000B80085E48093BC000895413208F03FC0C5
S113301090912D199111FCCF91E090932D1920934B
S11330202B192FEF2093C01810920519240F209309
S1133030041990932C1990912C19880F892B809343
S11330402C1980912A19813041F410922A19809107
S11330502C198093BB0085EC01C085EE8093BC00E5
S113306080912D198130E1F380910519841710F4B2
S11330704091051926E039E1FB01D9018A2F821B11
S1133080841718F48D918193F9CF842F089580E0EB
S113309008950F93413208F046C090912D19911173
S11330A0FCCF92E090932D1900932B199FEF9093EE
S11330B0C0181092051940930419FB0166E079E1E8
S11330C0DB019A2F961B941718F491919D93F9CFD5
S11330D010922C1990912C19880F892B80932C19FC
S11330E080912A19813041F410922A1980912C1967
S11330F08093BB0085EC01C085EE8093BC00222345
S113310021F080912D198230E1F38091C0188F3F16
S113311061F08091C018803251F08091C0188033E2
S113312041F483E007C081E005C080E003C082E091
S113313001C084E00F910895613298F420912D1913
S1133140243089F46093E218FC0184EE98E1DC01F8
S11331502A2F281B261718F421912D93F9CF80E0EC
S1133160089581E0089582E0089585ED8093BC0080
S11331708091BC0084FDFCCF10922D19089585EC3C
S11331808093BC0010922D1908951F920F920FB6D0
S11331900F9211240BB60F922F933F934F935F938B
S11331A06F937F938F939F93AF93BF93EF93FF930B
S11331B08091B900887F803609F49CC068F5883214
S11331C009F45BC090F4803109F454C038F48823C6
S11331D009F4F3C0883009F44DC0F2C0883109F411
S11331E04CC0803209F45DC0EBC0803409F468C07F
S11331F048F4803309F455C0883309F0E1C0809362
S1133200C018A7C0803509F44FC0883509F45DC0E3
S1133210883409F0D5C0D3C0883909F4C4C0A8F4EF
S1133220883709F467C038F4883609F463C08037F6
S113323009F460C0C5C0883809F4B5C0803909F400
S11332405FC0803809F0BCC05BC0803B09F483C018
S113325038F4803A09F466C0883A09F47CC0B0C0F6
S1133260803C09F4A4C0883C09F4A1C0883B09F45B
S113327087C0A6C080912C1910C090910519809127
S11332800419981770F5E091051981E08E0F809369
S11332900519F0E0EA5FF64E80818093BB0085EC6F
S11332A083C08093C0188BC0E091051981E08E0F14
S11332B0809305198091BB00F0E0EA5FF64E8083AD
S11332C090910519809104196BC0E091051981E072
S11332D08E0F809305198091BB00F0E0EA5FF64EF3
S11332E0808380912B1981116AC081E080932A190F
S11332F084EA5EC083E080932D191092C118CFCF69
S11333008091C118803208F04EC0E091C11881E06C
S11333108E0F8093C1188091BB00F0E0EE53F74EFE
S11333208083BDCF8091C118803230F4E091C11800
S1133330F0E0EE53F74E108218DF6091C11870E090
S1133340E0912619F091271982EC98E119951092D1
S1133350C11815DF35C084E080932D191092E3184D
S11333601092E218E0912819F09129191995809189
S1133370E218811105C081E08093E2181092E418EC
S1133380E091E31881E08E0F8093E318F0E0EC51B4
S1133390F74E80818093BB009091E3188091E218EE
S11333A0981708F47CCF85E88093BC0009C085ECAD
S11333B08093BC0010922D1903C01092C018D5DE62
S11333C0FF91EF91BF91AF919F918F917F916F91F9
S11333D05F914F913F912F910F900BBE0F900FBEB5
S11333E00F901F90189580915E1990E020915F19BD
S11333F0821B9109089520915F1980915E19281705
S113340050F4E22FF0E0E05AF64E808190E02F5F16
S113341020935F1908958FEF9FEF0895E0915F194E
S113342080915E19E81730F4F0E0E05AF64E80819E
S113343090E008958FEF9FEF08950895CF92DF9263
S1133440EF92FF920F931F93CF93DF937C01CB01F5
S11334508A0120913A19222389F0EB016B01C40EF1
S1133460D51ECC15DD0561F06991D701ED91FC9174
S11334700190F081E02DC7011995F3CF642F5CDE34
S1133480C801DF91CF911F910F91FF90EF90DF90D2
S1133490CF900895CF93DF931F92CDB7DEB76983A2
S11334A020913A192223D1F020913B19203240F087
S11334B021E030E0FC013383228380E090E014C0FB
S11334C080913C19E82FF0E0E35CF64E99819083FB
S11334D08F5F80933C1980933B1904C061E0CE0157
S11334E001962ADE81E090E00F90DF91CF9108955C
S11334F0FC011382128248EE53E060E070E04483E2
S113350055836683778389EF92E09183808308955E
S113351010925F1910925E1910923C1910923B1987
S113352056CD862F413208F040E260E679E16DDD48
S113353010925F1980935E19089581E080933A197F
S113354060935D1910923C1910923B1908950F93E2
S1133550062F21E040913B196DE379E180915D19DB
S113356098DD10923C1910923B1910923A190F9160
S113357008958EE299E1BCCF5058BB27AA270ED0FC
S113358083C24CD230F051D220F031F49F3F11F479
S11335901EF41CC20EF4E095E7FB04C2E92F96D298
S11335A080F3BA17620773078407950718F071F45C
S11335B09EF5AEC20EF4E0950B2EBA2FA02D0B0192
S11335C0B90190010C01CA01A0011124FF27591B64
S11335D099F0593F50F4503E68F11A16F040A22F6A
S11335E0232F342F4427585FF3CF469537952795DB
S11335F0A795F0405395C9F77EF41F16BA0B620BDA
S1133600730B840BBAF09150A1F0FF0FBB1F661F20
S1133610771F881FC2F70EC0BA0F621F731F841F63
S113362048F4879577956795B795F7959E3F08F089
S1133630B3CF9395880F08F09927EE0F9795879548
S11336400895ECD158F080E891E009F49EEFEDD1B3
S113365028F040E851E059F45EEF09C0B7C158C200
S1133660E92FE07833D268F3092E052AC1F326172F
S113367037074807590738F00E2E07F8E02569F098
S1133680E025E0640AC0EF6307F8009407FADB0161
S1133690B9019D01DC01CA01AD01EF934AD0F4D117
S11336A00AD05F91552331F02BED3FE049E450FD02
S11336B049EC63CF0895DF93DD27B92FBF7740E846
S11336C05FE31616170648075B0710F4D92F2BD2B1
S11336D09F938F937F936F93D8D2E4EEF0E079D1E8
S11336E0D3D12F913F914F915F9130D2DD2349F097
S11336F09058A2EA2AED3FE049EC5FE3D0785D27D9
S11337004DDFDF91C1C12AD108F481E0089595D13C
S1133710E395CBC10CD0B8C188D140F07FD130F053
S113372021F45F3F19F03EC15111F3C14FC1CED115
S113373098F39923C9F35523B1F3951B550BBB2774
S1133740AA2762177307840738F09F5F5F4F220F21
S1133750331F441FAA1FA9F333D00E2E3AF0E0E81A
S113376030D091505040E695001CCAF729D0FE2F66
S113377027D0660F771F881FBB1F261737074807F8
S1133780AB07B0E809F0BB0B802DBF01FF279358AE
S11337905F4F2AF09E3F510568F004C1BAC15F3FF4
S11337A0ECF3983EDCF3869577956795B795F79596
S11337B09F5FC9F7880F911D9695879597F908958E
S11337C0E1E0660F771F881FBB1F6217730784072A
S11337D0BA0720F0621B730B840BBA0BEE1F88F739
S11337E0E095089504D06894B11193C1089576D1F9
S11337F088F09F5790F0B92F9927B751A0F0D1F0D6
S1133800660F771F881F991F1AF0BA95C9F712C05F
S1133810B13081F07DD1B1E008957AC1672F782F5E
S11338208827B85F39F0B93FCCF3869577956795CB
S1133830B395D9F73EF490958095709561957F4F37
S11338408F4F9F4F0895E89409C097FB3EF49095DD
S11338508095709561957F4F8F4F9F4F9923A9F065
S1133860F92F96E9BB279395F695879577956795F4
S1133870B795F111F8CFFAF4BB0F11F460FF1BC038
S11338806F5F7F4F8F4F9F4F16C0882311F096E9CB
S113389011C0772321F09EE8872F762F05C0662379
S11338A071F096E8862F70E060E02AF09A95660F32
S11338B0771F881FDAF7880F9695879597F90895EB
S11338C0ADD018F011F0B1D038F480C022C1E92F86
S11338D0FDD0B0F35523C9F3E7FB621773078407E0
S11338E09507A8F199F3E92FFF2788232AF0319748
S11338F0660F771F881FDAF7952F5527442332F078
S113390091505040220F331F441FD2F7BB27E91BAD
S1133910F50B621B730B840BB109C1F222F4620F25
S1133920731F841FB11D31972AF0660F771F881FFC
S1133930BB1FEFCF915050405AF041F0882332F032
S1133940660F771F881F91505040C1F7939530C080
S11339508695779567959F5FD9F7F8CF990F0008FB
S1133960550FAA0BE0E8FEEF16161706E807F9074D
S1133970C0F012161306E407F50798F0621B730BE8
S1133980840B950B39F40A2661F0232B242B252B69
S113399021F408950A2609F4A140A6958FEF811D0C
S11339A0811D089597F99F6780E870E060E00895AD
S11339B09F3F31F0915020F4879577956795B7959F
S11339C0880F911D9695879597F908959FEF80EC40
S11339D00895DF93CF931F930F93FF92EF92DF929B
S11339E07B018C01689405C0DA2EEF01AFD0FE0193
S11339F0E894A5912591359145915591AEF3EF0148
S1133A00CDDDFE019701A801DA9479F7DF90EF90FC
S1133A10FF900F911F91CF91DF91089500240A9494
S1133A201616170618060906089500240A94121695
S1133A301306140605060895C9CF50D0E8F3E89498
S1133A40E0E0BB279F57F0F02AED3FE049EC06C0C9
S1133A50EE0FBB0F661F771F881F28F0B23A62076C
S1133A607307840728F0B25A620B730B840BE39537
S1133A709A9572F7803830F49A95BB0F661F771FBA
S1133A80881FD2F7904896CF092E0394000C11F4A6
S1133A90882352F0BB0F40F4BF2B11F460FF04C025
S1133AA06F5F7F4F8F4F9F4F0895EF93E0FF06C0E6
S1133AB0A2EA2AED3FE049EC5FEB70DDE5DF0F9011
S1133AC0039401FC9058E1E1F1E0E9C057FD9058FE
S1133AD0440F551F59F05F3F71F04795880F97FBCE
S1133AE0991F61F09F3F79F0879508951216130688
S1133AF01406551FF2CF4695F1DF08C016161706B7
S1133B001806991FF1CF86957105610508940895EB
S1133B10E894BB2766277727CB0197F908951EDF22
S1133B2008F48FEF08959B01AC0160E070E080E839
S1133B309FE3F0CD0BD0A8CF71DF28F076DF18F02B
S1133B40952309F02FCF42CF1124E3CFBFDFA0F399
S1133B50959FD1F3950F50E0551F629FF001729F1E
S1133B60BB27F00DB11D639FAA27F00DB11DAA1F3D
S1133B70649F6627B00DA11D661F829F2227B00D8A
S1133B80A11D621F739FB00DA11D621F839FA00D15
S1133B90611D221F749F3327A00D611D231F849F65
S1133BA0600D211D822F762F6A2F11249F575040BC
S1133BB08AF0E1F088234AF0EE0FFF1FBB1F661F57
S1133BC0771F881F91505040A9F79E3F510570F010
S1133BD0E9CE9FCF5F3FECF3983EDCF38695779573
S1133BE06795B795F795E7959F5FC1F7FE2B880F0B
S1133BF0911D9695879597F908959F931EDF0F90D1
S1133C0007FCEE5F52CF11F40EF4E0CED1CE66DFA6
S1133C10D0F39923D9F3CEF39F57550B87FF38D0B0
S1133C200024A0E640EA900180585695979528F420
S1133C30805C660F771F881F20F026173707480718
S1133C4030F4621B730B840B202931294A2BA6956F
S1133C5017940794202531254A2758F7660F771FB4
S1133C60881F20F026173707480730F4620B730BC0
S1133C70840B200D311D411DA09581F7B901842FBE
S1133C809158880F9695879508959B01AC0152CF62
S1133C9091505040660F771F881FD2F708959F9365
S1133CA08F937F936F93FF93EF939B01AC0142DF5C
S1133CB0EF91FF918EDE2F913F914F915F913ACF1B
S1133CC0FC0124853585F901E05CFF4F80819181F9
S1133CD0329620813181821B930B8F73992708952B
S1133CE0FC0184859585FC01E05CFF4F4081518196
S1133CF03296208131814217530741F0208131816E
S1133D00FC01E20FF31F808190E008958FEF9FEF95
S1133D100895FC0184859585FC01E05CFF4F40819A
S1133D2051813296208131814217530781F02081DD
S1133D303181DC01A20FB31F8C91208131812F5F6F
S1133D403F4F2F7333273183208390E008958FEF03
S1133D509FEF0895FC0181A1882329F0A489B589E6
S1133D608C9186FFFBCF11A208951F93CF93DF930D
S1133D70EC018E859F85FC01E05CFF4F0190F08192
S1133D80E02D3196EF73FF271E2F7F2FDC01AE5BF2
S1133D90BF4F212F372F4D915C911197E417F507F1
S1133DA0C1F3FC01E05CFF4F40815181FC01E40F51
S1133DB0F51F6083EE85FF85E05CFF4F3183208330
S1133DC0EE89FF89408121E030E0C9010F8C02C0F7
S1133DD0880F991F0A94E2F7842B808381E089A3DA
S1133DE0EC89FD8980818064808381E090E0DF91AB
S1133DF0CF911F9108951F920F920FB60F92112425
S1133E000BB60F922F933F934F938F939F93AF9340
S1133E10BF93EF93FF938091C00082FD1AC040913D
S1133E20C6008091241C9091251C01968F739927BC
S1133E302091261C3091271C8217930761F0E4E23D
S1133E40FCE1A081B181AC51B44E4C939183808349
S1133E5002C08091C600FF91EF91BF91AF919F91F5
S1133E608F914F913F912F910F900BBE0F900FBEEA
S1133E700F901F9018951F920F920FB60F92112456
S1133E800BB60F922F933F934F938F939F93AF93C0
S1133E90BF93EF93FF938091C80082FD1AC04091B5
S1133EA0CE0080919C1B90919D1B01968F73992746
S1133EB020919E1B30919F1B8217930761F0ECE9C0
S1133EC0FBE1A081B181A45AB44E4C9391838083C9
S1133ED002C08091CE00FF91EF91BF91AF919F916D
S1133EE08F914F913F912F910F900BBE0F900FBE6A
S1133EF00F901F9018951F920F920FB60F921124D6
S1133F000BB60F922F933F934F938F939F93AF933F
S1133F10BF93EF93FF938091D00082FD1AC040912C
S1133F20D6008091141B9091151B01968F739927CD
S1133F302091161B3091171B8217930761F0E4E15F
S1133F40FBE1A081B181AC52B54E4C939183808347
S1133F5002C08091D600FF91EF91BF91AF919F91E4
S1133F608F914F913F912F910F900BBE0F900FBEE9
S1133F700F901F9018951F920F920FB60F92112455
S1133F800BB60F922F933F934F938F939F93AF93BF
S1133F90BF93EF93FF938091300182FD1AC040914B
S1133FA0360180918C1A90918D1A01968F739927FE
S1133FB020918E1A30918F1A8217930761F0ECE8E2
S1133FC0FAE1A081B181A45BB54E4C9391838083C7
S1133FD002C080913601FF91EF91BF91AF919F9103
S1133FE08F914F913F912F910F900BBE0F900FBE69
S1133FF00F901F9018951F920F920FB60F921124D5
S11340000BB60F922F933F938F939F93AF93BF93CE
S1134010EF93FF932091E01B3091E11B8091E21B11
S11340209091E31B2817390731F4E1ECF0E080812B
S11340308F7D808310C0E2EEFBE1A081B181A056A8
S1134040B44E2C918081918101968F73992791832D
S113405080832093C600FF91EF91BF91AF919F9110
S11340608F913F912F910F900BBE0F900FBE0F9029
S11340701F9018951F920F920FB60F9211240BB632
S11340800F922F933F938F939F93AF93BF93EF938D
S1134090FF932091581B3091591B80915A1B90918A
S11340A05B1B2817390731F4E9ECF0E080818F7D40
S11340B0808310C0EAE5FBE1A081B181A85EB44E23
S11340C02C918081918101968F73992791838083AC
S11340D02093CE00FF91EF91BF91AF919F918F916B
S11340E03F912F910F900BBE0F900FBE0F901F901A
S11340F018951F920F920FB60F9211240BB60F92C0
S11341002F933F938F939F93AF93BF93EF93FF931B
S11341102091D01A3091D11A8091D21A9091D31A49
S11341202817390731F4E1EDF0E080818F7D808339
S113413010C0E2EDFAE1A081B181A057B54E2C91F7
S11341408081918101968F73992791838083209335
S1134150D600FF91EF91BF91AF919F918F913F91C5
S11341602F910F900BBE0F900FBE0F901F901895BC
S11341701F920F920FB60F9211240BB60F922F932A
S11341803F938F939F93AF93BF93EF93FF932091AC
S1134190481A3091491A80914A1A90914B1A28175B
S11341A0390731F4E1E3F1E080818F7D808310C031
S11341B0EAE4FAE1A081B181A85FB54E2C91808137
S11341C0918101968F73992791838083209336017F
S11341D0FF91EF91BF91AF919F918F913F912F915B
S11341E00F900BBE0F900FBE0F901F9018958F92DB
S11341F09F92AF92BF92CF92DF92EF92FF920F9372
S11342001F93CF93DF93CDB7DEB7FC0113821282E5
S113421088EE93E0A0E0B0E084839583A683B7831F
S113422089E093E091838083758764875787468705
S1134230318B208B138B028BF58AE48AD78AC68A4A
S1134240B18EA08E938E828E8889848F8989858F82
S11342508A89868F8B89878F8C8980A3DF91CF9100
S11342601F910F91FF90EF90DF90CF90BF90AF9090
S11342709F908F900895CF92DF92EF92FF92CF9309
S1134280DF93EC016A017B01411581EE580761055A
S1134290710501F1EC89FD8981E090E008A002C07C
S11342A0880F991F0A94E2F7808360E079E08DE338
S11342B090E0A701960107D5BA01A901415051091F
S11342C0610971097695679557954795411580E180
S11342D05807A0F0EC89FD89108260E874E88EE14B
S11342E090E0A7019601EFD4BA01A9014150510908
S11342F0610971097695679557954795E889F98914
S11343005083EA89FB89408319A2EE89FF894081A1
S113431081E090E09C010C8C02C0220F331F0A94B0
S1134320E2F7242B2083EE89FF8940819C010D8CC8
S113433002C0220F331F0A94E2F7242B2083EE8954
S1134340FF8940819C010E8C02C0220F331F0A9406
S1134350E2F7242B2083EE89FF8920810F8C02C091
S1134360880F991F0A94E2F7809582238083DF9156
S1134370CF91FF90EF90DF90CF9008955F926F926E
S11343807F928F929F92AF92BF92CF92DF92EF92E1
S1134390FF920F931F93CF93DF93552453945F920F
S11343A00F2EF5E06F2EF02D6F920F2EF7E07F2E7B
S11343B0F02D7F92D3E0DF93C4E0CF930F2EF6EC81
S11343C08F2E912CF02D0F2EF2ECAF2EB12CF02D60
S11343D00F2EF1ECCF2ED12CF02D0F2EF0ECEF2E72
S11343E0F12CF02D04EC10E025EC30E040EA5BE128
S11343F064EE7BE186EE99E1FADE5F926F927F9242
S1134400DF93CF930F2EFEEC8F2E912CF02D0F2ED9
S1134410FAECAF2EB12CF02D0F2EF9ECCF2ED12CBF
S1134420F02D0F2EF8ECEF2EF12CF02D0CEC10E00B
S11344302DEC30E048E15BE16CE57BE184EC99E153
S1134440D6DE5F926F927F92DF93CF930F2EF6EDBD
S11344508F2E912CF02D0F2EF2EDAF2EB12CF02DCE
S11344600F2EF1EDCF2ED12CF02D0F2EF0EDEF2EDF
S1134470F12CF02D04ED10E025ED30E040E95AE197
S113448064ED7AE182EA99E1B2DE5F926F927F9203
S1134490DF93CF930F2EF6E38F2E99249394F02D70
S11344A00F2EF2E3AF2EBB24B394F02D0F2EF1E3C5
S11344B0CF2EDD24D394F02D0F2EF0E3EF2EFF2426
S11344C0F394F02D04E311E025E331E048E05AE1F0
S11344D06CE47AE180E899E18ADE8DB79EB7449670
S11344E00FB6F8949EBF0FBE8DBFDF91CF911F9181
S11344F00F91FF90EF90DF90CF90BF90AF909F907F
S11345008F907F906F905F900895CF92DF92EF929B
S1134510FF920F931F93CF93DF936C0141155105C5
S1134520B1F0062F172FEA01E12CF12CD8016D917F
S11345308D01D601ED91FC910190F081E02DC60131
S11345401995E80EF91E2197209781F702C0E12CF6
S1134550F12CC701DF91CF911F910F91FF90EF9044
S1134560DF90CF900895EF92FF920F931F93CF9314
S1134570DF937C01EB012196FB016491662389F0B2
S113458000E010E0F701A081B181ED91FC91C70139
S11345901995080F191FFE0164912196662319F0DD
S11345A0F1CF00E010E0C801DF91CF911F910F918E
S11345B0FF90EF900895AF92BF92CF92DF92EF9267
S11345C0FF920F931F93CF93DF936C018B01DB0159
S11345D014968D919C911597892BE1F0C0E0D0E061
S11345E0E12CF12CD601ED91FC91A080B180BE01AB
S11345F0C80142D3682FC601F5011995E80EF91ECA
S11346002196D80114968D919C911597C817D907B6
S113461048F302C0E12CF12CC701DF91CF911F9127
S11346200F91FF90EF90DF90CF90BF90AF900895DF
S11346306115710581F0FB0101900020E9F73197C4
S1134640AF01461B570BDC01ED91FC910280F38115
S1134650E02D1995089580E090E00895DC01ED9136
S1134660FC910190F081E02D199508950F931F930B
S1134670CF93DF93EC016DE0F1DF8C016AE0CE01B2
S1134680EDDF800F911FDF91CF911F910F9108955E
S11346900F931F93CF93DF93EC0165DF8C01CE0161
S11346A0E5DF800F911FDF91CF911F910F91089546
S11346B00F931F93CF93DF93EC017DDF8C01CE0129
S11346C0D5DF800F911FDF91CF911F910F91089536
S11346D00F931F93CF93DF93EC01AADF8C01CE01DC
S11346E0C5DF800F911FDF91CF911F910F91089526
S11346F06F927F928F929F92AF92BF92CF92DF92EE
S1134700EF92FF920F931F93CF93DF93CDB7DEB752
S1134710A1970FB6F894DEBF0FBECDBF6C01742E07
S1134720352F862F972F622E19A221E0261520F00F
S11347300F2EFAE06F2EF02D7E01A1E2EA0EF11C9D
S1134740862C912CA12CB12C672D732FA5019401DB
S1134750BAD2E22F732F022F132F242F352FF72DC8
S11347606E9EF0191124B1E0EB1AF108FA3010F43E
S1134770F05D01C0F95CD701FC93012B022B032BE4
S113478029F07E2E372F842F952FDECFE114F104EC
S113479091F0F70101900020E9F73197AF014E192C
S11347A05F09D601ED91FC910280F381E02DB70100
S11347B0C601199502C080E090E0A1960FB6F89466
S11347C0DEBF0FBECDBFDF91CF911F910F91FF9040
S11347D0EF90DF90CF90BF90AF909F908F907F909D
S11347E06F9008952115310549F4DC01ED91FC9198
S11347F00190F081E02D642F1995089579CF0895E3
S11348009A01AB0160E070E0EDCF08950F931F9320
S1134810CF93DF93EC019A01462F50E060E070E003
S1134820E1DF8C01CE0122DF800F911FDF91CF9158
S11348301F910F9108951F920F920FB60F9211249A
S11348402F933F938F939F93AF93BF938091291C92
S113485090912A1CA0912B1CB0912C1C3091281CE7
S113486023E0230F2D3720F40196A11DB11D05C0AF
S113487026E8230F0296A11DB11D2093281C8093C6
S1134880291C90932A1CA0932B1CB0932C1C809160
S11348902D1C90912E1CA0912F1CB091301C0196C0
S11348A0A11DB11D80932D1C90932E1CA0932F1C31
S11348B0B093301CBF91AF919F918F913F912F91F5
S11348C00F900FBE0F901F9018952FB7F89460911A
S11348D0291C70912A1C80912B1C90912C1C2FBF99
S11348E008953FB7F89480912D1C90912E1CA091AF
S11348F02F1CB091301C26B5A89B05C02F3F19F082
S11349000196A11DB11D3FBFBA2FA92F982F88274B
S1134910820F911DA11DB11DBC01CD01660F771F32
S1134920881F991F660F771F881F991F0895CF92BC
S1134930DF92EF92FF92CF93DF936B017C01D1DF83
S1134940EB01C114D104E104F10491F0CADF6C1B42
S11349507D0B683E734038F081E0C81AD108E10845
S1134960F108C851DC4FC114D104E104F10471F71A
S1134970DF91CF91FF90EF90DF90CF900895019752
S1134980009739F0880F991F880F991F0297019794
S1134990F1F70895789484B5826084BD84B581600C
S11349A084BD85B5826085BD85B5816085BDEEE633
S11349B0F0E0808181608083E1E8F0E01082808112
S11349C082608083808181608083E0E8F0E0808180
S11349D081608083E1EBF0E0808184608083E0EBA0
S11349E0F0E0808181608083E1E9F0E08081826091
S11349F08083808181608083E0E9F0E08081816050
S1134A008083E1EAF0E0808182608083808181603C
S1134A108083E0EAF0E0808181608083E1E2F1E07C
S1134A20808182608083808181608083E0E2F1E024
S1134A30808181608083EAE7F0E080818460808304
S1134A4080818260808380818160808380818068AE
S1134A5080831092C100089590E0FC013197E13108
S1134A60F10508F058C0E856FF4F4FC1E0E8F0E008
S1134A7080818F7780830895E0E8F0E080818F7DE6
S1134A808083089584B58F7784BD089584B58F7D20
S1134A9084BD0895E0EBF0E080818F7780830895F2
S1134AA0E0EBF0E080818F7D80830895E0E9F0E021
S1134AB080818F7780830895E0E9F0E080818F7DA5
S1134AC080830895E0E9F0E08081877F8083089502
S1134AD0E0EAF0E080818F7780830895E0EAF0E0F7
S1134AE080818F7D80830895E0EAF0E08081877F74
S1134AF080830895E0E2F1E080818F7780830895D8
S1134B00E0E2F1E080818F7D80830895E0E2F1E0CE
S1134B108081877F808308951F93CF93DF93C62F6F
S1134B20282F30E0F901E656FE4F8491F901E05256
S1134B30FE4F1491F901EA5DFD4FD491DD23C1F0DC
S1134B4081118ADF2D2F30E0F901EE0FFF1FEA57A4
S1134B50FD4FA591B4918FB7F894C11105C0EC91A4
S1134B6010951E231C9303C0EC911E2B1C938FBF26
S1134B70DF91CF911F910895FC018081918187C1BC
S1134B800895CF93DF93EC0188819981009709F010
S1134B907ED1198218821D821C821B821A82DF91A7
S1134BA0CF9108950F931F93CF93DF93EC018B0163
S1134BB06F5F7F4F88819981F9D1009731F0998394
S1134BC088831B830A8381E001C080E0DF91CF9159
S1134BD01F910F910895CF93DF93EC018881998100
S1134BE0892B29F08A819B818617970768F4CE0167
S1134BF0D9DF882361F08C819D81892B39F4E88188
S1134C00F981108281E003C081E001C081E0DF917D
S1134C10CF910895EF92FF920F931F93CF93DF9359
S1134C20EC017B018A01BA01D6DF811103C0CE01F8
S1134C30A8DF06C01D830C83B70188819981AED299
S1134C40CE01DF91CF911F910F91FF90EF900895C6
S1134C50FC01118210821382128215821482611562
S1134C60710549F0FB0101900020E9F73197AF018C
S1134C70461B570BCFCF0895FC0124813581621761
S1134C80730748F480819181009739F0FC01E60FA5
S1134C90F71F8081089580E0089580E00895AA1B9D
S1134CA0BB1B51E107C0AA1FBB1FA617B70710F013
S1134CB0A61BB70B881F991F5A95A9F78095909545
S1134CC0BC01CD010895A1E21A2EAA1BBB1BFD0154
S1134CD00DC0AA1FBB1FEE1FFF1FA217B307E407D7
S1134CE0F50720F0A21BB30BE40BF50B661F771F2F
S1134CF0881F991F1A9469F760957095809590950F
S1134D009B01AC01BD01CF010895EE0FFF1F05907B
S1134D10F491E02D19940790F691E02D1994EF92F7
S1134D200F931F93CF93DF93E80147FF02C034E151
S1134D3001C034E0E42FFF27E7FDF095F7FF03C03F
S1134D40F195E195F109E32E022F2E2FAE012DD21C
S1134D50CE01DF91CF911F910F91EF900895CF93E2
S1134D60DF938230910510F482E090E0E091331CEF
S1134D70F091341C20E030E0A0E0B0E0309739F14D
S1134D804081518148175907B8F04817590771F401
S1134D9082819381109729F013969C938E93129796
S1134DA02CC09093341C8093331C27C021153105EB
S1134DB031F04217530718F0A901DB0101C0EF01DC
S1134DC09A01BD01DF010280F381E02DD7CF2115C7
S1134DD03105F9F0281B390B2430310580F48A8120
S1134DE09B816115710521F0FB019383828304C0CB
S1134DF09093341C8093331CFE01329644C0FE0110
S1134E00E20FF31F81939193225031093983288350
S1134E103AC02091311C3091321C232B41F4209153
S1134E200202309103023093321C2093311C2091F2
S1134E300002309101022115310541F42DB73EB72E
S1134E404091040250910502241B350BE091311C62
S1134E50F091321CE217F307A0F42E1B3F0B281726
S1134E60390778F0AC014E5F5F4F2417350748F0DF
S1134E704E0F5F1F5093321C4093311C81939193CA
S1134E8002C0E0E0F0E0CF01DF91CF910895CF932D
S1134E90DF93009709F487C0FC01329713821282D2
S1134EA0C091331CD091341C209781F4208131812E
S1134EB0280F391F8091311C9091321C821793075F
S1134EC079F5F093321CE093311C6DC0DE0120E0D3
S1134ED030E0AE17BF0750F412964D915C911397D2
S1134EE09D014115510509F1DA01F3CFB383A28382
S1134EF040815181840F951F8A179B0771F48D910E
S1134F009C911197840F951F02969183808312962A
S1134F108D919C911397938382832115310529F4F4
S1134F20F093341CE093331C3EC0D9011396FC93D8
S1134F30EE9312974D915D91A40FB51FEA17FB07ED
S1134F4079F480819181840F951F0296D90111967D
S1134F509C938E938281938113969C938E93129744
S1134F60E0E0F0E08A819B81009719F0FE01EC01FA
S1134F70F9CFCE01029628813981820F931F2091A7
S1134F80311C3091321C2817390769F4309729F401
S1134F901092341C1092331C02C013821282D093DC
S1134FA0321CC093311CDF91CF9108956F927F9290
S1134FB08F929F92AF92BF92CF92DF92EF92FF9225
S1134FC00F931F93CF93DF93EC01CB01209779F4D8
S1134FD0DF91CF911F910F91FF90EF90DF90CF90D1
S1134FE0BF90AF909F908F907F906F90B8CEFE014E
S1134FF0E60FF71F9E0122503109E217F30708F468
S1135000A8C0D9010D911C91119706171707B0F08C
S11350100530110508F49BC0A801445051094617F6
S1135020570708F494C002501109061B170B01938B
S113503011936D937C93CF012ADF89C05B01A01A81
S1135040B10A4E01800E911EA091331CB091341C04
S1135050612C712C60E070E0109709F449C0A81528
S1135060B905C9F5ED90FC901197670142E0C40EB3
S1135070D11CCA14DB0478F147018A189B08640127
S113508042E0C40ED11C1296BC9012971396AC91B8
S1135090B5E0CB16D10440F0B282A3839182808222
S11350A0D9018D939C9309C00E5F1F4F0E0D1F1DD8
S11350B0F90111830083EB2DFA2F6115710531F08D
S11350C0DB011396FC93EE93129741C0F093341CCA
S11350D0E093331C3CC06D917C9111976616770662
S11350E008F43B01BD0112960D90BC91A02DB4CFE4
S11350F06091311C7091321C68157905E9F46816C9
S11351007906D0F4409100025091010241155105F5
S113511041F44DB75EB76091040270910502461BDD
S1135120570BE417F507A8F4F093321CE093311CF5
S1135130F901918380830BC012DE7C01009749F052
S1135140A801BE0117D0CE01A2DEC70104C0CE0162
S113515002C080E090E0DF91CF911F910F91FF900A
S1135160EF90DF90CF90BF90AF909F908F907F9003
S11351706F900895FB01DC0102C001900D92415033
S11351805040D8F70895FB01DC010D900020E9F7A9
S1135190119701900D920020E1F70895FB01DC01C5
S11351A001900D920020E1F708956F927F929F92F3
S11351B0AF92BF92CF92DF92EF92FF920F931F9321
S11351C0CF93DF93CDB7DEB729970FB6F894DEBF40
S11351D00FBECDBF6A01B22E102F0C3320F4FF2472
S11351E0F394F00E02C04CE3F42E0F2D27E0AE0131
S11351F04F5F5F4F57D17981272F2970213031F0CC
S1135200E1FC06C0E0FC06C060E005C06DE203C03E
S11352106BE201C060E2AE2DA07173FF36C066235D
S113522011F084E001C083E08B1510F4B81A01C0BA
S1135230B12CA1110BC0F6018B2D90E2882319F03B
S113524091938150FBCFCB0CD11CB12C662331F050
S1135250F601608396012F5F3F4F6901C6010396F3
S1135260E2FE05C02EE4F601208331E404C02EE6FC
S1135270F601208331E631832283FC012B2D30E2B9
S11352802223F1F131932150FBCF72FF40C06623FA
S113529011F084E001C083E08B1510F4B81A01C04A
S11352A0B12CA1110BC0F6018B2D90E2882319F0CB
S11352B091938150FBCFCB0CD11CB12C662331F0E0
S11352C0F601608396012F5F3F4F6901C601039683
S11352D0E2FE07C029E4F60120832EE4218326E4BC
S11352E006C029E6F60120832EE6218326E62283E2
S11352F0FC012B2D30E2222319F031932150FBCFF6
S1135300FC01EB0DF11D10828EEF9FEFB7C0B1E0F1
S1135310611101C0B0E04B2F50E01816190624F4B7
S11353209C012F5F3F4F02C021E030E0240F351F66
S1135330112329F0412F50E04F5F5F4F02C040E03E
S113534050E0420F531F2B2D30E04217530714F443
S1135350B41A01C0B12C2E2D287159F4F6012B2D4D
S113536030E2222319F031932150FBCFCB0CD11C16
S1135370B12CBB2331F0F601608396012F5F3F4FC0
S11353806901A1110BC0F6012B2D30E3222319F082
S113539031932150FBCFCB0CD11CB12CF80E0A81D8
S11353A0372F3071A32E74FF03C0013309F4FA942C
S11353B01F142CF42F2D293018F028E001C021E00F
S11353C0682F392F97FF02C060E030E0462F532F3B
S11353D0612C712C3EE2932EBC01621B71099B016E
S11353E0DC01A41BB50BE1E0F0E0EC0FFD1FAE0FF8
S11353F0BF1FE12EF12CF194E194F1084F3FFFEF30
S11354005F0731F4F6019082B6016F5F7F4F6B0145
S1135410841795074CF02417350734F4BD01660D45
S1135420771DFB01118101C010E341505109FFEFC9
S11354306F1A7F0AB6016F5F7F4F4E155F0524F028
S1135440F60110836B01DACF4817590739F4063394
S113545020F4053319F4A11001C011E3F6011083FF
S1135460FB018B2D90E2882319F091938150FBCF9F
S1135470FB01EB0DF11D108280E090E029960FB640
S1135480F894DEBF0FBECDBFDF91CF911F910F9176
S1135490FF90EF90DF90CF90BF90AF909F907F9060
S11354A06F900895283008F027E03327DA01990F28
S11354B0311D87FD916000966105710539F43260F4
S11354C02E5F3D9330E32A95E1F708959F3F30F036
S11354D080387105610509F03C5F3C5F3D93913074
S11354E008F08068911DDF93CF931F930F93FF9271
S11354F0EF92192F987F9695E92F96959695E90F37
S1135500FF27EC5EFC4F99273327EE24FF24A701E5
S1135510E70105900894079428F4360FE71EF81E57
S1135520491F511D660F771F881F991F0694A1F705
S11355300590079428F4E70EF81E491F561FC11D55
S1135540770F881F991F661F0694A1F7059007948B
S113555028F4F80E491F561FC71FD11D880F991F25
S1135560661F771F0694A1F70590079420F4490F4E
S1135570561FC71FD81F990F661F771F881F0694D1
S1135580A9F784911095177041F0D695C795579552
S11355904795F794E7941A95C1F7EAEBF2E068941B
S11355A01590159135916591959105907FE27395CC
S11355B0E118F10A430B560BC90BD009C0F7E10CF3
S11355C0F11E431F561FC91FD01D7EF4703311F402
S11355D08A95E6CFE894015030F0080F0AF40027CA
S11355E0021708F4202F2395022F7A3328F079E349
S11355F07D932A95E9F710C07D932A9589F6069440
S113560097956795379517951794E118F10A430B09
S1135610560BC90BD00998F023957E9173957A3374
S113562008F070E37C932013B8F77E9170617D934A
S113563030F0839571E37D9370E32A95E1F71124AB
S1135640EF90FF900F911F91CF91DF91992787FDE4
S10B565090950895F894FFCF32
S11356580000351C20000000404100009EC20000EC
S113566880C0FFFF50696E6720313A2000636D00E7
S11356782A2A205461736B2031204572726F723A62
S113568820636F756C64206E6F742074616B652081
S113569873656D6170686F7265202A2A0050696E9F
S11356A86720323A20002A2A205461736B20332061
S11356B84572726F723A20636F756C64206E6F74F2
S11356C82074616B652073656D6170686F72652005
S11356D82A2A00494D55205461736B0028206163C0
S11356E863656C65726F6D65746572526561646932
S11356F86E67203D20282078203D20002C2079202A
S11357083D20002A2A205461736B2032204572728E
S11357186F723A20636F756C64206E6F74207461C5
S11357286B652073656D6170686F7265202A2A0045
S1135738556C747261536F6E69637300494D5500FB
S113574849444C4500000000004A1A1E1AF319FB8C
S1135758190E1A1D1A00000000B51E8522601E8944
S10957681E701EAA1E00C3
S9030000FC
