:1000000073C00000A1C000009FC000009DC00000A0
:100010009BC0000099C0000097C0000095C0000080
:1000200093C0000091C000008FC000008DC0000090
:100030008BC00000F5C5000087C0000085C000002F
:1000400083C0000081C000007FC000007DC00000B0
:100050007BC0000079C0000077C000000C94DC1069
:1000600073C000000C946D0C0C946D0D6DC00000FD
:100070006BC0000069C0000067C0000065C00000E0
:1000800063C0000061C000005FC000005DC00000F0
:100090000C94AD0C0C94AC0D57C000000C94E0090E
:1000A00053C0000051C000004FC000004DC0000010
:1000B0004BC0000049C0000047C0000045C0000020
:1000C00043C0000041C000003FC000000C94ED0C94
:1000D0000C94EB0D39C000000C942D0D0C942A0EDD
:1000E00033C00000CF0BAD0E11241FBECFEFD1E205
:1000F000DEBFCDBF00E00CBF12E0A0E0B2E0E4EB59
:10010000F2E200E00BBF02C007900D92A839B107E0
:10011000D9F72CE0A8E9B2E001C01D92AE34B207D5
:10012000E1F710E0C8EED0E000E006C02297010938
:10013000FE010BBF0E945411C43ED10780E00807A6
:10014000A9F7A2D00C9458115BCFCF93DF93CDB712
:10015000DEB72F970FB6F894DEBF0FBECDBF62E4B7
:1001600072E083E09AE00E94D20FCE01019628D37C
:10017000CE010196A0D368E472E083E09AE00E9489
:10018000D20FCE010196C2D3882319F06AE072E043
:1001900002C068E272E083E09AE00E94D20F2EE98A
:1001A00032E040EA52E062EA72E0CE01019620D3EA
:1001B00066E672E083E09AE00E94A20F6091A202DC
:1001C0007091A3024AE050E083E09AE00E9494100C
:1001D0006AE672E083E09AE00E94A20F6091A002BA
:1001E0007091A1024AE050E083E09AE00E949410EE
:1001F0006AE672E083E09AE00E94A20F60919E029C
:1002000070919F024AE050E083E09AE00E949410CF
:100210006AE672E083E09AE00E94A20F60919C027D
:1002200070919D024AE050E083E09AE00E949410B1
:100230006AE672E083E09AE00E94A20F60919A025F
:1002400070919B024AE050E083E09AE00E94941093
:100250006AE672E083E09AE00E94A20F6091980241
:10026000709199024AE050E083E09AE00E949C106D
:1002700086E990E057D72F960FB6F894DEBF0FBEF1
:10028000CDBFDF91CF910895AF92BF92CF92DF9211
:10029000EF92FF920F93CF93DF931F921F92CDB7F0
:1002A000DEB7A12CB12CC12CD12CCE0101967C0142
:1002B00006E020E030E040E052E06CE672E085EAE3
:1002C00090E0FDD4E2D580E090E00F900F90DF91B8
:1002D000CF910F91FF90EF90DF90CF90BF90AF90B4
:1002E0000895CF93DF93EC0100D68091A402909102
:1002F000A502892B31F489EA92E09093A5028093BC
:10030000A4022091A6023091A702CE01820F931F72
:100310008B3D45E0940770F42817390758F4C091D5
:10032000A402D091A502C20FD31F9093A70280937D
:10033000A60202C0C0E0D0E08AD6CE01DF91CF9104
:1003400008950895EF92FF920F931F93CF93DF9339
:100350001F921F92CDB7DEB7062F142F682F8BE4A4
:1003600099E029833A830E94B10B602F8BE499E0D6
:100370000E94650B2981022FE22E3A81F32E8E2DE9
:10038000801B811740F4F70161917F018BE499E0B4
:100390000E94650BF4CF8BE499E00E94CD0B81E0C5
:1003A0000F900F90DF91CF911F910F91FF90EF90E1
:1003B0000895CF93DF931F92CDB7DEB749839E0197
:1003C0002F5F3F4F41E0BEDF0F90DF91CF91089547
:1003D0003F924F925F926F927F928F929F92AF92D5
:1003E000BF92CF92DF92EF92FF920F931F93CF9322
:1003F000DF9300D000D0CDB7DEB7682E562E742E16
:100400003A8329830E9426116B017C01312C412CF7
:10041000872D90E09C838B834801A12CB12C37144D
:10042000B0F5662D8BE499E00E94B10B652D8BE44D
:1004300099E00E94650B8BE499E00E94CD0B662D3C
:100440008BE499E00E94B10B4B815C814319510907
:100450004132510514F040E250E0662D8BE499E002
:100460000E94AF0B8BE499E00E940E0B892B59F18F
:100470000115110599F10E9426116C197D098E094B
:100480009F09681579058A059B0540F11CC0011577
:100490001105A9F10E9426116C197D098E099F0989
:1004A00020E030E0601771078207930740F1872D45
:1004B00090E0242D332727FD309528173907FCF4C9
:1004C00044244A941CC08BE499E00E94CD0B872DF4
:1004D00090E2971508F480E2380EA1CFE981FA8105
:1004E000E40DF11D47FCFA95FE83ED838BE499E062
:1004F0000E94160BED81FE8180834394B3CF842D3F
:1005000026960FB6F894DEBF0FBECDBFDF91CF9118
:100510001F910F91FF90EF90DF90CF90BF90AF9021
:100520009F908F907F906F905F904F903F90089535
:100530000F931F9389019A0141E04ADF1F910F91A8
:100540000895CF92DF92EF92FF920F931F93CF9374
:10055000DF931F92CDB7DEB7C42ED22E9701AE0126
:100560004F5F5F4FE5DF8823F1F04C2D50E04D19D0
:1005700051094F5F5F4F61E070E002C0660F771F67
:10058000DA94E2F761507109042E01C0660F0A94F3
:10059000EAF72981262330E002C0359527954A9550
:1005A000E2F7F80120830F90DF91CF911F910F9117
:1005B000FF90EF90DF90CF900895EF92FF920F930E
:1005C0001F93CF93DF931F92CDB7DEB7182F062F5F
:1005D000F42EE22E2091060230910702AE014F5F09
:1005E0005F4FA6DF898121E030E00F2C01C0220F90
:1005F0000A94EAF7EE2019F0482F422B03C0422F4D
:10060000409548234983602F812FD3DE0F90DF91DF
:10061000CF911F910F91FF90EF900895DF92EF928D
:10062000FF920F931F93CF93DF931F92CDB7DEB747
:10063000F82EE62ED42E122F2091060230910702BA
:10064000AE014F5F5F4F74DF882311F14D2D50E0F5
:10065000411B51094F5F5F4FE1E0F0E002C0EE0F38
:10066000FF1F1A95E2F73197042E01C0EE0F0A948E
:10067000EAF701C0000F4A95EAF74E2F40958981AD
:100680004823E0234E2B49836E2D8F2D92DE01C02F
:1006900080E00F90DF91CF911F910F91FF90EF902D
:1006A000DF900895FC010396928381832FEF3FEF43
:1006B000348323839683858390878783108208956C
:1006C000FC01118610860895CF93DF939C01FB01F6
:1006D000DC011196CD91DC911297D383C2838C817A
:1006E0009D81958384838C819D81DC0113967C930D
:1006F0006E9312977D836C8331872087F901808107
:100700008F5F8083DF91CF9108950F931F93CF93D5
:10071000DF938C01FB01208131812F3F8FEF380760
:1007200021F4E801AF81B8850EC0D8011396129666
:100730008D919C911397EC014881598124173507BD
:1007400010F0DC01F4CF12968D919C911397938356
:100750008283EC01FD83EC83B583A4831396FC9321
:10076000EE93129711870087F80180818F5F808355
:10077000DF91CF911F910F910895CF93DF93FC01EB
:10078000A085B1858281938124813581EC013D83EF
:100790002C83C481D5819B838A8311968D919C91F2
:1007A00012978E179F0721F41296DC93CE93119720
:1007B000118610868C9181508C93DF91CF91089592
:1007C00028E6FC01208308950F93062F22E044E0E1
:1007D0006BE1FC01808122DF0F9108950F93062FBA
:1007E00022E044E06CE1FC01808118DF0F91089564
:1007F000AF92BF92CF92DF92EF92FF920F931F932F
:10080000CF93DF93EC017B015A016901009106024D
:10081000109107029C012F5F3F4F46E06BE38881F8
:10082000D7DD898190E0982F88272A81822BF701D4
:10083000918380838B8190E0982F88272C81822B55
:10084000F501918380838D8190E0982F88272E81F8
:10085000822BF60191838083DF91CF911F910F91BD
:10086000FF90EF90DF90CF90BF90AF900895262F2C
:1008700046E06BE6FC018081A0CE0F931F93CF93DF
:10088000DF93EC01062F23E042E06BE68881C6DEB1
:10089000182F4AE050E0688183E09AE00E94C0107F
:1008A0004AE050E0612F83E09AE0DF91CF911F9101
:1008B0000F910C94C710CF93DF93EC0161E0DDDF63
:1008C00060E0CE0181DF60E0CE0188DF60E0CE0134
:1008D000DF91CF91CCCFEF92FF920F931F93CF93E5
:1008E000DF93EC01E0900602F09007028C010F5FAD
:1008F0001F4F26E046E065E7888123DE8981DF918E
:10090000CF911F910F91FF90EF900895CF93DF93B8
:10091000EC01E1DF4AE050E0682F83E09AE00E94BA
:10092000C710CE01D8DF91E0843309F090E0892F21
:10093000DF91CF91089531E1FC013083319722E2BC
:1009400020833197A3E3A08331976083319770832D
:100950003197108231971082319760E86083319728
:1009600010823197108231971082319762E0608354
:10097000319763E06083319764E06083319765E08D
:100980006083319766E06083319767E060833197D9
:1009900068E06083319769E06083319760E160834C
:1009A00031973083319732E13083319733E13083AF
:1009B000319734E13083319735E13083319736E137
:1009C0003083319737E13083319738E13083319785
:1009D00039E13083319730E23083319731E230832F
:1009E00031972083319723E22083319740833197D9
:1009F0005083319726E22083319727E22083319775
:100A000028E22083319729E22083319720E3208355
:100A1000319721E320838997089582E08093B00085
:100A20001092B20080E38093B300E0E7F0E08081B1
:100A30008260808383E08093B100A091DB08B09155
:100A4000DC08CD91CDBFDD91DEBFFF91EF91DF914D
:100A5000CF91BF91AF919F918F917F916F915F9156
:100A60004F913F912F911F910F91FF90EF90DF9049
:100A7000CF90BF90AF909F908F907F906F905F903E
:100A80004F903F902F901F900F900CBE0F900BBE79
:100A90000F900FBE0F90089581E008950F920FB64A
:100AA000F8940F920CB60F920BB60F921F9211246E
:100AB0002F923F924F925F926F927F928F929F926E
:100AC000AF92BF92CF92DF92EF92FF920F931F935C
:100AD0002F933F934F935F936F937F938F939F9346
:100AE000AF93BF93CF93DF93EF93FF93A091DB0876
:100AF000B091DC080DB60D920EB60D9261D3A091A7
:100B0000DB08B091DC08CD91CDBFDD91DEBFFF9158
:100B1000EF91DF91CF91BF91AF919F918F917F9195
:100B20006F915F914F913F912F911F910F91FF9086
:100B3000EF90DF90CF90BF90AF909F908F907F907D
:100B40006F905F904F903F902F901F900F900CBE32
:100B50000F900BBE0F900FBE0F9008950F920FB61F
:100B6000F8940F920CB60F920BB60F921F921124AD
:100B70002F923F924F925F926F927F928F929F92AD
:100B8000AF92BF92CF92DF92EF92FF920F931F939B
:100B90002F933F934F935F936F937F938F939F9385
:100BA000AF93BF93CF93DF93EF93FF93A091DB08B5
:100BB000B091DC080DB60D920EB60D929CD181114C
:100BC000FFD2A091DB08B091DC08CD91CDBFDD91C3
:100BD000DEBFFF91EF91DF91CF91BF91AF919F91D8
:100BE0008F917F916F915F914F913F912F911F91C5
:100BF0000F91FF90EF90DF90CF90BF90AF909F90BC
:100C00008F907F906F905F904F903F902F901F90AC
:100C10000F900CBE0F900BBE0F900FBE0F9008955B
:100C20009DDF1895E091A308F091A40880818111BF
:100C300003C08FEF9FEF0CC0E091A308F091A408D0
:100C40000580F681E02D0680F781E02D8281938179
:100C500090930902809308020895CF93DF93EC01EB
:100C6000E091DB08F091DC089383828380918B080C
:100C700090918C086091DB087091DC08C817D90747
:100C800048F48091A1089091A2086E5F7F4FDF9198
:100C9000CF913BCD8091A3089091A4086E5F7F4FC8
:100CA00034DD8091080290910902C817D90720F419
:100CB000D0930902C0930802DF91CF9108955F920B
:100CC0006F927F928F929F92AF92BF92CF92DF925C
:100CD000EF92FF920F931F93CF93DF934C01162F48
:100CE000572E5A01390181E290E0FBDAEC010097BE
:100CF00009F4BAC0C114D10419F4C501F2DA01C073
:100D0000C601988F8F8B009719F4CE011ADBACC007
:100D100021E0A21AB108A80EB91EE12FF52D80E03E
:100D200090E0BF0141919E01280F391FD9015996CA
:100D30004C93DB012C91222321F001968830910500
:100D400081F718A2102F043008F013E01E8B6E01FB
:100D5000B2E0CB0ED11CC601B3DCCE010C96B0DCE8
:100D6000D987C88784E090E0811B91099D878C8793
:100D7000DB8BCA8BA301B401C501DDDD99838883B8
:100D8000E114F10419F0F701D183C0830FB6F89490
:100D90000F9280918D088F5F80938D088091DB0882
:100DA0009091DC08892B69F5D093DC08C093DB08AF
:100DB00080918D088130A1F587EB98E073DC80ECA1
:100DC00098E070DC89EC98E06DDC82ED98E06ADCFC
:100DD0008EEA98E067DC85EA98E064DC88E998E0D0
:100DE00061DC8FE898E05EDC8EEA98E09093A408DE
:100DF0008093A30885EA98E09093A2088093A108C5
:100E00000FC08091890881110BC0E091DB08F0913F
:100E1000DC088689081720F0D093DC08C093DB0833
:100E2000809185088F5F809385088E8990918A08CC
:100E3000981710F480938A08F9E08F9FC00111245D
:100E4000B6018954974F40DC0F900FBE80918908FE
:100E5000882341F0E091DB08F091DC088689801757
:100E600008F41CDE81E001C08FEFDF91CF911F916C
:100E70000F91FF90EF90DF90CF90BF90AF909F9039
:100E80008F907F906F905F900895AF92BF92CF92B6
:100E9000DF92EF92FF920F93A12CB12CC12CD12C99
:100EA000E12CF12C00E020E030E045E550E063E784
:100EB00072E082EB98E003DF813079F4F89480935C
:100EC000890810928C0810928B080F91FF90EF9078
:100ED000DF90CF90BF90AF90A0CD0F91FF90EF909B
:100EE000DF90CF90BF90AF900895809184088F5F7E
:100EF000809384080895CF92DF92EF92FF920F9330
:100F00001F93CF93DF938091840881118AC08091D1
:100F10008B0890918C08019690938C0880938B0895
:100F200000918B0810918C0801151105B1F4809186
:100F3000A3089091A4082091A1083091A2083093B1
:100F4000A4082093A3089093A2088093A1088091FD
:100F500086088F5F8093860865DE809108029091F5
:100F60000902D12C0817190708F44AC089E0C82ED5
:100F7000E091A308F091A4088081811107C08FEF50
:100F80009FEF90930902809308023AC0E091A30872
:100F9000F091A4080580F681E02DC681D7812A81D1
:100FA0003B810217130728F43093090220930802AB
:100FB00027C07E0182E0E80EF11CC701DEDB2C8930
:100FC0003D89232B19F0CE010C96D7DB2E89809119
:100FD0008A08821710F420938A08C29EC001112447
:100FE000B7018954974F70DBE091DB08F091DC0882
:100FF0009E898689981708F4BBCFDD24D394B8CF97
:10100000E091DB08F091DC08E68989E0E89FF001D7
:101010001124E954F74F8081823048F0DD24D394C5
:1010200006C0809188088F5F80938808D12C8091BA
:101030008708882311F0DD24D3948D2DDF91CF9183
:101040001F910F91FF90EF90DF90CF900895EF9256
:10105000FF920F931F93CF93DF930FB6F8940F92E5
:10106000809184088150809384088091840888232B
:1010700011F080E04EC080918D088823D1F399E073
:10108000F92EEE24E39480919808882339F1E091B9
:101090009D08F0919E08C681D781CE010C966DDB2C
:1010A0008E010E5F1F4FC80168DB8E8990918A0800
:1010B000981710F480938A08F89EC0011124B80193
:1010C0008954974F01DBE091DB08F091DC089E89A1
:1010D00086899817C0F2E0928708D5CF809188085A
:1010E000811108C080918708813009F0C2CFD6DC19
:1010F00081E00FC0C1E080918808882399F3FBDE6E
:101100008111C09387088091880881508093880856
:10111000F2CF0F900FBEDF91CF911F910F91FF90F3
:10112000EF9008950F931F93CF93DF938C01009757
:1011300011F4B4DC12C0D9DEC0918B08D0918C08B8
:10114000C00FD11F8091DB089091DC08029615DB5F
:10115000CE0183DD7CDF882361F3DF91CF911F9186
:101160000F91089580918E08882321F1BEDEC091F1
:101170008F086DDFCC23B1F30FB6F8940F92E09196
:101180009408F0919508C681D781CE010296F5DAD0
:1011900080918D08815080938D0880918E088150B8
:1011A00080938E080F900FBE8F89988DCAD8CE017C
:1011B000C8D8D8CF8091B7088230A0F26FDCD2CFE8
:1011C00080918408882321F081E080938708089526
:1011D0001092870899E0E0918A089E9FF0011124FF
:1011E000E954F74F8081811106C080918A088150AF
:1011F00080938A08F0CFE0918A0889E0E89FF001A7
:101200001124E954F74FA181B28112960D90BC913F
:10121000A02DB283A183CF010396A817B90731F49B
:1012200012968D919C911397928381830180F28114
:10123000E02D868197819093DC088093DB080895E8
:10124000413208F03FC090914A099111FCCF91E0E2
:1012500090934A09209348092FEF2093DD081092BC
:101260002209240F2093210990934909909149095B
:10127000880F892B8093490980914709813041F477
:1012800010924709809149098093BB0085EC01C009
:1012900085EE8093BC0080914A098130E1F3809112
:1012A0002209841710F44091220923E239E0FB015E
:1012B000D9018A2F821B841718F48D918193F9CF5D
:1012C000842F089580E008950F93413208F046C0BE
:1012D00090914A099111FCCF92E090934A090093B2
:1012E00048099FEF9093DD0810922209409321094D
:1012F000FB0163E279E0DB019A2F961B941718F447
:1013000091919D93F9CF1092490990914909880FC5
:10131000892B8093490980914709813041F41092CB
:101320004709809149098093BB0085EC01C085EE97
:101330008093BC00222321F080914A098230E1F39E
:101340008091DD088F3F61F08091DD08803251F09F
:101350008091DD08803341F483E007C081E005C05F
:1013600080E003C082E001C084E00F910895613203
:1013700098F420914A09243089F46093FF08FC0115
:1013800081E099E0DC012A2F281B261718F421910F
:101390002D93F9CF80E0089581E0089582E00895CB
:1013A00085ED8093BC008091BC0084FDFCCF109241
:1013B0004A09089585EC8093BC0010924A0908956B
:1013C0001F920F920FB60F9211240BB60F922F930C
:1013D0003F934F935F936F937F938F939F93AF93BD
:1013E000BF93EF93FF938091B900887F803609F413
:1013F0009CC068F5883209F45BC090F4803109F430
:1014000054C038F4882309F4F3C0883009F44DC07F
:10141000F2C0883109F44CC0803209F45DC0EBC0E1
:10142000803409F468C048F4803309F455C0883327
:1014300009F0E1C08093DD08A7C0803509F44FC0F2
:10144000883509F45DC0883409F0D5C0D3C0883927
:1014500009F4C4C0A8F4883709F467C038F48836A2
:1014600009F463C0803709F460C0C5C0883809F446
:10147000B5C0803909F45FC0803809F0BCC05BC0DA
:10148000803B09F483C038F4803A09F466C0883A96
:1014900009F47CC0B0C0803C09F4A4C0883C09F4C5
:1014A000A1C0883B09F487C0A6C08091490910C03B
:1014B0009091220980912109981770F5E0912209F5
:1014C00081E08E0F80932209F0E0ED5DF64F808180
:1014D0008093BB0085EC83C08093DD088BC0E091D6
:1014E000220981E08E0F809322098091BB00F0E0F9
:1014F000ED5DF64F808390912209809121096BC0A8
:10150000E091220981E08E0F809322098091BB0037
:10151000F0E0ED5DF64F80838091480981116AC04B
:1015200081E08093470984EA5EC083E080934A09A2
:101530001092DE08CFCF8091DE08803208F04EC0D6
:10154000E091DE0881E08E0F8093DE088091BB0081
:10155000F0E0E152F74F8083BDCF8091DE0880320A
:1015600030F4E091DE08F0E0E152F74F108218DF2E
:101570006091DE0870E0E0914309F09144098FED3D
:1015800098E019951092DE0815DF35C084E080934D
:101590004A09109200091092FF08E0914509F09164
:1015A000460919958091FF08811105C081E080935B
:1015B000FF0810920109E091000981E08E0F8093ED
:1015C0000009F0E0EF5FF64F80818093BB009091BF
:1015D00000098091FF08981708F47CCF85E8809374
:1015E000BC0009C085EC8093BC0010924A0903C07E
:1015F0001092DD08D5DEFF91EF91BF91AF919F91E1
:101600008F917F916F915F914F913F912F910F90AB
:101610000BBE0F900FBE0F901F90189580917B0905
:1016200090E020917C09821B9109089520917C090A
:1016300080917B09281750F4E22FF0E0E358F64F31
:10164000808190E02F5F20937C0908958FEF9FEFBA
:101650000895E0917C0980917B09E81730F4F0E06F
:10166000E358F64F808190E008958FEF9FEF089543
:101670000895CF92DF92EF92FF920F931F93CF9333
:10168000DF937C01CB018A0120915709222389F045
:10169000EB016B01C40ED51ECC15DD0561F069911F
:1016A000D701ED91FC910190F081E02DC7011995D2
:1016B000F3CF642F5CDEC801DF91CF911F910F91B2
:1016C000FF90EF90DF90CF900895CF93DF931F921C
:1016D000CDB7DEB76983209157092223D1F020913D
:1016E0005809203240F021E030E0FC0133832283AE
:1016F00080E090E014C080915909E82FF0E0E65AAC
:10170000F64F998190838F5F809359098093580990
:1017100004C061E0CE0101962ADE81E090E00F90E6
:10172000DF91CF910895FC011382128248EE53E0BD
:1017300060E070E044835583668377838CE792E0B2
:10174000918380830895862F413208F040E26DE74F
:1017500079E076DD10927C0980937B09089521E081
:10176000F2CF81E08093570960937A09109259096A
:101770001092580908950F93062F21E040915809BF
:101780006AE579E080917A099FDD109259091092FB
:101790005809109257090F91089561E0ECCF8BE43E
:1017A00099E0C1CFFC0124853585F901E05CFF4F4C
:1017B00080819181329620813181821B930B8F73BE
:1017C00099270895FC0184859585FC01E05CFF4F15
:1017D000408151813296208131814217530741F077
:1017E00020813181FC01E20FF31F808190E0089598
:1017F0008FEF9FEF0895FC0184859585FC01E05CE7
:10180000FF4F408151813296208131814217530729
:1018100081F020813181DC01A20FB31F8C912081E6
:1018200031812F5F3F4F2F7333273183208390E027
:1018300008958FEF9FEF0895FC0181A1882329F07F
:10184000A489B5898C9186FFFBCF11A208951F93BF
:10185000CF93DF93EC018E859F85FC01E05CFF4F09
:101860000190F081E02D3196EF73FF271E2F7F2F1F
:10187000DC01AE5BBF4F212F372F4D915C9111974B
:10188000E417F507C1F3FC01E05CFF4F4081518193
:10189000FC01E40FF51F6083EE85FF85E05CFF4FE0
:1018A00031832083EE89FF89408121E030E0C90146
:1018B0000F8C02C0880F991F0A94E2F7842B808353
:1018C00081E089A3EC89FD8980818064808381E047
:1018D00090E0DF91CF911F9108951F920F920FB664
:1018E0000F9211240BB60F922F933F934F938F9328
:1018F0009F93AF93BF93EF93FF938091C00082FDBE
:101900001AC04091C6008091410C9091420C019602
:101910008F7399272091430C3091440C82179307C1
:1019200061F0E1E4FCE0A081B181AF5FB34F4C9383
:101930009183808302C08091C600FF91EF91BF9197
:10194000AF919F918F914F913F912F910F900BBE2F
:101950000F900FBE0F901F9018951F920F920FB609
:101960000F9211240BB60F922F933F934F938F93A7
:101970009F93AF93BF93EF93FF938091C80082FD35
:101980001AC04091CE008091B90B9091BA0B01968C
:101990008F7399272091BB0B3091BC0B8217930753
:1019A00061F0E9EBFBE0A081B181A758B44F4C9303
:1019B0009183808302C08091CE00FF91EF91BF910F
:1019C000AF919F918F914F913F912F910F900BBEAF
:1019D0000F900FBE0F901F9018951F920F920FB689
:1019E0000F9211240BB60F922F933F934F938F9327
:1019F0009F93AF93BF93EF93FF938091D00082FDAD
:101A00001AC04091D6008091310B9091320B019613
:101A10008F7399272091330B3091340B82179307E2
:101A200061F0E1E3FBE0A081B181AF50B54F4C9391
:101A30009183808302C08091D600FF91EF91BF9186
:101A4000AF919F918F914F913F912F910F900BBE2E
:101A50000F900FBE0F901F9018951F920F920FB608
:101A60000F9211240BB60F922F933F934F938F93A6
:101A70009F93AF93BF93EF93FF938091300182FDCB
:101A80001AC0409136018091A90A9091AA0A019644
:101A90008F7399272091AB0A3091AC0A8217930774
:101AA00061F0E9EAFAE0A081B181A759B54F4C9302
:101AB0009183808302C080913601FF91EF91BF91A5
:101AC000AF919F918F914F913F912F910F900BBEAE
:101AD0000F900FBE0F901F9018951F920F920FB688
:101AE0000F9211240BB60F922F933F938F939F93D6
:101AF000AF93BF93EF93FF932091FD0B3091FE0BBB
:101B00008091FF0B9091000C2817390731F4E1EC1C
:101B1000F0E080818F7D808310C0EFEFFBE0A0813B
:101B2000B181A354B44F2C918081918101968F7320
:101B30009927918380832093C600FF91EF91BF91F5
:101B4000AF919F918F913F912F910F900BBE0F906E
:101B50000FBE0F901F9018951F920F920FB60F9205
:101B600011240BB60F922F933F938F939F93AF93B4
:101B7000BF93EF93FF932091750B3091760B80917B
:101B8000770B9091780B2817390731F4E9ECF0E0E6
:101B900080818F7D808310C0E7E7FBE0A081B18169
:101BA000AB5CB44F2C918081918101968F73992702
:101BB000918380832093CE00FF91EF91BF91AF91ED
:101BC0009F918F913F912F910F900BBE0F900FBE61
:101BD0000F901F9018951F920F920FB60F9211241D
:101BE0000BB60F922F933F938F939F93AF93BF9317
:101BF000EF93FF932091ED0A3091EE0A8091EF0A66
:101C00009091F00A2817390731F4E1EDF0E0808176
:101C10008F7D808310C0EFEEFAE0A081B181A355E3
:101C2000B54F2C918081918101968F739927918373
:101C300080832093D600FF91EF91BF91AF919F9148
:101C40008F913F912F910F900BBE0F900FBE0F9071
:101C50001F9018951F920F920FB60F9211240BB67A
:101C60000F922F933F938F939F93AF93BF93EF93D5
:101C7000FF932091650A3091660A8091670A9091DE
:101C8000680A2817390731F4E1E3F1E080818F7D9C
:101C9000808310C0E7E6FAE0A081B181AB5DB54F6B
:101CA0002C918081918101968F73992791838083F4
:101CB00020933601FF91EF91BF91AF919F918F914A
:101CC0003F912F910F900BBE0F900FBE0F901F9062
:101CD00018958F929F92AF92BF92CF92DF92EF9220
:101CE000FF920F931F93CF93DF93CDB7DEB7FC0125
:101CF0001382128288EE93E0A0E0B0E084839583A3
:101D0000A683B7838CE892E091838083758764878C
:101D100057874687318B208B138B028BF58AE48A99
:101D2000D78AC68AB18EA08E938E828E8889848F40
:101D30008989858F8A89868F8B89878F8C8980A3F3
:101D4000DF91CF911F910F91FF90EF90DF90CF9097
:101D5000BF90AF909F908F9008955F926F927F9207
:101D60008F929F92AF92BF92CF92DF92EF92FF92AB
:101D70000F931F93CF93DF93552453945F920F2EAD
:101D8000F5E06F2EF02D6F920F2EF7E07F2EF02DE5
:101D90007F92D3E0DF93C4E0CF930F2EF6EC8F2E2B
:101DA000912CF02D0F2EF2ECAF2EB12CF02D0F2E2A
:101DB000F1ECCF2ED12CF02D0F2EF0ECEF2EF12CDC
:101DC000F02D04EC10E025EC30E04DEB5BE061E041
:101DD0007CE083E09AE07DDF5F926F927F92DF93F9
:101DE000CF930F2EFEEC8F2E912CF02D0F2EFAECB0
:101DF000AF2EB12CF02D0F2EF9ECCF2ED12CF02DD3
:101E00000F2EF8ECEF2EF12CF02D0CEC10E02DEC59
:101E100030E045E35BE069E77BE081EE99E059DF84
:101E20005F926F927F92DF93CF930F2EF6ED8F2EFE
:101E3000912CF02D0F2EF2EDAF2EB12CF02D0F2E98
:101E4000F1EDCF2ED12CF02D0F2EF0EDEF2EF12C49
:101E5000F02D04ED10E025ED30E04DEA5AE061EFA1
:101E60007AE08FEB99E035DF5F926F927F92DF939C
:101E7000CF930F2EF6E38F2E99249394F02D0F2EEF
:101E8000F2E3AF2EBB24B394F02D0F2EF1E3CF2E4F
:101E9000DD24D394F02D0F2EF0E3EF2EFF24F394E6
:101EA000F02D04E311E025E331E045E25AE069E674
:101EB0007AE08DE999E00DDF8DB79EB744960FB6B5
:101EC000F8949EBF0FBE8DBFDF91CF911F910F91F0
:101ED000FF90EF90DF90CF90BF90AF909F908F904A
:101EE0007F906F905F900895CF92DF92EF92FF9274
:101EF0000F931F93CF93DF936C0141155105B1F000
:101F0000062F172FEA01E12CF12CD8016D918D01DC
:101F1000D601ED91FC910190F081E02DC60119955B
:101F2000E80EF91E2197209781F702C0E12CF12CD1
:101F3000C701DF91CF911F910F91FF90EF90DF903C
:101F4000CF9008956115710581F0FB01019000208B
:101F5000E9F73197AF01461B570BDC01ED91FC917E
:101F60000280F381E02D1995089580E090E00895B6
:101F7000DC01ED91FC910190F081E02D199508951F
:101F80000F931F93CF93DF93EC016DE0F1DF8C0192
:101F90006AE0CE01EDDF800F911FDF91CF911F919D
:101FA0000F9108950F931F93CF93DF93EC01CADF36
:101FB0008C01CE01E5DF800F911FDF91CF911F9142
:101FC0000F9108956F927F928F929F92AF92BF92DE
:101FD000CF92DF92EF92FF920F931F93CF93DF93F5
:101FE000CDB7DEB7A1970FB6F894DEBF0FBECDBF59
:101FF0006C01742E352F862F972F622E19A221E0A7
:10200000261520F00F2EFAE06F2EF02D7E01A1E2B2
:10201000EA0EF11C862C912CA12CB12C672D732F6C
:10202000A50194011FD1E22F732F022F132F242F0C
:10203000352FF72D6E9EF0191124B1E0EB1AF1083F
:10204000FA3010F4F05D01C0F95CD701FC93012B6C
:10205000022B032B29F07E2E372F842F952FDECFD6
:10206000E114F10491F0F70101900020E9F73197B4
:10207000AF014E195F09D601ED91FC910280F38109
:10208000E02DB701C601199502C080E090E0A1964D
:102090000FB6F894DEBF0FBECDBFDF91CF911F9179
:1020A0000F91FF90EF90DF90CF90BF90AF909F90F7
:1020B0008F907F906F900895CF92DF92EF92FF9272
:1020C0000F931F93CF93DF93EC016A017B012115DE
:1020D000310541F4E881F9810190F081E02D642F10
:1020E000199519C02A303105A9F4772384F46DE2DB
:1020F0003FDF8C0144275527BA014C195D096E0951
:102100007F092AE0CE015EDF800F911F04C02AE024
:1021100059DF01C057DFDF91CF911F910F91FF90E1
:10212000EF90DF90CF9008959A01AB01662757FD9D
:102130006095762FC1CF08950F931F93CF93DF93B0
:10214000EC019A01AB01662757FD6095762FB4DF4D
:102150008C01CE0115DF800F911FDF91CF911F9170
:102160000F9108952115310549F4DC01ED91FC91A1
:102170000190F081E02D642F1995089523CF0895E3
:102180009A01462F50E060E070E0ECCF08950F9385
:102190001F93CF93DF93EC019A01462F50E060E04C
:1021A00070E0E0DF8C01CE01EBDE800F911FDF914C
:1021B000CF911F910F9108951F920F920FB60F921A
:1021C00011242F933F938F939F93AF93BF9380914D
:1021D000460C9091470CA091480CB091490C30915D
:1021E000450C23E0230F2D3720F40196A11DB11DCE
:1021F00005C026E8230F0296A11DB11D2093450CB2
:102200008093460C9093470CA093480CB093490CD4
:1022100080914A0C90914B0CA0914C0CB0914D0CBC
:102220000196A11DB11D80934A0C90934B0CA09375
:102230004C0CB0934D0CBF91AF919F918F913F91FA
:102240002F910F900FBE0F901F9018952FB7F894F5
:102250006091460C7091470C8091480C9091490C0C
:102260002FBF0895A1E21A2EAA1BBB1BFD010DC0B2
:10227000AA1FBB1FEE1FFF1FA217B307E407F50736
:1022800020F0A21BB30BE40BF50B661F771F881F12
:10229000991F1A9469F760957095809590959B01A8
:1022A000AC01BD01CF0108950790F691E02D19947E
:0422B000F894FFCFD0
:1022B40000004E0C2000E803FFFF4D50553630352A
:1022C4003020636F6E6E656374696F6E207375631F
:1022D4006365737366756C004D5055363035302028
:1022E400636F6E6E656374696F6E206661696C6599
:1022F400640048656C6C6F0054657374696E672084
:1023040064657669636520636F6E6E656374696F77
:102314006E732E2E2E00612F673A09005461736B81
:1023240020310049444C450000000000650B390B86
:102334000E0B160B290B380B00000000270C740F32
:08234400D20BFB0BE20B1C0C99
:00000001FF
