S01400004672656552544F53323536302E7372656379
S113000015C1000043C1000041C100003FC1000010
S11300103DC100003BC1000039C1000037C10000F0
S113002035C1000033C1000031C100002FC1000000
S11300302DC1000097C5000029C1000027C10000A0
S113004025C1000023C1000021C100001FC1000020
S113005028C700001BC1000019C100000C94291519
S113006015C100000C94A3100C94A3110FC100003F
S11300700DC100000BC1000009C1000007C1000050
S113008005C1000003C1000001C10000FFC0000061
S11300900C94E3100C94E211F9C000000C940D0EC2
S11300A0F5C00000F3C00000F1C00000EFC0000084
S11300B0EDC00000EBC00000E9C00000E7C0000094
S11300C0E5C00000E3C00000E1C000000C9423116F
S11300D00C942112DBC000000C9463110C94601288
S11300E0D5C0000028162C161C16221671163016C0
S11300F036163C16421648164E1654165A167116E3
S1130100601666166C160000090A02080B0C0D072F
S113011006030401000000000000000000000000CD
S113012000000000000000000000000000000000CB
S1130130000011100F00000000000000000000008B
S11301400000000000000000000000000102102078
S113015020080810204010204080020102010804F9
S1130160020101020408102040808040201008048D
S113017002018004020180402010080402010804E6
S1130180020101020408102040800102040810202A
S11301904080050505050705080808080202020253
S11301A00A0A08080404040401010101010101010F
S11301B00303030303030303040707070C0C0C0CDA
S11301C00C0C0C0C020202020606060606060606C3
S11301D00B0B0B0B0B0B0B0B00002000230026005A
S11301E029002C002F003200000100000301060149
S11301F0090100002200250028002B002E003100F8
S1130200340002010000050108010B010000210077
S1130210240027002A002D003000330001010000D3
S1130220040107010A0140020510661311241FBED0
S1130230CFEFD1E2DEBFCDBF00E00CBF12E0A0E003
S1130240B2E0EAEDFDE200E00BBF02C007900D92C0
S1130250AE3AB107D9F72AE1AEEAB2E001C01D9285
S1130260AC3BB207E1F712E0CCE2D2E000E006C01A
S113027022970109FE010BBF0E94DE16C632D10788
S113028080E00807A9F79DD00C94EB16B9CE089529
S1130290C9E3D0E020E049E150E060E070E0809103
S11302A0AE029091AF0287D7813081F56AE072E0A7
S11302B081E798E10E948B1482EC92E025D48C01B2
S11302C067E172E081E798E10E945B14C801BE0116
S11302D00E94A2164AE050E081E798E10E942315AB
S11302E060E272E081E798E10E948B1420E040E034
S11302F050E060E070E08091AE029091AF02CED603
S11303000ED588EE93E00E94F40BC4CF63E272E052
S113031081E798E10E948B14FFCFC9E3D0E020E08D
S113032049E150E060E070E08091AE029091AF024C
S113033042D7813081F560E572E081E798E10E945F
S11303408B1480EB92E0E0D38C016DE572E081E7E1
S113035098E10E945B14C801BE010E94A2164AE003
S113036050E081E798E10E94231560E272E081E7A2
S113037098E10E948B1420E040E050E060E070E0DF
S11303808091AE029091AF0289D6C9D488EE93E0F1
S11303900E94F40BC4CF63E272E081E798E10E940B
S11303A08B14FFCF89EB97E10E94D00F40E052EC11
S11303B061E070E081E798E10E94E31284ED92E04D
S11303C0CDC2AF92BF92CF92DF92EF92FF920F9382
S11303D0CF93DF9300D000D0CDB7DEB70E94B01525
S11303E0E1DF43E060E081E032D69093AF02809396
S11303F0AE02009731F020E040E050E060E070E0B1
S11304004DD6A12CB12CC12CD12CCE0105967C014A
S113041001E020E030E040E058E066E672E088E485
S113042091E0ABD7CE0103967C0102E020E030E0FE
S113043040E058E063E772E08DE891E09ED7CE019A
S113044001967C0103E020E030E040E058E060E801
S113045072E087E491E091D70E94A70A80E090E0DF
S113046026960FB6F894DEBF0FBECDBFDF91CF91B5
S11304700F91FF90EF90DF90CF90BF90AF900895D1
S113048084ED92E043D228EC30E04BE06CE082EC67
S113049092E074D228EC30E049E06AE080EB92E02C
S11304A06DC2CF93DF93EC010E94D70A8091E302DF
S11304B09091E402892B31F488EE92E09093E40267
S11304C08093E3022091E5023091E602CE01820F8F
S11304D0931F8F3F43E1940770F42817390758F4AA
S11304E0C091E302D091E402C20FD31F9093E602BD
S11304F08093E50202C0C0E0D0E00E94890BCE01E7
S1130500DF91CF9108950895EF92FF920F931F9377
S1130510CF93DF931F921F92CDB7DEB7062F142F10
S1130520682F89EB97E129833A830E94E70F602FB4
S113053089EB97E10E94920F2981022FE22E3A81E2
S1130540F32E8E2D801B811740F4F70161917F01FA
S113055089EB97E10E94920FF4CF89EB97E10E9417
S1130560031081E00F900F90DF91CF911F910F91B5
S1130570FF90EF900895CF93DF931F92CDB7DEB72E
S113058049839E012F5F3F4F41E0BEDF0F90DF9113
S1130590CF9108953F924F925F926F927F928F9284
S11305A09F92AF92BF92CF92DF92EF92FF920F93FE
S11305B01F93CF93DF9300D000D0CDB7DEB7682E62
S11305C0562E742E3A8329830E9473156B017C0185
S11305D0312C412C872D90E09C838B834801A12CE6
S11305E0B12C3714B0F5662D89EB97E10E94E70F23
S11305F0652D89EB97E10E94920F89EB97E10E94A8
S11306000310662D89EB97E10E94E70F4B815C8113
S1130610431951094132510514F040E250E0662D6E
S113062089EB97E10E94E50F89EB97E10E943B0F6C
S1130630892B59F10115110599F10E9473156C1953
S11306407D098E099F09681579058A059B0540F186
S11306501CC001151105A9F10E9473156C197D09BF
S11306608E099F0920E030E0601771078207930725
S113067040F1872D90E0242D332727FD309528174E
S11306803907FCF444244A941CC089EB97E10E9486
S11306900310872D90E2971508F480E2380EA1CF5D
S11306A0E981FA81E40DF11D47FCFA95FE83ED839F
S11306B089EB97E10E94430FED81FE81808343948F
S11306C0B3CF842D26960FB6F894DEBF0FBECDBFF0
S11306D0DF91CF911F910F91FF90EF90DF90CF901A
S11306E0BF90AF909F908F907F906F905F904F904E
S11306F03F9008950F931F9389019A0141E04ADFC7
S11307001F910F910895EF92FF920F931F93CF9330
S1130710DF931F92CDB7DEB7182F062FF42EE22EEB
S11307202091060230910702AE014F5F5F4FE2DF76
S1130730898121E030E00F2C01C0220F0A94EAF7EE
S1130740EE2019F0482F422B03C0422F4095482336
S11307504983602F812F0FDF0F90DF91CF911F917D
S11307600F91FF90EF900895DF92EF92FF920F9315
S11307701F93CF93DF931F92CDB7DEB7F82EE62EEB
S1130780D42E122F2091060230910702AE014F5F42
S11307905F4FB0DF882311F14D2D50E0411B51090B
S11307A04F5F5F4FE1E0F0E002C0EE0FFF1F1A95CC
S11307B0E2F73197042E01C0EE0F0A94EAF701C064
S11307C0000F4A95EAF74E2F409589814823E0238C
S11307D04E2B49836E2D8F2DCEDE01C080E00F900D
S11307E0DF91CF911F910F91FF90EF90DF900895CB
S11307F0FC010396928381832FEF3FEF348323839D
S1130800968385839087878310820895FC011186DF
S113081010860895CF93DF939C01FB01DC011196B0
S1130820CD91DC911297D383C2838C819D81958372
S113083084838C819D81DC0113967C936E93129743
S11308407D836C8331872087F90180818F5F80836A
S1130850DF91CF9108950F931F93CF93DF938C0172
S1130860FB01208131812F3F8FEF380721F4E8010C
S1130870AF81B8850EC0D801139612968D919C91C4
S11308801397EC01488159812417350710F0DC01D6
S1130890F4CF12968D919C91139793838283EC01EC
S11308A0FD83EC83B583A4831396FC93EE93129794
S11308B011870087F80180818F5F8083DF91CF915A
S11308C01F910F910895CF93DF93FC01A085B1850B
S11308D08281938124813581EC013D832C83C48101
S11308E0D5819B838A8311968D919C9112978E1743
S11308F09F0721F41296DC93CE93119711861086EC
S11309008C9181508C93DF91CF91089528E6FC015E
S1130910208308950F93062F22E044E06BE1FC014D
S1130920808122DF0F9108950F93062F22E044E087
S11309306CE1FC01808118DF0F910895262F46E0B9
S11309406BE6FC018081DFCE0F93062F23E042E0AB
S11309506BE6FC01808108DF0F910895CF93DF934C
S1130960EC0161E0F1DF60E0CE01D4DF60E0CE01B4
S1130970DBDF60E0CE01DF91CF91E0CFCF93DF9357
S1130980DC0170E0FB01E45BFE4FE4911496EC9310
S11309901497842F90E0FC01E45BFE4FE4911596DC
S11309A0EC9315976E567E4FFB01C491D0E0CC0FAB
S11309B0DD1FCE50DE4FFE014591549117965C9396
S11309C04E931697FC01EE56FE4F849190E0880FEB
S11309D0991F88529E4FFC01459154911B965C933C
S11309E04E931A97FB016491E62FF0E0EE0FFF1F80
S11309F0E45FFD4F8591949119969C938E9318977B
S1130A00C901253FF1E03F0714F084EF91E049E389
S1130A10489F9001499F300D1124245E3F4F1D963D
S1130A203C932E931C97DF91CF9108950F931F93BE
S1130A30CF93DF93EC01E885F98580819C81892B34
S1130A408083EE81FF8190818C81809589238083CE
S1130A5084E090E00E94A515EE81FF8180819C8155
S1130A60892B80838AE090E00E94A515EE81FF81A6
S1130A7090818C81809589238083E885F985908194
S1130A808C818095892380830E947F15605B794BDC
S1130A908F4F9F4F6E877F87888B998BEA85FB8565
S1130AA080819D81892359F00E947F150E851F85C1
S1130AB028893989061717072807390778F7EA8537
S1130AC0FB8580819D81892369F40E947F150E85B1
S1130AD01F8528893989061717072807390778F7E2
S1130AE080E00DC00E947F152C853D85620F731F29
S1130AF0811D911D6E877F87888B998B81E0DF91A3
S1130B00CF911F910F9108950F931F93CF93DF936C
S1130B10EC018CDF882389F0EA85FB8580819D8147
S1130B20892371F00E947F150E851F8528893989D4
S1130B30061717072807390778F720E030E00CC0BC
S1130B400E947F152C853D85255031094E855F8592
S1130B50241B350B260F371FC901DF91CF911F913D
S1130B600F9108951F920F920FB60F9211240BB696
S1130B700F922F933F934F935F936F937F938F9332
S1130B809F93AF93BF93EF93FF93E091E716F09198
S1130B90E816309709F01995FF91EF91BF91AF9145
S1130BA09F918F917F916F915F914F913F912F9181
S1130BB00F900BBE0F900FBE0F901F90189531E150
S1130BC0FC013083319722E220833197A3E3A08391
S1130BD031976083319770833197108231971082F7
S1130BE0319760E860833197108231971082319792
S1130BF01082319762E06083319763E060833197BC
S1130C0064E06083319765E06083319766E06083D8
S1130C10319767E06083319768E06083319769E0DA
S1130C206083319760E1608331973083319732E19B
S1130C303083319733E13083319734E13083319716
S1130C4035E13083319736E13083319737E13083B2
S1130C50319738E13083319739E13083319730E28D
S1130C603083319731E2308331972083319723E207
S1130C7020833197408331975083319726E2208334
S1130C80319727E22083319728E22083319729E2A4
S1130C902083319720E32083319721E320838997B0
S1130CA008951092800081E18093810080E49FE1A7
S1130CB0909387008093860081E080936F00A091D9
S1130CC04917B0914A17CD91CDBFDD91DEBFFF9199
S1130CD0EF91DF91CF91BF91AF919F918F917F91D0
S1130CE06F915F914F913F912F911F910F91FF90C1
S1130CF0EF90DF90CF90BF90AF909F908F907F90B8
S1130D006F905F904F903F902F901F900F900CBE6C
S1130D100F900BBE0F900FBE0F90089508950F9281
S1130D200FB6F8940F920CB60F920BB60F921F9257
S1130D3011242F923F924F925F926F927F928F92E3
S1130D409F92AF92BF92CF92DF92EF92FF920F9356
S1130D501F932F933F934F935F936F937F938F933F
S1130D609F93AF93BF93CF93DF93EF93FF93A091A0
S1130D704917B0914A170DB60D920EB60D9284D54F
S1130D80A0914917B0914A17CD91CDBFDD91DEBF37
S1130D90FF91EF91DF91CF91BF91AF919F918F918F
S1130DA07F916F915F914F913F912F911F910F917F
S1130DB0FF90EF90DF90CF90BF90AF909F908F9077
S1130DC07F906F905F904F903F902F901F900F9067
S1130DD00CBE0F900BBE0F900FBE0F9008950F9294
S1130DE00FB6F8940F920CB60F920BB60F921F9297
S1130DF011242F923F924F925F926F927F928F9223
S1130E009F92AF92BF92CF92DF92EF92FF920F9395
S1130E101F932F933F934F935F936F937F938F937E
S1130E209F93AF93BF93CF93DF93EF93FF93A091DF
S1130E304917B0914A170DB60D920EB60D92BDD357
S1130E40811122D5A0914917B0914A17CD91CDBFF8
S1130E50DD91DEBFFF91EF91DF91CF91BF91AF9113
S1130E609F918F917F916F915F914F913F912F91BE
S1130E701F910F91FF90EF90DF90CF90BF90AF90B4
S1130E809F908F907F906F905F904F903F902F90A6
S1130E901F900F900CBE0F900BBE0F900FBE0F90C3
S1130EA008959DDF18951F93CF93DF93EC01142FC2
S1130EB04C8D4423D1F150E0111115C08C819D81DA
S1130EC00E94E2162C8D8C819D81820F911D9D8341
S1130ED08C832A813B818217930738F18881998119
S1130EE09D838C8322C08E819F810E94E2162C8D6B
S1130EF030E03195219531098E819F81820F931FB6
S1130F009F838E83688179818617970730F48A815D
S1130F109B81820F931F9F838E83123031F48A8DBD
S1130F20882319F08A8D81508A8F8A8D8F5F8A8FEA
S1130F3080E0DF91CF911F910895FC01CB01448D96
S1130F404423A1F050E026813781240F351F3783D5
S1130F502683628173812617370720F0208131812F
S1130F6037832683668177810C94E21608950F9364
S1130F701F93CF93DF93EC010FB6F8940F928C017B
S1130F800F5E1F4F8E8D18165CF48989882341F0FB
S1130F90C801E5D481115FD58E8D81508E8FF2CF3B
S1130FA08FEF8E8F0F900FBE0FB6F8940F928E01B5
S1130FB0085F1F4F8D8D18165CF48885882341F0D7
S1130FC0C801CDD4811147D58D8D81508D8FF2CF3D
S1130FD08FEF8D8F0F900FBEDF91CF911F910F91E7
S1130FE00895CF93DF93EC010FB6F8940F92288104
S1130FF039818B8D7C8D879FC0011124A901480FF5
S1131000591F5B834A831A8E3D832C83871B910966
S1131010820F931F9F838E838FEF8D8F8E8F61112D
S11310200AC08885882369F0CE01089698D4813057
S113103041F475DE06C0CE010896DADBCE01419696
S1131040D7DB0F900FBE81E0DF91CF9108950F930E
S11310501F93CF93DF93182F062F8823B9F08FE1C6
S113106090E01FDAEC01009789F0109FC001112471
S1131070019617DA99838883892B31F01B8F0C8FA3
S113108061E0CE01AEDF04C0CE013DDAC0E0D0E0C5
S1131090CE01DF91CF911F910F910895BF92CF920E
S11310A0DF92EF92FF920F931F93CF93DF9300D0C1
S11310B01F921F92CDB7DEB78C016B015D834C8309
S11310C0B22E20E07C0188E0E80EF11C0FB6F89403
S11310D00F92F801928D838D981718F0F2E0BF12E9
S11310E015C04B2DB601C801DEDEF80191899923A4
S11310F039F0C801419633D4813021F410DE02C0A6
S11311008111FCCF0F900FBE81E046C08C819D8180
S1131110892B19F40F900FBE3EC0211103C0CE01DC
S113112001965DD40F900FBE42D20FB6F8940F9281
S1131130F801858D8F3F09F4158EF801868D8F3F58
S113114009F4168E0F900FBEBE016C5F7F4FCE0167
S1131150019650D481111CC00FB6F8940F92F80177
S1131160928D0F900FBEF801838D98130DC06C8182
S11311707D81C701C9D3C801FADECBD2882311F01F
S113118021E0A4CFCCDDFCCFC801F1DEC2D2F8CF80
S1131190C801EDDEBED280E00F900F900F900F904B
S11311A00F90DF91CF911F910F91FF90EF90DF90FF
S11311B0CF90BF900895BF92CF92DF92EF92FF92AB
S11311C00F931F93CF93DF9300D01F921F92CDB73D
S11311D0DEB78C016B015D834C83B22E30E07C0161
S11311E081E1E80EF11C0FB6F8940F92F801828D9C
S11311F0882319F1E680F780B601C8019EDEF80164
S1131200B1100DC0828D8150828F8085882389F032
S1131210C8010896A4D3813061F481DD0AC0F78245
S1131220E6828189882329F0C801419698D38111E7
S1131230F4CF0F900FBE81E044C08C819D81892B37
S113124019F40F900FBE3CC0311103C0CE010196BA
S1131250C6D30F900FBEABD10FB6F8940F92F8011E
S1131260858D8F3F09F4158EF801868D8F3F09F423
S1131270168E0F900FBEBE016C5F7F4FCE0101969C
S1131280B9D381111AC00FB6F8940F92F801828D68
S11312900F900FBE81110DC06C817D81C70134D3C5
S11312A0C80165DE36D2882311F031E09CCF37DDEA
S11312B0FCCFC8015CDE2DD2F8CFC80158DE29D29C
S11312C080E00F900F900F900F900F90DF91CF91CF
S11312D01F910F91FF90EF90DF90CF90BF900895F2
S11312E0E0911117F09112178081811103C08FEFE3
S11312F09FEF0CC0E0911117F09112170580F68151
S1131300E02D0680F781E02D82819381909309027C
S1131310809308020895CF93DF93EC01E09149177D
S1131320F0914A17938382838091F0169091F1167D
S11313306091491770914A17C817D90748F48091EA
S11313400F17909110176E5F7F4FDF91CF9183CA73
S113135080911117909112176E5F7F4F7CDA809104
S1131360080290910902C817D90720F4D093090202
S1131370C0930802DF91CF9108955F926F927F929C
S11313808F929F92AF92BF92CF92DF92EF92FF9291
S11313900F931F93CF93DF934C01162F572E5A01AF
S11313A0390181E290E07DD8EC01009709F4BEC0D8
S11313B0C114D10419F4C50174D801C0C601988FB1
S11313C08F8B009719F4CE019ED8B0C021E0A21AE9
S11313D0B108A80EB91EE12FF52D80E090E0BF0101
S11313E041919E01280F391FD90159964C93DB0175
S11313F02C91222321F001968830910581F718A2BF
S1131400102F043008F013E01E8B6E01B2E0CB0EF7
S1131410D11CC601FBD9CE010C96F8D9D987C8874F
S113142084E090E0811B91099D878C87DB8BCA8BBC
S1131430A301B401C501C3DB99838883E114F104DA
S113144019F0F701D183C0830FB6F8940F928091FD
S1131450F2168F5F8093F2168091491790914A1784
S1131460892B89F5D0934A17C09349178091F216B6
S1131470813009F037C085E297E1BAD98EE297E16D
S1131480B7D987E397E1B4D980E497E1B1D98CE186
S113149097E1AED983E197E1ABD986E097E1A8D98A
S11314A08DEF96E1A5D983EF96E1A2D98CE197E17E
S11314B0909312178093111783E197E1909310177B
S11314C080930F170FC08091EE1681110BC0E0912D
S11314D04917F0914A178689081720F0D0934A17C4
S11314E0C09349178091EA168F5F8093EA168E891C
S11314F09091EF16981710F48093EF16F9E08F9FF0
S1131500C0011124B6018B5D984E84D90F900FBE93
S11315108091EE16882341F0E0914917F0914A1723
S11315208689801708F4FBDB81E001C08FEFDF912F
S1131530CF911F910F91FF90EF90DF90CF90BF90CC
S1131540AF909F908F907F906F905F900895AF922F
S1131550BF92CF92DF92EF92FF920F93A12CB12C06
S1131560C12CD12CE12CF12C00E020E030E045E549
S113157050E068E872E084E19CE0FFDE813079F4B9
S1131580F8948093EE161092F1161092F0160F91C3
S1131590FF90EF90DF90CF90BF90AF9082CB0F91F0
S11315A0FF90EF90DF90CF90BF90AF90089580911F
S11315B0E9168F5F8093E9160895CF92DF92EF9238
S11315C0FF920F931F93CF93DF938091E9168111BC
S11315D08AC08091F0169091F11601969093F116BD
S11315E08093F0160091F0161091F1160115110573
S11315F0B1F4809111179091121720910F17309127
S1131600101730931217209311179093101780938B
S11316100F178091EB168F5F8093EB1661DE80913C
S1131620080290910902D12C0817190708F44AC03E
S113163089E0C82EE0911117F09112178081811171
S113164007C08FEF9FEF90930902809308023AC07E
S1131650E0911117F09112170580F681E02DC681F3
S1131660D7812A813B810217130728F4309309029A
S11316702093080227C07E0182E0E80EF11CC70116
S113168022D92C893D89232B19F0CE010C961BD924
S11316902E898091EF16821710F42093EF16C29EC4
S11316A0C0011124B7018B5D984EB4D8E09149175D
S11316B0F0914A179E898689981708F4BBCFDD24D8
S11316C0D394B8CFE0914917F0914A17E68989E09D
S11316D0E89FF0011124EB5DF84E8081823048F0E0
S11316E0DD24D39406C08091ED168F5F8093ED16B0
S11316F0D12C8091EC16882311F0DD24D3948D2D08
S1131700DF91CF911F910F91FF90EF90DF90CF90D9
S11317100895EF92FF920F931F93CF93DF930FB629
S1131720F8940F928091E91681508093E916809184
S1131730E916882311F080E04EC08091F2168823C8
S1131740D1F399E0F92EEE24E394809106178823CF
S113175039F1E0910B17F0910C17C681D781CE01B6
S11317600C96B1D88E010E5F1F4FC801ACD88E897C
S11317709091EF16981710F48093EF16F89EC0011D
S11317801124B8018B5D984E45D8E0914917F0912A
S11317904A179E8986899817C0F2E092EC16D5CF35
S11317A08091ED16811108C08091EC16813009F00A
S11317B0C2CFB5DA81E00FC0C1E08091ED16882375
S11317C099F3FBDE8111C093EC168091ED168150E4
S11317D08093ED16F2CF0F900FBEDF91CF911F9142
S11317E00F91FF90EF9008950F931F93CF93DF9382
S11317F08C01009711F493DA12C0D9DEC091F0166F
S1131800D091F116C00FD11F8091491790914A17BA
S1131810029659D8CE017FDD7CDF882361F3DF9106
S1131820CF911F910F9108958091FC16882331F177
S1131830BEDEC091FD166DDFCC23B1F30FB6F89474
S11318400F92E0910217F0910317C681D781CE0160
S1131850029639D88091F21681508093F2168091C5
S1131860FC1681508093FC160F900FBE8F89988DC3
S11318700E948302CE010E948302D6CF8091251755
S1131880823090F24CDAD0CF8091E916882321F08F
S113189081E08093EC1608951092EC1699E0E091A3
S11318A0EF169E9FF0011124EB5DF84E80818111AB
S11318B006C08091EF1681508093EF16F0CFE0912F
S11318C0EF1689E0E89FF0011124EB5DF84EA18149
S11318D0B28112960D90BC91A02DB283A183CF0149
S11318E00396A817B90731F412968D919C9113971A
S11318F0928381830180F281E02D86819781909388
S11319004A17809349170895CF93DF93EB016091B1
S1131910491770914A17645F7F4F0E942B0480918E
S1131920491790914A1702960E946304CF3F8FEFA4
S1131930D80761F46091491770914A176E5F7F4F21
S113194083EF96E1DF91CF910C940A048091F01615
S11319509091F1168C0F9D1FDF91CF91DCCC0F93EA
S11319601F93CF93DF93DC011596ED91FC911697AD
S1131970C681D7818E01045F1F4FC8010E94630492
S11319808091E916811114C00A501109C8010E94FE
S113199063048E899091EF16981710F48093EF16D4
S11319A0B9E08B9FC0011124B8018B5D984E03C030
S11319B0B80186E097E10E940A04E0914917F0918A
S11319C04A179E898689891720F481E08093EC1652
S11319D001C080E0DF91CF911F910F910895209174
S11319E0EB16FC0120832091F0163091F11632831E
S11319F021830895CF93DF930FB6F8940F92E0916B
S1131A00F016F091F116DB014D915C914F3FBFEF61
S1131A105B07C9F0B091EB16EC01A88129813A81EA
S1131A20BA1719F0E217F30780F4DF01A21BB30B16
S1131A30A417B50750F42E1B3F0B240F351FFB01D1
S1131A4031832083CCDF80E001C081E00F900FBEA2
S1131A50DF91CF91089581E08093EC160895109260
S1131A60B81781E08093B6171092B51761E084E14E
S1131A700E94721661E085E10E947216E9EBF0E0C3
S1131A8080818E7F808380818D7F808388E48093B2
S1131A90B80085E48093BC000895413208F03FC04B
S1131AA09091B8179111FCCF91E09093B8172093BF
S1131AB0B6172FEF20934B1710929017240F2093F3
S1131AC08F179093B7179091B717880F892B80932E
S1131AD0B7178091B517813041F41092B5178091F2
S1131AE0B7178093BB0085EC01C085EE8093BC00E2
S1131AF08091B8178130E1F380919017841710F426
S1131B004091901721E937E1FB01D9018A2F821B0B
S1131B10841718F48D918193F9CF842F089580E070
S1131B2008950F93413208F046C09091B81791116F
S1131B30FCCF92E09093B8170093B6179FEF909361
S1131B404B171092901740938F17FB0161E977E1CF
S1131B50DB019A2F961B941718F491919D93F9CF5A
S1131B601092B7179091B717880F892B8093B717E6
S1131B708091B517813041F41092B5178091B71751
S1131B808093BB0085EC01C085EE8093BC002223CA
S1131B9021F08091B8178230E1F380914B178F3F89
S1131BA061F080914B17803251F080914B17803354
S1131BB041F483E007C081E005C080E003C082E017
S1131BC001C084E00F910895613298F42091B81710
S1131BD0243089F460936D17FC018FE697E1DC01F2
S1131BE02A2F281B261718F421912D93F9CF80E072
S1131BF0089581E0089582E0089585ED8093BC0006
S1131C008091BC0084FDFCCF1092B817089585EC38
S1131C108093BC001092B81708951F920F920FB6CC
S1131C200F9211240BB60F922F933F934F935F9310
S1131C306F937F938F939F93AF93BF93EF93FF9390
S1131C408091B900887F803609F49CC068F5883299
S1131C5009F45BC090F4803109F454C038F488234B
S1131C6009F4F3C0883009F44DC0F2C0883109F496
S1131C704CC0803209F45DC0EBC0803409F468C004
S1131C8048F4803309F455C0883309F0E1C08093E7
S1131C904B17A7C0803509F44FC0883509F45DC0DF
S1131CA0883409F0D5C0D3C0883909F4C4C0A8F475
S1131CB0883709F467C038F4883609F463C080377C
S1131CC009F460C0C5C0883809F4B5C0803909F486
S1131CD05FC0803809F0BCC05BC0803B09F483C09E
S1131CE038F4803A09F466C0883A09F47CC0B0C07C
S1131CF0803C09F4A4C0883C09F4A1C0883B09F4E1
S1131D0087C0A6C08091B71710C09091901780919A
S1131D108F17981770F5E091901781E08E0F8093DC
S1131D209017F0E0EF56F84E80818093BB0085EC6D
S1131D3083C080934B178BC0E091901781E08E0F86
S1131D40809390178091BB00F0E0EF56F84E8083AB
S1131D509091901780918F176BC0E091901781E05C
S1131D608E0F809390178091BB00F0E0EF56F84EF1
S1131D7080838091B61781116AC081E08093B51782
S1131D8084EA5EC083E08093B81710924C17CFCFDB
S1131D9080914C17803208F04EC0E0914C1781E0DE
S1131DA08E0F80934C178091BB00F0E0E35BF84EFC
S1131DB08083BDCF80914C17803230F4E0914C1772
S1131DC0F0E0E35BF84E108218DF60914C1770E08E
S1131DD0E091B117F091B2178DE497E11995109243
S1131DE04C1715DF35C084E08093B81710926E1736
S1131DF010926D17E091B317F091B4171995809173
S1131E006D17811105C081E080936D1710926F17D3
S1131E10E0916E1781E08E0F80936E17F0E0E15928
S1131E20F84E80818093BB0090916E1780916D175E
S1131E30981708F47CCF85E88093BC0009C085EC32
S1131E408093BC001092B81703C010924B17D5DED4
S1131E50FF91EF91BF91AF919F918F917F916F917E
S1131E605F914F913F912F910F900BBE0F900FBE3A
S1131E700F901F9018958091E91790E02091EA1730
S1131E80821B910908952091EA178091E917281778
S1131E9050F4E22FF0E0E551F84E808190E02F5F9E
S1131EA02093EA1708958FEF9FEF0895E091EA17C2
S1131EB08091E917E81730F4F0E0E551F84E80819D
S1131EC090E008958FEF9FEF08950895CF92DF92E9
S1131ED0EF92FF920F931F93CF93DF937C01CB017B
S1131EE08A012091C517222389F0EB016B01C40EEE
S1131EF0D51ECC15DD0561F06991D701ED91FC91FA
S1131F000190F081E02DC7011995F3CF642F5CDEB9
S1131F10C801DF91CF911F910F91FF90EF90DF9057
S1131F20CF900895CF93DF931F92CDB7DEB7698327
S1131F302091C5172223D1F02091C617203240F0FA
S1131F4021E030E0FC013383228380E090E014C080
S1131F508091C717E82FF0E0E853F84E99819083F9
S1131F608F5F8093C7178093C61704C061E0CE01CA
S1131F7001962ADE81E090E00F90DF91CF910895E1
S1131F80FC011382128248EE53E060E070E0448367
S1131F9055836683778381E992E0918380830895F2
S1131FA01092EA171092E9171092C7171092C617E9
S1131FB056CD862F413208F040E26BEE77E16DDDBD
S1131FC01092EA178093E917089521E0F2CF81E097
S1131FD08093C5176093E8171092C7171092C6171D
S1131FE008950F93062F21E04091C61768EC77E11E
S1131FF08091E81796DD1092C7171092C6171092B9
S1132000C5170F91089561E0ECCF89EB97E1B8CF44
S1132010FC0124853585F901E05CFF4F80819181C5
S1132020329620813181821B930B8F7399270895F7
S1132030FC0184859585FC01E05CFF4F4081518162
S11320403296208131814217530741F0208131813A
S1132050FC01E20FF31F808190E008958FEF9FEF62
S11320600895FC0184859585FC01E05CFF4F408167
S113207051813296208131814217530781F02081AA
S11320803181DC01A20FB31F8C91208131812F5F3C
S11320903F4F2F7333273183208390E008958FEFD0
S11320A09FEF0895FC0181A1882329F0A489B589B3
S11320B08C9186FFFBCF11A208951F93CF93DF93DA
S11320C0EC018E859F85FC01E05CFF4F0190F0815F
S11320D0E02D3196EF73FF271E2F7F2FDC01AE5BBF
S11320E0BF4F212F372F4D915C911197E417F507BE
S11320F0C1F3FC01E05CFF4F40815181FC01E40F1E
S1132100F51F6083EE85FF85E05CFF4F31832083FC
S1132110EE89FF89408121E030E0C9010F8C02C0C3
S1132120880F991F0A94E2F7842B808381E089A3A6
S1132130EC89FD8980818064808381E090E0DF9177
S1132140CF911F9108951F920F920FB60F921124F1
S11321500BB60F922F933F934F938F939F93AF930D
S1132160BF93EF93FF938091C00082FD1AC040910A
S1132170C6008091AF1A9091B01A01968F73992777
S11321802091B11A3091B21A8217930761F0EFEAE5
S1132190FAE1A081B181A159B54E4C93918380831A
S11321A002C08091C600FF91EF91BF91AF919F91C2
S11321B08F914F913F912F910F900BBE0F900FBEB7
S11321C00F901F9018951F920F920FB60F92112423
S11321D00BB60F922F933F934F938F939F93AF938D
S11321E0BF93EF93FF938091C80082FD1AC0409182
S11321F0CE008091271A9091281A01968F739927FF
S11322002091291A30912A1A8217930761F0E7E284
S1132210FAE1A081B181A951B64E4C939183808398
S113222002C08091CE00FF91EF91BF91AF919F9139
S11322308F914F913F912F910F900BBE0F900FBE36
S11322400F901F9018951F920F920FB60F921124A2
S11322500BB60F922F933F934F938F939F93AF930C
S1132260BF93EF93FF938091D00082FD1AC04091F9
S1132270D60080919F199091A01901968F73992788
S11322802091A1193091A2198217930761F0EFE907
S1132290F9E1A081B181A15AB64E4C939183808318
S11322A002C08091D600FF91EF91BF91AF919F91B1
S11322B08F914F913F912F910F900BBE0F900FBEB6
S11322C00F901F9018951F920F920FB60F92112422
S11322D00BB60F922F933F934F938F939F93AF938C
S11322E0BF93EF93FF938091300182FD1AC0409118
S11322F03601809117199091181901968F739927B7
S11323002091191930911A198217930761F0E7E1A6
S1132310F9E1A081B181A952B74E4C939183808396
S113232002C080913601FF91EF91BF91AF919F91CF
S11323308F914F913F912F910F900BBE0F900FBE35
S11323400F901F9018951F920F920FB60F921124A1
S11323500BB60F922F933F938F939F93AF93BF939B
S1132360EF93FF9320916B1A30916C1A80916D1A40
S113237090916E1A2817390731F4E1ECF0E080816E
S11323808F7D808310C0EDE6FAE1A081B181A55D67
S1132390B54E2C918081918101968F7399279183F9
S11323A080832093C600FF91EF91BF91AF919F91DD
S11323B08F913F912F910F900BBE0F900FBE0F90F6
S11323C01F9018951F920F920FB60F9211240BB6FF
S11323D00F922F933F938F939F93AF93BF93EF935A
S11323E0FF932091E3193091E4198091E5199091BC
S11323F0E6192817390731F4E9ECF0E080818F7D84
S1132400808310C0E5EEF9E1A081B181AD55B64EEF
S11324102C918081918101968F7399279183808378
S11324202093CE00FF91EF91BF91AF919F918F9137
S11324303F912F910F900BBE0F900FBE0F901F90E6
S113244018951F920F920FB60F9211240BB60F928C
S11324502F933F938F939F93AF93BF93EF93FF93E8
S113246020915B1930915C1980915D1990915E19EE
S11324702817390731F4E1EDF0E080818F7D808306
S113248010C0EDE5F9E1A081B181A55EB64E2C91B5
S11324908081918101968F73992791838083209302
S11324A0D600FF91EF91BF91AF919F918F913F9192
S11324B02F910F900BBE0F900FBE0F901F90189589
S11324C01F920F920FB60F9211240BB60F922F93F7
S11324D03F938F939F93AF93BF93EF93FF93209179
S11324E0D3183091D4188091D5189091D618281704
S11324F0390731F4E1E3F1E080818F7D808310C0FE
S1132500E5EDF8E1A081B181AD56B74E2C91808103
S1132510918101968F73992791838083209336014B
S1132520FF91EF91BF91AF919F918F913F912F9127
S11325300F900BBE0F900FBE0F901F9018958F92A7
S11325409F92AF92BF92CF92DF92EF92FF920F933E
S11325501F93CF93DF93CDB7DEB7FC0113821282B2
S113256088EE93E0A0E0B0E084839583A683B783EC
S113257081EA92E0918380837587648757874687D1
S1132580318B208B138B028BF58AE48AD78AC68A17
S1132590B18EA08E938E828E8889848F8989858F4F
S11325A08A89868F8B89878F8C8980A3DF91CF91CD
S11325B01F910F91FF90EF90DF90CF90BF90AF905D
S11325C09F908F900895CF92DF92EF92FF92CF93D6
S11325D0DF93EC016A017B01411581EE5807610527
S11325E0710501F1EC89FD8981E090E008A002C049
S11325F0880F991F0A94E2F7808360E079E08DE305
S113260090E0A7019601B2D3BA01A9014150510942
S1132610610971097695679557954795411580E14C
S11326205807A0F0EC89FD89108260E874E88EE117
S113263090E0A70196019AD3BA01A901415051092A
S1132640610971097695679557954795E889F989E0
S11326505083EA89FB89408319A2EE89FF8940816E
S113266081E090E09C010C8C02C0220F331F0A947D
S1132670E2F7242B2083EE89FF8940819C010D8C95
S113268002C0220F331F0A94E2F7242B2083EE8921
S1132690FF8940819C010E8C02C0220F331F0A94D3
S11326A0E2F7242B2083EE89FF8920810F8C02C05E
S11326B0880F991F0A94E2F7809582238083DF9123
S11326C0CF91FF90EF90DF90CF9008955F926F923B
S11326D07F928F929F92AF92BF92CF92DF92EF92AE
S11326E0FF920F931F93CF93DF93552453945F92DC
S11326F00F2EF5E06F2EF02D6F920F2EF7E07F2E48
S1132700F02D7F92D3E0DF93C4E0CF930F2EF6EC4D
S11327108F2E912CF02D0F2EF2ECAF2EB12CF02D2C
S11327200F2EF1ECCF2ED12CF02D0F2EF0ECEF2E3E
S1132730F12CF02D04EC10E025EC30E04BE25AE1F2
S11327406FE67AE181E798E1FADE5F926F927F9219
S1132750DF93CF930F2EFEEC8F2E912CF02D0F2EA6
S1132760FAECAF2EB12CF02D0F2EF9ECCF2ED12C8C
S1132770F02D0F2EF8ECEF2EF12CF02D0CEC10E0D8
S11327802DEC30E043EA59E167EE79E18FE498E11A
S1132790D6DE5F926F927F92DF93CF930F2EF6ED8A
S11327A08F2E912CF02D0F2EF2EDAF2EB12CF02D9B
S11327B00F2EF1EDCF2ED12CF02D0F2EF0EDEF2EAC
S11327C0F12CF02D04ED10E025ED30E04BE159E162
S11327D06FE579E18DE298E1B2DE5F926F927F92CC
S11327E0DF93CF930F2EF6E38F2E99249394F02D3D
S11327F00F2EF2E3AF2EBB24B394F02D0F2EF1E392
S1132800CF2EDD24D394F02D0F2EF0E3EF2EFF24F2
S1132810F394F02D04E311E025E331E043E958E1BA
S113282067ED78E18BE098E18ADE8DB79EB7449638
S11328300FB6F8949EBF0FBE8DBFDF91CF911F914D
S11328400F91FF90EF90DF90CF90BF90AF909F904B
S11328508F907F906F905F900895CF92DF92EF9268
S1132860FF920F931F93CF93DF936C014115510592
S1132870B1F0062F172FEA01E12CF12CD8016D914C
S11328808D01D601ED91FC910190F081E02DC601FE
S11328901995E80EF91E2197209781F702C0E12CC3
S11328A0F12CC701DF91CF911F910F91FF90EF9011
S11328B0DF90CF9008956115710581F0FB010190BF
S11328C00020E9F73197AF01461B570BDC01ED916E
S11328D0FC910280F381E02D1995089580E090E049
S11328E00895DC01ED91FC910190F081E02D1995A2
S11328F008950F931F93CF93DF93EC016DE0F1DF05
S11329008C016AE0CE01EDDF800F911FDF91CF9142
S11329101F910F9108950F931F93CF93DF93EC01B1
S1132920CADF8C01CE01E5DF800F911FDF91CF91CB
S11329301F910F9108956F927F928F929F92AF9201
S1132940BF92CF92DF92EF92FF920F931F93CF9398
S1132950DF93CDB7DEB7A1970FB6F894DEBF0FBEF5
S1132960CDBF6C01742E352F862F972F622E19A29E
S113297021E0261520F00F2EFAE06F2EF02D7E01B7
S1132980A1E2EA0EF11C862C912CA12CB12C672D0E
S1132990732FA5019401EAD1E22F732F022F132F75
S11329A0242F352FF72D6E9EF0191124B1E0EB1A68
S11329B0F108FA3010F4F05D01C0F95CD701FC9322
S11329C0012B022B032B29F07E2E372F842F952FDA
S11329D0DECFE114F10491F0F70101900020E9F752
S11329E03197AF014E195F09D601ED91FC91028038
S11329F0F381E02DB701C601199502C080E090E093
S1132A00A1960FB6F894DEBF0FBECDBFDF91CF9174
S1132A101F910F91FF90EF90DF90CF90BF90AF90F8
S1132A209F908F907F906F9008952115310549F400
S1132A30DC01ED91FC910190F081E02D642F19955A
S1132A40089579CF08959A01AB0160E070E0EDCF6D
S1132A5008951F920F920FB60F9211242F933F9354
S1132A608F939F93AF93BF938091B41A9091B51AAB
S1132A70A091B61AB091B71A3091B31A23E0230F7C
S1132A802D3720F40196A11DB11D05C026E8230FA2
S1132A900296A11DB11D2093B31A8093B41A90938A
S1132AA0B51AA093B61AB093B71A8091B81A909138
S1132AB0B91AA091BA1AB091BB1A0196A11DB11D01
S1132AC08093B81A9093B91AA093BA1AB093BB1A08
S1132AD0BF91AF919F918F913F912F910F900FBE16
S1132AE00F901F9018952FB7F8946091B41A7091B5
S1132AF0B51A8091B61A9091B71A2FBF08953FB7AF
S1132B00F8948091B81A9091B91AA091BA1AB09118
S1132B10BB1A26B5A89B05C02F3F19F00196A11D2D
S1132B20B11D3FBFBA2FA92F982F8827820F911D5F
S1132B30A11DB11DBC01CD01660F771F881F991F10
S1132B40660F771F881F991F08950197009739F022
S1132B50880F991F880F991F02970197F1F708951D
S1132B60789484B5826084BD84B5816084BD85B564
S1132B70826085BD85B5816085BDEEE6F0E080812B
S1132B8081608083E1E8F0E010828081826080834C
S1132B90808181608083E0E8F0E0808181608083CF
S1132BA0E1EBF0E0808184608083E0EBF0E0808101
S1132BB081608083E1E9F0E08081826080838081AC
S1132BC081608083E0E9F0E0808181608083E1EAD4
S1132BD0F0E0808182608083808181608083E0EA8C
S1132BE0F0E0808181608083E1E2F1E080818260B5
S1132BF08083808181608083E0E2F1E08081816074
S1132C008083EAE7F0E08081846080838081826051
S1132C10808380818160808380818068808310923A
S1132C20C100089590E0FC013197E131F10508F00D
S1132C3058C0EE58FF4FBCC0E0E8F0E080818F77C9
S1132C4080830895E0E8F0E080818F7D808308959B
S1132C5084B58F7784BD089584B58F7D84BD089530
S1132C60E0EBF0E080818F7780830895E0EBF0E083
S1132C7080818F7D80830895E0E9F0E080818F7703
S1132C8080830895E0E9F0E080818F7D808308955A
S1132C90E0E9F0E08081877F80830895E0EAF0E056
S1132CA080818F7780830895E0EAF0E080818F7DD2
S1132CB080830895E0EAF0E08081877F808308952F
S1132CC0E0E2F1E080818F7780830895E0E2F1E033
S1132CD080818F7D80830895E0E2F1E08081877FA9
S1132CE0808308951F93CF93DF93C62F282F30E05E
S1132CF0F901EA5FFE4F8491F901E45BFE4F149100
S1132D00F901EE56FE4FD491DD23C1F081118ADF23
S1132D102D2F30E0F901EE0FFF1FEE50FE4FA5916D
S1132D20B4918FB7F894C11105C0EC9110951E238E
S1132D301C9303C0EC911E2B1C938FBFDF91CF918A
S1132D401F910895AA1BBB1B51E107C0AA1FBB1FFB
S1132D50A617B70710F0A61BB70B881F991F5A9523
S1132D60A9F780959095BC01CD010895A1E21A2E92
S1132D70AA1BBB1BFD010DC0AA1FBB1FEE1FFF1F1B
S1132D80A217B307E407F50720F0A21BB30BE40B6B
S1132D90F50B661F771F881F991F1A9469F76095B2
S1132DA07095809590959B01AC01BD01CF0108956C
S1132DB0EE0FFF1F0590F491E02D19940790F69102
S1132DC0E02D1994FB01DC0102C001900D924150E9
S10D2DD05040D8F70895F894FFCF9F
S1132DDA0000BC1A2000E803FFFF313A2054617353
S1132DEA6B204C6F6F700050696E6720313A200077
S1132DFA636D002A2A205461736B20312045727254
S1132E0A6F723A20636F756C64206E6F74207461FC
S1132E1A6B652073656D6170686F7265202A2A007C
S1132E2A323A205461736B204C6F6F700050696E94
S1132E3A6720323A2000556C747261536F6E69636D
S1132E4A203100556C747261536F6E6963203200CD
S1132E5A4D5055363035300049444C450000000089
S1132E6A00920F660F3B0F430F560F650F000000C9
S1112E7A005D102D14081031101810521000B5
S9030000FC
