:10000000DCC100000BC2000009C2000007C20000F2
:1000100005C2000003C2000001C20000FFC10000D1
:10002000FDC10000FBC10000F9C10000F7C10000E4
:10003000F5C100000C945C11F1C10000EFC100009B
:10004000EDC10000EBC10000E9C10000E7C1000004
:100050000C94FB12E3C10000E1C100000C948E255A
:10006000DDC100000C94B1200C94B121D7C1000077
:10007000D5C10000D3C10000D1C10000CFC1000034
:10008000CDC10000CBC10000C9C10000C7C1000044
:100090000C94F1200C94F021C1C100000C947B1A47
:1000A000BDC10000BBC10000B9C10000B7C1000064
:1000B000B5C10000B3C10000B1C10000AFC1000074
:1000C000ADC10000ABC10000A9C100000C943121FA
:1000D0000C942F22A3C100000C9471210C946E2269
:1000E0009DC10000084AD73B3BCE016E84BCBFFDDA
:1000F000C12F3D6C74319ABD56833DDA3D00C77FF8
:1001000011BED9E4BB4C3E916BAAAABE0000008090
:100110003F05A84CCDB2D44EB93836A9020C50B91F
:10012000918688083CA6AAAA2ABE000000803F004B
:10013000B526B926A926AF26FE26BD26C326C92682
:10014000CF26D526DB26E126E726FE26ED26F3265A
:10015000F9264572726F722072656164696E67205C
:1001600073656E736F7200693263526561642074E7
:10017000696D656F757400693263526561642066EC
:1001800061696C65643A200069326357726974650D
:10019000206661696C65643A20000000090A020863
:1001A0000B0C0D0706030401000000000000000016
:1001B000000000000000000000000000000000003F
:1001C00000000000000011100F00000000000000FF
:1001D000000000000000000000000000000000001F
:1001E0000102102020080810204010204080020149
:1001F000020108040201010204081020408080402E
:10020000201008040201800402018040201008042C
:1002100002010804020101020408102040800102CA
:100220000408102040800505050507050808080892
:10023000020202020A0A080804040404010101017E
:100240000101010103030303030303030407070779
:100250000C0C0C0C0C0C0C0C02020202060606061E
:10026000060606060B0B0B0B0B0B0B0B00002000FE
:100270002300260029002C002F003200000100007E
:1002800003010601090100002200250028002B00BF
:100290002E003100340002010000050108010B01AD
:1002A00000002100240027002A002D003000330028
:1002B00001010000040107010A0100407A10F35A0D
:1002C00000A0724E18090010A5D4E80000E8764896
:1002D000170000E40B54020000CA9A3B000000E142
:1002E000F505000080969800000040420F000000D5
:1002F000A08601000000102700000000E8030000B5
:1003000000006400000000000A000000000001007E
:10031000000000002C76D888DC674F0823DFC1DF9F
:10032000AE59E1B1B796E5E3E453C63AE6519976A2
:1003300096E8E6C28426EB898C9B62ED407C6FFCDC
:10034000EFBC9C9F40F2BAA56FA5F490055A2AF71E
:100350005C936B6CF9676DC11BFCE0E40D47FEF527
:1003600020E6B500D0ED902E03009435770500808F
:10037000841E080000204E0A000000C80C333333EE
:10038000330F986E12831141EF8D2114893BE6558E
:1003900016CFFEE6DB18D1844B381BF77C1D901D71
:1003A000A4BBE424203284725E228100C9F124ECD3
:1003B000A1E53D278A066F1C742311241FBECFEFD1
:1003C000D1E2DEBFCDBF00E00CBF13E0A0E0B2E0A1
:1003D000ECEFF4E500E00BBF02C007900D92A832ED
:1003E000B107D9F72CE1A8E2B3E001C01D92A13812
:1003F000B207E1F713E0CAEBD3E000E006C02297B2
:100400000109FE010BBF0E94A927C43BD10780E070
:100410000807A9F70E945A0F0C947C2AF1CD2F925D
:100420003F924F925F926F927F928F929F92AF9284
:10043000BF92CF92DF92EF92FF920F931F93CF93D1
:10044000DF93CDB7DEB76C970FB6F894DEBF0FBE63
:10045000CDBF1C014D8B5E8B6F8B788FC901B801AE
:10046000D10150962D913D914D915C915397298BDF
:100470003A8B4B8B5C8B0E94721C9B01AC01F1018F
:10048000648B758B868B978BC701B6010E94501FBA
:10049000D1011C962D913D914D915C911F970E9429
:1004A000731C6D877E878F87988BD10194962D91D1
:1004B0003D914D915C91979729833A834B835C835F
:1004C000C701B6010E94501F4B015C01D1015C962F
:1004D0002D913D914D915C915F972D833E834F838C
:1004E000588790962D913D914D915C9193972987D6
:1004F0003A874B875C872D813E814F8158850E94CA
:10050000721C29853A854B855C850E94721CF1011D
:1005100020813181428153810E94731C9B01AC0177
:10052000C701B6010E94501FD10158962D913D91EF
:100530004D915C915B970E94731C2B013C01A501BE
:1005400094016D817E818F8198850E94721C6D83DC
:100550007E838F839887A501940169857A858B8531
:100560009C850E94721C69877A878B879C87F10122
:100570002481358146815781C701B6010E94501FF1
:100580009B01AC0169817A818B819C810E94731CE3
:10059000698F7A8F8B8F9C8FD10118962D913D9109
:1005A0004D915C911B97C301B2010E94731C6B01BA
:1005B0007C01F10164AB75AB86AB97AB9B01AC01E1
:1005C000C301B2010E94401D4B015C01D10198960C
:1005D0006D937D938D939C939B97A701960169855D
:1005E0007A858B859C850E94401D6B017C01F10101
:1005F00064A775A786A797A72D853E854F8558893F
:100600006D897E898F89988D0E94721C69837A8397
:100610008B839C83D101D0966D937D938D939C9316
:10062000D3979B01AC01C501B4010E94501F9B01EF
:10063000AC016D857E858F8598890E94731C6D87BE
:100640007E878F87988BF101648775878687978768
:1006500029813A814B815C81C701B6010E94501FFC
:100660009B01AC0169897A898B899C890E94731CE2
:10067000D10150966D937D938D939C935397A301D5
:100680009201C501B4010E94501F9B01AC01C3013E
:10069000B2010E94721C2B013C01F101608F718F2D
:1006A000828F938F2D813E814F815885C501B40182
:1006B0000E94501F9B01AC016D817E818F819885C6
:1006C0000E94721C4B015C01D1015C966D937D937D
:1006D0008D939C935F97A3019201C701B6010E947D
:1006E000501F9B01AC0169857A858B859C850E9492
:1006F000721CF10160A371A382A393A3A5019401CD
:10070000C701B6010E94501F9B01AC01698D7A8D13
:100710008B8D9C8D0E94721CD10194966D937D935C
:100720008D939C9397976D857E858F8598896C9620
:100730000FB6F894DEBF0FBECDBFDF91CF911F91F2
:100740000F91FF90EF90DF90CF90BF90AF909F9070
:100750008F907F906F905F904F903F902F90089573
:100760008F929F92AF92BF92CF92DF92EF92FF92C1
:10077000C0909003D0909103E0909203F090930387
:100780008090940390909503A0909603B090970367
:10079000A7019601C501B4010E94E61C21EE3EE2CC
:1007A00045E652E40E94501F6093720370937303F6
:1007B0008093740390937503A5019401C501B4015E
:1007C0000E94501F4B015C01A7019601C701B601B1
:1007D0000E94501F9B01AC01C501B4010E94731C13
:1007E0000E94BD1F9B01AC018091980390919903D9
:1007F000A0919A03B0919B03BC01CD0190580E9437
:10080000401D0E94111D21EE3EE245E652E40E9489
:10081000501F60936E0370936F03809370039093E7
:100820007103FF90EF90DF90CF90BF90AF909F90BB
:100830008F9008954F925F926F927F928F929F92C6
:10084000AF92BF92CF92DF92EF92FF92CF93DF935E
:10085000CDB7DEB764970FB6F894DEBF0FBECDBF3D
:1008600020912C0330912D0340912E0350912F03A2
:1008700060917C0370917D0380917E0390917F0352
:100880000E94501F2B013C018091780390917903C5
:10089000A0917A03B0917B03BC01CD0190582091C7
:1008A00030033091310340913203509133030E9461
:1008B000501F6B017C018091800390918103A09176
:1008C0008203B0918303BC01CD019058209128038D
:1008D0003091290340912A0350912B030E94501F0D
:1008E00020910602309107024091080250910902BE
:1008F0000E94721C4B015C01609380037093810322
:10090000809382039093830320910A0230910B021B
:1009100040910C0250910D02C301B2010E94721C61
:1009200069837A838B839C8360937C0370937D03BC
:1009300080937E0390937F0320910E0230910F02EB
:100940004091100250911102C701B6010E94721C21
:100950006B017C01609378037093790380937A0331
:1009600090937B0325E33AEF4EE85CE360914E03FE
:1009700070914F0380915003909151030E94501F3A
:100980002B013C0125E33AEF4EE85CE360914A031A
:1009900070914B0380914C0390914D030E94501F26
:1009A0006D877E878F87988BC301B2010E94B31F2A
:1009B0006D837E838F839887C301B2010E943D1DA2
:1009C00069877A878B879C876D857E858F859889D7
:1009D0000E943D1D9B01AC016D857E858F859889A8
:1009E000298B3A8B4B8B5C8B0E94B31F2B013C01F4
:1009F00029893A894B895C89C501B4010E94501F3D
:100A00004B015C01A301920169817A818B819C81F8
:100A10000E94501F2D813E814F8158850E94501F9A
:100A20009B01AC01C501B4010E94731C4B015C0128
:100A3000A3019201C701B6010E94501F29853A8582
:100A40004B855C850E94501F9B01AC01C501B40120
:100A50000E94731C4B015C012D813E814F815885A2
:100A6000C701B6010E94501F6B017C0129853A85A0
:100A70004B855C8569817A818B819C810E94501FA6
:100A80009B01AC01C701B6010E94721C9058A501E0
:100A900094010E94E61C21EE3EE245E652E40E94EB
:100AA000501FDC01CB01B05880936A0390936B0315
:100AB000A0936C03B0936D0364960FB6F894DEBFF9
:100AC0000FBECDBFDF91CF91FF90EF90DF90CF9021
:100AD000BF90AF909F908F907F906F905F904F905E
:100AE00008958130910549F46130710511F461E098
:100AF00001C060E08091140218C0029721F46130B7
:100B0000710581F408C06130710539F461E08091AC
:100B100014020E943D2761E006C060E0809114024B
:100B20000E943D2760E0809112020C943D27CF92F5
:100B3000DF92EF92FF92CF93DF93EC0122E12C9FA3
:100B4000C0012D9F900D1124865B9B4F0E942E119A
:100B500069E370E00E946D2780E090E00E94D91D5B
:100B60006B017C012196C230D105F1F024F4C13033
:100B7000D10521F04CC025977CF149C020E030E040
:100B800040E752E40E94391D87FF41C020E030E079
:100B9000A901C701B6010E94451F1816C4F5D093DC
:100BA000A704C093A60433C020E030E040E752E43D
:100BB0000E94391D87FF2BC020E030E0A901C7014A
:100BC000B6010E94451F181614F581E090E090933D
:100BD000A5048093A4041BC020E030E040EA52E466
:100BE0000E94391D87FF13C020E030E0A901C70132
:100BF000B6010E94451F181654F481E090E09093CE
:100C0000A5048093A4049093A7048093A604DF9185
:100C1000CF91FF90EF90DF90CF90089520E049E1D1
:100C200050E060E070E080914404909145040E949F
:100C30009014813009F067C068E172E086E39AE1C0
:100C40000E94D1241092A7041092A6041092A50429
:100C50001092A40480E090E06ADF81E090E067DF1A
:100C600082E090E064DF83E090E061DF84E090E088
:100C70005EDF8091A6049091A704019729F461E0BA
:100C800070E081E090E02DDF8091A4049091A504B4
:100C9000019729F461E070E082E090E022DF80912A
:100CA000A6049091A704892B59F460E070E081E0DC
:100CB00090E017DF65E272E086E39AE10E94D124BA
:100CC0008091A4049091A504892B59F460E070E010
:100CD00082E090E006DF60E372E086E39AE10E9442
:100CE000D12420E040E050E060E070E080914404D6
:100CF000909145040E9403140E94391284EF91E000
:100D00000E94C2178BCF6BE372E086E39AE10E94E8
:100D1000D124FFCF0F931F9328EC30E04BE26AE21F
:100D20008AE494E00E94681028EC30E04DE26CE226
:100D30008CE594E00E94681028EC30E04FE26EE20F
:100D40008EE694E00E94681028EC30E041E360E316
:100D500080E894E00E94681028EC30E043E362E30E
:100D600082E994E00E9468100FE612E123E83AE37A
:100D700000930C0410930D0420930E0430930F0481
:100D800046EA5BE964E47BE340931004509311046A
:100D900060931204709313048FE892ECA5EFBCE308
:100DA0008093140490931504A0931604B093170431
:100DB000109218041092190410921A0410921B0435
:100DC00010921C0410921D0410921E0410921F0415
:100DD00010922404109225041092260410922704E5
:100DE000109228041092290410922A0410922B04C5
:100DF00010922C0410922D0410922E0410922F04A5
:100E00001092300410923104109232041092330484
:100E10000093D4031093D5032093D6033093D703C4
:100E20004093D8035093D9036093DA037093DB03A4
:100E30008093DC039093DD03A093DE03B093DF0384
:100E40001092E0031092E1031092E2031092E30388
:100E50001092E4031092E5031092E6031092E70368
:100E60001092EC031092ED031092EE031092EF0338
:100E70001092F0031092F1031092F2031092F30318
:100E80001092F4031092F5031092F6031092F703F8
:100E90001092F8031092F9031092FA031092FB03D8
:100EA00000939C0310939D0320939E0330939F0314
:100EB0004093A0035093A1036093A2037093A303F4
:100EC0008093A4039093A503A093A603B093A703D4
:100ED0001092A8031092A9031092AA031092AB03D8
:100EE0001092AC031092AD031092AE031092AF03B8
:100EF0001092B4031092B5031092B6031092B70388
:100F00001092B8031092B9031092BA031092BB0367
:100F10001092BC031092BD031092BE031092BF0347
:100F20001092C0031092C1031092C2031092C30327
:100F30001F910F910895EF92FF920F931F93CF93FC
:100F4000DF931F92CDB7DEB7162F7A01682F8EE799
:100F500099E129830E94531C612F8EE799E10E9439
:100F6000001C2981422F50E0B7018EE799E10E94D1
:100F7000D41B602F8EE799E10E945D1C182F8823F7
:100F800069F068E871E086E39AE10E9469244AE02A
:100F900050E0612F86E39AE10E947925812F0F901E
:100FA000DF91CF911F910F91FF90EF9008950F93D4
:100FB000CF93DF931F92CDB7DEB74983022F21E095
:100FC000AE014F5F5F4FB7DF0F90DF91CF910F9171
:100FD0000895CF92DF92EF92FF920F931F93CF93DA
:100FE000DF93D82FC62FF42EE52E122F682F8EE711
:100FF00099E10E94531C6C2F8EE799E10E94001C1E
:1010000060E08EE799E10E945D1CC82F882379F08B
:1010100067E771E086E39AE10E9469244AE050E0C4
:101020006C2F86E39AE10E9479258C2F40C021E045
:10103000412F6D2F8EE799E10E94471C0F2DCF2D78
:10104000DE2D8C2F801B811718F58EE799E10E9409
:10105000A91B892BB1F40E94E4256B017C010E943D
:10106000E4256C197D098E099F09683E734081054E
:10107000910580F48EE799E10E94A91B892B51F418
:10108000EECF8EE799E10E94B11B88832196D9CFDC
:1010900080E00DC08EE799E10E94A91B892B89F79A
:1010A00067E671E086E39AE10E94C12485E0DF9162
:1010B000CF911F910F91FF90EF90DF90CF90089507
:1010C0002EE044E353E06BE388E683DF8111F8CF41
:1010D0006091340370E0762F662780913503682B8A
:1010E000882777FD8095982F0E94DB1D60939803D9
:1010F0007093990380939A0390939B038091360396
:1011000090E0982F882720913703822B6627772736
:10111000681B790B882777FD8095982F0E94DB1D2F
:101120006093940370939503809396039093970331
:101130006091380370E0762F662780913903682B21
:10114000882777FD8095982F0E94DB1D6093900380
:1011500070939103809392039093930380913A0349
:1011600090E0982F882720913B03822B9093770360
:101170008093760360913C0370E0762F662771952B
:101180006195710980913D03682B882777FD8095D3
:10119000982F0E94DB1D60938C0370938D038093C6
:1011A0008E0390938F0360913E0370E0762F662745
:1011B00080913F03682B882777FD8095982F0E94A8
:1011C000DB1D609388037093890380938A03909357
:1011D0008B036091400370E0762F662771956195CF
:1011E000710980914103682B882777FD8095982F9E
:1011F0000E94DB1D609384037093850380938603B4
:1012000090938703089526E044E353E063E08EE182
:10121000E0DE8111F8CF6091340370E0762F66270D
:1012200080913503682B882777FD8095982F0E9441
:10123000DB1D6093800370938103809382039093FE
:1012400083036091360370E0762F66278091370321
:10125000682B882777FD8095982F0E94DB1D60936F
:1012600078037093790380937A0390937B03609162
:10127000380370E0762F662780913903682B882722
:1012800077FD8095982F0E94DB1D60937C037093FF
:101290007D0380937E0390937F0308954F925F9226
:1012A0006F927F928F929F92AF92BF92CF92DF9276
:1012B000EF92FF92CF93DF93CDB7DEB72C970FB6A7
:1012C000F894DEBF0FBECDBF21E041E160E08EE1CA
:1012D0006EDE64E670E080E090E00E940A2693DF14
:1012E00060918003709181038091820390918303C8
:1012F0000E94A81D2B013C0160917C0370917D032D
:1013000080917E0390917F030E94A81D6B017C0158
:10131000609178037091790380917A0390917B03B7
:101320000E94A81D69837A838B839C8321E042E11C
:1013300060E08EE13CDE64E670E080E090E00E94D8
:101340000A2661DF6091800370918103809182039E
:10135000909183030E94A81D6D837E838F8398875D
:1013600060917C0370917D0380917E0390917F0357
:101370000E94A81D4B015C01609178037091790374
:1013800080917A0390917B030E94A81D69877A87D8
:101390008B879C8721E040E160E08EE108DE6D8173
:1013A0007E8164197509882777FD8095982F0E94A2
:1013B000DB1D9B01AC0160E070E48CE195EC0E94C8
:1013C000401D609328037093290380932A03909310
:1013D0002B038C189D08B401882777FD8095982FE2
:1013E0000E94DB1D9B01AC0160E070E48CE195EC98
:1013F0000E94401D60932C0370932D0380932E0355
:1014000090932F0369857A8589819A81681B790B6E
:10141000882777FD8095982F0E94DB1D9B01AC01EA
:1014200060E070E48CE195EC0E94401D6093300315
:101430007093310380933203909333032C960FB64D
:10144000F894DEBF0FBECDBFDF91CF91FF90EF903C
:10145000DF90CF90BF90AF909F908F907F906F90D4
:101460005F904F900895CF93DF93CDB7DEB7CA5BFF
:10147000D1090FB6F894DEBF0FBECDBF20E042E326
:1014800050E060E070E080914404909145040E9437
:101490009014813009F014C468E672E086E39AE1A2
:1014A0000E94D1240DDEAFDE0E94E425C0904203ED
:1014B000D0904303E0904403F09045036C197D09FC
:1014C0008E099F090E94D91D20E034E244E759E4C7
:1014D0000E94401D4B015C010E94E4256093420381
:1014E00070934303809344039093450339D920E0DC
:1014F00030E043E053E460918C0370918D03809160
:101500008E0390918F030E94401DC155DF4F688369
:1015100079838A839B83CF5AD04020E030E043E038
:1015200053E4609188037091890380918A039091BC
:101530008B030E94401DC555DF4F688379838A83E2
:101540009B83CB5AD04040907203509073036090BD
:1015500074037090750320E030E044EB52ECC3015B
:10156000B2010E94391D87FF10C020E030E044EB3B
:1015700052E460914E0370914F038091500390911B
:1015800051030E94451F1816D4F020E030E044EBD0
:1015900052E4C301B2010E94451F18168CF520E0E9
:1015A00030E044EB52EC60914E0370914F03809118
:1015B0005003909151030E94391D87FF21C0409232
:1015C00018045092190460921A0470921B044092FD
:1015D0005A0350925B0360925C0370925D034092E9
:1015E0004E0350924F036092500370925103409209
:1015F000660350926703609268037092690318C093
:1016000075016401C155DF4F088119812A813B8131
:10161000CF5AD040B301A2018CE094E00E940F02A7
:1016200060934E0370934F03809350039093510344
:10163000C0904E03D0904F03E0905003F0905103C0
:1016400020E030E0A901C701B6010E94451F18162D
:101650005CF420E030E044EB52E4C701B6010E94A4
:10166000451F18165CF01BC020E030E044EB52EC44
:10167000C701B6010E94391D87FF11C0C555DF4F54
:1016800088819981AA81BB81CB5AD040B058C55579
:10169000DF4F88839983AA83BB83CB5AD040409184
:1016A0006E0350916F036091700370917103750127
:1016B0006401C555DF4F088119812A813B81CB5ACE
:1016C000D04084ED93E00E940F0260934A03709330
:1016D0004B0380934C0390934D03ACD820E030E053
:1016E00043E053E460918403709185038091860305
:1016F000909187030E94401DCD54DF4F688379830A
:101700008A839B83C35BD04040906A0350906B03F5
:1017100060906C0370906D0320E030E044EB52EC7D
:10172000C301B2010E94391D87FF10C020E030E0E4
:1017300044EB52E460914603709147038091480363
:10174000909149030E94451F1816D4F020E030E024
:1017500044EB52E4C301B2010E94451F18168CF5F8
:1017600020E030E044EB52EC609146037091470377
:1017700080914803909149030E94391D87FF21C041
:101780004092A8035092A9036092AA037092AB03FF
:101790004092520350925303609254037092550347
:1017A0004092460350924703609248037092490367
:1017B00040925E0350925F036092600370926103F7
:1017C00018C075016401CD54DF4F088119812A8149
:1017D0003B81C35BD040B301A2018CE993E00E943E
:1017E0000F026093460370934703809348039093DE
:1017F0004903A5019401C155DF4F688179818A8130
:101800009B81CF5AD0400E94501F6B017C012091D8
:1018100066033091670340916803509169030E9409
:10182000731CC155DF4F688379838A839B83CF5AAA
:10183000D04060936603709367038093680390932E
:101840006903A5019401C555DF4F688179818A81BB
:101850009B81CB5AD0400E94501FC954DF4F6883F0
:1018600079838A839B83C75BD04020916203309148
:10187000630340916403509165030E94731C2B0124
:101880003C016093620370936303809364039093BD
:101890006503A5019401CD54DF4F688179818A8168
:1018A0009B81C35BD0400E94501F4B015C01209183
:1018B0005E0330915F0340916003509161030E9489
:1018C000731CC555DF4F688379838A839B83CB5A0A
:1018D000D04060935E0370935F03809360039093A6
:1018E000610320915A0330915B0340915C03509156
:1018F0005D03C701B6010E94731C2BE734E14EE67D
:101900005FE30E94501F6B017C0129E23CE54FE838
:101910005DE3609172037091730380917403909101
:1019200075030E94501F9B01AC01C701B6010E94C4
:10193000731C60935A0370935B0380935C039093D2
:101940005D03209156033091570340915803509105
:101950005903C954DF4F688179818A819B81C75BB4
:10196000D0400E94731C2BE734E14EE65FE30E94F7
:10197000501F6B017C0129E23CE54FE85DE360917B
:101980006E0370916F0380917003909171030E94B8
:10199000501F9B01AC01C701B6010E94731C6093EC
:1019A0005603709357038093580390935903C09044
:1019B0006A03D0906B03E0906C03F0906D0320916C
:1019C0005203309153034091540350915503C50184
:1019D000B4010E94731C2BE734E14EE65FE30E94E2
:1019E000501F4B015C0129E23CE54FE85DE3C70174
:1019F000B6010E94501F9B01AC01C501B4010E94B9
:101A0000731C609352037093530380935403909319
:101A1000550320E030E044E353ECC155DF4F6881CB
:101A200079818A819B81CF5AD0400E94391D87FDE0
:101A300010C020E030E044E353E4C155DF4F68813B
:101A400079818A819B81CF5AD0400E94451F181608
:101A500084F480914E0390914F03A0915003B09174
:101A600051038093660390936703A0936803B09338
:101A7000690320E030E044E353ECC301B2010E946B
:101A8000391D87FD0AC020E030E044E353E4C30180
:101A9000B2010E94451F181684F480914A03909168
:101AA0004B03A0914C03B0914D038093620390933C
:101AB0006303A0936403B093650320E030E044E344
:101AC00053ECC555DF4F688179818A819B81CB5A60
:101AD000D0400E94391D87FD10C020E030E044E373
:101AE00053E4C555DF4F688179818A819B81CB5A48
:101AF000D0400E94451F181684F4809146039091AF
:101B00004703A0914803B091490380935E039093EB
:101B10005F03A0936003B093610320E030E040E8EE
:101B200058E360919403709195038091960390918E
:101B300097030E94501F2DEC3CEC4CE151E40E94B5
:101B4000501F2B013C0120E030E040E858E3609159
:101B500090037091910380919203909193030E945E
:101B6000501F2DEC3CEC4CE151E40E94501F4B0106
:101B70005C0120E030E044EB53E4C701B6010E9471
:101B8000731C20E030E044EB53E40E941D1E6B0107
:101B90007C0120E030E040E858E3609198037091C8
:101BA000990380919A0390919B030E94501F2DEC02
:101BB0003CEC4CE151E40E94501F8E010F551F4F29
:101BC00022E043E00E94AD270A50110922E043E0E1
:101BD000C301B2010E94AD270A50110922E043E07F
:101BE000C501B4010E94AD270A50110922E043E06B
:101BF000C701B6010E94AD270E94D8252AE0AE0198
:101C00004B595F4F0E94E82761E772E0CE010196D1
:101C10000E94E127BE016F557F4FCE0101960E94C1
:101C2000D62760E972E0CE0101960E94D627BE0158
:101C300069567F4FCE0101960E94D62767E972E070
:101C4000CE0101960E94D627BE0163577F4FCE0179
:101C500001960E94D6276EE972E0CE0101960E949D
:101C6000D627B801CE0101960E94D62762EB72E01A
:101C7000CE0101960E94D627BE016B597F4FCE013F
:101C800001960E94D62763EC72E0CE0101960E9475
:101C9000D627BE016F5F7F4F86E39AE10E94D12471
:101CA00020E040E050E060E070E0809144049091DA
:101CB0004504A9D5DED388EE93E00E94C217DECB9F
:101CC00065EC72E086E39AE10E94D124FFCF0F9386
:101CD0008EE799E10E943E1C40E052EC61E070E02A
:101CE00086E39AE10E94F12286E39AE10E9416209F
:101CF000892BD1F386E39AE10E943F20682F86E387
:101D00009AE10E94E12486E39AE10E941620892B41
:101D1000D1F386E39AE10E943F208CE08093B800E3
:101D200087E08093340310923503109236031092AB
:101D3000370300E024E044E353E069E188E6FBD8A0
:101D40008111F7CF21E041E06BE688E630D98111BF
:101D5000F9CF21E044E353E065E788E63AD9811101
:101D6000F8CF80913403883639F062E571E086E37C
:101D70009AE10E946924FFCF21E042E067E388E610
:101D800016D98111F9CF21E040E062E08EE10FD950
:101D90008111F9CF83DA64E670E080E090E00E9480
:101DA0000A268ED930DA0E94B0030E941A0480916C
:101DB000720390917303A0917403B09175038093A3
:101DC000180490931904A0931A04B0931B048093F1
:101DD000660390936703A0936803B09369038093AD
:101DE0005A0390935B03A0935C03B0935D038091CF
:101DF0006E0390916F03A0917003B0917103809373
:101E0000E0039093E103A093E203B093E303809394
:101E1000620390936303A0936403B093650380937C
:101E2000560390935703A0935803B093590380919E
:101E30006A0390916B03A0916C03B0916D03809342
:101E4000A8039093A903A093AA03B093AB03809334
:101E50005E0390935F03A0936003B093610380934C
:101E6000520390935303A0935403B09355030E94DD
:101E7000E42560934203709343038093440390935B
:101E800045030E94D8256C597F4F8F4F9F4F609319
:101E9000460470934704809348049093490461E09A
:101EA000809114020E94FF2661E0809112020F913E
:101EB0000C94FF26AF92BF92CF92DF92EF92FF92E7
:101EC0000F93CF93DF9300D01F92CDB7DEB70E9460
:101ED0003D26FDDE43E060E081E06ED49093450452
:101EE00080934404009731F020E040E050E060E04F
:101EF00070E089D4A12CB12CC12CD12CCE01039639
:101F00007C0101E020E030E040E052E062EF72E06E
:101F10008EE096E0FED5CE0101967C0102E020E045
:101F200030E040E052E06EEF72E083E39AE0F1D5FA
:101F3000DCD680E090E00F900F900F900F90DF9133
:101F4000CF910F91FF90EF90DF90CF90BF90AF9027
:101F50000895CF93DF93EC01F8D68091A804909177
:101F6000A904892B31F48DEA94E09093A90480931D
:101F7000A8042091AA043091AB04CE01820F931FD4
:101F80008F3F43E1940770F42817390758F4C09144
:101F9000A804D091A904C20FD31F9093AB048093DF
:101FA000AA0402C0C0E0D0E082D7CE01DF91CF9179
:101FB00008950895FC010396928381832FEF3FEFEC
:101FC0003483238396838583908787831082089543
:101FD000FC01118610860895CF93DF939C01FB01CD
:101FE000DC011196CD91DC911297D383C2838C8151
:101FF0009D81958384838C819D81DC0113967C93E4
:102000006E9312977D836C8331872087F9018081DD
:102010008F5F8083DF91CF9108950F931F93CF93AC
:10202000DF938C01FB01208131812F3F8FEF380737
:1020300021F4E801AF81B8850EC0D801139612963D
:102040008D919C911397EC01488159812417350794
:1020500010F0DC01F4CF12968D919C91139793832D
:102060008283EC01FD83EC83B583A4831396FC93F8
:10207000EE93129711870087F80180818F5F80832C
:10208000DF91CF911F910F910895CF93DF93FC01C2
:10209000A085B1858281938124813581EC013D83C6
:1020A0002C83C481D5819B838A8311968D919C91C9
:1020B00012978E179F0721F41296DC93CE931197F7
:1020C000118610868C9181508C93DF91CF91089569
:1020D000CF93DF93DC0170E0FB01E052FE4FE4910F
:1020E0001496EC931497842F90E0FC01E052FE4F7D
:1020F000E4911596EC9315976A5D7D4FFB01C491B1
:10210000D0E0CC0FDD1FCA57DD4FFE014591549141
:1021100017965C934E931697FC01EA5DFD4F8491F0
:1021200090E0880F991F84599D4FFC01459154916F
:102130001B965C934E931A97FB016491E62FF0E097
:10214000EE0FFF1FE056FD4F8591949119969C93D9
:102150008E931897C901253FF1E03F0714F084EFF3
:1021600091E049E3489F9001499F300D1124245E7E
:102170003F4F1D963C932E931C97DF91CF9108956E
:102180000F931F93CF93DF93EC01E885F98580814E
:102190009C81892B8083EE81FF8190818C81809549
:1021A0008923808384E090E00E943226EE81FF81C3
:1021B00080819C81892B80838AE090E00E94322676
:1021C000EE81FF8190818C81809589238083E885D1
:1021D000F98590818C818095892380830E94E425F4
:1021E000605B794B8F4F9F4F6E877F87888B998B72
:1021F000EA85FB8580819D81892359F00E94E42531
:102200000E851F852889398906171707280739077A
:1022100078F7EA85FB8580819D81892369F40E9496
:10222000E4250E851F852889398906171707280791
:10223000390778F780E00DC00E94E4252C853D85A4
:10224000620F731F811D911D6E877F87888B998B0D
:1022500081E0DF91CF911F910F9108950F931F930C
:10226000CF93DF93EC018CDF882389F0EA85FB852F
:1022700080819D81892371F00E94E4250E851F8550
:1022800028893989061717072807390778F720E0C2
:1022900030E00CC00E94E4252C853D852550310995
:1022A0004E855F85241B350B260F371FC901DF9133
:1022B000CF911F910F9108951F920F920FB60F9219
:1022C00011240BB60F922F933F934F935F936F930D
:1022D0007F938F939F93AF93BF93EF93FF93E0917F
:1022E000AC18F091AD18309709F01995FF91EF9166
:1022F000BF91AF919F918F917F916F915F914F911E
:102300003F912F910F900BBE0F900FBE0F901F901B
:10231000189531E1FC013083319722E22083319717
:10232000A3E3A08331976083319770833197108244
:1023300031971082319760E860833197108231972E
:10234000108231971082319762E06083319763E0A9
:102350006083319764E06083319765E060833197F3
:1023600066E06083319767E06083319768E060835F
:10237000319769E06083319760E160833197308302
:10238000319732E13083319733E13083319734E153
:102390003083319735E13083319736E1308331979F
:1023A00037E13083319738E13083319739E1308339
:1023B000319730E23083319731E230833197208397
:1023C000319723E2208331974083319750833197AF
:1023D00026E22083319727E22083319728E2208369
:1023E000319729E22083319720E32083319721E33D
:1023F0002083899708951092800081E18093810065
:1024000080E49FE1909387008093860081E0809331
:102410006F00A0910E19B0910F19CD91CDBFDD9134
:10242000DEBFFF91EF91DF91CF91BF91AF919F916F
:102430008F917F916F915F914F913F912F911F915C
:102440000F91FF90EF90DF90CF90BF90AF909F9053
:102450008F907F906F905F904F903F902F901F9044
:102460000F900CBE0F900BBE0F900FBE0F900895F3
:1024700008950F920FB6F8940F920CB60F920BB608
:102480000F921F9211242F923F924F925F926F9260
:102490007F928F929F92AF92BF92CF92DF92EF92F4
:1024A000FF920F931F932F933F934F935F936F93DD
:1024B0007F938F939F93AF93BF93CF93DF93EF93CC
:1024C000FF93A0910E19B0910F190DB60D920EB693
:1024D0000D92A8D5A0910E19B0910F19CD91CDBF35
:1024E000DD91DEBFFF91EF91DF91CF91BF91AF9171
:1024F0009F918F917F916F915F914F913F912F911C
:102500001F910F91FF90EF90DF90CF90BF90AF9011
:102510009F908F907F906F905F904F903F902F9003
:102520001F900F900CBE0F900BBE0F900FBE0F9020
:1025300008950F920FB6F8940F920CB60F920BB647
:102540000F921F9211242F923F924F925F926F929F
:102550007F928F929F92AF92BF92CF92DF92EF9233
:10256000FF920F931F932F933F934F935F936F931C
:102570007F938F939F93AF93BF93CF93DF93EF930B
:10258000FF93A0910E19B0910F190DB60D920EB6D2
:102590000D92E1D3811146D5A0910E19B0910F197A
:1025A000CD91CDBFDD91DEBFFF91EF91DF91CF9156
:1025B000BF91AF919F918F917F916F915F914F915B
:1025C0003F912F911F910F91FF90EF90DF90CF904F
:1025D000BF90AF909F908F907F906F905F904F9043
:1025E0003F902F901F900F900CBE0F900BBE0F903E
:1025F0000FBE0F9008959DDF18951F93CF93DF9323
:10260000EC01142F4C8D41110BC088819981892BCD
:1026100009F040C08A819B8145D61B821A823BC04B
:1026200050E0111115C08C819D810E94CD272C8D09
:102630008C819D81820F911D9D838C832A813B819A
:102640008217930738F1888199819D838C8322C0FA
:102650008E819F810E94CD272C8D30E03195219570
:1026600031098E819F81820F931F9F838E836881A2
:1026700079818617970730F48A819B81820F931F97
:102680009F838E83123031F48A8D882319F08A8DCE
:1026900081508A8F80E09A8D9F5F9A8FDF91CF91D2
:1026A0001F910895FC01CB01448D4423A1F050E01B
:1026B00026813781240F351F3783268362817381FA
:1026C0002617370720F020813181378326836681E2
:1026D00077810C94CD2708950F931F93CF93DF93A9
:1026E000EC010FB6F8940F928C010F5E1F4F8E8D88
:1026F00018165CF48989882341F0C801FED4811141
:1027000078D58E8D81508E8FF2CF8FEF8E8F0F9078
:102710000FBE0FB6F8940F928E01085F1F4F8D8D7C
:1027200018165CF48885882341F0C801E6D481112D
:1027300060D58D8D81508D8FF2CF8FEF8D8F0F9063
:102740000FBEDF91CF911F910F910895CF93DF932B
:10275000EC010FB6F8940F92288139818B8D7C8D16
:10276000879FC0011124A901480F591F5B834A8329
:102770001A8E3D832C83871B9109820F931F9F83A1
:102780008E838FEF8D8F8E8F61110AC0888588238D
:1027900069F0CE010896B1D4813041F46ADE06C0FA
:1027A000CE01089607DCCE01419604DC0F900FBEE7
:1027B00081E0DF91CF9108950F931F93CF93DF9323
:1027C000182F062F8823B9F08FE190E0C2DBEC01CF
:1027D000009789F0109FC00111240196BADB9983FC
:1027E0008883892B31F01B8F0C8F61E0CE01AEDF27
:1027F00004C0CE01DEDBC0E0D0E0CE01DF91CF919E
:102800001F910F910895BF92CF92DF92EF92FF92A6
:102810000F931F93CF93DF9300D01F921F92CDB7DA
:10282000DEB78C016B015D834C83B22E20E07C010E
:1028300088E0E80EF11C0FB6F8940F92F801928D23
:10284000838D981718F0F2E0BF1215C04B2DB6011A
:10285000C801D3DEF8019189992339F0C801419666
:102860004CD4813021F405DE02C08111FCCF0F90E1
:102870000FBE81E046C08C819D81892B19F40F9099
:102880000FBE3EC0211103C0CE01019676D40F9039
:102890000FBE5BD20FB6F8940F92F801858D8F3F73
:1028A00009F4158EF801868D8F3F09F4168E0F906E
:1028B0000FBEBE016C5F7F4FCE01019669D48111BE
:1028C0001CC00FB6F8940F92F801928D0F900FBEB6
:1028D000F801838D98130DC06C817D81C701E2D30F
:1028E000C801FADEE4D2882311F021E0A4CFC1DDD3
:1028F000FCCFC801F1DEDBD2F8CFC801EDDED7D2C4
:1029000080E00F900F900F900F900F90DF91CF917C
:102910001F910F91FF90EF90DF90CF90BF9008959F
:10292000BF92CF92DF92EF92FF920F931F93CF93BC
:10293000DF9300D01F921F92CDB7DEB78C016B01E1
:102940005D834C83B22E30E07C0181E1E80EF11C06
:102950000FB6F8940F92F801828D882361F1E6801A
:10296000F780B601C8019EDEF801B11016C0828D55
:102970008150828F80819181892B21F4CCD4F80100
:1029800093838283F8018085882389F0C8010896A3
:10299000B4D3813061F46DDD0AC0F782E6828189AB
:1029A000882329F0C8014196A8D38111F4CF0F9054
:1029B0000FBE81E052C08C819D81892B19F40F904C
:1029C0000FBE4AC0311103C0CE010196D6D30F907D
:1029D0000FBEBBD10FB6F8940F92F801858D8F3FD3
:1029E00009F4158EF801868D8F3F09F4168E0F902D
:1029F0000FBEBE016C5F7F4FCE010196C9D381111E
:102A000028C00FB6F8940F92F801828D0F900FBE78
:102A100081111BC0F80180819181892B49F40FB687
:102A2000F8940F92F80182819381E7D30F900FBE43
:102A30006C817D81C70136D3C8014EDE38D2882330
:102A400011F031E085CF15DDFCCFC80145DE2FD276
:102A5000F8CFC80141DE2BD280E00F900F900F908D
:102A60000F900F90DF91CF911F910F91FF90EF90FA
:102A7000DF90CF90BF900895E091D618F091D718CD
:102A80008081811103C08FEF9FEF0CC0E091D618B9
:102A9000F091D7180580F681E02D0680F781E02DB2
:102AA0008281938190931702809316020895CF93A9
:102AB000DF93EC01E0910E19F0910F19938382835B
:102AC0008091B5189091B61860910E1970910F19F8
:102AD000C817D90748F48091D4189091D5186E5F23
:102AE0007F4FDF91CF9199CA8091D6189091D718D6
:102AF0006E5F7F4F92DA8091160290911702C8178D
:102B0000D90720F4D0931702C0931602DF91CF911A
:102B100008955F926F927F928F929F92AF92BF9231
:102B2000CF92DF92EF92FF920F931F93CF93DF9399
:102B30004C01162F572E5A01390183E290E009DA31
:102B4000EC01009709F4C0C0C114D10419F4C50107
:102B500000DA01C0C601988F8F8B009719F4CE015F
:102B600028DAB2C021E0A21AB108A80EB91EE12FDE
:102B7000F52D80E090E0BF0141919E01280F391FA3
:102B8000D90159964C93DB012C91222321F0019617
:102B90008830910581F718A2102F043008F013E057
:102BA0001E8B19A31AA26E01B2E0CB0ED11CC60176
:102BB0000FDACE010C960CDAD987C88784E090E052
:102BC000811B91099D878C87DB8BCA8BA301B40184
:102BD000C5019FDB99838883E114F10419F0F701A3
:102BE000D183C0830FB6F8940F928091B7188F5F8E
:102BF0008093B71880910E1990910F19892B89F540
:102C0000D0930F19C0930E198091B718813009F035
:102C100037C08AEE98E1CED983EF98E1CBD98CEF1B
:102C200098E1C8D985E099E1C5D981EE98E1C2D98A
:102C300088ED98E1BFD98BEC98E1BCD982EC98E1A2
:102C4000B9D988EB98E1B6D981EE98E19093D7187D
:102C50008093D61888ED98E19093D5188093D41876
:102C60000FC08091B31881110BC0E0910E19F09143
:102C70000F198689081720F0D0930F19C0930E19E9
:102C80008091AF188F5F8093AF188E899091B418A0
:102C9000981710F48093B418F9E08F9FC0011124A5
:102CA000B6018651974E98D90F900FBE8091B318F8
:102CB000882341F0E0910E19F0910F198689801751
:102CC00008F4D7DB81E001C08FEFDF91CF911F9136
:102CD0000F91FF90EF90DF90CF90BF90AF909F90BB
:102CE0008F907F906F905F900895AF92BF92CF9238
:102CF000DF92EF92FF920F93A12CB12CC12CD12C1B
:102D0000E12CF12C00E020E030E045E550E062E00D
:102D100073E082EE97E1FDDE813079F4F8948093E0
:102D2000B3181092B6181092B5180F91FF90EF904B
:102D3000DF90CF90BF90AF905ECB0F91FF90EF9060
:102D4000DF90CF90BF90AF9008958091AE188F5FC5
:102D50008093AE180895CF92DF92EF92FF920F9377
:102D60001F93CF93DF938091AE1881118AC0809119
:102D7000B5189091B61801969093B6188093B5182F
:102D80000091B5181091B61801151105B1F4809194
:102D9000D6189091D7182091D4183091D518309327
:102DA000D7182093D6189093D5188093D418809173
:102DB000B0188F5F8093B0185FDE809116029091FB
:102DC0001702D12C0817190708F44AC089E0C82E49
:102DD000E091D618F091D7188081811107C08FEF4C
:102DE0009FEF90931702809316023AC0E091D61895
:102DF000F091D7180580F681E02DC681D7812A8110
:102E00003B810217130728F4309317022093160210
:102E100027C07E0182E0E80EF11CC70136D92C895B
:102E20003D89232B19F0CE010C962FD92E89809144
:102E3000B418821710F42093B418C29EC001112454
:102E4000B7018651974EC8D8E0910E19F0910F192D
:102E50009E898689981708F4BBCFDD24D394B8CF18
:102E6000E0910E19F0910F19E68989E0E89FF001D1
:102E70001124E651F74E8081823048F0DD24D3944E
:102E800006C08091B2188F5F8093B218D12C8091C8
:102E9000B118882311F0DD24D3948D2DDF91CF91CB
:102EA0001F910F91FF90EF90DF90CF900895EF92D8
:102EB000FF920F931F93CF93DF930FB6F8940F9267
:102EC0008091AE1881508093AE188091AE188823FF
:102ED00011F080E04EC08091B7188823D1F399E0BB
:102EE000F92EEE24E3948091CB18882339F1E091F8
:102EF000D018F091D118C681D781CE010C96C5D8D3
:102F00008E010E5F1F4FC801C0D88E899091B418F2
:102F1000981710F48093B418F89EC0011124B801DA
:102F20008651974E59D8E0910E19F0910F199E894C
:102F300086899817C0F2E092B118D5CF8091B21867
:102F4000811108C08091B118813009F0C2CF91DAA7
:102F500081E00FC0C1E08091B218882399F3FBDEB5
:102F60008111C093B1188091B21881508093B2182A
:102F7000F2CF0F900FBEDF91CF911F910F91FF9075
:102F8000EF9008950F931F93CF93DF938C010097D9
:102F900011F46FDA12C0D9DEC091B518D091B6180D
:102FA000C00FD11F80910E1990910F1902966DD804
:102FB000CE017DDD7CDF882361F3DF91CF911F910E
:102FC0000F9108958091C118882331F1BEDEC09120
:102FD000C2186DDFCC23B1F30FB6F8940F92E091D5
:102FE000C718F091C818C681D781CE0102964DD876
:102FF0008091B71881508093B7188091C118815083
:103000008093C1180F900FBE8F89988D0E94D90FA1
:10301000CE010E94D90FD6CF8091EA18823090F26B
:1030200028DAD0CF8091AE18882321F081E08093F8
:10303000B11808951092B11899E0E091B4189E9FCC
:10304000F0011124E651F74E8081811106C0809174
:10305000B41881508093B418F0CFE091B41889E08F
:10306000E89FF0011124E651F74EA181B28112963A
:103070000D90BC91A02DB283A183CF010396A81718
:10308000B90731F412968D919C91139792838183A5
:103090000180F281E02D8681978190930F198093B2
:1030A0000E190895CF93DF93EB0160910E19709183
:1030B0000F19645F7F4F0E940D1080910E1990913F
:1030C0000F1902960E944510CF3F8FEFD80761F489
:1030D00060910E1970910F196E5F7F4F88EB98E128
:1030E000DF91CF910C94EC0F8091B5189091B618A8
:1030F0008C0F9D1FDF91CF91DACC0F931F93CF934D
:10310000DF93DC011596ED91FC911697C681D7816E
:103110008E01045F1F4FC8010E9445108091AE18B8
:10312000811114C00A501109C8010E9445108E89EE
:103130009091B418981710F48093B418B9E08B9F4D
:10314000C0011124B8018651974E03C0B8018BEC21
:1031500098E10E94EC0FE0910E19F0910F199E89F1
:103160008689891720F481E08093B11801C080E03E
:10317000DF91CF911F910F9108952091B018FC011C
:1031800020832091B5183091B61832832183089599
:10319000CF93DF930FB6F8940F92E091B518F091AA
:1031A000B618DB014D915C914F3FBFEF5B07C9F053
:1031B000B091B018EC01A88129813A81BA1719F0B1
:1031C000E217F30780F4DF01A21BB30BA417B507C6
:1031D00050F42E1B3F0B240F351FFB01318320833E
:1031E000CCDF80E001C081E00F900FBEDF91CF9176
:1031F000089581E08093B11808950F931F93CF93A2
:10320000DF93EC01009709F448C08E89E0910E1914
:10321000F0910F199689891708F03FC02C853D85DC
:1032200037FD0BC0E0910E19F0910F19968924E03B
:1032300030E0291B31093D872C8729E0829FC0019E
:1032400011248651974E2A853B8528173907F9F4B2
:103250008E010E5F1F4FC8010E944510E0910E19AC
:10326000F0910F1986898E8B9091B418981710F4ED
:103270008093B41829E0829FC0011124B8018651BF
:10328000974EDF91CF911F910F910C94EC0FE0912D
:103290000E19F0910F1986898E8BDF91CF911F91B6
:1032A0000F9108950F931F93CF93DF93EC01009735
:1032B00011F480E02BC08AA181508AA32E8999A1A4
:1032C0002917B9F38111F5CF8E010E5F1F4FC80189
:1032D0000E94451089A18E8B482F50E024E030E0F9
:1032E000241B350B3D872C879091B418981710F448
:1032F0008093B41829E0249FC001259F900D1124CC
:10330000B8018651974E0E94EC0F81E0DF91CF917A
:103310001F910F91089580910E1990910F19892B8B
:1033200039F0E0910E19F0910F1982A18F5F82A3FD
:1033300080910E1990910F19089510927D1981E0D6
:1033400080937B1910927A1961E084E10E943D27F5
:1033500061E085E10E943D27E9EBF0E080818E7F0E
:10336000808380818D7F808388E48093B80085E4AA
:103370008093BC000895413208F03FC090917D19C0
:103380009111FCCF91E090937D1920937B192FEF41
:103390002093101910925519240F209354199093CB
:1033A0007C1990917C19880F892B80937C198091CE
:1033B0007A19813041F410927A1980917C198093A6
:1033C000BB0085EC01C085EE8093BC0080917D1927
:1033D0008130E1F380915519841710F4409155190B
:1033E00026E539E1FB01D9018A2F821B841718F4E5
:1033F0008D918193F9CF842F089580E008950F93E4
:10340000413208F046C090917D199111FCCF92E0B5
:1034100090937D1900937B199FEF90931019109250
:10342000551940935419FB0166E579E1DB019A2FA8
:10343000961B941718F491919D93F9CF10927C19D3
:1034400090917C19880F892B80937C1980917A192F
:10345000813041F410927A1980917C198093BB00DD
:1034600085EC01C085EE8093BC00222321F0809181
:103470007D198230E1F3809110198F3F61F08091C6
:103480001019803251F080911019803341F483E09B
:1034900007C081E005C080E003C082E001C084E095
:1034A0000F910895613298F420917D19243089F4A8
:1034B00060933219FC0184E399E1DC012A2F281B77
:1034C000261718F421912D93F9CF80E0089581E01B
:1034D000089582E0089585ED8093BC008091BC0042
:1034E00084FDFCCF10927D19089585EC8093BC007B
:1034F00010927D1908951F920F920FB60F9211240A
:103500000BB60F922F933F934F935F936F937F93DD
:103510008F939F93AF93BF93EF93FF938091B900E5
:10352000887F803609F49CC068F5883209F45BC056
:1035300090F4803109F454C038F4882309F4F3C0BE
:10354000883009F44DC0F2C0883109F44CC0803293
:1035500009F45DC0EBC0803409F468C048F48033DE
:1035600009F455C0883309F0E1C080931019A7C051
:10357000803509F44FC0883509F45DC0883409F0FE
:10358000D5C0D3C0883909F4C4C0A8F4883709F479
:1035900067C038F4883609F463C0803709F460C026
:1035A000C5C0883809F4B5C0803909F45FC08038D7
:1035B00009F0BCC05BC0803B09F483C038F4803A9A
:1035C00009F466C0883A09F47CC0B0C0803C09F4B4
:1035D000A4C0883C09F4A1C0883B09F487C0A6C0F8
:1035E00080917C1910C090915519809154199817A9
:1035F00070F5E091551981E08E0F80935519F0E038
:10360000EA5AF64E80818093BB0085EC83C080939C
:1036100010198BC0E091551981E08E0F80935519D8
:103620008091BB00F0E0EA5AF64E808390915519E4
:10363000809154196BC0E091551981E08E0F8093F1
:1036400055198091BB00F0E0EA5AF64E80838091D4
:103650007B1981116AC081E080937A1984EA5EC087
:1036600083E080937D1910921119CFCF80911119A9
:10367000803208F04EC0E091111981E08E0F8093E6
:1036800011198091BB00F0E0EE5EF64E8083BDCF55
:1036900080911119803230F4E0911119F0E0EE5E62
:1036A000F64E108218DF6091111970E0E0917619E2
:1036B000F091771982E199E119951092111915DFAE
:1036C00035C084E080937D1910923319109232191D
:1036D000E0917819F0917919199580913219811139
:1036E00005C081E08093321910923419E0913319AA
:1036F00081E08E0F80933319F0E0EC5CF64E808110
:103700008093BB009091331980913219981708F477
:103710007CCF85E88093BC0009C085EC8093BC0019
:1037200010927D1903C010921019D5DEFF91EF9110
:10373000BF91AF919F918F917F916F915F914F91C9
:103740003F912F910F900BBE0F900FBE0F901F90C7
:1037500018958091AE1990E02091AF19821B9109C4
:1037600008952091AF198091AE19281750F4E22FD7
:10377000F0E0E055F64E808190E02F5F2093AF1986
:1037800008958FEF9FEF0895E091AF198091AE19E2
:10379000E81730F4F0E0E055F64E808190E00895AF
:1037A0008FEF9FEF08950895CF92DF92EF92FF92EF
:1037B0000F931F93CF93DF937C01CB018A0120915C
:1037C0008A19222389F0EB016B01C40ED51ECC159A
:1037D000DD0561F06991D701ED91FC910190F081D7
:1037E000E02DC7011995F3CF642F5CDEC801DF918E
:1037F000CF911F910F91FF90EF90DF90CF900895A0
:10380000CF93DF931F92CDB7DEB7698320918A19DA
:103810002223D1F020918B19203240F021E030E0BA
:10382000FC013383228380E090E014C080918C19E6
:10383000E82FF0E0E357F64E998190838F5F8093F5
:103840008C1980938B1904C061E0CE0101962ADEA9
:1038500081E090E00F90DF91CF910895FC011382F9
:10386000128248EE53E060E070E044835583668343
:1038700077838BE093E09183808308951092AF1952
:103880001092AE1910928C1910928B1956CD862F6A
:10389000413208F040E260EB79E16DDD1092AF1942
:1038A0008093AE19089581E080938A196093AD19D1
:1038B00010928C1910928B1908950F93062F21E006
:1038C00040918B196DE879E18091AD1998DD1092E6
:1038D0008C1910928B1910928A190F9108958EE706
:1038E00099E1BCCF5058BB27AA270ED083C24CD237
:1038F00030F051D220F031F49F3F11F41EF41CC27D
:103900000EF4E095E7FB04C2E92F96D280F3BA17D4
:10391000620773078407950718F071F49EF5AEC22D
:103920000EF4E0950B2EBA2FA02D0B01B9019001DA
:103930000C01CA01A0011124FF27591B99F0593F1E
:1039400050F4503E68F11A16F040A22F232F342F66
:103950004427585FF3CF469537952795A795F040B4
:103960005395C9F77EF41F16BA0B620B730B840BC9
:10397000BAF09150A1F0FF0FBB1F661F771F881F81
:10398000C2F70EC0BA0F621F731F841F48F48795D9
:1039900077956795B795F7959E3F08F0B3CF9395C8
:1039A000880F08F09927EE0F979587950895ECD129
:1039B00058F080E891E009F49EEFEDD128F040E85E
:1039C00051E059F45EEF09C0B7C158C2E92FE07861
:1039D00033D268F3092E052AC1F3261737074807A3
:1039E000590738F00E2E07F8E02569F0E025E0646D
:1039F0000AC0EF6307F8009407FADB01B9019D01E3
:103A0000DC01CA01AD01EF934AD0F4D10AD05F9135
:103A1000552331F02BED3FE049E450FD49EC63CFF5
:103A20000895DF93DD27B92FBF7740E85FE31616CF
:103A3000170648075B0710F4D92F2BD29F938F935B
:103A40007F936F93D8D2E4EEF0E079D1D3D12F9168
:103A50003F914F915F9130D2DD2349F09058A2EA17
:103A60002AED3FE049EC5FE3D0785D274DDFDF9141
:103A7000C1C12AD108F481E0089595D1E395CBC165
:103A80000CD0B8C188D140F07FD130F021F45F3F35
:103A900019F03EC15111F3C14FC1CED198F3992312
:103AA000C9F35523B1F3951B550BBB27AA27621702
:103AB0007307840738F09F5F5F4F220F331F441F47
:103AC000AA1FA9F333D00E2E3AF0E0E830D091507F
:103AD0005040E695001CCAF729D0FE2F27D0660F6C
:103AE000771F881FBB1F261737074807AB07B0E8AB
:103AF00009F0BB0B802DBF01FF2793585F4F2AF0C1
:103B00009E3F510568F004C1BAC15F3FECF3983E97
:103B1000DCF3869577956795B795F7959F5FC9F71D
:103B2000880F911D9695879597F90895E1E0660FA6
:103B3000771F881FBB1F621773078407BA0720F01F
:103B4000621B730B840BBA0BEE1F88F7E095089588
:103B500004D06894B11193C1089576D188F09F572D
:103B600090F0B92F9927B751A0F0D1F0660F771FC9
:103B7000881F991F1AF0BA95C9F712C0B13081F0A9
:103B80007DD1B1E008957AC1672F782F8827B85F7B
:103B900039F0B93FCCF3869577956795B395D9F70A
:103BA0003EF490958095709561957F4F8F4F9F4F14
:103BB0000895E89409C097FB3EF490958095709520
:103BC00061957F4F8F4F9F4F9923A9F0F92F96E969
:103BD000BB279395F695879577956795B795F111DE
:103BE000F8CFFAF4BB0F11F460FF1BC06F5F7F4F7B
:103BF0008F4F9F4F16C0882311F096E911C077238D
:103C000021F09EE8872F762F05C0662371F096E895
:103C1000862F70E060E02AF09A95660F771F881F64
:103C2000DAF7880F9695879597F90895ADD018F033
:103C300011F0B1D038F480C022C1E92FFDD0B0F32B
:103C40005523C9F3E7FB6217730784079507A8F1AB
:103C500099F3E92FFF2788232AF03197660F771F02
:103C6000881FDAF7952F5527442332F091505040A2
:103C7000220F331F441FD2F7BB27E91BF50B621B32
:103C8000730B840BB109C1F222F4620F731F841FFE
:103C9000B11D31972AF0660F771F881FBB1FEFCF2A
:103CA000915050405AF041F0882332F0660F771F50
:103CB000881F91505040C1F7939530C086957795F5
:103CC00067959F5FD9F7F8CF990F0008550FAA0B9A
:103CD000E0E8FEEF16161706E807F907C0F012161F
:103CE0001306E407F50798F0621B730B840B950B22
:103CF00039F40A2661F0232B242B252B21F4089577
:103D00000A2609F4A140A6958FEF811D811D089513
:103D100097F99F6780E870E060E008959F3F31F079
:103D2000915020F4879577956795B795880F911DE9
:103D30009695879597F908959FEF80EC0895DF9306
:103D4000CF931F930F93FF92EF92DF927B018C0131
:103D5000689405C0DA2EEF01AFD0FE01E894A5917A
:103D60002591359145915591AEF3EF01CDDDFE01E1
:103D70009701A801DA9479F7DF90EF90FF900F9107
:103D80001F91CF91DF91089500240A94161617060B
:103D900018060906089500240A941216130614063C
:103DA00005060895C9CF50D0E8F3E894E0E0BB27BA
:103DB0009F57F0F02AED3FE049EC06C0EE0FBB0F35
:103DC000661F771F881F28F0B23A620773078407BF
:103DD00028F0B25A620B730B840BE3959A9572F735
:103DE000803830F49A95BB0F661F771F881FD2F773
:103DF000904896CF092E0394000C11F4882352F0BA
:103E0000BB0F40F4BF2B11F460FF04C06F5F7F4F06
:103E10008F4F9F4F0895EF93E0FF06C0A2EA2AED6F
:103E20003FE049EC5FEB70DDE5DF0F90039401FCB0
:103E30009058E1E1F1E0E9C057FD9058440F551F5B
:103E400059F05F3F71F04795880F97FB991F61F01C
:103E50009F3F79F087950895121613061406551F93
:103E6000F2CF4695F1DF08C0161617061806991FFF
:103E7000F1CF86957105610508940895E894BB27F4
:103E800066277727CB0197F908951EDF08F48FEF97
:103E900008959B01AC0160E070E080E89FE3F0CD05
:103EA0000BD0A8CF71DF28F076DF18F0952309F04A
:103EB0002FCF42CF1124E3CFBFDFA0F3959FD1F3E3
:103EC000950F50E0551F629FF001729FBB27F00DC8
:103ED000B11D639FAA27F00DB11DAA1F649F66271D
:103EE000B00DA11D661F829F2227B00DA11D621F6C
:103EF000739FB00DA11D621F839FA00D611D221F26
:103F0000749F3327A00D611D231F849F600D211D09
:103F1000822F762F6A2F11249F5750408AF0E1F0AC
:103F200088234AF0EE0FFF1FBB1F661F771F881FF5
:103F300091505040A9F79E3F510570F0E9CE9FCFB8
:103F40005F3FECF3983EDCF3869577956795B795E0
:103F5000F795E7959F5FC1F7FE2B880F911D96950A
:103F6000879597F908959F931EDF0F9007FCEE5FEA
:103F700052CF11F40EF4E0CED1CE66DFD0F3992308
:103F8000D9F3CEF39F57550B87FF38D00024A0E616
:103F900040EA900180585695979528F4805C660F0A
:103FA000771F881F20F026173707480730F4621B59
:103FB000730B840B202931294A2BA695179407945B
:103FC000202531254A2758F7660F771F881F20F0D4
:103FD00026173707480730F4620B730B840B200D4C
:103FE000311D411DA09581F7B901842F9158880F8B
:103FF0009695879508959B01AC0152CF9150504002
:10400000660F771F881FD2F708959F938F937F9332
:104010006F93FF93EF939B01AC0142DFEF91FF9110
:104020008EDE2F913F914F915F913ACFFC01248515
:104030003585F901E05CFF4F8081918132962081C6
:104040003181821B930B8F7399270895FC0184851E
:104050009585FC01E05CFF4F4081518132962081C3
:1040600031814217530741F020813181FC01E20F79
:10407000F31F808190E008958FEF9FEF0895FC017A
:1040800084859585FC01E05CFF4F4081518132962B
:10409000208131814217530781F020813181DC0179
:1040A000A20FB31F8C91208131812F5F3F4F2F735F
:1040B00033273183208390E008958FEF9FEF089599
:1040C000FC0181A1882329F0A489B5898C9186FF00
:1040D000FBCF11A208951F93CF93DF93EC018E8540
:1040E0009F85FC01E05CFF4F0190F081E02D31964F
:1040F000EF73FF271E2F7F2FDC01AE5BBF4F212FF9
:10410000372F4D915C911197E417F507C1F3FC012E
:10411000E05CFF4F40815181FC01E40FF51F60839B
:10412000EE85FF85E05CFF4F31832083EE89FF89B8
:10413000408121E030E0C9010F8C02C0880F991F37
:104140000A94E2F7842B808381E089A3EC89FD89BE
:1041500080818064808381E090E0DF91CF911F9126
:1041600008951F920F920FB60F9211240BB60F9263
:104170002F933F934F938F939F93AF93BF93EF935F
:10418000FF938091C00082FD1AC04091C6008091CB
:10419000741C9091751C01968F7399272091761C41
:1041A0003091771C8217930761F0E4E7FCE1A0816E
:1041B000B181AC5CB34E4C939183808302C08091FB
:1041C000C600FF91EF91BF91AF919F918F914F9159
:1041D0003F912F910F900BBE0F900FBE0F901F902D
:1041E00018951F920F920FB60F9211240BB60F92D3
:1041F0002F933F934F938F939F93AF93BF93EF93DF
:10420000FF938091C80082FD1AC04091CE0080913A
:10421000EC1B9091ED1B01968F7399272091EE1B5B
:104220003091EF1B8217930761F0ECEEFBE1A08168
:10423000B181A455B44E4C939183808302C0809188
:10424000CE00FF91EF91BF91AF919F918F914F91D0
:104250003F912F910F900BBE0F900FBE0F901F90AC
:1042600018951F920F920FB60F9211240BB60F9252
:104270002F933F934F938F939F93AF93BF93EF935E
:10428000FF938091D00082FD1AC04091D6008091AA
:10429000641B9091651B01968F7399272091661B73
:1042A0003091671B8217930761F0E4E6FBE1A08180
:1042B000B181AC5DB44E4C939183808302C08091F8
:1042C000D600FF91EF91BF91AF919F918F914F9148
:1042D0003F912F910F900BBE0F900FBE0F901F902C
:1042E00018951F920F920FB60F9211240BB60F92D2
:1042F0002F933F934F938F939F93AF93BF93EF93DE
:10430000FF938091300182FD1AC040913601809167
:10431000DC1A9091DD1A01968F7399272091DE1A8D
:104320003091DF1A8217930761F0ECEDFAE1A0817A
:10433000B181A456B54E4C939183808302C0809185
:104340003601FF91EF91BF91AF919F918F914F9166
:104350003F912F910F900BBE0F900FBE0F901F90AB
:1043600018951F920F920FB60F9211240BB60F9251
:104370002F933F938F939F93AF93BF93EF93FF93AD
:104380002091301C3091311C8091321C9091331C53
:104390002817390731F4E1ECF0E080818F7D8083CC
:1043A00010C0E2E3FCE1A081B181A051B44E2C9198
:1043B0008081918101968F739927918380832093C7
:1043C000C600FF91EF91BF91AF919F918F913F9167
:1043D0002F910F900BBE0F900FBE0F901F9018954E
:1043E0001F920F920FB60F9211240BB60F922F93BC
:1043F0003F938F939F93AF93BF93EF93FF9320913E
:10440000A81B3091A91B8091AA1B9091AB1B281768
:10441000390731F4E9ECF0E080818F7D808310C0B2
:10442000EAEAFBE1A081B181A859B44E2C918081C8
:10443000918101968F739927918380832093CE0079
:10444000FF91EF91BF91AF919F918F913F912F91EC
:104450000F900BBE0F900FBE0F901F9018951F92DC
:104460000F920FB60F9211240BB60F922F933F931A
:104470008F939F93AF93BF93EF93FF932091201B54
:104480003091211B8091221B9091231B2817390703
:1044900031F4E1EDF0E080818F7D808310C0E2E2B5
:1044A000FBE1A081B181A052B54E2C918081918118
:1044B00001968F739927918380832093D600FF9173
:1044C000EF91BF91AF919F918F913F912F910F905D
:1044D0000BBE0F900FBE0F901F9018951F920F925A
:1044E0000FB60F9211240BB60F922F933F938F9319
:1044F0009F93AF93BF93EF93FF932091981A3091BE
:10450000991A80919A1A90919B1A2817390731F4B9
:10451000E1E3F1E080818F7D808310C0EAE9FAE178
:10452000A081B181A85AB54E2C91808191810196CC
:104530008F7399279183808320933601FF91EF91A8
:10454000BF91AF919F918F913F912F910F900BBE93
:104550000F900FBE0F901F9018958F929F92AF9261
:10456000BF92CF92DF92EF92FF920F931F93CF9360
:10457000DF93CDB7DEB7FC011382128288EE93E0A1
:10458000A0E0B0E084839583A683B7838BE193E0BA
:10459000918380837587648757874687318B208B0B
:1045A000138B028BF58AE48AD78AC68AB18EA08ED5
:1045B000938E828E8889848F8989858F8A89868F58
:1045C0008B89878F8C8980A3DF91CF911F910F9169
:1045D000FF90EF90DF90CF90BF90AF909F908F9023
:1045E0000895CF92DF92EF92FF92CF93DF93EC0189
:1045F0006A017B01411581EE58076105710501F1E2
:10460000EC89FD8981E090E008A002C0880F991F25
:104610000A94E2F7808360E079E08DE390E0A701FF
:1046200096016FD4BA01A90141505109610971097C
:104630007695679557954795411580E15807A0F005
:10464000EC89FD89108260E874E88EE190E0A701B2
:10465000960157D4BA01A901415051096109710964
:104660007695679557954795E889F9895083EA8942
:10467000FB89408319A2EE89FF89408181E090E0A7
:104680009C010C8C02C0220F331F0A94E2F7242BEA
:104690002083EE89FF8940819C010D8C02C0220F8E
:1046A000331F0A94E2F7242B2083EE89FF8940818F
:1046B0009C010E8C02C0220F331F0A94E2F7242BB8
:1046C0002083EE89FF8920810F8C02C0880F991FFB
:1046D0000A94E2F7809582238083DF91CF91FF9047
:1046E000EF90DF90CF9008955F926F927F928F92BC
:1046F0009F92AF92BF92CF92DF92EF92FF920F9371
:104700001F93CF93DF93552453945F920F2EF5E0C0
:104710006F2EF02D6F920F2EF7E07F2EF02D7F92EF
:10472000D3E0DF93C4E0CF930F2EF6EC8F2E912CC5
:10473000F02D0F2EF2ECAF2EB12CF02D0F2EF1EC50
:10474000CF2ED12CF02D0F2EF0ECEF2EF12CF02DE2
:1047500004EC10E025EC30E040EF5BE164E37CE149
:1047600086E39AE1FADE5F926F927F92DF93CF93B6
:104770000F2EFEEC8F2E912CF02D0F2EFAECAF2E7B
:10478000B12CF02D0F2EF9ECCF2ED12CF02D0F2EB9
:10479000F8ECEF2EF12CF02D0CEC10E02DEC30E0CD
:1047A00048E65BE16CEA7BE184E19AE1D6DE5F9268
:1047B0006F927F92DF93CF930F2EF6ED8F2E912C79
:1047C000F02D0F2EF2EDAF2EB12CF02D0F2EF1EDBE
:1047D000CF2ED12CF02D0F2EF0EDEF2EF12CF02D51
:1047E00004ED10E025ED30E040EE5AE164E27BE1BB
:1047F00082EF99E1B2DE5F926F927F92DF93CF9367
:104800000F2EF6E38F2E99249394F02D0F2EF2E3C2
:10481000AF2EBB24B394F02D0F2EF1E3CF2EDD2469
:10482000D394F02D0F2EF0E3EF2EFF24F394F02D10
:1048300004E311E025E331E048E55AE16CE97AE16F
:1048400080ED99E18ADE8DB79EB744960FB6F89455
:104850009EBF0FBE8DBFDF91CF911F910F91FF9033
:10486000EF90DF90CF90BF90AF909F908F907F9010
:104870006F905F900895CF92DF92EF92FF920F9327
:104880001F93CF93DF936C0141155105B1F0062FB3
:10489000172FEA01E12CF12CD8016D918D01D60181
:1048A000ED91FC910190F081E02DC6011995E80E83
:1048B000F91E2197209781F702C0E12CF12CC70146
:1048C000DF91CF911F910F91FF90EF90DF90CF90EC
:1048D0000895EF92FF920F931F93CF93DF937C0184
:1048E000EB012196FB016491662389F000E010E062
:1048F000F701A081B181ED91FC91C7011995080FD5
:10490000191FFE0164912196662319F0F1CF00E092
:1049100010E0C801DF91CF911F910F91FF90EF90B0
:1049200008956115710581F0FB0101900020E9F700
:104930003197AF01461B570BDC01ED91FC910280D2
:10494000F381E02D1995089580E090E00895DC0151
:10495000ED91FC910190F081E02D199508950F9350
:104960001F93CF93DF93EC016DE0F1DF8C016AE0E0
:10497000CE01EDDF800F911FDF91CF911F910F913D
:1049800008950F931F93CF93DF93EC01A2DF8C0167
:10499000CE01E5DF800F911FDF91CF911F910F9125
:1049A00008950F931F93CF93DF93EC01BADF8C012F
:1049B000CE01D5DF800F911FDF91CF911F910F9115
:1049C00008950F931F93CF93DF93EC01C0DF8C0109
:1049D000CE01C5DF800F911FDF91CF911F910F9105
:1049E00008956F927F928F929F92AF92BF92CF92D3
:1049F000DF92EF92FF920F931F93CF93DF93CDB788
:104A0000DEB7A1970FB6F894DEBF0FBECDBF6C0125
:104A1000742E352F862F972F622E19A221E026158E
:104A200020F00F2EFAE06F2EF02D7E01A1E2EA0EAB
:104A3000F11C862C912CA12CB12C672D732FA50174
:104A400094015FD2E22F732F022F132F242F352FC3
:104A5000F72D6E9EF0191124B1E0EB1AF108FA302F
:104A600010F4F05D01C0F95CD701FC93012B022B1F
:104A7000032B29F07E2E372F842F952FDECFE114C4
:104A8000F10491F0F70101900020E9F73197AF01AF
:104A90004E195F09D601ED91FC910280F381E02D62
:104AA000B701C601199502C080E090E0A1960FB64B
:104AB000F894DEBF0FBECDBFDF91CF911F910F9154
:104AC000FF90EF90DF90CF90BF90AF909F908F902E
:104AD0007F906F9008952115310549F4DC01ED9127
:104AE000FC910190F081E02D642F1995089579CF04
:104AF00008950F931F93CF93DF93EC019A01462FF4
:104B000050E060E070E0E7DF8C01CE0128DF800F2D
:104B1000911FDF91CF911F910F9108951F920F92D6
:104B20000FB60F9211242F933F938F939F93AF93C0
:104B3000BF938091791C90917A1CA0917B1CB091BD
:104B40007C1C3091781C23E0230F2D3720F4019634
:104B5000A11DB11D05C026E8230F0296A11DB11DA0
:104B60002093781C8093791C90937A1CA0937B1CD3
:104B7000B0937C1C80917D1C90917E1CA0917F1C29
:104B8000B091801C0196A11DB11D80937D1C909356
:104B90007E1CA0937F1CB093801CBF91AF919F910E
:104BA0008F913F912F910F900FBE0F901F901895EE
:104BB0002FB7F8946091791C70917A1C80917B1CBE
:104BC00090917C1C2FBF08953FB7F89480917D1C75
:104BD00090917E1CA0917F1CB091801C26B5A89B53
:104BE00005C02F3F19F00196A11DB11D3FBFBA2F7F
:104BF000A92F982F8827820F911DA11DB11DBC01DF
:104C0000CD01660F771F881F991F660F771F881FBA
:104C1000991F0895CF92DF92EF92FF92CF93DF9387
:104C20006B017C01D1DFEB01C114D104E104F1047B
:104C300091F0CADF6C1B7D0B683E734038F081E059
:104C4000C81AD108E108F108C851DC4FC114D104D9
:104C5000E104F10471F7DF91CF91FF90EF90DF90C5
:104C6000CF9008950197009739F0880F991F880F0A
:104C7000991F02970197F1F70895789484B582609F
:104C800084BD84B5816084BD85B5826085BD85B5F0
:104C9000816085BDEEE6F0E0808181608083E1E89F
:104CA000F0E01082808182608083808181608083D7
:104CB000E0E8F0E0808181608083E1EBF0E08081DA
:104CC00084608083E0EBF0E0808181608083E1E9B3
:104CD000F0E0808182608083808181608083E0E970
:104CE000F0E0808181608083E1EAF0E08081826091
:104CF0008083808181608083E0EAF0E08081816050
:104D00008083E1E2F1E08081826080838081816044
:104D10008083E0E2F1E0808181608083EAE7F0E077
:104D200080818460808380818260808380818160D3
:104D300080838081806880831092C100089590E014
:104D4000FC013197E131F10508F058C0E856FF4FFA
:104D5000FAC0E0E8F0E080818F7780830895E0E892
:104D6000F0E080818F7D8083089584B58F7784BD46
:104D7000089584B58F7D84BD0895E0EBF0E08081D7
:104D80008F7780830895E0EBF0E080818F7D8083D2
:104D90000895E0E9F0E080818F7780830895E0E96D
:104DA000F0E080818F7D80830895E0E9F0E08081EC
:104DB000877F80830895E0EAF0E080818F778083A9
:104DC0000895E0EAF0E080818F7D80830895E0EA35
:104DD000F0E08081877F80830895E0E2F1E08081C8
:104DE0008F7780830895E0E2F1E080818F7D80837A
:104DF0000895E0E2F1E08081877F80830895CF937A
:104E0000DF9390E0FC01E052FE4F2491FC01EA5D4B
:104E1000FD4F8491882371F190E0880F991FFC0168
:104E2000E056FD4FA591B4918A579D4FFC01C59165
:104E3000D49161110BC08FB7F8949C912095922367
:104E40009C93E8812E2328838FBF14C0623061F4C5
:104E50008FB7F8943C91922F909593239C93E8817F
:104E60002E2B28838FBF06C08FB7F894EC912E2B82
:104E70002C938FBFDF91CF9108951F93CF93DF9332
:104E8000C62F282F30E0F901E656FE4F8491F90134
:104E9000E052FE4F1491F901EA5DFD4FD491DD23FC
:104EA000C1F081114CDF2D2F30E0F901EE0FFF1F13
:104EB000EA57FD4FA591B4918FB7F894C11105C081
:104EC000EC9110951E231C9303C0EC911E2B1C9398
:104ED0008FBFDF91CF911F910895AA1BBB1B51E19A
:104EE00007C0AA1FBB1FA617B70710F0A61BB70B5A
:104EF000881F991F5A95A9F780959095BC01CD01FF
:104F00000895A1E21A2EAA1BBB1BFD010DC0AA1F0A
:104F1000BB1FEE1FFF1FA217B307E407F50720F022
:104F2000A21BB30BE40BF50B661F771F881F991F9D
:104F30001A9469F760957095809590959B01AC01E6
:104F4000BD01CF010895EE0FFF1F0590F491E02DF4
:104F500019940790F691E02D1994EF920F931F93F7
:104F6000CF93DF93E80147FF02C034E101C034E092
:104F7000E42FFF27E7FDF095F7FF03C0F195E195DA
:104F8000F109E32E022F2E2FAE0151D0CE01DF9179
:104F9000CF911F910F91EF900895FB01DC0102C0AA
:104FA00001900D9241505040D8F70895FB01DC016B
:104FB0000D900020E9F7119701900D920020E1F784
:104FC0000895FB01DC0101900D920020E1F70895A6
:104FD000BB272A3051F4992342F4BDE29095809585
:104FE000709561957F4F8F4F9F4F01C0BB27FA018E
:104FF000A62F6217710581059105330B30FB66F012
:10500000AA27660F771F881F991FAA1FA21710F0E3
:10501000A21B63953850A9F7A05DAA3308F0A95DDB
:10502000A19336F7B111B1931082CA0155C26F92A4
:105030007F929F92AF92BF92CF92DF92EF92FF92B8
:105040000F931F93CF93DF93CDB7DEB729970FB69A
:10505000F894DEBF0FBECDBF6A01B22E102F0C3305
:1050600020F4FF24F394F00E02C04CE3F42E0F2D35
:1050700027E0AE014F5F5F4F57D17981272F29700D
:10508000213031F0E1FC06C0E0FC06C060E005C064
:105090006DE203C06BE201C060E2AE2DA07173FF50
:1050A00036C0662311F084E001C083E08B1510F454
:1050B000B81A01C0B12CA1110BC0F6018B2D90E2E2
:1050C000882319F091938150FBCFCB0CD11CB12CCC
:1050D000662331F0F601608396012F5F3F4F69012F
:1050E000C6010396E2FE05C02EE4F601208331E4FA
:1050F00004C02EE6F601208331E631832283FC01D1
:105100002B2D30E22223F1F131932150FBCF72FF9E
:1051100040C0662311F084E001C083E08B1510F4D9
:10512000B81A01C0B12CA1110BC0F6018B2D90E271
:10513000882319F091938150FBCFCB0CD11CB12C5B
:10514000662331F0F601608396012F5F3F4F6901BE
:10515000C6010396E2FE07C029E4F60120832EE48F
:10516000218326E406C029E6F60120832EE621836A
:1051700026E62283FC012B2D30E2222319F0319305
:105180002150FBCFFC01EB0DF11D10828EEF9FEF44
:10519000B7C0B1E0611101C0B0E04B2F50E018166C
:1051A000190624F49C012F5F3F4F02C021E030E03C
:1051B000240F351F112329F0412F50E04F5F5F4F1F
:1051C00002C040E050E0420F531F2B2D30E0421749
:1051D000530714F4B41A01C0B12C2E2D287159F4C0
:1051E000F6012B2D30E2222319F031932150FBCF11
:1051F000CB0CD11CB12CBB2331F0F601608396019E
:105200002F5F3F4F6901A1110BC0F6012B2D30E339
:10521000222319F031932150FBCFCB0CD11CB12CA0
:10522000F80E0A81372F3071A32E74FF03C00133AB
:1052300009F4FA941F142CF42F2D293018F028E0CB
:1052400001C021E0682F392F97FF02C060E030E0F5
:10525000462F532F612C712C3EE2932EBC01621B12
:1052600071099B01DC01A41BB50BE1E0F0E0EC0F40
:10527000FD1FAE0FBF1FE12EF12CF194E194F10858
:105280004F3FFFEF5F0731F4F6019082B6016F5F89
:105290007F4F6B01841795074CF02417350734F4C2
:1052A000BD01660D771DFB01118101C010E3415066
:1052B0005109FFEF6F1A7F0AB6016F5F7F4F4E15DE
:1052C0005F0524F0F60110836B01DACF4817590708
:1052D00039F4063320F4053319F4A11001C011E3A9
:1052E000F6011083FB018B2D90E2882319F0919336
:1052F0008150FBCFFB01EB0DF11D108280E090E0AF
:1053000029960FB6F894DEBF0FBECDBFDF91CF91C7
:105310001F910F91FF90EF90DF90CF90BF90AF90D3
:105320009F907F906F900895283008F027E03327F2
:10533000DA01990F311D87FD9160009661057105B5
:1053400039F432602E5F3D9330E32A95E1F70895FA
:105350009F3F30F080387105610509F03C5F3C5F8C
:105360003D93913008F08068911DDF93CF931F9398
:105370000F93FF92EF92192F987F9695E92F9695AC
:105380009695E90FFF27EC5EFC4F99273327EE2413
:10539000FF24A701E70105900894079428F4360F2D
:1053A000E71EF81E491F511D660F771F881F991FA2
:1053B0000694A1F70590079428F4E70EF81E491FFC
:1053C000561FC11D770F881F991F661F0694A1F7EE
:1053D0000590079428F4F80E491F561FC71FD11DCA
:1053E000880F991F661F771F0694A1F705900794F1
:1053F00020F4490F561FC71FD81F990F661F771F2C
:10540000881F0694A9F784911095177041F0D695DE
:10541000C79557954795F794E7941A95C1F7EAEB26
:10542000F2E06894159015913591659195910590EC
:105430007FE27395E118F10A430B560BC90BD009B3
:10544000C0F7E10CF11E431F561FC91FD01D7EF48B
:10545000703311F48A95E6CFE894015030F0080FCC
:105460000AF40027021708F4202F2395022F7A331D
:1054700028F079E37D932A95E9F710C07D932A956A
:1054800089F6069497956795379517951794E118BF
:10549000F10A430B560BC90BD00998F023957E9166
:1054A00073957A3308F070E37C932013B8F77E91FC
:1054B00070617D9330F0839571E37D9370E32A955D
:1054C000E1F71124EF90FF900F911F91CF91DF91A1
:1054D000992787FD90950895DC01FC01672F719154
:1054E0007723E1F7329704C07C916D9370836291CA
:0C54F000AE17BF07C8F30895F894FFCF73
:1054FC000000811C20000000404100009EC2000002
:10550C0080C009000800FFFF313A205461736B2002
:10551C004C6F6F70005475726E2031206F66660090
:10552C005475726E2032206F6666002A2A205461F0
:10553C00736B2031204572726F723A20636F756CF9
:10554C0064206E6F742074616B652073656D61707F
:10555C00686F7265202A2A00494D55205461736B7F
:10556C000028616363656C65726F6D65746572525A
:10557C00656164696E67203D20282078203D2000FD
:10558C002C2079203D20002C207A203D2000292041
:10559C00636F6D7061737352656164696E67203DF2
:1055AC0020002C2063757272656E7454696D6520D1
:1055BC003D200029002A2A205461736B203220459B
:1055CC0072726F723A20636F756C64206E6F742008
:1055DC0074616B652073656D6170686F7265202AEC
:1055EC002A00556C747261536F6E69637300494D78
:1055FC00550049444C450000000000001CD41BA978
:10560C001BB11BC41BD31B000000006B203B2416DA
:08561C00203F20262060200041
:00000001FF
