S01400004672656552544F53323536302E7372656379
S113000015C1000043C1000041C100003FC1000010
S11300103DC100003BC1000039C1000037C10000F0
S113002035C1000033C1000031C100002FC1000000
S11300302DC1000071C5000029C1000027C10000C6
S113004025C1000023C1000021C100001FC1000020
S113005002C700001BC1000019C100000C949215D6
S113006015C100000C940C110C940C120FC100006B
S11300700DC100000BC1000009C1000007C1000050
S113008005C1000003C1000001C10000FFC0000061
S11300900C944C110C944B12F9C000000C94760E85
S11300A0F5C00000F3C00000F1C00000EFC0000084
S11300B0EDC00000EBC00000E9C00000E7C0000094
S11300C0E5C00000E3C00000E1C000000C948C1106
S11300D00C948A12DBC000000C94CC110C94C9124D
S11300E0D5C000009116951685168B16DA1699164A
S11300F09F16A516AB16B116B716BD16C316DA169B
S1130100C916CF16D5160000090A02080B0C0D07F4
S113011006030401000000000000000000000000CD
S113012000000000000000000000000000000000CB
S1130130000011100F00000000000000000000008B
S11301400000000000000000000000000102102078
S113015020080810204010204080020102010804F9
S1130160020101020408102040808040201008048D
S113017002018004020180402010080402010804E6
S1130180020101020408102040800102040810202A
S11301904080050505050705080808080202020253
S11301A00A0A08080404040401010101010101010F
S11301B00303030303030303040707070C0C0C0CDA
S11301C00C0C0C0C020202020606060606060606C3
S11301D00B0B0B0B0B0B0B0B00002000230026005A
S11301E029002C002F003200000100000301060149
S11301F0090100002200250028002B002E003100F8
S1130200340002010000050108010B010000210077
S1130210240027002A002D003000330001010000D3
S1130220040107010A011A026E10CF1311241FBE24
S1130230CFEFD1E2DEBFCDBF00E00CBF12E0A0E003
S1130240B2E0ECEAFEE200E00BBF02C007900D92C0
S1130250AC3EB107D9F72AE1ACEEB2E001C01D9281
S1130260AA3FB207E1F712E0CCE2D2E000E006C018
S113027022970109FE010BBF0E944717C632D1071E
S113028080E00807A9F790D00C945417B9CEC9E3BD
S1130290D0E020E049E150E060E070E08091EC02C1
S11302A09091ED0238D7813051F580E093E006D487
S11302B08C016AE072E08FEA98E10E94C414C801DC
S11302C0BE010E940B174AE050E08FEA98E10E94B9
S11302D08C1563E172E08FEA98E10E94F41420E047
S11302E040E050E060E070E08091EC029091ED021B
S11302F05DD6EFD488EE93E00E94BD0BCACF66E1D1
S113030072E08FEA98E10E94F414FFCFC9E3D0E0D1
S113031020E049E150E060E070E08091EC029091CF
S1130320ED02F9D6813051F58EEE92E0C7D38C01FF
S113033063E472E08FEA98E10E94C414C801BE012C
S11303400E940B174AE050E08FEA98E10E948C1556
S113035063E172E08FEA98E10E94F41420E040E047
S113036050E060E070E08091EC029091ED021ED6C6
S1130370B0D488EE93E00E94BD0BCACF6CE472E067
S11303808FEA98E10E94F414FFCF87EF97E10E946F
S1130390391040E052EC61E070E08FEA98E10E948D
S11303A04C1382E193E0B4C2AF92BF92CF92DF923A
S11303B0EF92FF920F93CF93DF9300D01F92CDB7AC
S11303C0DEB70E941916E1DF81E07DD69093ED023D
S11303D08093EC02A12CB12CC12CD12CCE0103961C
S11303E07C0101E020E030E040E058E06CEA72E09B
S11303F087E491E089D7CE0101967C0102E020E0F8
S113040030E040E058E069EB72E086E891E07CD7A8
S11304100E94700A80E090E00F900F900F900F9070
S1130420DF91CF910F91FF90EF90DF90CF90BF902D
S1130430AF90089582E193E043D228EC30E04BE0A2
S11304406CE080E093E074D228EC30E047E06AE0AE
S11304508EEE92E06DC2CF93DF93EC010E94A00A6E
S11304608091210390912203892B31F486E293E059
S1130470909322038093210320912303309124033A
S1130480CE01820F931F8F3F43E1940770F4281726
S1130490390758F4C0912103D0912203C20FD31F0E
S11304A0909324038093230302C0C0E0D0E00E9411
S11304B0520BCE01DF91CF9108950895EF92FF92F0
S11304C00F931F93CF93DF931F921F92CDB7DEB785
S11304D0062F142F682F87EF97E129833A830E9410
S11304E05010602F87EF97E10E94FB0F2981022FA4
S11304F0E22E3A81F32E8E2D801B811740F4F701F2
S113050061917F0187EF97E10E94FB0FF4CF87EFA2
S113051097E10E946C1081E00F900F90DF91CF91D2
S11305201F910F91FF90EF900895CF93DF931F9247
S1130530CDB7DEB749839E012F5F3F4F41E0BEDF59
S11305400F90DF91CF9108953F924F925F926F92F7
S11305507F928F929F92AF92BF92CF92DF92EF924F
S1130560FF920F931F93CF93DF9300D000D0CDB7AA
S1130570DEB7682E562E742E3A8329830E94DC152A
S11305806B017C01312C412C872D90E09C838B8363
S11305904801A12CB12C3714B0F5662D87EF97E1F3
S11305A00E945010652D87EF97E10E94FB0F87EFA3
S11305B097E10E946C10662D87EF97E10E9450101E
S11305C04B815C81431951094132510514F040E2D9
S11305D050E0662D87EF97E10E944E1087EF97E178
S11305E00E94A40F892B59F10115110599F10E945C
S11305F0DC156C197D098E099F09681579058A0532
S11306009B0540F11CC001151105A9F10E94DC15E0
S11306106C197D098E099F0920E030E0601771078D
S11306208207930740F1872D90E0242D332727FD7F
S1130630309528173907FCF444244A941CC087EFEA
S113064097E10E946C10872D90E2971508F480E2E0
S1130650380EA1CFE981FA81E40DF11D47FCFA952A
S1130660FE83ED8387EF97E10E94AC0FED81FE815D
S113067080834394B3CF842D26960FB6F894DEBFBF
S11306800FBECDBFDF91CF911F910F91FF90EF90DF
S1130690DF90CF90BF90AF909F908F907F906F909E
S11306A05F904F903F9008950F931F9389019A0193
S11306B041E04ADF1F910F910895EF92FF920F934B
S11306C01F93CF93DF931F92CDB7DEB7182F062F5A
S11306D0F42EE22E2091060230910702AE014F5F04
S11306E05F4FE2DF898121E030E00F2C01C0220F4F
S11306F00A94EAF7EE2019F0482F422B03C0422F48
S1130700409548234983602F812F0FDF0F90DF919D
S1130710CF911F910F91FF90EF900895DF92EF9288
S1130720FF920F931F93CF93DF931F92CDB7DEB742
S1130730F82EE62ED42E122F2091060230910702B5
S1130740AE014F5F5F4FB0DF882311F14D2D50E0B4
S1130750411B51094F5F5F4FE1E0F0E002C0EE0F33
S1130760FF1F1A95E2F73197042E01C0EE0F0A9489
S1130770EAF701C0000F4A95EAF74E2F40958981A8
S11307804823E0234E2B49836E2D8F2DCEDE01C0EE
S113079080E00F90DF91CF911F910F91FF90EF9028
S11307A0DF900895FC010396928381832FEF3FEF3E
S11307B03483238396838583908787831082089567
S11307C0FC01118610860895CF93DF939C01FB01F1
S11307D0DC011196CD91DC911297D383C2838C8175
S11307E09D81958384838C819D81DC0113967C9308
S11307F06E9312977D836C8331872087F901808102
S11308008F5F8083DF91CF9108950F931F93CF93D0
S1130810DF938C01FB01208131812F3F8FEF38075B
S113082021F4E801AF81B8850EC0D8011396129661
S11308308D919C911397EC014881598124173507B8
S113084010F0DC01F4CF12968D919C911397938351
S11308508283EC01FD83EC83B583A4831396FC931C
S1130860EE93129711870087F80180818F5F808350
S1130870DF91CF911F910F910895CF93DF93FC01E6
S1130880A085B1858281938124813581EC013D83EA
S11308902C83C481D5819B838A8311968D919C91ED
S11308A012978E179F0721F41296DC93CE9311971B
S11308B0118610868C9181508C93DF91CF9108958D
S11308C028E6FC01208308950F93062F22E044E0DC
S11308D06BE1FC01808122DF0F9108950F93062FB5
S11308E022E044E06CE1FC01808118DF0F9108955F
S11308F0262F46E06BE6FC018081DFCE0F93062FA6
S113090023E042E06BE6FC01808108DF0F9108954B
S1130910CF93DF93EC0161E0F1DF60E0CE01D4DF3F
S113092060E0CE01DBDF60E0CE01DF91CF91E0CF6C
S1130930CF93DF93DC0170E0FB01E45BFE4FE491B5
S11309401496EC931497842F90E0FC01E45BFE4F23
S1130950E4911596EC9315976E567E4FFB01C49166
S1130960D0E0CC0FDD1FCE50DE4FFE0145915491F7
S113097017965C934E931697FC01EE56FE4F8491A6
S113098090E0880F991F88529E4FFC014591549125
S11309901B965C934E931A97FB016491E62FF0E04B
S11309A0EE0FFF1FE45FFD4F8591949119969C9380
S11309B08E931897C901253FF1E03F0714F084EFA7
S11309C091E049E3489F9001499F300D1124245E32
S11309D03F4F1D963C932E931C97DF91CF91089522
S11309E00F931F93CF93DF93EC01E885F985808102
S11309F09C81892B8083EE81FF8190818C818095FD
S1130A008923808384E090E00E940E16EE81FF81AA
S1130A1080819C81892B80838AE090E00E940E165D
S1130A20EE81FF8190818C81809589238083E88584
S1130A30F98590818C818095892380830E94E815B3
S1130A40605B794B8F4F9F4F6E877F87888B998B25
S1130A50EA85FB8580819D81892359F00E94E815F0
S1130A600E851F852889398906171707280739072E
S1130A7078F7EA85FB8580819D81892369F40E944A
S1130A80E8150E851F852889398906171707280751
S1130A90390778F780E00DC00E94E8152C853D8564
S1130AA0620F731F811D911D6E877F87888B998BC1
S1130AB081E0DF91CF911F910F9108950F931F93C0
S1130AC0CF93DF93EC018CDF882389F0EA85FB85E3
S1130AD080819D81892371F00E94E8150E851F8510
S1130AE028893989061717072807390778F720E076
S1130AF030E00CC00E94E8152C853D852550310955
S1130B004E855F85241B350B260F371FC901DF91E6
S1130B10CF911F910F9108951F920F920FB60F92CC
S1130B2011240BB60F922F933F934F935F936F93C0
S1130B307F938F939F93AF93BF93EF93FF93E09132
S1130B402517F0912617309709F01995FF91EF9129
S1130B50BF91AF919F918F917F916F915F914F91D1
S1130B603F912F910F900BBE0F900FBE0F901F90CF
S1130B70189531E1FC013083319722E220833197CB
S1130B80A3E3A083319760833197708331971082F8
S1130B9031971082319760E86083319710823197E2
S1130BA0108231971082319762E06083319763E05D
S1130BB06083319764E06083319765E060833197A7
S1130BC066E06083319767E06083319768E0608313
S1130BD0319769E06083319760E1608331973083B6
S1130BE0319732E13083319733E13083319734E107
S1130BF03083319735E13083319736E13083319753
S1130C0037E13083319738E13083319739E13083EC
S1130C10319730E23083319731E23083319720834A
S1130C20319723E220833197408331975083319762
S1130C3026E22083319727E22083319728E220831C
S1130C40319729E22083319720E32083319721E3F0
S1130C502083899708951092800081E18093810018
S1130C6080E49FE1909387008093860081E08093E5
S1130C706F00A0918717B0918817CD91CDBFDD91FA
S1130C80DEBFFF91EF91DF91CF91BF91AF919F9123
S1130C908F917F916F915F914F913F912F911F9110
S1130CA00F91FF90EF90DF90CF90BF90AF909F9007
S1130CB08F907F906F905F904F903F902F901F90F8
S1130CC00F900CBE0F900BBE0F900FBE0F900895A7
S1130CD008950F920FB6F8940F920CB60F920BB6BC
S1130CE00F921F9211242F923F924F925F926F9214
S1130CF07F928F929F92AF92BF92CF92DF92EF92A8
S1130D00FF920F931F932F933F934F935F936F9390
S1130D107F938F939F93AF93BF93CF93DF93EF937F
S1130D20FF93A0918717B09188170DB60D920EB658
S1130D300D9273D5A0918717B0918817CD91CDBF2F
S1130D40DD91DEBFFF91EF91DF91CF91BF91AF9124
S1130D509F918F917F916F915F914F913F912F91CF
S1130D601F910F91FF90EF90DF90CF90BF90AF90C5
S1130D709F908F907F906F905F904F903F902F90B7
S1130D801F900F900CBE0F900BBE0F900FBE0F90D4
S1130D9008950F920FB6F8940F920CB60F920BB6FB
S1130DA00F921F9211242F923F924F925F926F9253
S1130DB07F928F929F92AF92BF92CF92DF92EF92E7
S1130DC0FF920F931F932F933F934F935F936F93D0
S1130DD07F938F939F93AF93BF93CF93DF93EF93BF
S1130DE0FF93A0918717B09188170DB60D920EB698
S1130DF00D92ACD3811111D5A0918717B0918817AA
S1130E00CD91CDBFDD91DEBFFF91EF91DF91CF9109
S1130E10BF91AF919F918F917F916F915F914F910E
S1130E203F912F911F910F91FF90EF90DF90CF9002
S1130E30BF90AF909F908F907F906F905F904F90F6
S1130E403F902F901F900F900CBE0F900BBE0F90F1
S1130E500FBE0F9008959DDF18951F93CF93DF93D6
S1130E60EC01142F4C8D41110BC088819981892B81
S1130E7009F040C08A819B8110D61B821A823BC034
S1130E8050E0111115C08C819D810E944B172C8D4F
S1130E908C819D81820F911D9D838C832A813B814E
S1130EA08217930738F1888199819D838C8322C0AE
S1130EB08E819F810E944B172C8D30E031952195B6
S1130EC031098E819F81820F931F9F838E83688156
S1130ED079818617970730F48A819B81820F931F4B
S1130EE09F838E83123031F48A8D882319F08A8D82
S1130EF081508A8F80E09A8D9F5F9A8FDF91CF9186
S1130F001F910895FC01CB01448D4423A1F050E0CE
S1130F1026813781240F351F3783268362817381AD
S1130F202617370720F02081318137832683668195
S1130F3077810C944B1708950F931F93CF93DF93EE
S1130F40EC010FB6F8940F928C010F5E1F4F8E8D3B
S1130F5018165CF48989882341F0C801C9D4811129
S1130F6043D58E8D81508E8FF2CF8FEF8E8F0F9061
S1130F700FBE0FB6F8940F928E01085F1F4F8D8D30
S1130F8018165CF48885882341F0C801B1D4811116
S1130F902BD58D8D81508D8FF2CF8FEF8D8F0F904C
S1130FA00FBEDF91CF911F910F910895BF92CF9201
S1130FB0DF92EF92FF920F931F93CF93DF9300D0B2
S1130FC01F921F92CDB7DEB78C016B015D834C83FA
S1130FD0B22E20E07C0188E0E80EF11C0FB6F894F4
S1130FE00F92F801928D838D981718F0F2E0BF12DA
S1130FF015C04B2DB601C80130DFF8019189992342
S113100039F0C801419674D4813021F462DE02C003
S11310108111FCCF0F900FBE81E046C08C819D8171
S1131020892B19F40F900FBE3EC0211103C0CE01CD
S113103001969ED40F900FBE83D20FB6F8940F92F0
S1131040F801858D8F3F09F4158EF801868D8F3F49
S113105009F4168E0F900FBEBE016C5F7F4FCE0158
S1131060019691D481111CC00FB6F8940F92F80127
S1131070928D0F900FBEF801838D98130DC06C8173
S11310807D81C7010AD4C80157DF0CD3882311F02E
S113109021E0A4CF1EDEFCCFC8014EDF03D3F8CF7E
S11310A0C8014ADFFFD280E00F900F900F900F909D
S11310B00F90DF91CF911F910F91FF90EF90DF90F0
S11310C0CF90BF900895CF93DF938FE190E0C3D981
S11310D0EC010097E1F01B821A82198218821D82AA
S11310E01C821F821E821A8E81E08B8F1C8E8FEFD2
S11310F08D8F8E8FCE01089655DBCE01419652DB43
S113110020E040E050E060E070E0CE014FDFCE012F
S1131110DF91CF910895BF92CF92DF92EF92FF9229
S11311200F931F93CF93DF9300D01F921F92CDB7DD
S1131130DEB78C016B015D834C83B22E30E07C0101
S113114081E1E80EF11C0FB6F8940F92F801828D3C
S1131150882361F1E680F780B601C801D3DEF80187
S1131160B11016C0828D8150828F80819181892B2C
S113117021F4CCD4F80193838283F80180858823F9
S113118089F0C8010896B4D3813061F4A2DD0AC0A5
S1131190F782E6828189882329F0C8014196A8D381
S11311A08111F4CF0F900FBE81E052C08C819D81DC
S11311B0892B19F40F900FBE4AC0311103C0CE0120
S11311C00196D6D30F900FBEBBD10FB6F8940F92F1
S11311D0F801858D8F3F09F4158EF801868D8F3FB8
S11311E009F4168E0F900FBEBE016C5F7F4FCE01C7
S11311F00196C9D3811128C00FB6F8940F92F80153
S1131200828D0F900FBE81111BC0F80180819181E6
S1131210892B49F40FB6F8940F92F80182819381D7
S1131220E7D30F900FBE6C817D81C70136D3C8010F
S113123083DE38D2882311F031E085CF4ADDFCCF3C
S1131240C8017ADE2FD2F8CFC80176DE2BD280E037
S11312500F900F900F900F900F90DF91CF911F91EF
S11312600F91FF90EF90DF90CF90BF900895E091A1
S11312704F17F09150178081811103C08FEF9FEFBA
S11312800CC0E0914F17F09150170580F681E02DC6
S11312900680F781E02D82819381909309028093E7
S11312A008020895CF93DF93EC01E0918717F09142
S11312B088179383828380912E1790912F176091C2
S11312C0871770918817C817D90748F480914D176C
S11312D090914E176E5F7F4FDF91CF9196CA8091A8
S11312E04F17909150176E5F7F4F8FDA80910802ED
S11312F090910902C817D90720F4D0930902C0932A
S11313000802DF91CF9108955F926F927F928F923E
S11313109F92AF92BF92CF92DF92EF92FF920F9380
S11313201F93CF93DF934C01162F572E5A01390187
S113133083E290E090D8EC01009709F4C0C0C11496
S1131340D10419F4C50187D801C0C601988F8F8BC9
S1131350009719F4CE01B1D8B2C021E0A21AB108A5
S1131360A80EB91EE12FF52D80E090E0BF01419158
S11313709E01280F391FD90159964C93DB012C91FA
S1131380222321F001968830910581F718A2102FAD
S1131390043008F013E01E8B19A31AA26E01B2E008
S11313A0CB0ED11CC6010CDACE010C9609DAD98712
S11313B0C88784E090E0811B91099D878C87DB8B33
S11313C0CA8BA301B401C501D4DB99838883E114DA
S11313D0F10419F0F701D183C0830FB6F8940F928A
S11313E0809130178F5F8093301780918717909189
S11313F08817892B89F5D0938817C0938717809114
S11314003017813009F037C083E697E1CBD98CE6F9
S113141097E1C8D985E797E1C5D98EE797E1C2D9A5
S11314208AE597E1BFD981E597E1BCD984E497E1E6
S1131430B9D98BE397E1B6D981E397E1B3D98AE5CA
S113144097E19093501780934F1781E597E190931C
S11314504E1780934D170FC080912C1781110BC02C
S1131460E0918717F09188178689081720F0D093A8
S11314708817C0938717809128178F5F8093281748
S11314808E8990912D17981710F480932D17F9E0F9
S11314908F9FC0011124B6018D59984E95D90F9094
S11314A00FBE80912C17882341F0E0918717F091AB
S11314B088178689801708F40CDC81E001C08FEF5F
S11314C0DF91CF911F910F91FF90EF90DF90CF901C
S11314D0BF90AF909F908F907F906F905F90089592
S11314E0AF92BF92CF92DF92EF92FF920F93A12C13
S11314F0B12CC12CD12CE12CF12C00E020E030E007
S113150045E550E066EC72E08DED9BE0FDDE813058
S113151079F4F89480932C1710922F1710922E17A9
S11315200F91FF90EF90DF90CF90BF90AF9093CB4F
S11315300F91FF90EF90DF90CF90BF90AF90089500
S1131540809127178F5F809327170895CF92DF929A
S1131550EF92FF920F931F93CF93DF9380912717FE
S113156081118AC080912E1790912F170196909324
S11315702F1780932E1700912E1710912F170115F6
S11315801105B1F480914F179091501720914D1788
S113159030914E173093501720934F1790934E1756
S11315A080934D17809129178F5F809329175FDEF1
S11315B08091080290910902D12C0817190708F4A8
S11315C04AC089E0C82EE0914F17F09150178081EE
S11315D0811107C08FEF9FEF909309028093080257
S11315E03AC0E0914F17F09150170580F681E02D35
S11315F0C681D7812A813B810217130728F43093CF
S113160009022093080227C07E0182E0E80EF11C43
S1131610C70133D92C893D89232B19F0CE010C96AF
S11316202CD92E8980912D17821710F420932D1711
S1131630C29EC0011124B7018D59984EC5D8E091BE
S11316408717F09188179E898689981708F4BBCF6D
S1131650DD24D394B8CFE0918717F0918817E689F9
S113166089E0E89FF0011124ED59F84E8081823021
S113167048F0DD24D39406C080912B178F5F8093AC
S11316802B17D12C80912A17882311F0DD24D394B1
S11316908D2DDF91CF911F910F91FF90EF90DF90EF
S11316A0CF900895EF92FF920F931F93CF93DF9300
S11316B00FB6F8940F9280912717815080932717C3
S11316C080912717882311F080E04EC08091301755
S11316D08823D1F399E0F92EEE24E3948091441702
S11316E0882339F1E0914917F0914A17C681D781CF
S11316F0CE010C96C2D88E010E5F1F4FC801BDD813
S11317008E8990912D17981710F480932D17F89EB9
S1131710C0011124B8018D59984E56D8E09187170D
S1131720F09188179E8986899817C0F2E0922A174B
S1131730D5CF80912B17811108C080912A17813051
S113174009F0C2CFC6DA81E00FC0C1E080912B1747
S1131750882399F3FBDE8111C0932A1780912B17FC
S1131760815080932B17F2CF0F900FBEDF91CF9152
S11317701F910F91FF90EF9008950F931F93CF93B4
S1131780DF938C01009711F4A4DA12C0D9DEC09162
S11317902E17D0912F17C00FD11F809187179091CA
S11317A0881702966AD8CE017DDD7CDF882361F339
S11317B0DF91CF911F910F91089580913A1788235B
S11317C031F1BEDEC0913B176DDFCC23B1F30FB610
S11317D0F8940F92E0914017F0914117C681D78198
S11317E0CE0102964AD880913017815080933017E9
S11317F080913A17815080933A170F900FBE8F89CA
S1131800988D0E945D02CE010E945D02D6CF809128
S11318106317823090F25DDAD0CF80912717882346
S113182021F081E080932A17089510922A1799E0F5
S1131830E0912D179E9FF0011124ED59F84E8081FF
S1131840811106C080912D17815080932D17F0CF00
S1131850E0912D1789E0E89FF0011124ED59F84E2D
S1131860A181B28112960D90BC91A02DB283A18367
S1131870CF010396A817B90731F412968D919C9164
S11318801397928381830180F281E02D8681978171
S113189090938817809387170895CF93DF93EB0174
S11318A06091871770918817645F7F4F0E940504C9
S11318B0809187179091881702960E943D04CF3F2C
S11318C08FEFD80761F460918717709188176E5F66
S11318D07F4F81E397E1DF91CF910C94E4038091F2
S11318E02E1790912F178C0F9D1FDF91CF91DACC7B
S11318F00F931F93CF93DF93DC011596ED91FC9129
S11319001697C681D7818E01045F1F4FC8010E94BC
S11319103D0480912717811114C00A501109C80190
S11319200E943D048E8990912D17981710F480938E
S11319302D17B9E08B9FC0011124B8018D59984E21
S113194003C0B80184E497E10E94E403E09187179F
S1131950F09188179E898689891720F481E0809305
S11319602A1701C080E0DF91CF911F910F91089554
S113197020912917FC01208320912E1730912F17D5
S1131980328321830895CF93DF930FB6F8940F9297
S1131990E0912E17F0912F17DB014D915C914F3F91
S11319A0BFEF5B07C9F0B0912917EC01A881298129
S11319B03A81BA1719F0E217F30780F4DF01A21B8A
S11319C0B30BA417B50750F42E1B3F0B240F351F80
S11319D0FB0131832083CCDF80E001C081E00F90E4
S11319E00FBEDF91CF91089581E080932A17089567
S11319F00F931F93CF93DF93EC01009709F448C032
S1131A008E89E0918717F09188179689891708F0D5
S1131A103FC02C853D8537FD0BC0E0918717F091C1
S1131A208817968924E030E0291B31093D872C87EB
S1131A3029E0829FC00111248D59984E2A853B8547
S1131A4028173907F9F48E010E5F1F4FC8010E9451
S1131A503D04E0918717F091881786898E8B9091C9
S1131A602D17981710F480932D1729E0829FC00139
S1131A701124B8018D59984EDF91CF911F910F9188
S1131A800C94E403E0918717F091881786898E8B74
S1131A90DF91CF911F910F9108950F931F93CF93CF
S1131AA0DF93EC01009711F480E02BC08AA18150F0
S1131AB08AA32E8999A12917B9F38111F5CF8E0133
S1131AC00E5F1F4FC8010E943D0489A18E8B482FD1
S1131AD050E024E030E0241B350B3D872C879091A7
S1131AE02D17981710F480932D1729E0249FC00117
S1131AF0259F900D1124B8018D59984E0E94E4033E
S1131B0081E0DF91CF911F910F9108958091871704
S1131B1090918817892B39F0E0918717F0918817F5
S1131B2082A18F5F82A3809187179091881708956F
S1131B301092F61781E08093F4171092F31761E086
S1131B4084E10E94DB1661E085E10E94DB16E9EB8B
S1131B50F0E080818E7F808380818D7F808388E424
S1131B608093B80085E48093BC000895413208F066
S1131B703FC09091F6179111FCCF91E09093F61726
S1131B802093F4172FEF209389171092CE17240F68
S1131B902093CD179093F5179091F517880F892B03
S1131BA08093F5178091F317813041F41092F31765
S1131BB08091F5178093BB0085EC01C085EE80937E
S1131BC0BC008091F6178130E1F38091CE17841721
S1131BD010F44091CE172FEC37E1FB01D9018A2F85
S1131BE0821B841718F48D918193F9CF842F089563
S1131BF080E008950F93413208F046C09091F617A3
S1131C009111FCCF92E09093F6170093F4179FEF95
S1131C10909389171092CE174093CD17FB016FEC68
S1131C2077E1DB019A2F961B941718F491919D93F9
S1131C30F9CF1092F5179091F517880F892B80939F
S1131C40F5178091F317813041F41092F3178091C6
S1131C50F5178093BB0085EC01C085EE8093BC0032
S1131C60222321F08091F6178230E1F380918917C5
S1131C708F3F61F080918917803251F080918917EC
S1131C80803341F483E007C081E005C080E003C0F5
S1131C9082E001C084E00F910895613298F42091AC
S1131CA0F617243089F46093AB17FC018DEA97E1B1
S1131CB0DC012A2F281B261718F421912D93F9CF24
S1131CC080E0089581E0089582E0089585ED809391
S1131CD0BC008091BC0084FDFCCF1092F6170895DF
S1131CE085EC8093BC001092F61708951F920F9212
S1131CF00FB60F9211240BB60F922F933F934F936D
S1131D005F936F937F938F939F93AF93BF93EF935F
S1131D10FF938091B900887F803609F49CC068F5F0
S1131D20883209F45BC090F4803109F454C038F46B
S1131D30882309F4F3C0883009F44DC0F2C0883117
S1131D4009F44CC0803209F45DC0EBC0803409F45E
S1131D5068C048F4803309F455C0883309F0E1C001
S1131D6080938917A7C0803509F44FC0883509F4DA
S1131D705DC0883409F0D5C0D3C0883909F4C4C023
S1131D80A8F4883709F467C038F4883609F463C0C6
S1131D90803709F460C0C5C0883809F4B5C08039FB
S1131DA009F45FC0803809F0BCC05BC0803B09F413
S1131DB083C038F4803A09F466C0883A09F47CC0D8
S1131DC0B0C0803C09F4A4C0883C09F4A1C0883B9D
S1131DD009F487C0A6C08091F51710C09091CE1762
S1131DE08091CD17981770F5E091CE1781E08E0F92
S1131DF08093CE17F0E0E153F84E80818093BB00CE
S1131E0085EC83C0809389178BC0E091CE1781E065
S1131E108E0F8093CE178091BB00F0E0E153F84E13
S1131E2080839091CE178091CD176BC0E091CE172F
S1131E3081E08E0F8093CE178091BB00F0E0E153D8
S1131E40F84E80838091F41781116AC081E08093F9
S1131E50F31784EA5EC083E08093F61710928A1722
S1131E60CFCF80918A17803208F04EC0E0918A1754
S1131E7081E08E0F80938A178091BB00F0E0E557D4
S1131E80F84E8083BDCF80918A17803230F4E09180
S1131E908A17F0E0E557F84E108218DF60918A1730
S1131EA070E0E091EF17F091F0178BE897E1199546
S1131EB010928A1715DF35C084E08093F6171092CC
S1131EC0AC171092AB17E091F117F091F217199536
S1131ED08091AB17811105C081E08093AB171092FC
S1131EE0AD17E091AC1781E08E0F8093AC17F0E052
S1131EF0E355F84E80818093BB009091AC1780919C
S1131F00AB17981708F47CCF85E88093BC0009C010
S1131F1085EC8093BC001092F61703C010928917C9
S1131F20D5DEFF91EF91BF91AF919F918F917F91FA
S1131F306F915F914F913F912F910F900BBE0F9036
S1131F400FBE0F901F9018958091271890E0209154
S1131F502818821B91090895209128188091271828
S1131F60281750F4E22FF0E0E75DF74E808190E00F
S1131F702F5F2093281808958FEF9FEF0895E09125
S1131F80281880912718E81730F4F0E0E75DF74E41
S1131F90808190E008958FEF9FEF08950895CF9288
S1131FA0DF92EF92FF920F931F93CF93DF937C0105
S1131FB0CB018A0120910318222389F0EB016B01E4
S1131FC0C40ED51ECC15DD0561F06991D701ED91E4
S1131FD0FC910190F081E02DC7011995F3CF642F96
S1131FE05CDEC801DF91CF911F910F91FF90EF90BC
S1131FF0DF90CF900895CF93DF931F92CDB7DEB7D4
S11320006983209103182223D1F0209104182032EF
S113201040F021E030E0FC013383228380E090E053
S113202014C080910518E82FF0E0EA5FF74E99811B
S113203090838F5F809305188093041804C061E037
S1132040CE0101962ADE81E090E00F90DF91CF91DE
S11320500895FC011382128248EE53E060E070E0C0
S113206044835583668377838FEC92E091838083E6
S1132070089510922818109227181092051810929B
S1132080041856CD862F413208F040E269E278E127
S11320906DDD1092281880932718089521E0F2CF5F
S11320A081E080930318609326181092051810920B
S11320B0041808950F93062F21E04091041866E058
S11320C078E18091261896DD109205181092041874
S11320D0109203180F91089561E0ECCF87EF97E118
S11320E0B8CFFC0124853585F901E05CFF4F808180
S11320F09181329620813181821B930B8F739927B2
S11321000895FC0184859585FC01E05CFF4F4081C6
S113211051813296208131814217530741F0208149
S11321203181FC01E20FF31F808190E008958FEF6D
S11321309FEF0895FC0184859585FC01E05CFF4FC9
S1132140408151813296208131814217530781F0B9
S113215020813181DC01A20FB31F8C912081318158
S11321602F5F3F4F2F7333273183208390E00895EF
S11321708FEF9FEF0895FC0181A1882329F0A489A2
S1132180B5898C9186FFFBCF11A208951F93CF933D
S1132190DF93EC018E859F85FC01E05CFF4F01908D
S11321A0F081E02D3196EF73FF271E2F7F2FDC0186
S11321B0AE5BBF4F212F372F4D915C911197E417E0
S11321C0F507C1F3FC01E05CFF4F40815181FC0144
S11321D0E40FF51F6083EE85FF85E05CFF4F3183DC
S11321E02083EE89FF89408121E030E0C9010F8C12
S11321F002C0880F991F0A94E2F7842B808381E040
S113220089A3EC89FD8980818064808381E090E0EA
S1132210DF91CF911F9108951F920F920FB60F92E5
S113222011240BB60F922F933F934F938F939F9349
S1132230AF93BF93EF93FF938091C00082FD1AC0C8
S11322404091C6008091ED1A9091EE1A01968F7319
S113225099272091EF1A3091F01A8217930761F0B1
S1132260EDEEFAE1A081B181A355B54E4C93918373
S1132270808302C08091C600FF91EF91BF91AF911E
S11322809F918F914F913F912F910F900BBE0F9083
S11322900FBE0F901F9018951F920F920FB60F92BA
S11322A011240BB60F922F933F934F938F939F93C9
S11322B0AF93BF93EF93FF938091C80082FD1AC040
S11322C04091CE008091651A9091661A01968F73A1
S11322D099272091671A3091681A8217930761F041
S11322E0E5E6FAE1A081B181AB5DB54E4C939183F3
S11322F0808302C08091CE00FF91EF91BF91AF9196
S11323009F918F914F913F912F910F900BBE0F9002
S11323100FBE0F901F9018951F920F920FB60F9239
S113232011240BB60F922F933F934F938F939F9348
S1132330AF93BF93EF93FF938091D00082FD1AC0B7
S11323404091D6008091DD199091DE1901968F732A
S113235099272091DF193091E0198217930761F0D2
S1132360EDEDF9E1A081B181A356B64E4C93918372
S1132370808302C08091D600FF91EF91BF91AF910D
S11323809F918F914F913F912F910F900BBE0F9082
S11323900FBE0F901F9018951F920F920FB60F92B9
S11323A011240BB60F922F933F934F938F939F93C8
S11323B0AF93BF93EF93FF938091300182FD1AC0D6
S11323C040913601809155199091561901968F7359
S11323D0992720915719309158198217930761F062
S11323E0E5E5F9E1A081B181AB5EB64E4C939183F2
S11323F0808302C080913601FF91EF91BF91AF912C
S11324009F918F914F913F912F910F900BBE0F9001
S11324100FBE0F901F9018951F920F920FB60F9238
S113242011240BB60F922F933F938F939F93AF93E7
S1132430BF93EF93FF932091A91A3091AA1A809128
S1132440AB1A9091AC1A2817390731F4E1ECF0E09B
S113245080818F7D808310C0EBEAFAE1A081B18195
S1132460A759B54E2C918081918101968F7399273C
S1132470918380832093C600FF91EF91BF91AF9128
S11324809F918F913F912F910F900BBE0F900FBE94
S11324900F901F9018951F920F920FB60F92112450
S11324A00BB60F922F933F938F939F93AF93BF934A
S11324B0EF93FF932091211A3091221A8091231ACD
S11324C09091241A2817390731F4E9ECF0E080815F
S11324D08F7D808310C0E3E2FAE1A081B181AF5126
S11324E0B64E2C918081918101968F7399279183A7
S11324F080832093CE00FF91EF91BF91AF919F9184
S11325008F913F912F910F900BBE0F900FBE0F90A4
S11325101F9018951F920F920FB60F9211240BB6AD
S11325200F922F933F938F939F93AF93BF93EF9308
S1132530FF932091991930919A1980919B19909148
S11325409C192817390731F4E1EDF0E080818F7D83
S1132550808310C0EBE9F9E1A081B181A75AB64E9E
S11325602C918081918101968F7399279183808327
S11325702093D600FF91EF91BF91AF919F918F91DE
S11325803F912F910F900BBE0F900FBE0F901F9095
S113259018951F920F920FB60F9211240BB60F923B
S11325A02F933F938F939F93AF93BF93EF93FF9397
S11325B020911119309112198091131990911419C5
S11325C02817390731F4E1E3F1E080818F7D8083BE
S11325D010C0E3E1F9E1A081B181AF52B74E2C9173
S11325E08081918101968F739927918380832093B1
S11325F03601FF91EF91BF91AF919F918F913F91E0
S11326002F910F900BBE0F900FBE0F901F90189537
S11326108F929F92AF92BF92CF92DF92EF92FF92EE
S11326200F931F93CF93DF93CDB7DEB7FC011382D3
S1132630128288EE93E0A0E0B0E084839583A683C1
S1132640B7838FED92E09183808375876487578782
S11326504687318B208B138B028BF58AE48AD78AC9
S1132660C68AB18EA08E938E828E8889848F898942
S1132670858F8A89868F8B89878F8C8980A3DF9148
S1132680CF911F910F91FF90EF90DF90CF90BF906B
S1132690AF909F908F900895CF92DF92EF92FF9228
S11326A0CF93DF93EC016A017B01411581EE58075A
S11326B06105710501F1EC89FD8981E090E008A0D4
S11326C002C0880F991F0A94E2F7808360E079E0E2
S11326D08DE390E0A7019601B2D3BA01A90141505C
S11326E05109610971097695679557954795411583
S11326F080E15807A0F0EC89FD89108260E874E855
S11327008EE190E0A70196019AD3BA01A901415044
S11327105109610971097695679557954795E88937
S1132720F9895083EA89FB89408319A2EE89FF89DC
S1132730408181E090E09C010C8C02C0220F331F89
S11327400A94E2F7242B2083EE89FF8940819C01BF
S11327500D8C02C0220F331F0A94E2F7242B20832E
S1132760EE89FF8940819C010E8C02C0220F331F29
S11327700A94E2F7242B2083EE89FF8920810F8CB1
S113278002C0880F991F0A94E2F780958223808300
S1132790DF91CF91FF90EF90DF90CF9008955F92FB
S11327A06F927F928F929F92AF92BF92CF92DF925D
S11327B0EF92FF920F931F93CF93DF93552453947B
S11327C05F920F2EF5E06F2EF02D6F920F2EF7E033
S11327D07F2EF02D7F92D3E0DF93C4E0CF930F2EB2
S11327E0F6EC8F2E912CF02D0F2EF2ECAF2EB12C97
S11327F0F02D0F2EF1ECCF2ED12CF02D0F2EF0EC6E
S1132800EF2EF12CF02D04EC10E025EC30E049E63D
S11328105AE16DEA7AE18FEA98E1FADE5F926F920B
S11328207F92DF93CF930F2EFEEC8F2E912CF02D01
S11328300F2EFAECAF2EB12CF02D0F2EF9ECCF2E7B
S1132840D12CF02D0F2EF8ECEF2EF12CF02D0CECFA
S113285010E02DEC30E041EE59E165E27AE18DE8DB
S113286098E1D6DE5F926F927F92DF93CF930F2E23
S1132870F6ED8F2E912CF02D0F2EF2EDAF2EB12C04
S1132880F02D0F2EF1EDCF2ED12CF02D0F2EF0EDDB
S1132890EF2EF12CF02D04ED10E025ED30E049E5AC
S11328A059E16DE979E18BE698E1B2DE5F926F92CE
S11328B07F92DF93CF930F2EF6E38F2E9924939478
S11328C0F02D0F2EF2E3AF2EBB24B394F02D0F2E78
S11328D0F1E3CF2EDD24D394F02D0F2EF0E3EF2E71
S11328E0FF24F394F02D04E311E025E331E041EDFE
S11328F058E165E179E189E498E18ADE8DB79EB714
S113290044960FB6F8949EBF0FBE8DBFDF91CF9152
S11329101F910F91FF90EF90DF90CF90BF90AF90F9
S11329209F908F907F906F905F900895CF92DF92E9
S1132930EF92FF920F931F93CF93DF936C01411596
S11329405105B1F0062F172FEA01E12CF12CD80123
S11329506D918D01D601ED91FC910190F081E02DF6
S1132960C6011995E80EF91E2197209781F702C038
S1132970E12CF12CC701DF91CF911F910F91FF90B2
S1132980EF90DF90CF9008956115710581F0FB0100
S113299001900020E9F73197AF01461B570BDC018A
S11329A0ED91FC910280F381E02D1995089580E06A
S11329B090E00895DC01ED91FC910190F081E02D0F
S11329C0199508950F931F93CF93DF93EC016DE056
S11329D0F1DF8C016AE0CE01EDDF800F911FDF9102
S11329E0CF911F910F9108950F931F93CF93DF936E
S11329F0EC01CADF8C01CE01E5DF800F911FDF916E
S1132A00CF911F910F9108956F927F928F929F9211
S1132A10AF92BF92CF92DF92EF92FF920F931F93E8
S1132A20CF93DF93CDB7DEB7A1970FB6F894DEBF8F
S1132A300FBECDBF6C01742E352F862F972F622EBB
S1132A4019A221E0261520F00F2EFAE06F2EF02DAA
S1132A507E01A1E2EA0EF11C862C912CA12CB12C52
S1132A60672D732FA5019401EAD1E22F732F022F52
S1132A70132F242F352FF72D6E9EF0191124B1E05A
S1132A80EB1AF108FA3010F4F05D01C0F95CD701DB
S1132A90FC93012B022B032B29F07E2E372F842F3E
S1132AA0952FDECFE114F10491F0F701019000209D
S1132AB0E9F73197AF014E195F09D601ED91FC9109
S1132AC00280F381E02DB701C601199502C080E0B0
S1132AD090E0A1960FB6F894DEBF0FBECDBFDF9194
S1132AE0CF911F910F91FF90EF90DF90CF90BF9007
S1132AF0AF909F908F907F906F900895211531052E
S1132B0049F4DC01ED91FC910190F081E02D642FFA
S1132B101995089579CF08959A01AB0160E070E0AA
S1132B20EDCF08951F920F920FB60F9211242F9399
S1132B303F938F939F93AF93BF938091F21A909199
S1132B40F31AA091F41AB091F51A3091F11A23E016
S1132B50230F2D3720F40196A11DB11D05C026E8D1
S1132B60230F0296A11DB11D2093F11A8093F21A2E
S1132B709093F31AA093F41AB093F51A8091F61A6D
S1132B809091F71AA091F81AB091F91A0196A11D23
S1132B90B11D8093F61A9093F71AA093F81AB09384
S1132BA0F91ABF91AF919F918F913F912F910F90FF
S1132BB00FBE0F901F9018952FB7F8946091F21ADA
S1132BC07091F31A8091F41A9091F51A2FBF089519
S1132BD03FB7F8948091F61A9091F71AA091F81AD9
S1132BE0B091F91A26B5A89B05C02F3F19F001969C
S1132BF0A11DB11D3FBFBA2FA92F982F8827820F7F
S1132C00911DA11DB11DBC01CD01660F771F881F49
S1132C10991F660F771F881F991F089501970097C2
S1132C2039F0880F991F880F991F02970197F1F7C0
S1132C300895789484B5826084BD84B5816084BD30
S1132C4085B5826085BD85B5816085BDEEE6F0E021
S1132C50808181608083E1E8F0E01082808182607D
S1132C608083808181608083E0E8F0E080818160FE
S1132C708083E1EBF0E0808184608083E0EBF0E02E
S1132C80808181608083E1E9F0E0808182608083DB
S1132C90808181608083E0E9F0E0808181608083CD
S1132CA0E1EAF0E0808182608083808181608083BA
S1132CB0E0EAF0E0808181608083E1E2F1E08081FC
S1132CC082608083808181608083E0E2F1E08081A2
S1132CD081608083EAE7F0E0808184608083808182
S1132CE0826080838081816080838081806880832A
S1132CF01092C100089590E0FC013197E131F10593
S1132D0008F058C0EE58FF4FBCC0E0E8F0E0808106
S1132D108F7780830895E0E8F0E080818F7D808361
S1132D20089584B58F7784BD089584B58F7D84BD5F
S1132D300895E0EBF0E080818F7780830895E0EBE5
S1132D40F0E080818F7D80830895E0E9F0E0808168
S1132D508F7780830895E0E9F0E080818F7D808320
S1132D600895E0E9F0E08081877F80830895E0EAB8
S1132D70F0E080818F7780830895E0EAF0E080813D
S1132D808F7D80830895E0EAF0E08081877F8083EF
S1132D900895E0E2F1E080818F7780830895E0E296
S1132DA0F1E080818F7D80830895E0E2F1E080810D
S1132DB0877F808308951F93CF93DF93C62F282F97
S1132DC030E0F901EA5FFE4F8491F901E45BFE4FC4
S1132DD01491F901EE56FE4FD491DD23C1F0811117
S1132DE08ADF2D2F30E0F901EE0FFF1FEE50FE4F6A
S1132DF0A591B4918FB7F894C11105C0EC911095C9
S1132E001E231C9303C0EC911E2B1C938FBFDF91D8
S1132E10CF911F910895AA1BBB1B51E107C0AA1FA4
S1132E20BB1FA617B70710F0A61BB70B881F991F67
S1132E305A95A9F780959095BC01CD010895A1E21A
S1132E401A2EAA1BBB1BFD010DC0AA1FBB1FEE1F20
S1132E50FF1FA217B307E407F50720F0A21BB30B6B
S1132E60E40BF50B661F771F881F991F1A9469F7E7
S1132E7060957095809590959B01AC01BD01CF0143
S1132E800895EE0FFF1F0590F491E02D199407901B
S1132E90F691E02D1994FB01DC0102C001900D9222
S10F2EA041505040D8F70895F894FFCF3B
S1132EAC0000FA1A2000E803FFFF50696E67203116
S1132EBC3A2000636D002A2A205461736B20312060
S1132ECC4572726F723A20636F756C64206E6F7406
S1132EDC2074616B652073656D6170686F72652019
S1132EEC2A2A0050696E6720323A20002A2A20547C
S1132EFC61736B2032204572726F723A20636F7566
S1132F0C6C64206E6F742074616B652073656D61E5
S1132F1C70686F7265202A2A00612F673A09002AAB
S1132F2C2A205461736B2033204572726F723A20DD
S1132F3C636F756C64206E6F742074616B652073A1
S1132F4C656D6170686F7265202A2A00556C747205
S1132F5C61536F6E6963203100556C747261536FE9
S1132F6C6E696320320049444C450000000000FBAC
S1132F7C0FCF0FA40FAC0FBF0FCE0F00000000C675
S10F2F8C10961471109A108110BB1000F4
S9030000FC
